{
  "address": "0xCB538225d84769a0A1da8CB88396360966f33d19",
  "abi": [
    {
      "inputs": [],
      "stateMutability": "nonpayable",
      "type": "constructor"
    },
    {
      "anonymous": false,
      "inputs": [
        {
          "indexed": true,
          "internalType": "address",
          "name": "owner",
          "type": "address"
        },
        {
          "indexed": true,
          "internalType": "address",
          "name": "spender",
          "type": "address"
        },
        {
          "indexed": false,
          "internalType": "uint256",
          "name": "value",
          "type": "uint256"
        }
      ],
      "name": "Approval",
      "type": "event"
    },
    {
      "anonymous": false,
      "inputs": [
        {
          "indexed": true,
          "internalType": "address",
          "name": "previousOwner",
          "type": "address"
        },
        {
          "indexed": true,
          "internalType": "address",
          "name": "newOwner",
          "type": "address"
        }
      ],
      "name": "OwnershipTransferred",
      "type": "event"
    },
    {
      "anonymous": false,
      "inputs": [
        {
          "indexed": true,
          "internalType": "address",
          "name": "from",
          "type": "address"
        },
        {
          "indexed": true,
          "internalType": "address",
          "name": "to",
          "type": "address"
        },
        {
          "indexed": false,
          "internalType": "uint256",
          "name": "value",
          "type": "uint256"
        }
      ],
      "name": "Transfer",
      "type": "event"
    },
    {
      "inputs": [
        {
          "internalType": "address",
          "name": "owner",
          "type": "address"
        },
        {
          "internalType": "address",
          "name": "spender",
          "type": "address"
        }
      ],
      "name": "allowance",
      "outputs": [
        {
          "internalType": "uint256",
          "name": "",
          "type": "uint256"
        }
      ],
      "stateMutability": "view",
      "type": "function"
    },
    {
      "inputs": [
        {
          "internalType": "address",
          "name": "spender",
          "type": "address"
        },
        {
          "internalType": "uint256",
          "name": "amount",
          "type": "uint256"
        }
      ],
      "name": "approve",
      "outputs": [
        {
          "internalType": "bool",
          "name": "",
          "type": "bool"
        }
      ],
      "stateMutability": "nonpayable",
      "type": "function"
    },
    {
      "inputs": [
        {
          "internalType": "address",
          "name": "account",
          "type": "address"
        }
      ],
      "name": "balanceOf",
      "outputs": [
        {
          "internalType": "uint256",
          "name": "",
          "type": "uint256"
        }
      ],
      "stateMutability": "view",
      "type": "function"
    },
    {
      "inputs": [
        {
          "internalType": "uint256",
          "name": "amount",
          "type": "uint256"
        }
      ],
      "name": "burn",
      "outputs": [],
      "stateMutability": "nonpayable",
      "type": "function"
    },
    {
      "inputs": [
        {
          "internalType": "address",
          "name": "account",
          "type": "address"
        },
        {
          "internalType": "uint256",
          "name": "amount",
          "type": "uint256"
        }
      ],
      "name": "burnFrom",
      "outputs": [],
      "stateMutability": "nonpayable",
      "type": "function"
    },
    {
      "inputs": [],
      "name": "decimals",
      "outputs": [
        {
          "internalType": "uint8",
          "name": "",
          "type": "uint8"
        }
      ],
      "stateMutability": "pure",
      "type": "function"
    },
    {
      "inputs": [
        {
          "internalType": "address",
          "name": "spender",
          "type": "address"
        },
        {
          "internalType": "uint256",
          "name": "subtractedValue",
          "type": "uint256"
        }
      ],
      "name": "decreaseAllowance",
      "outputs": [
        {
          "internalType": "bool",
          "name": "",
          "type": "bool"
        }
      ],
      "stateMutability": "nonpayable",
      "type": "function"
    },
    {
      "inputs": [
        {
          "internalType": "address",
          "name": "smartHousingAddr",
          "type": "address"
        }
      ],
      "name": "feedSmartHousing",
      "outputs": [],
      "stateMutability": "nonpayable",
      "type": "function"
    },
    {
      "inputs": [
        {
          "internalType": "address",
          "name": "spender",
          "type": "address"
        },
        {
          "internalType": "uint256",
          "name": "addedValue",
          "type": "uint256"
        }
      ],
      "name": "increaseAllowance",
      "outputs": [
        {
          "internalType": "bool",
          "name": "",
          "type": "bool"
        }
      ],
      "stateMutability": "nonpayable",
      "type": "function"
    },
    {
      "inputs": [],
      "name": "name",
      "outputs": [
        {
          "internalType": "string",
          "name": "",
          "type": "string"
        }
      ],
      "stateMutability": "view",
      "type": "function"
    },
    {
      "inputs": [],
      "name": "owner",
      "outputs": [
        {
          "internalType": "address",
          "name": "",
          "type": "address"
        }
      ],
      "stateMutability": "view",
      "type": "function"
    },
    {
      "inputs": [],
      "name": "renounceOwnership",
      "outputs": [],
      "stateMutability": "nonpayable",
      "type": "function"
    },
    {
      "inputs": [
        {
          "internalType": "string",
          "name": "name",
          "type": "string"
        },
        {
          "internalType": "string",
          "name": "symbol",
          "type": "string"
        },
        {
          "internalType": "address",
          "name": "projectFundingAddr",
          "type": "address"
        },
        {
          "internalType": "address",
          "name": "smartHousingAddress",
          "type": "address"
        },
        {
          "internalType": "address",
          "name": "fundingToken",
          "type": "address"
        },
        {
          "internalType": "uint256",
          "name": "fundingGoal",
          "type": "uint256"
        },
        {
          "internalType": "uint256",
          "name": "fundingDeadline",
          "type": "uint256"
        }
      ],
      "name": "startICO",
      "outputs": [
        {
          "internalType": "address",
          "name": "",
          "type": "address"
        }
      ],
      "stateMutability": "nonpayable",
      "type": "function"
    },
    {
      "inputs": [],
      "name": "symbol",
      "outputs": [
        {
          "internalType": "string",
          "name": "",
          "type": "string"
        }
      ],
      "stateMutability": "view",
      "type": "function"
    },
    {
      "inputs": [],
      "name": "totalSupply",
      "outputs": [
        {
          "internalType": "uint256",
          "name": "",
          "type": "uint256"
        }
      ],
      "stateMutability": "view",
      "type": "function"
    },
    {
      "inputs": [
        {
          "internalType": "address",
          "name": "to",
          "type": "address"
        },
        {
          "internalType": "uint256",
          "name": "amount",
          "type": "uint256"
        }
      ],
      "name": "transfer",
      "outputs": [
        {
          "internalType": "bool",
          "name": "",
          "type": "bool"
        }
      ],
      "stateMutability": "nonpayable",
      "type": "function"
    },
    {
      "inputs": [
        {
          "internalType": "address",
          "name": "from",
          "type": "address"
        },
        {
          "internalType": "address",
          "name": "to",
          "type": "address"
        },
        {
          "internalType": "uint256",
          "name": "amount",
          "type": "uint256"
        }
      ],
      "name": "transferFrom",
      "outputs": [
        {
          "internalType": "bool",
          "name": "",
          "type": "bool"
        }
      ],
      "stateMutability": "nonpayable",
      "type": "function"
    },
    {
      "inputs": [
        {
          "internalType": "address",
          "name": "newOwner",
          "type": "address"
        }
      ],
      "name": "transferOwnership",
      "outputs": [],
      "stateMutability": "nonpayable",
      "type": "function"
    }
  ],
  "transactionHash": "0x13617548bd078902ee31e8a50fef4344934b90704ce913267ef889187ec6fbee",
  "args": [],
  "numDeployments": 1,
  "solcInputHash": "2ab48957edcdbd6aae4057970ab478a1",
  "bytecode": "0x60806040523480156200001157600080fd5b506040518060400160405280601181526020017029b6b0b93a2437bab9b4b733aa37b5b2b760791b8152506040518060400160405280600381526020016214d21560ea1b815250620000726200006c620000c360201b60201c565b620000c7565b60046200008083826200028a565b5060056200008f82826200028a565b505050620000bd306012600a620000a791906200046b565b620000b7906301406f4062000480565b62000117565b620004b0565b3390565b600080546001600160a01b038381166001600160a01b0319831681178455604051919092169283917f8be0079c531659141344cd1fd0a4f28419497f9722a3daafe3b4186f6b6457e09190a35050565b6001600160a01b038216620001725760405162461bcd60e51b815260206004820152601f60248201527f45524332303a206d696e7420746f20746865207a65726f206164647265737300604482015260640160405180910390fd5b80600360008282546200018691906200049a565b90915550506001600160a01b0382166000818152600160209081526040808320805486019055518481527fddf252ad1be2c89b69c2b068fc378daa952ba7f163c4a11628f55a4df523b3ef910160405180910390a35050565b505050565b634e487b7160e01b600052604160045260246000fd5b600181811c908216806200020f57607f821691505b6020821081036200023057634e487b7160e01b600052602260045260246000fd5b50919050565b601f821115620001df576000816000526020600020601f850160051c81016020861015620002615750805b601f850160051c820191505b8181101562000282578281556001016200026d565b505050505050565b81516001600160401b03811115620002a657620002a6620001e4565b620002be81620002b78454620001fa565b8462000236565b602080601f831160018114620002f65760008415620002dd5750858301515b600019600386901b1c1916600185901b17855562000282565b600085815260208120601f198616915b82811015620003275788860151825594840194600190910190840162000306565b5085821015620003465787850151600019600388901b60f8161c191681555b5050505050600190811b01905550565b634e487b7160e01b600052601160045260246000fd5b600181815b80851115620003ad57816000190482111562000391576200039162000356565b808516156200039f57918102915b93841c939080029062000371565b509250929050565b600082620003c65750600162000465565b81620003d55750600062000465565b8160018114620003ee5760028114620003f95762000419565b600191505062000465565b60ff8411156200040d576200040d62000356565b50506001821b62000465565b5060208310610133831016604e8410600b84101617156200043e575081810a62000465565b6200044a83836200036c565b806000190482111562000461576200046162000356565b0290505b92915050565b6000620004798383620003b5565b9392505050565b808202811582820484141762000465576200046562000356565b8082018082111562000465576200046562000356565b61117680620004c06000396000f3fe608060405234801561001057600080fd5b50600436106101165760003560e01c8063715018a6116100a2578063a457c2d711610071578063a457c2d714610240578063a9059cbb14610253578063d1223fc914610266578063dd62ed3e14610279578063f2fde38b1461028c57600080fd5b8063715018a61461020c57806379cc6790146102145780638da5cb5b1461022757806395d89b411461023857600080fd5b8063313ce567116100e9578063313ce56714610181578063395093511461019057806342966c68146101a35780634c736047146101b857806370a08231146101e357600080fd5b806306fdde031461011b578063095ea7b31461013957806318160ddd1461015c57806323b872dd1461016e575b600080fd5b61012361029f565b6040516101309190610cb6565b60405180910390f35b61014c610147366004610ce5565b610331565b6040519015158152602001610130565b6003545b604051908152602001610130565b61014c61017c366004610d11565b61034b565b60405160128152602001610130565b61014c61019e366004610ce5565b61036f565b6101b66101b1366004610d52565b610391565b005b6101cb6101c6366004610e0e565b61039e565b6040516001600160a01b039091168152602001610130565b6101606101f1366004610ebe565b6001600160a01b031660009081526001602052604090205490565b6101b66104bc565b6101b6610222366004610ce5565b6104d0565b6000546001600160a01b03166101cb565b6101236104e9565b61014c61024e366004610ce5565b6104f8565b61014c610261366004610ce5565b610578565b6101b6610274366004610ebe565b610586565b610160610287366004610edb565b6106af565b6101b661029a366004610ebe565b6106da565b6060600480546102ae90610f14565b80601f01602080910402602001604051908101604052809291908181526020018280546102da90610f14565b80156103275780601f106102fc57610100808354040283529160200191610327565b820191906000526020600020905b81548152906001019060200180831161030a57829003601f168201915b5050505050905090565b60003361033f818585610750565b60019150505b92915050565b600033610359858285610875565b6103648585856108ef565b506001949350505050565b60003361033f81858561038283836106af565b61038c9190610f64565b610750565b61039b3382610a9a565b50565b60006103a8610bc6565b60006104236103b96012600a61105b565b6103c69062d04850611067565b6103d7906607fd10d7c82f0b610f64565b6103e36012600a61105b565b6103f1906301406f40611067565b6103fb919061107e565b6040805180820182526000808252602091820152815180830190925230825281019190915290565b905061043430888360200151610750565b604051630fe744bb60e31b81526001600160a01b03881690637f3a25d89061046c9084908d908d908c908c908c908c90600401611091565b6020604051808303816000875af115801561048b573d6000803e3d6000fd5b505050506040513d601f19601f820116820180604052508101906104af9190611103565b9998505050505050505050565b6104c4610bc6565b6104ce6000610c20565b565b6104db823383610875565b6104e58282610a9a565b5050565b6060600580546102ae90610f14565b6000338161050682866106af565b90508381101561056b5760405162461bcd60e51b815260206004820152602560248201527f45524332303a2064656372656173656420616c6c6f77616e63652062656c6f77604482015264207a65726f60d81b60648201526084015b60405180910390fd5b6103648286868403610750565b60003361033f8185856108ef565b61058e610bc6565b600061059c6012600a61105b565b6105a99062d04850611067565b6105ba906607fd10d7c82f0b610f64565b306000908152600160205260409020549091508111156106115760405162461bcd60e51b8152602060048201526012602482015271105b1c9958591e48191a5cdc185d18da195960721b6044820152606401610562565b600061063f826040805180820182526000808252602091820152815180830190925230825281019190915290565b905061064c308484610750565b604051632fd2b55f60e01b81526001600160a01b03841690632fd2b55f90610678908490600401611120565b600060405180830381600087803b15801561069257600080fd5b505af11580156106a6573d6000803e3d6000fd5b50505050505050565b6001600160a01b03918216600090815260026020908152604080832093909416825291909152205490565b6106e2610bc6565b6001600160a01b0381166107475760405162461bcd60e51b815260206004820152602660248201527f4f776e61626c653a206e6577206f776e657220697320746865207a65726f206160448201526564647265737360d01b6064820152608401610562565b61039b81610c20565b6001600160a01b0383166107b25760405162461bcd60e51b8152602060048201526024808201527f45524332303a20617070726f76652066726f6d20746865207a65726f206164646044820152637265737360e01b6064820152608401610562565b6001600160a01b0382166108135760405162461bcd60e51b815260206004820152602260248201527f45524332303a20617070726f766520746f20746865207a65726f206164647265604482015261737360f01b6064820152608401610562565b6001600160a01b0383811660008181526002602090815260408083209487168084529482529182902085905590518481527f8c5be1e5ebec7d5bd14f71427d1e84f3dd0314c0f7b2291e5b200ac8c7c3b92591015b60405180910390a3505050565b600061088184846106af565b905060001981146108e957818110156108dc5760405162461bcd60e51b815260206004820152601d60248201527f45524332303a20696e73756666696369656e7420616c6c6f77616e63650000006044820152606401610562565b6108e98484848403610750565b50505050565b6001600160a01b0383166109535760405162461bcd60e51b815260206004820152602560248201527f45524332303a207472616e736665722066726f6d20746865207a65726f206164604482015264647265737360d81b6064820152608401610562565b6001600160a01b0382166109b55760405162461bcd60e51b815260206004820152602360248201527f45524332303a207472616e7366657220746f20746865207a65726f206164647260448201526265737360e81b6064820152608401610562565b6001600160a01b03831660009081526001602052604090205481811015610a2d5760405162461bcd60e51b815260206004820152602660248201527f45524332303a207472616e7366657220616d6f756e7420657863656564732062604482015265616c616e636560d01b6064820152608401610562565b6001600160a01b0380851660008181526001602052604080822086860390559286168082529083902080548601905591517fddf252ad1be2c89b69c2b068fc378daa952ba7f163c4a11628f55a4df523b3ef90610a8d9086815260200190565b60405180910390a36108e9565b6001600160a01b038216610afa5760405162461bcd60e51b815260206004820152602160248201527f45524332303a206275726e2066726f6d20746865207a65726f206164647265736044820152607360f81b6064820152608401610562565b6001600160a01b03821660009081526001602052604090205481811015610b6e5760405162461bcd60e51b815260206004820152602260248201527f45524332303a206275726e20616d6f756e7420657863656564732062616c616e604482015261636560f01b6064820152608401610562565b6001600160a01b03831660008181526001602090815260408083208686039055600380548790039055518581529192917fddf252ad1be2c89b69c2b068fc378daa952ba7f163c4a11628f55a4df523b3ef9101610868565b6000546001600160a01b031633146104ce5760405162461bcd60e51b815260206004820181905260248201527f4f776e61626c653a2063616c6c6572206973206e6f7420746865206f776e65726044820152606401610562565b600080546001600160a01b038381166001600160a01b0319831681178455604051919092169283917f8be0079c531659141344cd1fd0a4f28419497f9722a3daafe3b4186f6b6457e09190a35050565b6000815180845260005b81811015610c9657602081850181015186830182015201610c7a565b506000602082860101526020601f19601f83011685010191505092915050565b602081526000610cc96020830184610c70565b9392505050565b6001600160a01b038116811461039b57600080fd5b60008060408385031215610cf857600080fd5b8235610d0381610cd0565b946020939093013593505050565b600080600060608486031215610d2657600080fd5b8335610d3181610cd0565b92506020840135610d4181610cd0565b929592945050506040919091013590565b600060208284031215610d6457600080fd5b5035919050565b634e487b7160e01b600052604160045260246000fd5b600082601f830112610d9257600080fd5b813567ffffffffffffffff80821115610dad57610dad610d6b565b604051601f8301601f19908116603f01168101908282118183101715610dd557610dd5610d6b565b81604052838152866020858801011115610dee57600080fd5b836020870160208301376000602085830101528094505050505092915050565b600080600080600080600060e0888a031215610e2957600080fd5b873567ffffffffffffffff80821115610e4157600080fd5b610e4d8b838c01610d81565b985060208a0135915080821115610e6357600080fd5b50610e708a828b01610d81565b9650506040880135610e8181610cd0565b94506060880135610e9181610cd0565b93506080880135610ea181610cd0565b9699959850939692959460a0840135945060c09093013592915050565b600060208284031215610ed057600080fd5b8135610cc981610cd0565b60008060408385031215610eee57600080fd5b8235610ef981610cd0565b91506020830135610f0981610cd0565b809150509250929050565b600181811c90821680610f2857607f821691505b602082108103610f4857634e487b7160e01b600052602260045260246000fd5b50919050565b634e487b7160e01b600052601160045260246000fd5b8082018082111561034557610345610f4e565b600181815b80851115610fb2578160001904821115610f9857610f98610f4e565b80851615610fa557918102915b93841c9390800290610f7c565b509250929050565b600082610fc957506001610345565b81610fd657506000610345565b8160018114610fec5760028114610ff657611012565b6001915050610345565b60ff84111561100757611007610f4e565b50506001821b610345565b5060208310610133831016604e8410600b8410161715611035575081810a610345565b61103f8383610f77565b806000190482111561105357611053610f4e565b029392505050565b6000610cc98383610fba565b808202811582820484141761034557610345610f4e565b8181038181111561034557610345610f4e565b87516001600160a01b031681526020808901519082015260006101008060408401526110bf8184018a610c70565b905082810360608401526110d38189610c70565b6001600160a01b0397881660808501529590961660a08301525060c081019290925260e090910152949350505050565b60006020828403121561111557600080fd5b8151610cc981610cd0565b81516001600160a01b03168152602080830151908201526040810161034556fea2646970667358221220990005781dae7ae930a1012ec67afdc42073440ee1728088180cb86834369bd064736f6c63430008180033",
  "devdoc": {
    "details": "This contract is used to start the ICO for housing projects.",
    "events": {
      "Approval(address,address,uint256)": {
        "details": "Emitted when the allowance of a `spender` for an `owner` is set by a call to {approve}. `value` is the new allowance."
      },
      "Transfer(address,address,uint256)": {
        "details": "Emitted when `value` tokens are moved from one account (`from`) to another (`to`). Note that `value` may be zero."
      }
    },
    "kind": "dev",
    "methods": {
      "allowance(address,address)": {
        "details": "See {IERC20-allowance}."
      },
      "approve(address,uint256)": {
        "details": "See {IERC20-approve}. NOTE: If `amount` is the maximum `uint256`, the allowance is not updated on `transferFrom`. This is semantically equivalent to an infinite approval. Requirements: - `spender` cannot be the zero address."
      },
      "balanceOf(address)": {
        "details": "See {IERC20-balanceOf}."
      },
      "burn(uint256)": {
        "details": "Destroys `amount` tokens from the caller. See {ERC20-_burn}."
      },
      "burnFrom(address,uint256)": {
        "details": "Destroys `amount` tokens from `account`, deducting from the caller's allowance. See {ERC20-_burn} and {ERC20-allowance}. Requirements: - the caller must have allowance for ``accounts``'s tokens of at least `amount`."
      },
      "decimals()": {
        "details": "Returns the number of decimals used to get its user representation. For example, if `decimals` equals `2`, a balance of `505` tokens should be displayed to a user as `5.05` (`505 / 10 ** 2`). Tokens usually opt for a value of 18, imitating the relationship between Ether and Wei. This is the value {ERC20} uses, unless this function is overridden; NOTE: This information is only used for _display_ purposes: it in no way affects any of the arithmetic of the contract, including {IERC20-balanceOf} and {IERC20-transfer}."
      },
      "decreaseAllowance(address,uint256)": {
        "details": "Atomically decreases the allowance granted to `spender` by the caller. This is an alternative to {approve} that can be used as a mitigation for problems described in {IERC20-approve}. Emits an {Approval} event indicating the updated allowance. Requirements: - `spender` cannot be the zero address. - `spender` must have allowance for the caller of at least `subtractedValue`."
      },
      "feedSmartHousing(address)": {
        "details": "Dispatches ecosystem funds if not already dispatched to SmartHousing contract.",
        "params": {
          "smartHousingAddr": "The address of the SmartHousing contract."
        }
      },
      "increaseAllowance(address,uint256)": {
        "details": "Atomically increases the allowance granted to `spender` by the caller. This is an alternative to {approve} that can be used as a mitigation for problems described in {IERC20-approve}. Emits an {Approval} event indicating the updated allowance. Requirements: - `spender` cannot be the zero address."
      },
      "name()": {
        "details": "Returns the name of the token."
      },
      "owner()": {
        "details": "Returns the address of the current owner."
      },
      "renounceOwnership()": {
        "details": "Leaves the contract without owner. It will not be possible to call `onlyOwner` functions anymore. Can only be called by the current owner. NOTE: Renouncing ownership will leave the contract without an owner, thereby removing any functionality that is only available to the owner."
      },
      "startICO(string,string,address,address,address,uint256,uint256)": {
        "details": "Starts the ICO by initializing the first housing project.",
        "params": {
          "fundingDeadline": "The deadline for the project funding.",
          "fundingGoal": "The funding goal for the new project.",
          "fundingToken": "Address of the funding token (ERC20).",
          "projectFundingAddr": "Address of the ProjectFunding contract.",
          "smartHousingAddress": "Address of the SmartHousing contract."
        }
      },
      "symbol()": {
        "details": "Returns the symbol of the token, usually a shorter version of the name."
      },
      "totalSupply()": {
        "details": "See {IERC20-totalSupply}."
      },
      "transfer(address,uint256)": {
        "details": "See {IERC20-transfer}. Requirements: - `to` cannot be the zero address. - the caller must have a balance of at least `amount`."
      },
      "transferFrom(address,address,uint256)": {
        "details": "See {IERC20-transferFrom}. Emits an {Approval} event indicating the updated allowance. This is not required by the EIP. See the note at the beginning of {ERC20}. NOTE: Does not update the allowance if the current allowance is the maximum `uint256`. Requirements: - `from` and `to` cannot be the zero address. - `from` must have a balance of at least `amount`. - the caller must have allowance for ``from``'s tokens of at least `amount`."
      },
      "transferOwnership(address)": {
        "details": "Transfers ownership of the contract to a new account (`newOwner`). Can only be called by the current owner."
      }
    },
    "title": "Coinbase",
    "version": 1
  },
  "userdoc": {
    "kind": "user",
    "methods": {},
    "version": 1
  },
  "storageLayout": {
    "storage": [
      {
        "astId": 7,
        "contract": "contracts/coinbase/Coinbase.sol:Coinbase",
        "label": "_owner",
        "offset": 0,
        "slot": "0",
        "type": "t_address"
      },
      {
        "astId": 1617,
        "contract": "contracts/coinbase/Coinbase.sol:Coinbase",
        "label": "_balances",
        "offset": 0,
        "slot": "1",
        "type": "t_mapping(t_address,t_uint256)"
      },
      {
        "astId": 1623,
        "contract": "contracts/coinbase/Coinbase.sol:Coinbase",
        "label": "_allowances",
        "offset": 0,
        "slot": "2",
        "type": "t_mapping(t_address,t_mapping(t_address,t_uint256))"
      },
      {
        "astId": 1625,
        "contract": "contracts/coinbase/Coinbase.sol:Coinbase",
        "label": "_totalSupply",
        "offset": 0,
        "slot": "3",
        "type": "t_uint256"
      },
      {
        "astId": 1627,
        "contract": "contracts/coinbase/Coinbase.sol:Coinbase",
        "label": "_name",
        "offset": 0,
        "slot": "4",
        "type": "t_string_storage"
      },
      {
        "astId": 1629,
        "contract": "contracts/coinbase/Coinbase.sol:Coinbase",
        "label": "_symbol",
        "offset": 0,
        "slot": "5",
        "type": "t_string_storage"
      }
    ],
    "types": {
      "t_address": {
        "encoding": "inplace",
        "label": "address",
        "numberOfBytes": "20"
      },
      "t_mapping(t_address,t_mapping(t_address,t_uint256))": {
        "encoding": "mapping",
        "key": "t_address",
        "label": "mapping(address => mapping(address => uint256))",
        "numberOfBytes": "32",
        "value": "t_mapping(t_address,t_uint256)"
      },
      "t_mapping(t_address,t_uint256)": {
        "encoding": "mapping",
        "key": "t_address",
        "label": "mapping(address => uint256)",
        "numberOfBytes": "32",
        "value": "t_uint256"
      },
      "t_string_storage": {
        "encoding": "bytes",
        "label": "string",
        "numberOfBytes": "32"
      },
      "t_uint256": {
        "encoding": "inplace",
        "label": "uint256",
        "numberOfBytes": "32"
      }
    }
  }
}