{
  "address": "0x254c81165e1BEF4d1B158Ac27A6B40F07e85187b",
  "abi": [
    {
      "inputs": [],
      "stateMutability": "nonpayable",
      "type": "constructor"
    },
    {
      "anonymous": false,
      "inputs": [
        {
          "indexed": true,
          "internalType": "address",
          "name": "owner",
          "type": "address"
        },
        {
          "indexed": true,
          "internalType": "address",
          "name": "spender",
          "type": "address"
        },
        {
          "indexed": false,
          "internalType": "uint256",
          "name": "value",
          "type": "uint256"
        }
      ],
      "name": "Approval",
      "type": "event"
    },
    {
      "anonymous": false,
      "inputs": [
        {
          "indexed": true,
          "internalType": "address",
          "name": "previousOwner",
          "type": "address"
        },
        {
          "indexed": true,
          "internalType": "address",
          "name": "newOwner",
          "type": "address"
        }
      ],
      "name": "OwnershipTransferred",
      "type": "event"
    },
    {
      "anonymous": false,
      "inputs": [
        {
          "indexed": true,
          "internalType": "address",
          "name": "from",
          "type": "address"
        },
        {
          "indexed": true,
          "internalType": "address",
          "name": "to",
          "type": "address"
        },
        {
          "indexed": false,
          "internalType": "uint256",
          "name": "value",
          "type": "uint256"
        }
      ],
      "name": "Transfer",
      "type": "event"
    },
    {
      "inputs": [
        {
          "internalType": "address",
          "name": "owner",
          "type": "address"
        },
        {
          "internalType": "address",
          "name": "spender",
          "type": "address"
        }
      ],
      "name": "allowance",
      "outputs": [
        {
          "internalType": "uint256",
          "name": "",
          "type": "uint256"
        }
      ],
      "stateMutability": "view",
      "type": "function"
    },
    {
      "inputs": [
        {
          "internalType": "address",
          "name": "spender",
          "type": "address"
        },
        {
          "internalType": "uint256",
          "name": "amount",
          "type": "uint256"
        }
      ],
      "name": "approve",
      "outputs": [
        {
          "internalType": "bool",
          "name": "",
          "type": "bool"
        }
      ],
      "stateMutability": "nonpayable",
      "type": "function"
    },
    {
      "inputs": [
        {
          "internalType": "address",
          "name": "account",
          "type": "address"
        }
      ],
      "name": "balanceOf",
      "outputs": [
        {
          "internalType": "uint256",
          "name": "",
          "type": "uint256"
        }
      ],
      "stateMutability": "view",
      "type": "function"
    },
    {
      "inputs": [
        {
          "internalType": "uint256",
          "name": "amount",
          "type": "uint256"
        }
      ],
      "name": "burn",
      "outputs": [],
      "stateMutability": "nonpayable",
      "type": "function"
    },
    {
      "inputs": [
        {
          "internalType": "address",
          "name": "account",
          "type": "address"
        },
        {
          "internalType": "uint256",
          "name": "amount",
          "type": "uint256"
        }
      ],
      "name": "burnFrom",
      "outputs": [],
      "stateMutability": "nonpayable",
      "type": "function"
    },
    {
      "inputs": [],
      "name": "decimals",
      "outputs": [
        {
          "internalType": "uint8",
          "name": "",
          "type": "uint8"
        }
      ],
      "stateMutability": "pure",
      "type": "function"
    },
    {
      "inputs": [
        {
          "internalType": "address",
          "name": "spender",
          "type": "address"
        },
        {
          "internalType": "uint256",
          "name": "subtractedValue",
          "type": "uint256"
        }
      ],
      "name": "decreaseAllowance",
      "outputs": [
        {
          "internalType": "bool",
          "name": "",
          "type": "bool"
        }
      ],
      "stateMutability": "nonpayable",
      "type": "function"
    },
    {
      "inputs": [
        {
          "internalType": "address",
          "name": "smartHousingAddr",
          "type": "address"
        }
      ],
      "name": "feedSmartHousing",
      "outputs": [],
      "stateMutability": "nonpayable",
      "type": "function"
    },
    {
      "inputs": [
        {
          "internalType": "address",
          "name": "spender",
          "type": "address"
        },
        {
          "internalType": "uint256",
          "name": "addedValue",
          "type": "uint256"
        }
      ],
      "name": "increaseAllowance",
      "outputs": [
        {
          "internalType": "bool",
          "name": "",
          "type": "bool"
        }
      ],
      "stateMutability": "nonpayable",
      "type": "function"
    },
    {
      "inputs": [],
      "name": "name",
      "outputs": [
        {
          "internalType": "string",
          "name": "",
          "type": "string"
        }
      ],
      "stateMutability": "view",
      "type": "function"
    },
    {
      "inputs": [],
      "name": "owner",
      "outputs": [
        {
          "internalType": "address",
          "name": "",
          "type": "address"
        }
      ],
      "stateMutability": "view",
      "type": "function"
    },
    {
      "inputs": [],
      "name": "renounceOwnership",
      "outputs": [],
      "stateMutability": "nonpayable",
      "type": "function"
    },
    {
      "inputs": [
        {
          "internalType": "string",
          "name": "name",
          "type": "string"
        },
        {
          "internalType": "string",
          "name": "symbol",
          "type": "string"
        },
        {
          "internalType": "address",
          "name": "projectFundingAddr",
          "type": "address"
        },
        {
          "internalType": "address",
          "name": "smartHousingAddress",
          "type": "address"
        },
        {
          "internalType": "address",
          "name": "fundingToken",
          "type": "address"
        },
        {
          "internalType": "uint256",
          "name": "fundingGoal",
          "type": "uint256"
        },
        {
          "internalType": "uint256",
          "name": "fundingDeadline",
          "type": "uint256"
        }
      ],
      "name": "startICO",
      "outputs": [],
      "stateMutability": "nonpayable",
      "type": "function"
    },
    {
      "inputs": [],
      "name": "symbol",
      "outputs": [
        {
          "internalType": "string",
          "name": "",
          "type": "string"
        }
      ],
      "stateMutability": "view",
      "type": "function"
    },
    {
      "inputs": [],
      "name": "totalSupply",
      "outputs": [
        {
          "internalType": "uint256",
          "name": "",
          "type": "uint256"
        }
      ],
      "stateMutability": "view",
      "type": "function"
    },
    {
      "inputs": [
        {
          "internalType": "address",
          "name": "to",
          "type": "address"
        },
        {
          "internalType": "uint256",
          "name": "amount",
          "type": "uint256"
        }
      ],
      "name": "transfer",
      "outputs": [
        {
          "internalType": "bool",
          "name": "",
          "type": "bool"
        }
      ],
      "stateMutability": "nonpayable",
      "type": "function"
    },
    {
      "inputs": [
        {
          "internalType": "address",
          "name": "from",
          "type": "address"
        },
        {
          "internalType": "address",
          "name": "to",
          "type": "address"
        },
        {
          "internalType": "uint256",
          "name": "amount",
          "type": "uint256"
        }
      ],
      "name": "transferFrom",
      "outputs": [
        {
          "internalType": "bool",
          "name": "",
          "type": "bool"
        }
      ],
      "stateMutability": "nonpayable",
      "type": "function"
    },
    {
      "inputs": [
        {
          "internalType": "address",
          "name": "newOwner",
          "type": "address"
        }
      ],
      "name": "transferOwnership",
      "outputs": [],
      "stateMutability": "nonpayable",
      "type": "function"
    }
  ],
  "transactionHash": "0x7cf011b0fbe34b810fc3874e58a8d8a1815c389d886be498fba5d2a8d55953f7",
  "args": [],
  "numDeployments": 2,
  "solcInputHash": "3f7696dcd180eba0f188ae64ff117803",
  "bytecode": "0x60803462000411576001600160401b039060409080820183811182821017620003fb5782526011815260207029b6b0b93a2437bab9b4b733aa37b5b2b760791b8183015282519083820182811086821117620003fb57845260038083526214d21560ea1b8284015260008054336001600160a01b0319821681178355929591949192906001600160a01b03167f8be0079c531659141344cd1fd0a4f28419497f9722a3daafe3b4186f6b6457e08680a3815190878211620003e7576004978854926001948585811c95168015620003dc575b87861014620002e9578190601f9586811162000389575b508790868311600114620003265789926200031a575b5050600019828a1b1c191690851b1789555b8151908111620003075760059182548581811c91168015620002fc575b87821014620002e95790818584931162000298575b5086908583116001146200023557889262000229575b505060001982891b1c191690841b1790555b3015620001e8575083546a115eec47f6cf7e3500000094858201809211620001d55755308084529082528483208054850190558451938452927fddf252ad1be2c89b69c2b068fc378daa952ba7f163c4a11628f55a4df523b3ef9190a3516110529081620004178239f35b634e487b7160e01b855260118852602485fd5b866064918488519262461bcd60e51b845283015260248201527f45524332303a206d696e7420746f20746865207a65726f2061646472657373006044820152fd5b01519050388062000158565b8489528789208794509190601f1984168a5b8a82821062000281575050841162000268575b505050811b0190556200016a565b0151600019838b1b60f8161c191690553880806200025a565b8385015186558a9790950194938401930162000247565b90915083885286882085808501861c820192898610620002df575b9188918695949301871c01915b828110620002d057505062000142565b8a8155859450889101620002c0565b92508192620002b3565b634e487b7160e01b885260228b52602488fd5b90607f16906200012d565b634e487b7160e01b865260418952602486fd5b015190503880620000fe565b8c8a52888a208894509190601f1984168b5b8b82821062000372575050841162000359575b505050811b01895562000110565b0151600019838c1b60f8161c191690553880806200034b565b8385015186558b9790950194938401930162000338565b9091508b89528789208680850160051c8201928a8610620003d2575b918991869594930160051c01915b828110620003c3575050620000e8565b8b8155859450899101620003b3565b92508192620003a5565b94607f1694620000d1565b634e487b7160e01b85526041600452602485fd5b634e487b7160e01b600052604160045260246000fd5b600080fdfe6080604081815260048036101561001557600080fd5b600092833560e01c90816306fdde031461098957508063095ea7b31461095f57806318160ddd1461094057806323b872dd14610903578063313ce567146108e7578063395093511461088057806342966c68146108625780634c7360471461061457806370a08231146105dc578063715018a61461058257806379cc67901461054f5780638da5cb5b1461052757806395d89b411461040a578063a457c2d714610364578063a9059cbb14610333578063d1223fc91461020a578063dd62ed3e146101b85763f2fde38b146100e957600080fd5b346101b45760203660031901126101b457610102610abf565b9061010b610fc4565b6001600160a01b03918216928315610162575050600054826bffffffffffffffffffffffff60a01b821617600055167f8be0079c531659141344cd1fd0a4f28419497f9722a3daafe3b4186f6b6457e0600080a380f35b906020608492519162461bcd60e51b8352820152602660248201527f4f776e61626c653a206e6577206f776e657220697320746865207a65726f206160448201526564647265737360d01b6064820152fd5b8280fd5b5050346102065780600319360112610206576020916101d5610abf565b826101de610ada565b6001600160a01b03928316845260028652922091166000908152908352819020549051908152f35b5080fd5b5082903461020657602036600319011261020657610226610abf565b9261022f610fc4565b60006020825161023e81610b1a565b828152015280519161024f83610b1a565b30835260208301946a0b4a7ffb9b9d8947082f0b86523085526001602052828520548651116102fb576102858596518230610baf565b6001600160a01b031692833b156102f7578251632fd2b55f60e01b815281516001600160a01b031692810192835260209182015191909201529183908390604490829084905af19081156102ee57506102db5750f35b6102e490610af0565b6102eb5780f35b80fd5b513d84823e3d90fd5b8480fd5b506020606492519162461bcd60e51b83528201526012602482015271105b1c9958591e48191a5cdc185d18da195960721b6044820152fd5b50503461020657806003193601126102065760209061035d610353610abf565b6024359033610d49565b5160018152f35b5082346102eb57826003193601126102eb5761037e610abf565b91836024359233815260026020522060018060a01b0384166000526020528360002054908282106103b95760208561035d8585038733610baf565b608490602086519162461bcd60e51b8352820152602560248201527f45524332303a2064656372656173656420616c6c6f77616e63652062656c6f77604482015264207a65726f60d81b6064820152fd5b5091346102eb57806003193601126102eb57815191816005549260018460011c916001861695861561051d575b602096878510811461050a578899509688969785829a5291826000146104e3575050600114610487575b5050506104839291610474910385610b36565b51928284938452830190610a7f565b0390f35b9190869350600583527f036b6384b5eca791c62761152d0c79bb0604c104a5fb6f4eb0703f3154bb3db05b8284106104cb5750505082010181610474610483610461565b8054848a0186015288955087949093019281016104b2565b60ff19168782015293151560051b8601909301935084925061047491506104839050610461565b634e487b7160e01b835260228a52602483fd5b92607f1692610437565b505034610206578160031936011261020657905490516001600160a01b039091168152602090f35b505034610206573660031901126102eb5761057f61056b610abf565b6024359061057a823383610cb1565b610eb9565b80f35b83346102eb57806003193601126102eb5761059b610fc4565b600080546001600160a01b0319811682556001600160a01b03167f8be0079c531659141344cd1fd0a4f28419497f9722a3daafe3b4186f6b6457e08280a380f35b5050346102065760203660031901126102065760209181906001600160a01b03610604610abf565b1681526001845220549051908152f35b50919034610206576003199060e0368301126101b45767ffffffffffffffff9184358381116102f75761064a9036908701610b58565b926024359081116102f7576106629036908701610b58565b906001600160a01b03604435818116929083900361085e57606435978289168099036107bf576084359283168093036107bf5761069d610fc4565b8551986106a98a610b1a565b888a52886020809b01528651936106bf85610b1a565b3085526a06146c4c5b31f4edf7d0f59a8b8187015230156108105786156107c3578a9b7f8c5be1e5ebec7d5bd14f71427d1e84f3dd0314c0f7b2291e5b200ac8c7c3b92588929c9a9b9c308c52600281528c8c20848d528152828d8d20558c519283523092a3853b156107bf576107878894610765986107788c519d8e9b8c9a8b99630fe744bb60e31b8b528a01906020809160018060a01b0381511684520151910152565b6101006044890152610104880190610a7f565b91868303016064870152610a7f565b91608484015260a483015260a43560c483015260c43560e483015203925af19081156102ee57506107b6575080f35b61057f90610af0565b8780fd5b836084918a519162461bcd60e51b8352820152602260248201527f45524332303a20617070726f766520746f20746865207a65726f206164647265604482015261737360f01b6064820152fd5b836084918a519162461bcd60e51b83528201526024808201527f45524332303a20617070726f76652066726f6d20746865207a65726f206164646044820152637265737360e01b6064820152fd5b8680fd5b8382346102065760203660031901126102065761057f903533610eb9565b5091346102eb57816003193601126102eb5761089a610abf565b338252600260209081528383206001600160a01b03831684529052828220546024358101929083106108d45760208461035d858533610baf565b634e487b7160e01b815260118552602490fd5b5050346102065781600319360112610206576020905160128152f35b5050346102065760603660031901126102065760209061035d610924610abf565b61092c610ada565b6044359161093b833383610cb1565b610d49565b5050346102065781600319360112610206576020906003549051908152f35b50503461020657806003193601126102065760209061035d61097f610abf565b6024359033610baf565b90508383346102065781600319360112610206578184549260018460011c9160018616958615610a75575b602096878510811461050a579087899a92868b999a9b529182600014610a4b5750506001146109f0575b858861048389610474848a0385610b36565b815286935091907f8a35acfbc15ff81a39ae7d344fd709f28e8600b4aa8c65c6b64bfe7fe36bd19b5b828410610a335750505082010181610474610483886109de565b8054848a018601528895508794909301928101610a19565b60ff19168882015294151560051b87019094019450859350610474925061048391508990506109de565b92607f16926109b4565b919082519283825260005b848110610aab575050826000602080949584010152601f8019910116010190565b602081830181015184830182015201610a8a565b600435906001600160a01b0382168203610ad557565b600080fd5b602435906001600160a01b0382168203610ad557565b67ffffffffffffffff8111610b0457604052565b634e487b7160e01b600052604160045260246000fd5b6040810190811067ffffffffffffffff821117610b0457604052565b90601f8019910116810190811067ffffffffffffffff821117610b0457604052565b81601f82011215610ad55780359067ffffffffffffffff8211610b045760405192610b8d601f8401601f191660200185610b36565b82845260208383010111610ad557816000926020809301838601378301015290565b6001600160a01b03908116918215610c605716918215610c105760207f8c5be1e5ebec7d5bd14f71427d1e84f3dd0314c0f7b2291e5b200ac8c7c3b925918360005260028252604060002085600052825280604060002055604051908152a3565b60405162461bcd60e51b815260206004820152602260248201527f45524332303a20617070726f766520746f20746865207a65726f206164647265604482015261737360f01b6064820152608490fd5b60405162461bcd60e51b8152602060048201526024808201527f45524332303a20617070726f76652066726f6d20746865207a65726f206164646044820152637265737360e01b6064820152608490fd5b9060018060a01b0380831660005260026020526040600020908216600052602052604060002054926000198403610ce9575b50505050565b808410610d0457610cfb930391610baf565b38808080610ce3565b60405162461bcd60e51b815260206004820152601d60248201527f45524332303a20696e73756666696369656e7420616c6c6f77616e63650000006044820152606490fd5b6001600160a01b03908116918215610e665716918215610e155760008281526001602052604081205491808310610dc157604082827fddf252ad1be2c89b69c2b068fc378daa952ba7f163c4a11628f55a4df523b3ef95876020965260018652038282205586815220818154019055604051908152a3565b60405162461bcd60e51b815260206004820152602660248201527f45524332303a207472616e7366657220616d6f756e7420657863656564732062604482015265616c616e636560d01b6064820152608490fd5b60405162461bcd60e51b815260206004820152602360248201527f45524332303a207472616e7366657220746f20746865207a65726f206164647260448201526265737360e81b6064820152608490fd5b60405162461bcd60e51b815260206004820152602560248201527f45524332303a207472616e736665722066726f6d20746865207a65726f206164604482015264647265737360d81b6064820152608490fd5b6001600160a01b03168015610f755780600052600160205260406000205491808310610f25576020817fddf252ad1be2c89b69c2b068fc378daa952ba7f163c4a11628f55a4df523b3ef92600095858752600184520360408620558060035403600355604051908152a3565b60405162461bcd60e51b815260206004820152602260248201527f45524332303a206275726e20616d6f756e7420657863656564732062616c616e604482015261636560f01b6064820152608490fd5b60405162461bcd60e51b815260206004820152602160248201527f45524332303a206275726e2066726f6d20746865207a65726f206164647265736044820152607360f81b6064820152608490fd5b6000546001600160a01b03163303610fd857565b606460405162461bcd60e51b815260206004820152602060248201527f4f776e61626c653a2063616c6c6572206973206e6f7420746865206f776e65726044820152fdfea2646970667358221220a6d519663faca84e69e27b918299ef46f9acf768b82b3a1340a082a6a0ef648964736f6c63430008180033",
  "devdoc": {
    "details": "This contract is used to start the ICO for housing projects.",
    "events": {
      "Approval(address,address,uint256)": {
        "details": "Emitted when the allowance of a `spender` for an `owner` is set by a call to {approve}. `value` is the new allowance."
      },
      "Transfer(address,address,uint256)": {
        "details": "Emitted when `value` tokens are moved from one account (`from`) to another (`to`). Note that `value` may be zero."
      }
    },
    "kind": "dev",
    "methods": {
      "allowance(address,address)": {
        "details": "See {IERC20-allowance}."
      },
      "approve(address,uint256)": {
        "details": "See {IERC20-approve}. NOTE: If `amount` is the maximum `uint256`, the allowance is not updated on `transferFrom`. This is semantically equivalent to an infinite approval. Requirements: - `spender` cannot be the zero address."
      },
      "balanceOf(address)": {
        "details": "See {IERC20-balanceOf}."
      },
      "burn(uint256)": {
        "details": "Destroys `amount` tokens from the caller. See {ERC20-_burn}."
      },
      "burnFrom(address,uint256)": {
        "details": "Destroys `amount` tokens from `account`, deducting from the caller's allowance. See {ERC20-_burn} and {ERC20-allowance}. Requirements: - the caller must have allowance for ``accounts``'s tokens of at least `amount`."
      },
      "decimals()": {
        "details": "Returns the number of decimals used to get its user representation. For example, if `decimals` equals `2`, a balance of `505` tokens should be displayed to a user as `5.05` (`505 / 10 ** 2`). Tokens usually opt for a value of 18, imitating the relationship between Ether and Wei. This is the value {ERC20} uses, unless this function is overridden; NOTE: This information is only used for _display_ purposes: it in no way affects any of the arithmetic of the contract, including {IERC20-balanceOf} and {IERC20-transfer}."
      },
      "decreaseAllowance(address,uint256)": {
        "details": "Atomically decreases the allowance granted to `spender` by the caller. This is an alternative to {approve} that can be used as a mitigation for problems described in {IERC20-approve}. Emits an {Approval} event indicating the updated allowance. Requirements: - `spender` cannot be the zero address. - `spender` must have allowance for the caller of at least `subtractedValue`."
      },
      "feedSmartHousing(address)": {
        "details": "Dispatches ecosystem funds if not already dispatched to SmartHousing contract.",
        "params": {
          "smartHousingAddr": "The address of the SmartHousing contract."
        }
      },
      "increaseAllowance(address,uint256)": {
        "details": "Atomically increases the allowance granted to `spender` by the caller. This is an alternative to {approve} that can be used as a mitigation for problems described in {IERC20-approve}. Emits an {Approval} event indicating the updated allowance. Requirements: - `spender` cannot be the zero address."
      },
      "name()": {
        "details": "Returns the name of the token."
      },
      "owner()": {
        "details": "Returns the address of the current owner."
      },
      "renounceOwnership()": {
        "details": "Leaves the contract without owner. It will not be possible to call `onlyOwner` functions anymore. Can only be called by the current owner. NOTE: Renouncing ownership will leave the contract without an owner, thereby removing any functionality that is only available to the owner."
      },
      "startICO(string,string,address,address,address,uint256,uint256)": {
        "details": "Starts the ICO by initializing the first housing project.",
        "params": {
          "fundingDeadline": "The deadline for the project funding.",
          "fundingGoal": "The funding goal for the new project.",
          "fundingToken": "Address of the funding token (ERC20).",
          "projectFundingAddr": "Address of the ProjectFunding contract.",
          "smartHousingAddress": "Address of the SmartHousing contract."
        }
      },
      "symbol()": {
        "details": "Returns the symbol of the token, usually a shorter version of the name."
      },
      "totalSupply()": {
        "details": "See {IERC20-totalSupply}."
      },
      "transfer(address,uint256)": {
        "details": "See {IERC20-transfer}. Requirements: - `to` cannot be the zero address. - the caller must have a balance of at least `amount`."
      },
      "transferFrom(address,address,uint256)": {
        "details": "See {IERC20-transferFrom}. Emits an {Approval} event indicating the updated allowance. This is not required by the EIP. See the note at the beginning of {ERC20}. NOTE: Does not update the allowance if the current allowance is the maximum `uint256`. Requirements: - `from` and `to` cannot be the zero address. - `from` must have a balance of at least `amount`. - the caller must have allowance for ``from``'s tokens of at least `amount`."
      },
      "transferOwnership(address)": {
        "details": "Transfers ownership of the contract to a new account (`newOwner`). Can only be called by the current owner."
      }
    },
    "title": "Coinbase",
    "version": 1
  },
  "userdoc": {
    "kind": "user",
    "methods": {},
    "version": 1
  },
  "storageLayout": {
    "storage": [
      {
        "astId": 7,
        "contract": "contracts/coinbase/Coinbase.sol:Coinbase",
        "label": "_owner",
        "offset": 0,
        "slot": "0",
        "type": "t_address"
      },
      {
        "astId": 1532,
        "contract": "contracts/coinbase/Coinbase.sol:Coinbase",
        "label": "_balances",
        "offset": 0,
        "slot": "1",
        "type": "t_mapping(t_address,t_uint256)"
      },
      {
        "astId": 1538,
        "contract": "contracts/coinbase/Coinbase.sol:Coinbase",
        "label": "_allowances",
        "offset": 0,
        "slot": "2",
        "type": "t_mapping(t_address,t_mapping(t_address,t_uint256))"
      },
      {
        "astId": 1540,
        "contract": "contracts/coinbase/Coinbase.sol:Coinbase",
        "label": "_totalSupply",
        "offset": 0,
        "slot": "3",
        "type": "t_uint256"
      },
      {
        "astId": 1542,
        "contract": "contracts/coinbase/Coinbase.sol:Coinbase",
        "label": "_name",
        "offset": 0,
        "slot": "4",
        "type": "t_string_storage"
      },
      {
        "astId": 1544,
        "contract": "contracts/coinbase/Coinbase.sol:Coinbase",
        "label": "_symbol",
        "offset": 0,
        "slot": "5",
        "type": "t_string_storage"
      }
    ],
    "types": {
      "t_address": {
        "encoding": "inplace",
        "label": "address",
        "numberOfBytes": "20"
      },
      "t_mapping(t_address,t_mapping(t_address,t_uint256))": {
        "encoding": "mapping",
        "key": "t_address",
        "label": "mapping(address => mapping(address => uint256))",
        "numberOfBytes": "32",
        "value": "t_mapping(t_address,t_uint256)"
      },
      "t_mapping(t_address,t_uint256)": {
        "encoding": "mapping",
        "key": "t_address",
        "label": "mapping(address => uint256)",
        "numberOfBytes": "32",
        "value": "t_uint256"
      },
      "t_string_storage": {
        "encoding": "bytes",
        "label": "string",
        "numberOfBytes": "32"
      },
      "t_uint256": {
        "encoding": "inplace",
        "label": "uint256",
        "numberOfBytes": "32"
      }
    }
  }
}