{
  "address": "0x4e62341842ab8951dB86Cc7239684D76CE0dd0ea",
  "abi": [
    {
      "inputs": [],
      "stateMutability": "nonpayable",
      "type": "constructor"
    },
    {
      "anonymous": false,
      "inputs": [
        {
          "indexed": true,
          "internalType": "address",
          "name": "account",
          "type": "address"
        },
        {
          "indexed": true,
          "internalType": "address",
          "name": "operator",
          "type": "address"
        },
        {
          "indexed": false,
          "internalType": "bool",
          "name": "approved",
          "type": "bool"
        }
      ],
      "name": "ApprovalForAll",
      "type": "event"
    },
    {
      "anonymous": false,
      "inputs": [
        {
          "indexed": true,
          "internalType": "address",
          "name": "to",
          "type": "address"
        },
        {
          "indexed": false,
          "internalType": "uint256",
          "name": "nonce",
          "type": "uint256"
        },
        {
          "components": [
            {
              "components": [
                {
                  "internalType": "address",
                  "name": "token",
                  "type": "address"
                },
                {
                  "internalType": "uint256",
                  "name": "amount",
                  "type": "uint256"
                },
                {
                  "internalType": "uint256",
                  "name": "nonce",
                  "type": "uint256"
                }
              ],
              "internalType": "struct TokenPayment[]",
              "name": "projectTokens",
              "type": "tuple[]"
            },
            {
              "internalType": "uint256",
              "name": "projectsShareCheckpoint",
              "type": "uint256"
            },
            {
              "internalType": "uint256",
              "name": "shtRewardPerShare",
              "type": "uint256"
            },
            {
              "internalType": "uint256",
              "name": "shtAmount",
              "type": "uint256"
            },
            {
              "internalType": "uint256",
              "name": "stakeWeight",
              "type": "uint256"
            },
            {
              "internalType": "uint256",
              "name": "lkDuration",
              "type": "uint256"
            },
            {
              "internalType": "uint256[]",
              "name": "lkShtNonces",
              "type": "uint256[]"
            }
          ],
          "indexed": false,
          "internalType": "struct HstAttributes",
          "name": "attributes",
          "type": "tuple"
        }
      ],
      "name": "MintHstToken",
      "type": "event"
    },
    {
      "anonymous": false,
      "inputs": [
        {
          "indexed": true,
          "internalType": "address",
          "name": "previousOwner",
          "type": "address"
        },
        {
          "indexed": true,
          "internalType": "address",
          "name": "newOwner",
          "type": "address"
        }
      ],
      "name": "OwnershipTransferred",
      "type": "event"
    },
    {
      "anonymous": false,
      "inputs": [
        {
          "indexed": true,
          "internalType": "address",
          "name": "operator",
          "type": "address"
        },
        {
          "indexed": true,
          "internalType": "address",
          "name": "from",
          "type": "address"
        },
        {
          "indexed": true,
          "internalType": "address",
          "name": "to",
          "type": "address"
        },
        {
          "indexed": false,
          "internalType": "uint256[]",
          "name": "ids",
          "type": "uint256[]"
        },
        {
          "indexed": false,
          "internalType": "uint256[]",
          "name": "values",
          "type": "uint256[]"
        }
      ],
      "name": "TransferBatch",
      "type": "event"
    },
    {
      "anonymous": false,
      "inputs": [
        {
          "indexed": true,
          "internalType": "address",
          "name": "operator",
          "type": "address"
        },
        {
          "indexed": true,
          "internalType": "address",
          "name": "from",
          "type": "address"
        },
        {
          "indexed": true,
          "internalType": "address",
          "name": "to",
          "type": "address"
        },
        {
          "indexed": false,
          "internalType": "uint256",
          "name": "id",
          "type": "uint256"
        },
        {
          "indexed": false,
          "internalType": "uint256",
          "name": "value",
          "type": "uint256"
        }
      ],
      "name": "TransferSingle",
      "type": "event"
    },
    {
      "anonymous": false,
      "inputs": [
        {
          "indexed": false,
          "internalType": "string",
          "name": "value",
          "type": "string"
        },
        {
          "indexed": true,
          "internalType": "uint256",
          "name": "id",
          "type": "uint256"
        }
      ],
      "name": "URI",
      "type": "event"
    },
    {
      "inputs": [
        {
          "internalType": "address",
          "name": "account",
          "type": "address"
        },
        {
          "internalType": "uint256",
          "name": "id",
          "type": "uint256"
        }
      ],
      "name": "balanceOf",
      "outputs": [
        {
          "internalType": "uint256",
          "name": "",
          "type": "uint256"
        }
      ],
      "stateMutability": "view",
      "type": "function"
    },
    {
      "inputs": [
        {
          "internalType": "address[]",
          "name": "accounts",
          "type": "address[]"
        },
        {
          "internalType": "uint256[]",
          "name": "ids",
          "type": "uint256[]"
        }
      ],
      "name": "balanceOfBatch",
      "outputs": [
        {
          "internalType": "uint256[]",
          "name": "",
          "type": "uint256[]"
        }
      ],
      "stateMutability": "view",
      "type": "function"
    },
    {
      "inputs": [
        {
          "internalType": "uint256",
          "name": "nonce",
          "type": "uint256"
        }
      ],
      "name": "getAttribute",
      "outputs": [
        {
          "components": [
            {
              "components": [
                {
                  "internalType": "address",
                  "name": "token",
                  "type": "address"
                },
                {
                  "internalType": "uint256",
                  "name": "amount",
                  "type": "uint256"
                },
                {
                  "internalType": "uint256",
                  "name": "nonce",
                  "type": "uint256"
                }
              ],
              "internalType": "struct TokenPayment[]",
              "name": "projectTokens",
              "type": "tuple[]"
            },
            {
              "internalType": "uint256",
              "name": "projectsShareCheckpoint",
              "type": "uint256"
            },
            {
              "internalType": "uint256",
              "name": "shtRewardPerShare",
              "type": "uint256"
            },
            {
              "internalType": "uint256",
              "name": "shtAmount",
              "type": "uint256"
            },
            {
              "internalType": "uint256",
              "name": "stakeWeight",
              "type": "uint256"
            },
            {
              "internalType": "uint256",
              "name": "lkDuration",
              "type": "uint256"
            },
            {
              "internalType": "uint256[]",
              "name": "lkShtNonces",
              "type": "uint256[]"
            }
          ],
          "internalType": "struct HstAttributes",
          "name": "",
          "type": "tuple"
        }
      ],
      "stateMutability": "view",
      "type": "function"
    },
    {
      "inputs": [
        {
          "internalType": "address",
          "name": "owner",
          "type": "address"
        }
      ],
      "name": "getNonces",
      "outputs": [
        {
          "internalType": "uint256[]",
          "name": "",
          "type": "uint256[]"
        }
      ],
      "stateMutability": "view",
      "type": "function"
    },
    {
      "inputs": [
        {
          "internalType": "address",
          "name": "owner",
          "type": "address"
        },
        {
          "internalType": "uint256",
          "name": "nonce",
          "type": "uint256"
        }
      ],
      "name": "hasSFT",
      "outputs": [
        {
          "internalType": "bool",
          "name": "",
          "type": "bool"
        }
      ],
      "stateMutability": "view",
      "type": "function"
    },
    {
      "inputs": [
        {
          "internalType": "address",
          "name": "account",
          "type": "address"
        },
        {
          "internalType": "address",
          "name": "operator",
          "type": "address"
        }
      ],
      "name": "isApprovedForAll",
      "outputs": [
        {
          "internalType": "bool",
          "name": "",
          "type": "bool"
        }
      ],
      "stateMutability": "view",
      "type": "function"
    },
    {
      "inputs": [
        {
          "components": [
            {
              "internalType": "address",
              "name": "token",
              "type": "address"
            },
            {
              "internalType": "uint256",
              "name": "amount",
              "type": "uint256"
            },
            {
              "internalType": "uint256",
              "name": "nonce",
              "type": "uint256"
            }
          ],
          "internalType": "struct TokenPayment[]",
          "name": "projectTokens",
          "type": "tuple[]"
        },
        {
          "internalType": "uint256",
          "name": "projectsShareCheckpoint",
          "type": "uint256"
        },
        {
          "internalType": "uint256",
          "name": "shtRewardPerShare",
          "type": "uint256"
        },
        {
          "internalType": "uint256",
          "name": "lkDuration",
          "type": "uint256"
        },
        {
          "internalType": "uint256",
          "name": "shtAmount",
          "type": "uint256"
        },
        {
          "internalType": "uint256[]",
          "name": "lkShtNonces",
          "type": "uint256[]"
        },
        {
          "internalType": "address",
          "name": "caller",
          "type": "address"
        }
      ],
      "name": "mint",
      "outputs": [
        {
          "components": [
            {
              "components": [
                {
                  "internalType": "address",
                  "name": "token",
                  "type": "address"
                },
                {
                  "internalType": "uint256",
                  "name": "amount",
                  "type": "uint256"
                },
                {
                  "internalType": "uint256",
                  "name": "nonce",
                  "type": "uint256"
                }
              ],
              "internalType": "struct TokenPayment[]",
              "name": "projectTokens",
              "type": "tuple[]"
            },
            {
              "internalType": "uint256",
              "name": "projectsShareCheckpoint",
              "type": "uint256"
            },
            {
              "internalType": "uint256",
              "name": "shtRewardPerShare",
              "type": "uint256"
            },
            {
              "internalType": "uint256",
              "name": "shtAmount",
              "type": "uint256"
            },
            {
              "internalType": "uint256",
              "name": "stakeWeight",
              "type": "uint256"
            },
            {
              "internalType": "uint256",
              "name": "lkDuration",
              "type": "uint256"
            },
            {
              "internalType": "uint256[]",
              "name": "lkShtNonces",
              "type": "uint256[]"
            }
          ],
          "internalType": "struct HstAttributes",
          "name": "attr",
          "type": "tuple"
        }
      ],
      "stateMutability": "nonpayable",
      "type": "function"
    },
    {
      "inputs": [],
      "name": "name",
      "outputs": [
        {
          "internalType": "string",
          "name": "",
          "type": "string"
        }
      ],
      "stateMutability": "view",
      "type": "function"
    },
    {
      "inputs": [],
      "name": "owner",
      "outputs": [
        {
          "internalType": "address",
          "name": "",
          "type": "address"
        }
      ],
      "stateMutability": "view",
      "type": "function"
    },
    {
      "inputs": [],
      "name": "renounceOwnership",
      "outputs": [],
      "stateMutability": "nonpayable",
      "type": "function"
    },
    {
      "inputs": [
        {
          "internalType": "address",
          "name": "from",
          "type": "address"
        },
        {
          "internalType": "address",
          "name": "to",
          "type": "address"
        },
        {
          "internalType": "uint256[]",
          "name": "ids",
          "type": "uint256[]"
        },
        {
          "internalType": "uint256[]",
          "name": "amounts",
          "type": "uint256[]"
        },
        {
          "internalType": "bytes",
          "name": "data",
          "type": "bytes"
        }
      ],
      "name": "safeBatchTransferFrom",
      "outputs": [],
      "stateMutability": "nonpayable",
      "type": "function"
    },
    {
      "inputs": [
        {
          "internalType": "address",
          "name": "from",
          "type": "address"
        },
        {
          "internalType": "address",
          "name": "to",
          "type": "address"
        },
        {
          "internalType": "uint256",
          "name": "id",
          "type": "uint256"
        },
        {
          "internalType": "uint256",
          "name": "amount",
          "type": "uint256"
        },
        {
          "internalType": "bytes",
          "name": "data",
          "type": "bytes"
        }
      ],
      "name": "safeTransferFrom",
      "outputs": [],
      "stateMutability": "nonpayable",
      "type": "function"
    },
    {
      "inputs": [
        {
          "internalType": "address",
          "name": "operator",
          "type": "address"
        },
        {
          "internalType": "bool",
          "name": "approved",
          "type": "bool"
        }
      ],
      "name": "setApprovalForAll",
      "outputs": [],
      "stateMutability": "nonpayable",
      "type": "function"
    },
    {
      "inputs": [
        {
          "internalType": "address",
          "name": "user",
          "type": "address"
        }
      ],
      "name": "sftBalance",
      "outputs": [
        {
          "components": [
            {
              "internalType": "uint256",
              "name": "nonce",
              "type": "uint256"
            },
            {
              "internalType": "uint256",
              "name": "amount",
              "type": "uint256"
            },
            {
              "components": [
                {
                  "components": [
                    {
                      "internalType": "address",
                      "name": "token",
                      "type": "address"
                    },
                    {
                      "internalType": "uint256",
                      "name": "amount",
                      "type": "uint256"
                    },
                    {
                      "internalType": "uint256",
                      "name": "nonce",
                      "type": "uint256"
                    }
                  ],
                  "internalType": "struct TokenPayment[]",
                  "name": "projectTokens",
                  "type": "tuple[]"
                },
                {
                  "internalType": "uint256",
                  "name": "projectsShareCheckpoint",
                  "type": "uint256"
                },
                {
                  "internalType": "uint256",
                  "name": "shtRewardPerShare",
                  "type": "uint256"
                },
                {
                  "internalType": "uint256",
                  "name": "shtAmount",
                  "type": "uint256"
                },
                {
                  "internalType": "uint256",
                  "name": "stakeWeight",
                  "type": "uint256"
                },
                {
                  "internalType": "uint256",
                  "name": "lkDuration",
                  "type": "uint256"
                },
                {
                  "internalType": "uint256[]",
                  "name": "lkShtNonces",
                  "type": "uint256[]"
                }
              ],
              "internalType": "struct HstAttributes",
              "name": "attributes",
              "type": "tuple"
            }
          ],
          "internalType": "struct HousingStakingToken.HSTBalance[]",
          "name": "",
          "type": "tuple[]"
        }
      ],
      "stateMutability": "view",
      "type": "function"
    },
    {
      "inputs": [
        {
          "internalType": "bytes4",
          "name": "interfaceId",
          "type": "bytes4"
        }
      ],
      "name": "supportsInterface",
      "outputs": [
        {
          "internalType": "bool",
          "name": "",
          "type": "bool"
        }
      ],
      "stateMutability": "view",
      "type": "function"
    },
    {
      "inputs": [],
      "name": "symbol",
      "outputs": [
        {
          "internalType": "string",
          "name": "",
          "type": "string"
        }
      ],
      "stateMutability": "view",
      "type": "function"
    },
    {
      "inputs": [],
      "name": "tokenInfo",
      "outputs": [
        {
          "internalType": "string",
          "name": "",
          "type": "string"
        },
        {
          "internalType": "string",
          "name": "",
          "type": "string"
        }
      ],
      "stateMutability": "view",
      "type": "function"
    },
    {
      "inputs": [
        {
          "internalType": "address",
          "name": "newOwner",
          "type": "address"
        }
      ],
      "name": "transferOwnership",
      "outputs": [],
      "stateMutability": "nonpayable",
      "type": "function"
    },
    {
      "inputs": [
        {
          "internalType": "address",
          "name": "user",
          "type": "address"
        },
        {
          "internalType": "uint256",
          "name": "nonce",
          "type": "uint256"
        },
        {
          "internalType": "uint256",
          "name": "amount",
          "type": "uint256"
        },
        {
          "internalType": "bytes",
          "name": "attr",
          "type": "bytes"
        }
      ],
      "name": "update",
      "outputs": [
        {
          "internalType": "uint256",
          "name": "",
          "type": "uint256"
        }
      ],
      "stateMutability": "nonpayable",
      "type": "function"
    },
    {
      "inputs": [
        {
          "internalType": "uint256",
          "name": "",
          "type": "uint256"
        }
      ],
      "name": "uri",
      "outputs": [
        {
          "internalType": "string",
          "name": "",
          "type": "string"
        }
      ],
      "stateMutability": "view",
      "type": "function"
    }
  ],
  "transactionHash": "0x679a019b36c7d35c0f920939532efe0a2d8fa94a604e7cbbbc0eb23595f5e7bc",
  "args": [],
  "numDeployments": 1,
  "solcInputHash": "2ab48957edcdbd6aae4057970ab478a1",
  "bytecode": "0x60806040523480156200001157600080fd5b506040518060400160405280601581526020017f486f7573696e67205374616b696e6720546f6b656e0000000000000000000000815250604051806040016040528060038152602001621214d560ea1b815250604051806020016040528060008152506200008581620000b760201b60201c565b506200009133620000c9565b60056200009f8382620001c2565b506006620000ae8282620001c2565b5050506200028e565b6002620000c58282620001c2565b5050565b600380546001600160a01b038381166001600160a01b0319831681179093556040519116919082907f8be0079c531659141344cd1fd0a4f28419497f9722a3daafe3b4186f6b6457e090600090a35050565b634e487b7160e01b600052604160045260246000fd5b600181811c908216806200014657607f821691505b6020821081036200016757634e487b7160e01b600052602260045260246000fd5b50919050565b601f821115620001bd576000816000526020600020601f850160051c81016020861015620001985750805b601f850160051c820191505b81811015620001b957828155600101620001a4565b5050505b505050565b81516001600160401b03811115620001de57620001de6200011b565b620001f681620001ef845462000131565b846200016d565b602080601f8311600181146200022e5760008415620002155750858301515b600019600386901b1c1916600185901b178555620001b9565b600085815260208120601f198616915b828110156200025f578886015182559484019460019091019084016200023e565b50858210156200027e5787850151600019600388901b60f8161c191681555b5050505050600190811b01905550565b6129ec806200029e6000396000f3fe608060405234801561001057600080fd5b506004361061012b5760003560e01c8063715018a6116100ad578063d8938f2611610071578063d8938f2614610290578063e985e9c5146102a3578063f242432a146102df578063f2fde38b146102f2578063fddab8221461030557600080fd5b8063715018a6146102325780638da5cb5b1461023a57806395d89b4114610255578063a22cb4651461025d578063a42accea1461027057600080fd5b8063493fe80f116100f4578063493fe80f146101b65780634e1273f4146101d65780634fa3d25d146101f65780635124ae95146102095780636addb6631461021c57600080fd5b8062fdd58e1461013057806301ffc9a71461015657806306fdde03146101795780630e89341c1461018e5780632eb2c2d6146101a1575b600080fd5b61014361013e366004611b52565b610318565b6040519081526020015b60405180910390f35b610169610164366004611b94565b6103b1565b604051901515815260200161014d565b610181610401565b60405161014d9190611bf7565b61018161019c366004611c0a565b610493565b6101b46101af366004611dbe565b610527565b005b6101c96101c4366004611c0a565b610573565b60405161014d9190611f58565b6101e96101e4366004611f6b565b610597565b60405161014d9190612037565b610169610204366004611b52565b6106b8565b6101e961021736600461204a565b6106e1565b610224610705565b60405161014d929190612067565b6101b461082c565b6003546040516001600160a01b03909116815260200161014d565b610181610840565b6101b461026b36600461208c565b61084f565b61028361027e36600461204a565b61085e565b60405161014d91906120ca565b61014361029e36600461214b565b61094e565b6101696102b13660046121ad565b6001600160a01b03918216600090815260016020908152604080832093909416825291909152205460ff1690565b6101b46102ed3660046121db565b610986565b6101b461030036600461204a565b6109cb565b6101c9610313366004612243565b610a44565b60006001600160a01b0383166103885760405162461bcd60e51b815260206004820152602a60248201527f455243313135353a2061646472657373207a65726f206973206e6f742061207660448201526930b634b21037bbb732b960b11b60648201526084015b60405180910390fd5b506000818152602081815260408083206001600160a01b03861684529091529020545b92915050565b60006001600160e01b03198216636cdb3d1360e11b14806103e257506001600160e01b031982166303a24d0760e21b145b806103ab57506301ffc9a760e01b6001600160e01b03198316146103ab565b60606005805461041090612310565b80601f016020809104026020016040519081016040528092919081815260200182805461043c90612310565b80156104895780601f1061045e57610100808354040283529160200191610489565b820191906000526020600020905b81548152906001019060200180831161046c57829003601f168201915b5050505050905090565b6060600280546104a290612310565b80601f01602080910402602001604051908101604052809291908181526020018280546104ce90612310565b801561051b5780601f106104f05761010080835404028352916020019161051b565b820191906000526020600020905b8154815290600101906020018083116104fe57829003601f168201915b50505050509050919050565b6001600160a01b038516331480610543575061054385336102b1565b61055f5760405162461bcd60e51b815260040161037f9061234a565b61056c8585858585610c7a565b5050505050565b61057b611aca565b61058482610e5e565b8060200190518101906103ab919061249f565b606081518351146105fc5760405162461bcd60e51b815260206004820152602960248201527f455243313135353a206163636f756e747320616e6420696473206c656e677468604482015268040dad2e6dac2e8c6d60bb1b606482015260840161037f565b600083516001600160401b0381111561061757610617611c23565b604051908082528060200260200182016040528015610640578160200160208202803683370190505b50905060005b84518110156106b05761068b85828151811061066457610664612561565b602002602001015185838151811061067e5761067e612561565b6020026020010151610318565b82828151811061069d5761069d612561565b6020908102919091010152600101610646565b509392505050565b6001600160a01b03821660009081526008602052604081206106da9083610e7b565b9392505050565b6001600160a01b03811660009081526008602052604090206060906103ab90610e93565b6060806005600681805461071890612310565b80601f016020809104026020016040519081016040528092919081815260200182805461074490612310565b80156107915780601f1061076657610100808354040283529160200191610791565b820191906000526020600020905b81548152906001019060200180831161077457829003601f168201915b505050505091508080546107a490612310565b80601f01602080910402602001604051908101604052809291908181526020018280546107d090612310565b801561081d5780601f106107f25761010080835404028352916020019161081d565b820191906000526020600020905b81548152906001019060200180831161080057829003601f168201915b50505050509050915091509091565b610834610ea0565b61083e6000610efa565b565b60606006805461041090612310565b61085a338383610f4c565b5050565b6060600061086b8361102c565b9050600081516001600160401b0381111561088857610888611c23565b6040519080825280602002602001820160405280156108c157816020015b6108ae611b07565b8152602001906001900390816108a65790505b50905060005b82518110156106b05760008382815181106108e4576108e4612561565b60200260200101519050604051806060016040528082600001518152602001826020015181526020018260400151806020019051810190610925919061249f565b81525083838151811061093a5761093a612561565b6020908102919091010152506001016108c7565b6000610958610ea0565b6109638585856111c9565b6000831161097257600061097d565b61097d85848461135e565b95945050505050565b6001600160a01b0385163314806109a257506109a285336102b1565b6109be5760405162461bcd60e51b815260040161037f9061234a565b61056c85858585856113c8565b6109d3610ea0565b6001600160a01b038116610a385760405162461bcd60e51b815260206004820152602660248201527f4f776e61626c653a206e6577206f776e657220697320746865207a65726f206160448201526564647265737360d01b606482015260840161037f565b610a4181610efa565b50565b610a4c611aca565b610a54610ea0565b60b48510158015610a6757506104388511155b610aab5760405162461bcd60e51b815260206004820152601560248201527424b73b30b634b2103637b1b590323ab930ba34b7b760591b604482015260640161037f565b6000841180610abb575060008351115b610af75760405162461bcd60e51b815260206004820152600d60248201526c135d5cdd081cd95b990814d215609a1b604482015260640161037f565b878015801590610b085750600a8111155b610b685760405162461bcd60e51b815260206004820152602b60248201527f4d7573742073656e6420617070726f766564206e756d626572206f662070726f60448201526a6a65637420746f6b656e7360a81b606482015260840161037f565b6000610b748688611500565b6040805161010060208e028201810190925260e081018d81529293509182918e908e90819060009086015b82821015610bcb57610bbc60608302860136819003810190612577565b81526020019060010190610b9f565b505050505081526020018a81526020018981526020018781526020018281526020018881526020018681525092506000610c2685600186604051602001610c129190611f58565b60405160208183030381529060405261135e565b9050846001600160a01b03167f9b793efebbdc1360e1f749d6bc35b967738eaa3e4c0d56b28009633b313a5a448286604051610c639291906125bf565b60405180910390a250505098975050505050505050565b8151835114610cdc5760405162461bcd60e51b815260206004820152602860248201527f455243313135353a2069647320616e6420616d6f756e7473206c656e677468206044820152670dad2e6dac2e8c6d60c31b606482015260840161037f565b6001600160a01b038416610d025760405162461bcd60e51b815260040161037f906125e0565b33610d1181878787878761150c565b60005b8451811015610df0576000858281518110610d3157610d31612561565b602002602001015190506000858381518110610d4f57610d4f612561565b602090810291909101810151600084815280835260408082206001600160a01b038e168352909352919091205490915081811015610d9f5760405162461bcd60e51b815260040161037f90612625565b6000838152602081815260408083206001600160a01b038e8116855292528083208585039055908b16825281208054849290610ddc908490612685565b909155505060019093019250610d14915050565b50846001600160a01b0316866001600160a01b0316826001600160a01b03167f4a39dc06d4c0dbc64b70af90fd698a233a518aa5d07e595d983b8c0526c8f7fb8787604051610e40929190612698565b60405180910390a4610e5681878787878761159a565b505050505050565b60008181526007602052604090208054606091906104a290612310565b600081815260018301602052604081205415156106da565b606060006106da836116f5565b6003546001600160a01b0316331461083e5760405162461bcd60e51b815260206004820181905260248201527f4f776e61626c653a2063616c6c6572206973206e6f7420746865206f776e6572604482015260640161037f565b600380546001600160a01b038381166001600160a01b0319831681179093556040519116919082907f8be0079c531659141344cd1fd0a4f28419497f9722a3daafe3b4186f6b6457e090600090a35050565b816001600160a01b0316836001600160a01b031603610fbf5760405162461bcd60e51b815260206004820152602960248201527f455243313135353a2073657474696e6720617070726f76616c20737461747573604482015268103337b91039b2b63360b91b606482015260840161037f565b6001600160a01b03838116600081815260016020908152604080832094871680845294825291829020805460ff191686151590811790915591519182527f17307eab39ab6107e8899845ad3d59bd9653f200f220920489ca2b5937696c31910160405180910390a3505050565b60606000611039836106e1565b9050600081516001600160401b0381111561105657611056611c23565b6040519080825280602002602001820160405280156110ab57816020015b61109860405180606001604052806000815260200160008152602001606081525090565b8152602001906001900390816110745790505b50905060005b82518110156106b05760008382815181106110ce576110ce612561565b6020026020010151905060006007600083815260200190815260200160002080546110f890612310565b80601f016020809104026020016040519081016040528092919081815260200182805461112490612310565b80156111715780601f1061114657610100808354040283529160200191611171565b820191906000526020600020905b81548152906001019060200180831161115457829003601f168201915b5050505050905060006111848884610318565b90506040518060600160405280848152602001828152602001838152508585815181106111b3576111b3612561565b60209081029190910101525050506001016110b1565b6001600160a01b03831661122b5760405162461bcd60e51b815260206004820152602360248201527f455243313135353a206275726e2066726f6d20746865207a65726f206164647260448201526265737360e81b606482015260840161037f565b33600061123784611750565b9050600061124484611750565b90506112648387600085856040518060200160405280600081525061150c565b6000858152602081815260408083206001600160a01b038a168452909152902054848110156112e15760405162461bcd60e51b8152602060048201526024808201527f455243313135353a206275726e20616d6f756e7420657863656564732062616c604482015263616e636560e01b606482015260840161037f565b6000868152602081815260408083206001600160a01b038b81168086529184528285208a8703905582518b81529384018a90529092908816917fc3d58168c5ae7397731d063d5bbf3d657854427343f4c083240f7aacaa2d0f62910160405180910390a46040805160208101909152600090525b50505050505050565b600061136e600480546001019055565b50600454600081815260076020526040902061138a838261270a565b506113a68482856040518060200160405280600081525061179b565b6001600160a01b03841660009081526008602052604090206106b090826118b5565b6001600160a01b0384166113ee5760405162461bcd60e51b815260040161037f906125e0565b3360006113fa85611750565b9050600061140785611750565b905061141783898985858961150c565b6000868152602081815260408083206001600160a01b038c168452909152902054858110156114585760405162461bcd60e51b815260040161037f90612625565b6000878152602081815260408083206001600160a01b038d8116855292528083208985039055908a16825281208054889290611495908490612685565b909155505060408051888152602081018890526001600160a01b03808b16928c821692918816917fc3d58168c5ae7397731d063d5bbf3d657854427343f4c083240f7aacaa2d0f62910160405180910390a46114f5848a8a8a8a8a6118c1565b505050505050505050565b60006106da82846127c9565b60005b835181101561135557600084828151811061152c5761152c612561565b6020026020010151905061156d81600860008a6001600160a01b03166001600160a01b0316815260200190815260200160002061197c90919063ffffffff16565b506001600160a01b038616600090815260086020526040902061159090826118b5565b505060010161150f565b6001600160a01b0384163b15610e565760405163bc197c8160e01b81526001600160a01b0385169063bc197c81906115de90899089908890889088906004016127e0565b6020604051808303816000875af1925050508015611619575060408051601f3d908101601f191682019092526116169181019061283e565b60015b6116c55761162561285b565b806308c379a00361165e5750611639612877565b806116445750611660565b8060405162461bcd60e51b815260040161037f9190611bf7565b505b60405162461bcd60e51b815260206004820152603460248201527f455243313135353a207472616e7366657220746f206e6f6e2d455243313135356044820152732932b1b2b4bb32b91034b6b83632b6b2b73a32b960611b606482015260840161037f565b6001600160e01b0319811663bc197c8160e01b146113555760405162461bcd60e51b815260040161037f90612900565b60608160000180548060200260200160405190810160405280929190818152602001828054801561051b57602002820191906000526020600020905b8154815260200190600101908083116117315750505050509050919050565b6040805160018082528183019092526060916000919060208083019080368337019050509050828160008151811061178a5761178a612561565b602090810291909101015292915050565b6001600160a01b0384166117fb5760405162461bcd60e51b815260206004820152602160248201527f455243313135353a206d696e7420746f20746865207a65726f206164647265736044820152607360f81b606482015260840161037f565b33600061180785611750565b9050600061181485611750565b90506118258360008985858961150c565b6000868152602081815260408083206001600160a01b038b16845290915281208054879290611855908490612685565b909155505060408051878152602081018790526001600160a01b03808a1692600092918716917fc3d58168c5ae7397731d063d5bbf3d657854427343f4c083240f7aacaa2d0f62910160405180910390a4611355836000898989896118c1565b60006106da8383611988565b6001600160a01b0384163b15610e565760405163f23a6e6160e01b81526001600160a01b0385169063f23a6e61906119059089908990889088908890600401612948565b6020604051808303816000875af1925050508015611940575060408051601f3d908101601f1916820190925261193d9181019061283e565b60015b61194c5761162561285b565b6001600160e01b0319811663f23a6e6160e01b146113555760405162461bcd60e51b815260040161037f90612900565b60006106da83836119d7565b60008181526001830160205260408120546119cf575081546001818101845560008481526020808220909301849055845484825282860190935260409020919091556103ab565b5060006103ab565b60008181526001830160205260408120548015611ac05760006119fb60018361298d565b8554909150600090611a0f9060019061298d565b9050818114611a74576000866000018281548110611a2f57611a2f612561565b9060005260206000200154905080876000018481548110611a5257611a52612561565b6000918252602080832090910192909255918252600188019052604090208390555b8554869080611a8557611a856129a0565b6001900381819060005260206000200160009055905585600101600086815260200190815260200160002060009055600193505050506103ab565b60009150506103ab565b6040518060e00160405280606081526020016000815260200160008152602001600081526020016000815260200160008152602001606081525090565b60405180606001604052806000815260200160008152602001611b28611aca565b905290565b6001600160a01b0381168114610a4157600080fd5b8035611b4d81611b2d565b919050565b60008060408385031215611b6557600080fd5b8235611b7081611b2d565b946020939093013593505050565b6001600160e01b031981168114610a4157600080fd5b600060208284031215611ba657600080fd5b81356106da81611b7e565b6000815180845260005b81811015611bd757602081850181015186830182015201611bbb565b506000602082860101526020601f19601f83011685010191505092915050565b6020815260006106da6020830184611bb1565b600060208284031215611c1c57600080fd5b5035919050565b634e487b7160e01b600052604160045260246000fd5b606081018181106001600160401b0382111715611c5857611c58611c23565b60405250565b601f8201601f191681016001600160401b0381118282101715611c8357611c83611c23565b6040525050565b60405160e081016001600160401b0381118282101715611cac57611cac611c23565b60405290565b60006001600160401b03821115611ccb57611ccb611c23565b5060051b60200190565b600082601f830112611ce657600080fd5b81356020611cf382611cb2565b604051611d008282611c5e565b80915083815260208101915060208460051b870101935086841115611d2457600080fd5b602086015b84811015611d405780358352918301918301611d29565b509695505050505050565b600082601f830112611d5c57600080fd5b81356001600160401b03811115611d7557611d75611c23565b604051611d8c601f8301601f191660200182611c5e565b818152846020838601011115611da157600080fd5b816020850160208301376000918101602001919091529392505050565b600080600080600060a08688031215611dd657600080fd5b8535611de181611b2d565b94506020860135611df181611b2d565b935060408601356001600160401b0380821115611e0d57600080fd5b611e1989838a01611cd5565b94506060880135915080821115611e2f57600080fd5b611e3b89838a01611cd5565b93506080880135915080821115611e5157600080fd5b50611e5e88828901611d4b565b9150509295509295909350565b60008151808452602080850194506020840160005b83811015611e9c57815187529582019590820190600101611e80565b509495945050505050565b805160e0808452815190840181905260009160209190820190610100860190845b81811015611f0357835180516001600160a01b0316845285810151868501526040908101519084015292840192606090920191600101611ec8565b5050828501518387015260408501516040870152606085015160608701526080850151608087015260a085015160a087015260c0850151925085810360c0870152611f4e8184611e6b565b9695505050505050565b6020815260006106da6020830184611ea7565b60008060408385031215611f7e57600080fd5b82356001600160401b0380821115611f9557600080fd5b818501915085601f830112611fa957600080fd5b81356020611fb682611cb2565b604051611fc38282611c5e565b83815260059390931b8501820192828101915089841115611fe357600080fd5b948201945b8386101561200a578535611ffb81611b2d565b82529482019490820190611fe8565b9650508601359250508082111561202057600080fd5b5061202d85828601611cd5565b9150509250929050565b6020815260006106da6020830184611e6b565b60006020828403121561205c57600080fd5b81356106da81611b2d565b60408152600061207a6040830185611bb1565b828103602084015261097d8185611bb1565b6000806040838503121561209f57600080fd5b82356120aa81611b2d565b9150602083013580151581146120bf57600080fd5b809150509250929050565b600060208083018184528085518083526040925060408601915060408160051b87010184880160005b8381101561213d57888303603f190185528151805184528781015188850152860151606087850181905261212981860183611ea7565b9689019694505050908601906001016120f3565b509098975050505050505050565b6000806000806080858703121561216157600080fd5b843561216c81611b2d565b9350602085013592506040850135915060608501356001600160401b0381111561219557600080fd5b6121a187828801611d4b565b91505092959194509250565b600080604083850312156121c057600080fd5b82356121cb81611b2d565b915060208301356120bf81611b2d565b600080600080600060a086880312156121f357600080fd5b85356121fe81611b2d565b9450602086013561220e81611b2d565b9350604086013592506060860135915060808601356001600160401b0381111561223757600080fd5b611e5e88828901611d4b565b60008060008060008060008060e0898b03121561225f57600080fd5b88356001600160401b038082111561227657600080fd5b818b0191508b601f83011261228a57600080fd5b81358181111561229957600080fd5b8c60206060830285010111156122ae57600080fd5b60209283019a509850908a0135965060408a0135955060608a0135945060808a0135935060a08a013590808211156122e557600080fd5b506122f28b828c01611cd5565b92505061230160c08a01611b42565b90509295985092959890939650565b600181811c9082168061232457607f821691505b60208210810361234457634e487b7160e01b600052602260045260246000fd5b50919050565b6020808252602e908201527f455243313135353a2063616c6c6572206973206e6f7420746f6b656e206f776e60408201526d195c881bdc88185c1c1c9bdd995960921b606082015260800190565b600082601f8301126123a957600080fd5b815160206123b682611cb2565b604080516123c48382611c5e565b848152606094850287018401948482019350888611156123e357600080fd5b8488015b8681101561213d5781818b0312156123ff5760008081fd5b835161240a81611c39565b815161241581611b2d565b81528187015187820152848201518582015285529385019381016123e7565b600082601f83011261244557600080fd5b8151602061245282611cb2565b60405161245f8282611c5e565b80915083815260208101915060208460051b87010193508684111561248357600080fd5b602086015b84811015611d405780518352918301918301612488565b6000602082840312156124b157600080fd5b81516001600160401b03808211156124c857600080fd5b9083019060e082860312156124dc57600080fd5b6124e4611c8a565b8251828111156124f357600080fd5b6124ff87828601612398565b8252506020830151602082015260408301516040820152606083015160608201526080830151608082015260a083015160a082015260c08301518281111561254657600080fd5b61255287828601612434565b60c08301525095945050505050565b634e487b7160e01b600052603260045260246000fd5b60006060828403121561258957600080fd5b60405161259581611c39565b82356125a081611b2d565b8152602083810135908201526040928301359281019290925250919050565b8281526040602082015260006125d86040830184611ea7565b949350505050565b60208082526025908201527f455243313135353a207472616e7366657220746f20746865207a65726f206164604082015264647265737360d81b606082015260800190565b6020808252602a908201527f455243313135353a20696e73756666696369656e742062616c616e636520666f60408201526939103a3930b739b332b960b11b606082015260800190565b634e487b7160e01b600052601160045260246000fd5b808201808211156103ab576103ab61266f565b6040815260006126ab6040830185611e6b565b828103602084015261097d8185611e6b565b601f821115612705576000816000526020600020601f850160051c810160208610156126e65750805b601f850160051c820191505b81811015610e56578281556001016126f2565b505050565b81516001600160401b0381111561272357612723611c23565b612737816127318454612310565b846126bd565b602080601f83116001811461276c57600084156127545750858301515b600019600386901b1c1916600185901b178555610e56565b600085815260208120601f198616915b8281101561279b5788860151825594840194600190910190840161277c565b50858210156127b95787850151600019600388901b60f8161c191681555b5050505050600190811b01905550565b80820281158282048414176103ab576103ab61266f565b6001600160a01b0386811682528516602082015260a06040820181905260009061280c90830186611e6b565b828103606084015261281e8186611e6b565b905082810360808401526128328185611bb1565b98975050505050505050565b60006020828403121561285057600080fd5b81516106da81611b7e565b600060033d11156128745760046000803e5060005160e01c5b90565b600060443d10156128855790565b6040516003193d81016004833e81513d6001600160401b0381602484011181841117156128b457505050505090565b82850191508151818111156128cc5750505050505090565b843d87010160208285010111156128e65750505050505090565b6128f560208286010187611c5e565b509095945050505050565b60208082526028908201527f455243313135353a204552433131353552656365697665722072656a656374656040820152676420746f6b656e7360c01b606082015260800190565b6001600160a01b03868116825285166020820152604081018490526060810183905260a06080820181905260009061298290830184611bb1565b979650505050505050565b818103818111156103ab576103ab61266f565b634e487b7160e01b600052603160045260246000fdfea264697066735822122097da460062b3b18182c123c76392be5786bd401c98b9185829ce55e92bfe91ea64736f6c63430008180033",
  "devdoc": {
    "events": {
      "ApprovalForAll(address,address,bool)": {
        "details": "Emitted when `account` grants or revokes permission to `operator` to transfer their tokens, according to `approved`."
      },
      "TransferBatch(address,address,address,uint256[],uint256[])": {
        "details": "Equivalent to multiple {TransferSingle} events, where `operator`, `from` and `to` are the same for all transfers."
      },
      "TransferSingle(address,address,address,uint256,uint256)": {
        "details": "Emitted when `value` tokens of token type `id` are transferred from `from` to `to` by `operator`."
      },
      "URI(string,uint256)": {
        "details": "Emitted when the URI for token type `id` changes to `value`, if it is a non-programmatic URI. If an {URI} event was emitted for `id`, the standard https://eips.ethereum.org/EIPS/eip-1155#metadata-extensions[guarantees] that `value` will equal the value returned by {IERC1155MetadataURI-uri}."
      }
    },
    "kind": "dev",
    "methods": {
      "balanceOf(address,uint256)": {
        "details": "See {IERC1155-balanceOf}. Requirements: - `account` cannot be the zero address."
      },
      "balanceOfBatch(address[],uint256[])": {
        "details": "See {IERC1155-balanceOfBatch}. Requirements: - `accounts` and `ids` must have the same length."
      },
      "getNonces(address)": {
        "params": {
          "owner": "The address of the token owner."
        },
        "returns": {
          "_0": "Array of nonces."
        }
      },
      "hasSFT(address,uint256)": {
        "params": {
          "nonce": "The nonce to check.",
          "owner": "The address of the token owner."
        },
        "returns": {
          "_0": "True if the address owns the nonce, otherwise false."
        }
      },
      "isApprovedForAll(address,address)": {
        "details": "See {IERC1155-isApprovedForAll}."
      },
      "mint((address,uint256,uint256)[],uint256,uint256,uint256,uint256,uint256[],address)": {
        "params": {
          "caller": "Address of the caller requesting the minting.",
          "lkDuration": "Duration of the lock in epochs.",
          "lkShtNonces": "Array of nonces associated with locked SHT.",
          "projectTokens": "Array of project tokens associated with the HST.",
          "projectsShareCheckpoint": "The checkpoint for project share calculations.",
          "shtAmount": "Amount of SHT to be associated with the token.",
          "shtRewardPerShare": "The reward per share of SHT."
        },
        "returns": {
          "attr": "The attributes associated with the minted token."
        }
      },
      "name()": {
        "returns": {
          "_0": "The name of the token."
        }
      },
      "owner()": {
        "details": "Returns the address of the current owner."
      },
      "renounceOwnership()": {
        "details": "Leaves the contract without owner. It will not be possible to call `onlyOwner` functions anymore. Can only be called by the current owner. NOTE: Renouncing ownership will leave the contract without an owner, thereby removing any functionality that is only available to the owner."
      },
      "safeBatchTransferFrom(address,address,uint256[],uint256[],bytes)": {
        "details": "See {IERC1155-safeBatchTransferFrom}."
      },
      "safeTransferFrom(address,address,uint256,uint256,bytes)": {
        "details": "See {IERC1155-safeTransferFrom}."
      },
      "setApprovalForAll(address,bool)": {
        "details": "See {IERC1155-setApprovalForAll}."
      },
      "sftBalance(address)": {
        "params": {
          "user": "Address of the user whose balance is to be retrieved."
        },
        "returns": {
          "_0": "balance Array of HSTBalance representing the user's HST holdings."
        }
      },
      "supportsInterface(bytes4)": {
        "details": "See {IERC165-supportsInterface}."
      },
      "symbol()": {
        "returns": {
          "_0": "The symbol of the token."
        }
      },
      "tokenInfo()": {
        "returns": {
          "_0": "name The name of the token.",
          "_1": "symbol The symbol of the token."
        }
      },
      "transferOwnership(address)": {
        "details": "Transfers ownership of the contract to a new account (`newOwner`). Can only be called by the current owner."
      },
      "update(address,uint256,uint256,bytes)": {
        "params": {
          "amount": "The amount of tokens to mint.",
          "attr": "The new attributes to assign.",
          "nonce": "The nonce of the token to update.",
          "user": "The address of the token holder."
        },
        "returns": {
          "_0": "The new nonce for the minted tokens."
        }
      },
      "uri(uint256)": {
        "details": "See {IERC1155MetadataURI-uri}. This implementation returns the same URI for *all* token types. It relies on the token type ID substitution mechanism https://eips.ethereum.org/EIPS/eip-1155#metadata[defined in the EIP]. Clients calling this function must replace the `\\{id\\}` substring with the actual token type ID."
      }
    },
    "version": 1
  },
  "userdoc": {
    "kind": "user",
    "methods": {
      "getNonces(address)": {
        "notice": "Returns the list of nonces owned by an address."
      },
      "hasSFT(address,uint256)": {
        "notice": "Checks if the address owns a specific nonce."
      },
      "mint((address,uint256,uint256)[],uint256,uint256,uint256,uint256,uint256[],address)": {
        "notice": "Mints a new Housing Staking Token (HST) with specified attributes."
      },
      "name()": {
        "notice": "Returns the name of the token."
      },
      "sftBalance(address)": {
        "notice": "Retrieves the balance of HST tokens for a specified user."
      },
      "symbol()": {
        "notice": "Returns the symbol of the token."
      },
      "tokenInfo()": {
        "notice": "Returns the token name and symbol."
      },
      "update(address,uint256,uint256,bytes)": {
        "notice": "Burns the tokens of a specific nonce and mints new tokens with updated attributes."
      }
    },
    "version": 1
  },
  "storageLayout": {
    "storage": [
      {
        "astId": 141,
        "contract": "contracts/main/HST.sol:HousingStakingToken",
        "label": "_balances",
        "offset": 0,
        "slot": "0",
        "type": "t_mapping(t_uint256,t_mapping(t_address,t_uint256))"
      },
      {
        "astId": 147,
        "contract": "contracts/main/HST.sol:HousingStakingToken",
        "label": "_operatorApprovals",
        "offset": 0,
        "slot": "1",
        "type": "t_mapping(t_address,t_mapping(t_address,t_bool))"
      },
      {
        "astId": 149,
        "contract": "contracts/main/HST.sol:HousingStakingToken",
        "label": "_uri",
        "offset": 0,
        "slot": "2",
        "type": "t_string_storage"
      },
      {
        "astId": 7,
        "contract": "contracts/main/HST.sol:HousingStakingToken",
        "label": "_owner",
        "offset": 0,
        "slot": "3",
        "type": "t_address"
      },
      {
        "astId": 8111,
        "contract": "contracts/main/HST.sol:HousingStakingToken",
        "label": "_nonceCounter",
        "offset": 0,
        "slot": "4",
        "type": "t_struct(Counter)2693_storage"
      },
      {
        "astId": 8113,
        "contract": "contracts/main/HST.sol:HousingStakingToken",
        "label": "_name",
        "offset": 0,
        "slot": "5",
        "type": "t_string_storage"
      },
      {
        "astId": 8115,
        "contract": "contracts/main/HST.sol:HousingStakingToken",
        "label": "_symbol",
        "offset": 0,
        "slot": "6",
        "type": "t_string_storage"
      },
      {
        "astId": 8119,
        "contract": "contracts/main/HST.sol:HousingStakingToken",
        "label": "_tokenAttributes",
        "offset": 0,
        "slot": "7",
        "type": "t_mapping(t_uint256,t_bytes_storage)"
      },
      {
        "astId": 8124,
        "contract": "contracts/main/HST.sol:HousingStakingToken",
        "label": "_addressToNonces",
        "offset": 0,
        "slot": "8",
        "type": "t_mapping(t_address,t_struct(UintSet)3592_storage)"
      }
    ],
    "types": {
      "t_address": {
        "encoding": "inplace",
        "label": "address",
        "numberOfBytes": "20"
      },
      "t_array(t_bytes32)dyn_storage": {
        "base": "t_bytes32",
        "encoding": "dynamic_array",
        "label": "bytes32[]",
        "numberOfBytes": "32"
      },
      "t_bool": {
        "encoding": "inplace",
        "label": "bool",
        "numberOfBytes": "1"
      },
      "t_bytes32": {
        "encoding": "inplace",
        "label": "bytes32",
        "numberOfBytes": "32"
      },
      "t_bytes_storage": {
        "encoding": "bytes",
        "label": "bytes",
        "numberOfBytes": "32"
      },
      "t_mapping(t_address,t_bool)": {
        "encoding": "mapping",
        "key": "t_address",
        "label": "mapping(address => bool)",
        "numberOfBytes": "32",
        "value": "t_bool"
      },
      "t_mapping(t_address,t_mapping(t_address,t_bool))": {
        "encoding": "mapping",
        "key": "t_address",
        "label": "mapping(address => mapping(address => bool))",
        "numberOfBytes": "32",
        "value": "t_mapping(t_address,t_bool)"
      },
      "t_mapping(t_address,t_struct(UintSet)3592_storage)": {
        "encoding": "mapping",
        "key": "t_address",
        "label": "mapping(address => struct EnumerableSet.UintSet)",
        "numberOfBytes": "32",
        "value": "t_struct(UintSet)3592_storage"
      },
      "t_mapping(t_address,t_uint256)": {
        "encoding": "mapping",
        "key": "t_address",
        "label": "mapping(address => uint256)",
        "numberOfBytes": "32",
        "value": "t_uint256"
      },
      "t_mapping(t_bytes32,t_uint256)": {
        "encoding": "mapping",
        "key": "t_bytes32",
        "label": "mapping(bytes32 => uint256)",
        "numberOfBytes": "32",
        "value": "t_uint256"
      },
      "t_mapping(t_uint256,t_bytes_storage)": {
        "encoding": "mapping",
        "key": "t_uint256",
        "label": "mapping(uint256 => bytes)",
        "numberOfBytes": "32",
        "value": "t_bytes_storage"
      },
      "t_mapping(t_uint256,t_mapping(t_address,t_uint256))": {
        "encoding": "mapping",
        "key": "t_uint256",
        "label": "mapping(uint256 => mapping(address => uint256))",
        "numberOfBytes": "32",
        "value": "t_mapping(t_address,t_uint256)"
      },
      "t_string_storage": {
        "encoding": "bytes",
        "label": "string",
        "numberOfBytes": "32"
      },
      "t_struct(Counter)2693_storage": {
        "encoding": "inplace",
        "label": "struct Counters.Counter",
        "members": [
          {
            "astId": 2692,
            "contract": "contracts/main/HST.sol:HousingStakingToken",
            "label": "_value",
            "offset": 0,
            "slot": "0",
            "type": "t_uint256"
          }
        ],
        "numberOfBytes": "32"
      },
      "t_struct(Set)3120_storage": {
        "encoding": "inplace",
        "label": "struct EnumerableSet.Set",
        "members": [
          {
            "astId": 3115,
            "contract": "contracts/main/HST.sol:HousingStakingToken",
            "label": "_values",
            "offset": 0,
            "slot": "0",
            "type": "t_array(t_bytes32)dyn_storage"
          },
          {
            "astId": 3119,
            "contract": "contracts/main/HST.sol:HousingStakingToken",
            "label": "_indexes",
            "offset": 0,
            "slot": "1",
            "type": "t_mapping(t_bytes32,t_uint256)"
          }
        ],
        "numberOfBytes": "64"
      },
      "t_struct(UintSet)3592_storage": {
        "encoding": "inplace",
        "label": "struct EnumerableSet.UintSet",
        "members": [
          {
            "astId": 3591,
            "contract": "contracts/main/HST.sol:HousingStakingToken",
            "label": "_inner",
            "offset": 0,
            "slot": "0",
            "type": "t_struct(Set)3120_storage"
          }
        ],
        "numberOfBytes": "64"
      },
      "t_uint256": {
        "encoding": "inplace",
        "label": "uint256",
        "numberOfBytes": "32"
      }
    }
  }
}