{
  "address": "0xa7fD31a9A61470eD895A560f26E3a0e6A45988b1",
  "abi": [
    {
      "inputs": [
        {
          "internalType": "string",
          "name": "name_",
          "type": "string"
        },
        {
          "internalType": "string",
          "name": "symbol_",
          "type": "string"
        }
      ],
      "stateMutability": "nonpayable",
      "type": "constructor"
    },
    {
      "anonymous": false,
      "inputs": [
        {
          "indexed": true,
          "internalType": "address",
          "name": "account",
          "type": "address"
        },
        {
          "indexed": true,
          "internalType": "address",
          "name": "operator",
          "type": "address"
        },
        {
          "indexed": false,
          "internalType": "bool",
          "name": "approved",
          "type": "bool"
        }
      ],
      "name": "ApprovalForAll",
      "type": "event"
    },
    {
      "anonymous": false,
      "inputs": [
        {
          "indexed": true,
          "internalType": "address",
          "name": "previousOwner",
          "type": "address"
        },
        {
          "indexed": true,
          "internalType": "address",
          "name": "newOwner",
          "type": "address"
        }
      ],
      "name": "OwnershipTransferred",
      "type": "event"
    },
    {
      "anonymous": false,
      "inputs": [
        {
          "indexed": true,
          "internalType": "address",
          "name": "to",
          "type": "address"
        },
        {
          "indexed": false,
          "internalType": "uint256",
          "name": "amount",
          "type": "uint256"
        }
      ],
      "name": "TokensMinted",
      "type": "event"
    },
    {
      "anonymous": false,
      "inputs": [
        {
          "indexed": true,
          "internalType": "address",
          "name": "operator",
          "type": "address"
        },
        {
          "indexed": true,
          "internalType": "address",
          "name": "from",
          "type": "address"
        },
        {
          "indexed": true,
          "internalType": "address",
          "name": "to",
          "type": "address"
        },
        {
          "indexed": false,
          "internalType": "uint256[]",
          "name": "ids",
          "type": "uint256[]"
        },
        {
          "indexed": false,
          "internalType": "uint256[]",
          "name": "values",
          "type": "uint256[]"
        }
      ],
      "name": "TransferBatch",
      "type": "event"
    },
    {
      "anonymous": false,
      "inputs": [
        {
          "indexed": true,
          "internalType": "address",
          "name": "operator",
          "type": "address"
        },
        {
          "indexed": true,
          "internalType": "address",
          "name": "from",
          "type": "address"
        },
        {
          "indexed": true,
          "internalType": "address",
          "name": "to",
          "type": "address"
        },
        {
          "indexed": false,
          "internalType": "uint256",
          "name": "id",
          "type": "uint256"
        },
        {
          "indexed": false,
          "internalType": "uint256",
          "name": "value",
          "type": "uint256"
        }
      ],
      "name": "TransferSingle",
      "type": "event"
    },
    {
      "anonymous": false,
      "inputs": [
        {
          "indexed": false,
          "internalType": "string",
          "name": "value",
          "type": "string"
        },
        {
          "indexed": true,
          "internalType": "uint256",
          "name": "id",
          "type": "uint256"
        }
      ],
      "name": "URI",
      "type": "event"
    },
    {
      "inputs": [
        {
          "internalType": "address",
          "name": "account",
          "type": "address"
        },
        {
          "internalType": "uint256",
          "name": "id",
          "type": "uint256"
        }
      ],
      "name": "balanceOf",
      "outputs": [
        {
          "internalType": "uint256",
          "name": "",
          "type": "uint256"
        }
      ],
      "stateMutability": "view",
      "type": "function"
    },
    {
      "inputs": [
        {
          "internalType": "address[]",
          "name": "accounts",
          "type": "address[]"
        },
        {
          "internalType": "uint256[]",
          "name": "ids",
          "type": "uint256[]"
        }
      ],
      "name": "balanceOfBatch",
      "outputs": [
        {
          "internalType": "uint256[]",
          "name": "",
          "type": "uint256[]"
        }
      ],
      "stateMutability": "view",
      "type": "function"
    },
    {
      "inputs": [
        {
          "internalType": "address",
          "name": "owner",
          "type": "address"
        }
      ],
      "name": "getNonces",
      "outputs": [
        {
          "internalType": "uint256[]",
          "name": "",
          "type": "uint256[]"
        }
      ],
      "stateMutability": "view",
      "type": "function"
    },
    {
      "inputs": [
        {
          "internalType": "uint256",
          "name": "nonce",
          "type": "uint256"
        }
      ],
      "name": "getRawTokenAttributes",
      "outputs": [
        {
          "internalType": "bytes",
          "name": "",
          "type": "bytes"
        }
      ],
      "stateMutability": "view",
      "type": "function"
    },
    {
      "inputs": [
        {
          "internalType": "address",
          "name": "owner",
          "type": "address"
        },
        {
          "internalType": "uint256",
          "name": "nonce",
          "type": "uint256"
        }
      ],
      "name": "hasSFT",
      "outputs": [
        {
          "internalType": "bool",
          "name": "",
          "type": "bool"
        }
      ],
      "stateMutability": "view",
      "type": "function"
    },
    {
      "inputs": [
        {
          "internalType": "address",
          "name": "account",
          "type": "address"
        },
        {
          "internalType": "address",
          "name": "operator",
          "type": "address"
        }
      ],
      "name": "isApprovedForAll",
      "outputs": [
        {
          "internalType": "bool",
          "name": "",
          "type": "bool"
        }
      ],
      "stateMutability": "view",
      "type": "function"
    },
    {
      "inputs": [
        {
          "internalType": "uint256",
          "name": "amount",
          "type": "uint256"
        },
        {
          "internalType": "address",
          "name": "to",
          "type": "address"
        }
      ],
      "name": "mint",
      "outputs": [],
      "stateMutability": "nonpayable",
      "type": "function"
    },
    {
      "inputs": [],
      "name": "name",
      "outputs": [
        {
          "internalType": "string",
          "name": "",
          "type": "string"
        }
      ],
      "stateMutability": "view",
      "type": "function"
    },
    {
      "inputs": [],
      "name": "owner",
      "outputs": [
        {
          "internalType": "address",
          "name": "",
          "type": "address"
        }
      ],
      "stateMutability": "view",
      "type": "function"
    },
    {
      "inputs": [],
      "name": "renounceOwnership",
      "outputs": [],
      "stateMutability": "nonpayable",
      "type": "function"
    },
    {
      "inputs": [
        {
          "internalType": "address",
          "name": "from",
          "type": "address"
        },
        {
          "internalType": "address",
          "name": "to",
          "type": "address"
        },
        {
          "internalType": "uint256[]",
          "name": "ids",
          "type": "uint256[]"
        },
        {
          "internalType": "uint256[]",
          "name": "amounts",
          "type": "uint256[]"
        },
        {
          "internalType": "bytes",
          "name": "data",
          "type": "bytes"
        }
      ],
      "name": "safeBatchTransferFrom",
      "outputs": [],
      "stateMutability": "nonpayable",
      "type": "function"
    },
    {
      "inputs": [
        {
          "internalType": "address",
          "name": "from",
          "type": "address"
        },
        {
          "internalType": "address",
          "name": "to",
          "type": "address"
        },
        {
          "internalType": "uint256",
          "name": "id",
          "type": "uint256"
        },
        {
          "internalType": "uint256",
          "name": "amount",
          "type": "uint256"
        },
        {
          "internalType": "bytes",
          "name": "data",
          "type": "bytes"
        }
      ],
      "name": "safeTransferFrom",
      "outputs": [],
      "stateMutability": "nonpayable",
      "type": "function"
    },
    {
      "inputs": [
        {
          "internalType": "address",
          "name": "operator",
          "type": "address"
        },
        {
          "internalType": "bool",
          "name": "approved",
          "type": "bool"
        }
      ],
      "name": "setApprovalForAll",
      "outputs": [],
      "stateMutability": "nonpayable",
      "type": "function"
    },
    {
      "inputs": [
        {
          "internalType": "address",
          "name": "user",
          "type": "address"
        }
      ],
      "name": "sftBalance",
      "outputs": [
        {
          "components": [
            {
              "internalType": "uint256",
              "name": "nonce",
              "type": "uint256"
            },
            {
              "internalType": "uint256",
              "name": "amount",
              "type": "uint256"
            },
            {
              "components": [
                {
                  "internalType": "uint256",
                  "name": "initialAmount",
                  "type": "uint256"
                },
                {
                  "internalType": "uint256",
                  "name": "amount",
                  "type": "uint256"
                },
                {
                  "internalType": "uint256",
                  "name": "startTimestamp",
                  "type": "uint256"
                },
                {
                  "internalType": "uint256",
                  "name": "endTimestamp",
                  "type": "uint256"
                }
              ],
              "internalType": "struct LkSHTAttributes.Attributes",
              "name": "attributes",
              "type": "tuple"
            }
          ],
          "internalType": "struct LkSHT.LkSHTBalance[]",
          "name": "",
          "type": "tuple[]"
        }
      ],
      "stateMutability": "view",
      "type": "function"
    },
    {
      "inputs": [
        {
          "internalType": "bytes4",
          "name": "interfaceId",
          "type": "bytes4"
        }
      ],
      "name": "supportsInterface",
      "outputs": [
        {
          "internalType": "bool",
          "name": "",
          "type": "bool"
        }
      ],
      "stateMutability": "view",
      "type": "function"
    },
    {
      "inputs": [],
      "name": "symbol",
      "outputs": [
        {
          "internalType": "string",
          "name": "",
          "type": "string"
        }
      ],
      "stateMutability": "view",
      "type": "function"
    },
    {
      "inputs": [],
      "name": "tokenInfo",
      "outputs": [
        {
          "internalType": "string",
          "name": "",
          "type": "string"
        },
        {
          "internalType": "string",
          "name": "",
          "type": "string"
        }
      ],
      "stateMutability": "view",
      "type": "function"
    },
    {
      "inputs": [
        {
          "internalType": "address",
          "name": "newOwner",
          "type": "address"
        }
      ],
      "name": "transferOwnership",
      "outputs": [],
      "stateMutability": "nonpayable",
      "type": "function"
    },
    {
      "inputs": [
        {
          "internalType": "address",
          "name": "user",
          "type": "address"
        },
        {
          "internalType": "uint256",
          "name": "nonce",
          "type": "uint256"
        },
        {
          "internalType": "uint256",
          "name": "amount",
          "type": "uint256"
        },
        {
          "internalType": "bytes",
          "name": "attr",
          "type": "bytes"
        }
      ],
      "name": "update",
      "outputs": [],
      "stateMutability": "nonpayable",
      "type": "function"
    },
    {
      "inputs": [
        {
          "internalType": "uint256",
          "name": "",
          "type": "uint256"
        }
      ],
      "name": "uri",
      "outputs": [
        {
          "internalType": "string",
          "name": "",
          "type": "string"
        }
      ],
      "stateMutability": "view",
      "type": "function"
    }
  ],
  "transactionHash": "0xa0f83975f2c72de99d932a8f4dc8a73d053f66c8e68880acaf84e09a388770fe",
  "args": [
    "",
    ""
  ],
  "numDeployments": 1,
  "solcInputHash": "a3834a2f81eba945e2e32ba65dfaced7",
  "bytecode": "0x60a0604052346200041957620026b9803803806200001d816200041e565b928339810190604081830312620004195780516001600160401b0391908281116200041957836200005091830162000444565b906020938482015184811162000419576200006c920162000444565b604051908482018281108582111762000403576040526000809252600254906001928383811c93168015620003f8575b87841014620003e457601f92838111620003b6575b50600281905560038054336001600160a01b0319821681178355919691906001600160a01b03167f8be0079c531659141344cd1fd0a4f28419497f9722a3daafe3b4186f6b6457e08480a38051878111620003a25760059182548781811c9116801562000397575b8b821014620003835790818784931162000332575b508a90878311600114620002ce578592620002c2575b505060001982891b1c191690861b1781555b8251968711620002ae57600654908582811c92168015620002a3575b898310146200028f5784821162000248575b505086928611600114620001da579495508592919083620001ce575b50501b92600019911b1c1916176006555b426080526040516122029081620004b7823960805181610b130152f35b015193503880620001a0565b6006815286812093969394938691601f198316915b898383106200022d575050501062000212575b50505050811b01600655620001b1565b01519060f884600019921b161c191690553880808062000202565b858701518955909701969485019488935090810190620001ef565b600683528883209085808a01821c8301938b8b1062000285575b01901c019085905b82811062000279575062000184565b8381550185906200026a565b9350829362000262565b634e487b7160e01b83526022600452602483fd5b91607f169162000172565b634e487b7160e01b82526041600452602482fd5b01519050388062000144565b8486528b86208994509190601f198416878e5b8282106200031a575050841162000301575b505050811b01815562000156565b0151600019838b1b60f8161c19169055388080620002f3565b8385015186558c979095019493840193018e620002e1565b9091508385528a852087808501861c8201928d861062000379575b918a918695949301871c01915b8281106200036a5750506200012e565b8781558594508a91016200035a565b925081926200034d565b634e487b7160e01b85526022600452602485fd5b90607f169062000119565b634e487b7160e01b83526041600452602483fd5b600282528484898420920160051c8201915b828110620003d8575050620000b1565b838155018590620003c8565b634e487b7160e01b81526022600452602490fd5b92607f16926200009c565b634e487b7160e01b600052604160045260246000fd5b600080fd5b6040519190601f01601f191682016001600160401b038111838210176200040357604052565b919080601f84011215620004195782516001600160401b03811162000403576020906200047a601f8201601f191683016200041e565b92818452828287010111620004195760005b818110620004a257508260009394955001015290565b85810183015184820184015282016200048c56fe6040608081526004908136101561001557600080fd5b600091823560e01c8062fdd58e146114cf57806301ffc9a71461146257806306fdde031461143d5780630e89341c146113525780632eb2c2d614610fd25780634e1273f414610e3b5780634fa3d25d14610de75780635124ae9514610d615780636addb66314610d0b578063715018a614610cab5780637c89f5df14610c785780638da5cb5b14610c4f57806394bf804d14610aec57806395d89b4114610aaa578063a22cb465146109c9578063a42accea1461070b578063d8938f26146104fa578063e985e9c5146104a8578063f242432a146101ca5763f2fde38b146100fc57600080fd5b346101c65760203660031901126101c6576101156114ff565b9061011e611b39565b6001600160a01b03918216928315610174575050600354826bffffffffffffffffffffffff60a01b821617600355167f8be0079c531659141344cd1fd0a4f28419497f9722a3daafe3b4186f6b6457e08380a380f35b906020608492519162461bcd60e51b8352820152602660248201527f4f776e61626c653a206e6577206f776e657220697320746865207a65726f206160448201526564647265737360d01b6064820152fd5b8280fd5b5090346101c65760a03660031901126101c6576101e56114ff565b906101ee61151a565b9160443593606435936084356001600160401b0381116104a457610215903690840161168a565b6001600160a01b03938416939092903385148015610485575b610237906119ab565b821692610245841515611a5d565b61024e8861202c565b966102588161202c565b50895b885181101561028d57600190878c526008602052610286898d2061027f838d611a0e565b51906120dc565b500161025b565b50909192939497895b88518110156102c857600190878c5260086020526102c1898d206102ba838d611a0e565b5190612069565b5001610296565b5091949296509296818952602097898952868a20828b52895284878b20546102f282821015611ab7565b848c528b8b52888c20848d528b5203878b2055828a52898952868a20848b528952868a20610321868254611b16565b905583828851858152878c8201527fc3d58168c5ae7397731d063d5bbf3d657854427343f4c083240f7aacaa2d0f628a3392a43b61035d578880f35b918697989596949391868a946103a68a519788968795869463f23a6e6160e01b9c8d8752339087015260248601526044850152606484015260a0608484015260a4830190611530565b03925af1839181610456575b5061041b575050506103c2611f48565b6308c379a0146103ea575b5162461bcd60e51b8152915081906103e6908201611fd7565b0390fd5b6103f2611f66565b806103fd57506103cd565b6103e6915193849362461bcd60e51b85528401526024830190611530565b9194506001600160e01b03199091160361043d57505038808080808080808880f35b5162461bcd60e51b8152915081906103e6908201611eff565b610477919250873d891161047e575b61046f81836115f2565b810190611edf565b90386103b2565b503d610465565b5084895260016020908152868a20338b5290528589205460ff1661022e565b8780fd5b5050346104f657806003193601126104f65760ff816020936104c86114ff565b6104d061151a565b6001600160a01b0391821683526001875283832091168252855220549151911615158152f35b5080fd5b508290346104f65760803660031901126104f6576105166114ff565b9160243592604435926064356001600160401b0381116107075761053d903690830161168a565b91610546611b39565b6001600160a01b0381169283156106b8576105608761202c565b9561056a8161202c565b50858951610577816115d7565b52855b87518110156105a557600190868852600860205261059e8b892061027f838c611a0e565b500161057a565b509193909296855b87518110156105d85760019087805260086020526105d18b89206102ba838c611a0e565b50016105ad565b5080865260208681528987208388528152898720548a9850898582106106695750918488999492818a95846106659c528683528787208688528352038686205585519283528201527fc3d58168c5ae7397731d063d5bbf3d657854427343f4c083240f7aacaa2d0f62843392a4858151610651816115d7565b52519261065d846115d7565b858452611b91565b5080f35b895162461bcd60e51b81529081018390526024808201527f455243313135353a206275726e20616d6f756e7420657863656564732062616c604482015263616e636560e01b6064820152608490fd5b875162461bcd60e51b8152602081850152602360248201527f455243313135353a206275726e2066726f6d20746865207a65726f206164647260448201526265737360e81b6064820152608490fd5b8380fd5b5050346104f657602090816003193601126101c6576107286114ff565b6001600160a01b03811684526008835281842082518154808252918652848620818601969195939192835b8181106109b55750505061076d85610794969703876115f2565b85519561077987611613565b96610786865198896115f2565b808852601f19968791611613565b0184845b82811061098e57505050825b815181101561081957806107ba60019284611a0e565b51808652600787526107d66107dd8988208a5192838092611915565b03826115f2565b6107e78287611714565b8951926107f3846115a1565b83528883015288820152610807828b611a0e565b52610812818a611a0e565b50016107a4565b505050849283519461084261082d87611613565b9661083a845198896115f2565b808852611613565b0183835b82811061096157505050815b84518110156108ea576108658186611a0e565b518051908386820151910151908180516080938491810103126108e6579060019493929186519261089584611570565b898201518452878201518a85015260609182810151898601520151908301528551926108c0846115a1565b835287830152848201526108d48289611a0e565b526108df8188611a0e565b5001610852565b8680fd5b5080518381528551818501819052818301908786019086865b8281106109105785850386f35b909192938260c06001926109558a895180518452858101518685015201518b830190606080918051845260208101516020850152604081015160408501520151910152565b01950193929101610903565b835161096c816115a1565b858152858382015261097c611a38565b8582015282828a010152018490610846565b8751610999816115a1565b868152868382015260608982015282828c010152018590610798565b825489529785019760019283019201610753565b5090346101c657806003193601126101c6576109e36114ff565b9060243591821515809303610aa6576001600160a01b031692338414610a525750338452600160205280842083855260205280842060ff1981541660ff8416179055519081527f17307eab39ab6107e8899845ad3d59bd9653f200f220920489ca2b5937696c3160203392a380f35b6020608492519162461bcd60e51b8352820152602960248201527f455243313135353a2073657474696e6720617070726f76616c20737461747573604482015268103337b91039b2b63360b91b6064820152fd5b8480fd5b5050346104f657816003193601126104f6578051610ae891610ad682610acf81611887565b03836115f2565b51918291602083526020830190611530565b0390f35b50346101c657816003193601126101c657803591610b0861151a565b91610b11611b39565b7f0000000000000000000000000000000000000000000000000000000000000000610b3a611a38565b506146508101808211610c3c57835191610b5383611570565b868352866020840152848301526060820152610b938351916020830190606080918051845260208101516020850152604081015160408501520151910152565b6080815260a08101918183106001600160401b03841117610c29575091610c16826020947f3f2c9d57c068687834f0de942a9babb9e5acab57d516d3480a3c16ee165a427396948452610be5826115bc565b601782527f4c6f636b6564536d617274486f7573696e67546f6b656e00000000000000000060c08201528785611b91565b50519384526001600160a01b031692a280f35b634e487b7160e01b875260419052602486fd5b634e487b7160e01b875260118352602487fd5b5050346104f657816003193601126104f65760035490516001600160a01b039091168152602090f35b50346101c65760203660031901126101c65790610ad681610ae894610acf94358152600760205220825193848092611915565b8334610d085780600319360112610d0857610cc4611b39565b600380546001600160a01b0319811690915581906001600160a01b03167f8be0079c531659141344cd1fd0a4f28419497f9722a3daafe3b4186f6b6457e08280a380f35b80fd5b828434610d085780600319360112610d085750805190610d2e82610acf816117d3565b610ae88151610d40816107d681611887565b610d538351948486958652850190611530565b908382036020850152611530565b5050346104f657602090816003193601126101c6576001600160a01b03610d866114ff565b16835260088252808320815190819485928583549182815201928252858220915b86828210610dd0578590610ae888610dc1848903856115f2565b519282849384528301906116e0565b835485528895509093019260019283019201610da7565b5050346104f657806003193601126104f657602091610e32906001600160a01b03610e106114ff565b1681526008845282602435912060019160005201602052604060002054151590565b90519015158152f35b50346101c657816003193601126101c65780356001600160401b03808211610aa65736602383011215610aa6578183013590610e7682611613565b92610e83865194856115f2565b82845260209260248486019160051b83010191368311610fce57602401905b828210610fab57505050602435908111610fa757610ec3903690850161162a565b928251845103610f545750815194610eda86611613565b95610ee7865197886115f2565b808752610ef6601f1991611613565b0136838801375b8251811015610f4257600190610f316001600160a01b03610f1e8387611a0e565b5116610f2a8388611a0e565b5190611714565b610f3b8289611a0e565b5201610efd565b845182815280610ae8818501896116e0565b60849185519162461bcd60e51b8352820152602960248201527f455243313135353a206163636f756e747320616e6420696473206c656e677468604482015268040dad2e6dac2e8c6d60bb1b6064820152fd5b8580fd5b81356001600160a01b0381168103610fca578152908401908401610ea2565b8980fd5b8880fd5b5090346101c6576003199060a03683011261070757610fef6114ff565b93610ff861151a565b92604435946001600160401b03958681116107075761101a903690830161162a565b94606435878111610aa657611032903690840161162a565b96608435908111610aa65761104a903690840161168a565b6001600160a01b0398891698909190338a148015611333575b61106c906119ab565b87518951036112df57811691611083831515611a5d565b855b88518110156110b0576001908b885260086020526110a989892061027f838d611a0e565b5001611085565b5091939897909297855b88518110156110e55760019086885260086020526110de8989206102ba838d611a0e565b50016110ba565b5092989790969197855b835181101561116c578061110560019286611a0e565b51611110828c611a0e565b5190808a526020908a82528b8b20898c528252828c8c8b828220549261113885851015611ab7565b858352828752822091528452038c8c20558a528981528a8a2090898b52526111648a8a20918254611b16565b9055016110ef565b50949897909692959784878a518b81527f4a39dc06d4c0dbc64b70af90fd698a233a518aa5d07e595d983b8c0526c8f7fb6111a98d8301886116e0565b918083036020820152806111be33948b6116e0565b0390a43b6111ca578880f35b8798969751948593849363bc197c8160e01b98898652338c87015260248601526044850160a0905260a485016111ff916116e0565b82858203016064860152611212916116e0565b9083820301608484015261122591611530565b0381865a94602095f18391816112be575b5061129e57505050611246611f48565b6308c379a01461126a575b905162461bcd60e51b81529081906103e6908201611fd7565b611272611f66565b8061127d5750611251565b6103e6906020935193849362461bcd60e51b85528401526024830190611530565b9193916001600160e01b0319160361043d57505038808080808080808880f35b6112d891925060203d60201161047e5761046f81836115f2565b9038611236565b865162461bcd60e51b8152602081860152602860248201527f455243313135353a2069647320616e6420616d6f756e7473206c656e677468206044820152670dad2e6dac2e8c6d60c31b6064820152608490fd5b508986526001602090815287872033885290528686205460ff16611063565b5050346104f657602090816003193601126101c65780518381949060025461137981611799565b91828552600191876001821691826000146114165750506001146113ba575b505050610ae892916113ab9103856115f2565b51928284938452830190611530565b9190869350600283527f405787fa12a823e0f2b7631cc41b3ba8828b3321ca811111fa75cd3aa3bb5ace5b8284106113fe57505050820101816113ab610ae8611398565b8054848a0186015288955087949093019281016113e5565b60ff19168782015293151560051b860190930193508492506113ab9150610ae89050611398565b5050346104f657816003193601126104f6578051610ae891610ad682610acf816117d3565b50346101c65760203660031901126101c657359063ffffffff60e01b82168092036101c65760209250636cdb3d1360e11b82149182156114be575b82156114ad575b50519015158152f35b6301ffc9a760e01b149150386114a4565b6303a24d0760e21b8114925061149d565b5050346104f657806003193601126104f6576020906114f86114ef6114ff565b60243590611714565b9051908152f35b600435906001600160a01b038216820361151557565b600080fd5b602435906001600160a01b038216820361151557565b919082519283825260005b84811061155c575050826000602080949584010152601f8019910116010190565b60208183018101518483018201520161153b565b608081019081106001600160401b0382111761158b57604052565b634e487b7160e01b600052604160045260246000fd5b606081019081106001600160401b0382111761158b57604052565b604081019081106001600160401b0382111761158b57604052565b602081019081106001600160401b0382111761158b57604052565b90601f801991011681019081106001600160401b0382111761158b57604052565b6001600160401b03811161158b5760051b60200190565b9080601f8301121561151557602090823561164481611613565b9361165260405195866115f2565b81855260208086019260051b82010192831161151557602001905b82821061167b575050505090565b8135815290830190830161166d565b81601f82011215611515578035906001600160401b03821161158b57604051926116be601f8401601f1916602001856115f2565b8284526020838301011161151557816000926020809301838601378301015290565b90815180825260208080930193019160005b828110611700575050505090565b8351855293810193928101926001016116f2565b6001600160a01b031690811561174157600052600060205260406000209060005260205260406000205490565b60405162461bcd60e51b815260206004820152602a60248201527f455243313135353a2061646472657373207a65726f206973206e6f742061207660448201526930b634b21037bbb732b960b11b6064820152608490fd5b90600182811c921680156117c9575b60208310146117b357565b634e487b7160e01b600052602260045260246000fd5b91607f16916117a8565b600554600092916117e382611799565b808252916020906001908181169081156118625750600114611806575b50505050565b9293945060056000527f036b6384b5eca791c62761152d0c79bb0604c104a5fb6f4eb0703f3154bb3db0926000935b85851061184f575050506020925001019038808080611800565b8054858501840152938201938101611835565b92505050602093945060ff929192191683830152151560051b01019038808080611800565b6006546000929161189782611799565b8082529160209060019081811690811561186257506001146118b95750505050565b9293945060066000527ff652222313e28459528d920b65115c16c04f3efc82aaedc97be59f3f377c0d3f926000935b858510611902575050506020925001019038808080611800565b80548585018401529382019381016118e8565b80546000939261192482611799565b9182825260209360019160018116908160001461198c575060011461194b575b5050505050565b90939495506000929192528360002092846000945b83861061197857505050500101903880808080611944565b805485870183015294019385908201611960565b60ff19168685015250505090151560051b010191503880808080611944565b156119b257565b60405162461bcd60e51b815260206004820152602e60248201527f455243313135353a2063616c6c6572206973206e6f7420746f6b656e206f776e60448201526d195c881bdc88185c1c1c9bdd995960921b6064820152608490fd5b8051821015611a225760209160051b010190565b634e487b7160e01b600052603260045260246000fd5b60405190611a4582611570565b60006060838281528260208201528260408201520152565b15611a6457565b60405162461bcd60e51b815260206004820152602560248201527f455243313135353a207472616e7366657220746f20746865207a65726f206164604482015264647265737360d81b6064820152608490fd5b15611abe57565b60405162461bcd60e51b815260206004820152602a60248201527f455243313135353a20696e73756666696369656e742062616c616e636520666f60448201526939103a3930b739b332b960b11b6064820152608490fd5b91908201809211611b2357565b634e487b7160e01b600052601160045260246000fd5b6003546001600160a01b03163303611b4d57565b606460405162461bcd60e51b815260206004820152602060248201527f4f776e61626c653a2063616c6c6572206973206e6f7420746865206f776e65726044820152fd5b92909260016004818154019586825560009487865260209460078652604097888820908051906001600160401b038211611ecc578190611bd18454611799565b601f8111611e7c575b508990601f8311600114611e1d578b92611e12575b5050600019600383901b1c191690871b1790555b6001600160a01b038116948515611dc557611c1d8a61202c565b611c268561202c565b508189815b611d96575b509089915b611d66575b5050508887528686528787208588528652878720611c59848254611b16565b9055848789518b815285898201527fc3d58168c5ae7397731d063d5bbf3d657854427343f4c083240f7aacaa2d0f628b3392a43b611cab575b50505082526008905220611ca7908290612069565b5090565b84611cf191889a97959499969a518093819263f23a6e6160e01b968784528d33908501528960248501528a6044850152606484015260a0608484015260a4830190611530565b038187875af1849181611d47575b50611d0f578888886103c2611f48565b63ffffffff60e0999598939496991b1603611d2e575060088286611c92565b845162461bcd60e51b81529081906103e6908201611eff565b611d5f9192508a3d8c1161047e5761046f81836115f2565b9038611cff565b8051821015611d9157828092898c5260088b52611d898d8d206102ba8386611a0e565b500191611c35565b611c3a565b8251811015611dc05781908b805260088b52611db88d8d2061027f8387611a0e565b500181611c2b565b611c30565b885162461bcd60e51b8152808601889052602160248201527f455243313135353a206d696e7420746f20746865207a65726f206164647265736044820152607360f81b6064820152608490fd5b015190503880611bef565b848c528a8c208a94509190601f1984168d5b8d828210611e665750508411611e4d575b505050811b019055611c03565b015160001960f88460031b161c19169055388080611e40565b8385015186558d97909501949384019301611e2f565b909150838b52898b20601f840160051c8101918b8510611ec2575b84939291601f8c920160051c01915b828110611eb4575050611bda565b8d81558594508b9101611ea6565b9091508190611e97565b634e487b7160e01b8a526041875260248afd5b9081602091031261151557516001600160e01b0319811681036115155790565b60809060208152602860208201527f455243313135353a204552433131353552656365697665722072656a656374656040820152676420746f6b656e7360c01b60608201520190565b60009060033d11611f5557565b905060046000803e60005160e01c90565b600060443d10611fc357604051600319913d83016004833e81516001600160401b03918282113d602484011117611fc657818401948551938411611fce573d85010160208487010111611fc65750611fc3929101602001906115f2565b90565b949350505050565b50949350505050565b60809060208152603460208201527f455243313135353a207472616e7366657220746f206e6f6e2d455243313135356040820152732932b1b2b4bb32b91034b6b83632b6b2b73a32b960611b60608201520190565b60405190612039826115bc565b60018252602082016020368237825115611a22575290565b8054821015611a225760005260206000200190600090565b60008281526001820160205260409020546120d5578054906801000000000000000082101561158b57826120be6120a7846001809601855584612051565b819391549060031b91821b91600019901b19161790565b905580549260005201602052604060002055600190565b5050600090565b906001820190600092818452826020526040842054908115156000146121c557600019918083018181116121b15782549084820191821161219d57808203612168575b50505080548015612154578201916121378383612051565b909182549160031b1b191690555582526020526040812055600190565b634e487b7160e01b86526031600452602486fd5b6121886121786120a79386612051565b90549060031b1c92839286612051565b9055865284602052604086205538808061211f565b634e487b7160e01b88526011600452602488fd5b634e487b7160e01b87526011600452602487fd5b505050509056fea26469706673582212206f09295d4960a642e48637c9f8fc7dbe1d389179868e2f80f4cd90c388a6c70564736f6c63430008180033",
  "devdoc": {
    "details": "SFT token that locks SmartHousing Tokens (SHT) during ICO. Allows transfers only to whitelisted addresses.",
    "events": {
      "ApprovalForAll(address,address,bool)": {
        "details": "Emitted when `account` grants or revokes permission to `operator` to transfer their tokens, according to `approved`."
      },
      "TransferBatch(address,address,address,uint256[],uint256[])": {
        "details": "Equivalent to multiple {TransferSingle} events, where `operator`, `from` and `to` are the same for all transfers."
      },
      "TransferSingle(address,address,address,uint256,uint256)": {
        "details": "Emitted when `value` tokens of token type `id` are transferred from `from` to `to` by `operator`."
      },
      "URI(string,uint256)": {
        "details": "Emitted when the URI for token type `id` changes to `value`, if it is a non-programmatic URI. If an {URI} event was emitted for `id`, the standard https://eips.ethereum.org/EIPS/eip-1155#metadata-extensions[guarantees] that `value` will equal the value returned by {IERC1155MetadataURI-uri}."
      }
    },
    "kind": "dev",
    "methods": {
      "balanceOf(address,uint256)": {
        "details": "See {IERC1155-balanceOf}. Requirements: - `account` cannot be the zero address."
      },
      "balanceOfBatch(address[],uint256[])": {
        "details": "See {IERC1155-balanceOfBatch}. Requirements: - `accounts` and `ids` must have the same length."
      },
      "isApprovedForAll(address,address)": {
        "details": "See {IERC1155-isApprovedForAll}."
      },
      "mint(uint256,address)": {
        "details": "Mints new Locked SmartHousing Tokens (LkSHT) by locking SHT.",
        "params": {
          "amount": "The amount of SHT to lock.",
          "to": "The address to mint the tokens to."
        }
      },
      "owner()": {
        "details": "Returns the address of the current owner."
      },
      "renounceOwnership()": {
        "details": "Leaves the contract without owner. It will not be possible to call `onlyOwner` functions anymore. Can only be called by the current owner. NOTE: Renouncing ownership will leave the contract without an owner, thereby removing any functionality that is only available to the owner."
      },
      "safeBatchTransferFrom(address,address,uint256[],uint256[],bytes)": {
        "details": "See {IERC1155-safeBatchTransferFrom}."
      },
      "safeTransferFrom(address,address,uint256,uint256,bytes)": {
        "details": "See {IERC1155-safeTransferFrom}."
      },
      "setApprovalForAll(address,bool)": {
        "details": "See {IERC1155-setApprovalForAll}."
      },
      "supportsInterface(bytes4)": {
        "details": "See {IERC165-supportsInterface}."
      },
      "transferOwnership(address)": {
        "details": "Transfers ownership of the contract to a new account (`newOwner`). Can only be called by the current owner."
      },
      "uri(uint256)": {
        "details": "See {IERC1155MetadataURI-uri}. This implementation returns the same URI for *all* token types. It relies on the token type ID substitution mechanism https://eips.ethereum.org/EIPS/eip-1155#metadata[defined in the EIP]. Clients calling this function must replace the `\\{id\\}` substring with the actual token type ID."
      }
    },
    "title": "LockedSmartHousingToken",
    "version": 1
  },
  "userdoc": {
    "kind": "user",
    "methods": {
      "update(address,uint256,uint256,bytes)": {
        "notice": "Burns all the NFT balance of user at nonce, creates new with balance and attributes"
      }
    },
    "version": 1
  },
  "storageLayout": {
    "storage": [
      {
        "astId": 141,
        "contract": "contracts/modules/LockedSmartHousingToken.sol:LkSHT",
        "label": "_balances",
        "offset": 0,
        "slot": "0",
        "type": "t_mapping(t_uint256,t_mapping(t_address,t_uint256))"
      },
      {
        "astId": 147,
        "contract": "contracts/modules/LockedSmartHousingToken.sol:LkSHT",
        "label": "_operatorApprovals",
        "offset": 0,
        "slot": "1",
        "type": "t_mapping(t_address,t_mapping(t_address,t_bool))"
      },
      {
        "astId": 149,
        "contract": "contracts/modules/LockedSmartHousingToken.sol:LkSHT",
        "label": "_uri",
        "offset": 0,
        "slot": "2",
        "type": "t_string_storage"
      },
      {
        "astId": 7,
        "contract": "contracts/modules/LockedSmartHousingToken.sol:LkSHT",
        "label": "_owner",
        "offset": 0,
        "slot": "3",
        "type": "t_address"
      },
      {
        "astId": 7237,
        "contract": "contracts/modules/LockedSmartHousingToken.sol:LkSHT",
        "label": "_nonceCounter",
        "offset": 0,
        "slot": "4",
        "type": "t_struct(Counter)2608_storage"
      },
      {
        "astId": 7239,
        "contract": "contracts/modules/LockedSmartHousingToken.sol:LkSHT",
        "label": "_name",
        "offset": 0,
        "slot": "5",
        "type": "t_string_storage"
      },
      {
        "astId": 7241,
        "contract": "contracts/modules/LockedSmartHousingToken.sol:LkSHT",
        "label": "_symbol",
        "offset": 0,
        "slot": "6",
        "type": "t_string_storage"
      },
      {
        "astId": 7245,
        "contract": "contracts/modules/LockedSmartHousingToken.sol:LkSHT",
        "label": "_tokenAttributes",
        "offset": 0,
        "slot": "7",
        "type": "t_mapping(t_uint256,t_bytes_storage)"
      },
      {
        "astId": 7250,
        "contract": "contracts/modules/LockedSmartHousingToken.sol:LkSHT",
        "label": "_addressToNonces",
        "offset": 0,
        "slot": "8",
        "type": "t_mapping(t_address,t_struct(UintSet)3507_storage)"
      }
    ],
    "types": {
      "t_address": {
        "encoding": "inplace",
        "label": "address",
        "numberOfBytes": "20"
      },
      "t_array(t_bytes32)dyn_storage": {
        "base": "t_bytes32",
        "encoding": "dynamic_array",
        "label": "bytes32[]",
        "numberOfBytes": "32"
      },
      "t_bool": {
        "encoding": "inplace",
        "label": "bool",
        "numberOfBytes": "1"
      },
      "t_bytes32": {
        "encoding": "inplace",
        "label": "bytes32",
        "numberOfBytes": "32"
      },
      "t_bytes_storage": {
        "encoding": "bytes",
        "label": "bytes",
        "numberOfBytes": "32"
      },
      "t_mapping(t_address,t_bool)": {
        "encoding": "mapping",
        "key": "t_address",
        "label": "mapping(address => bool)",
        "numberOfBytes": "32",
        "value": "t_bool"
      },
      "t_mapping(t_address,t_mapping(t_address,t_bool))": {
        "encoding": "mapping",
        "key": "t_address",
        "label": "mapping(address => mapping(address => bool))",
        "numberOfBytes": "32",
        "value": "t_mapping(t_address,t_bool)"
      },
      "t_mapping(t_address,t_struct(UintSet)3507_storage)": {
        "encoding": "mapping",
        "key": "t_address",
        "label": "mapping(address => struct EnumerableSet.UintSet)",
        "numberOfBytes": "32",
        "value": "t_struct(UintSet)3507_storage"
      },
      "t_mapping(t_address,t_uint256)": {
        "encoding": "mapping",
        "key": "t_address",
        "label": "mapping(address => uint256)",
        "numberOfBytes": "32",
        "value": "t_uint256"
      },
      "t_mapping(t_bytes32,t_uint256)": {
        "encoding": "mapping",
        "key": "t_bytes32",
        "label": "mapping(bytes32 => uint256)",
        "numberOfBytes": "32",
        "value": "t_uint256"
      },
      "t_mapping(t_uint256,t_bytes_storage)": {
        "encoding": "mapping",
        "key": "t_uint256",
        "label": "mapping(uint256 => bytes)",
        "numberOfBytes": "32",
        "value": "t_bytes_storage"
      },
      "t_mapping(t_uint256,t_mapping(t_address,t_uint256))": {
        "encoding": "mapping",
        "key": "t_uint256",
        "label": "mapping(uint256 => mapping(address => uint256))",
        "numberOfBytes": "32",
        "value": "t_mapping(t_address,t_uint256)"
      },
      "t_string_storage": {
        "encoding": "bytes",
        "label": "string",
        "numberOfBytes": "32"
      },
      "t_struct(Counter)2608_storage": {
        "encoding": "inplace",
        "label": "struct Counters.Counter",
        "members": [
          {
            "astId": 2607,
            "contract": "contracts/modules/LockedSmartHousingToken.sol:LkSHT",
            "label": "_value",
            "offset": 0,
            "slot": "0",
            "type": "t_uint256"
          }
        ],
        "numberOfBytes": "32"
      },
      "t_struct(Set)3035_storage": {
        "encoding": "inplace",
        "label": "struct EnumerableSet.Set",
        "members": [
          {
            "astId": 3030,
            "contract": "contracts/modules/LockedSmartHousingToken.sol:LkSHT",
            "label": "_values",
            "offset": 0,
            "slot": "0",
            "type": "t_array(t_bytes32)dyn_storage"
          },
          {
            "astId": 3034,
            "contract": "contracts/modules/LockedSmartHousingToken.sol:LkSHT",
            "label": "_indexes",
            "offset": 0,
            "slot": "1",
            "type": "t_mapping(t_bytes32,t_uint256)"
          }
        ],
        "numberOfBytes": "64"
      },
      "t_struct(UintSet)3507_storage": {
        "encoding": "inplace",
        "label": "struct EnumerableSet.UintSet",
        "members": [
          {
            "astId": 3506,
            "contract": "contracts/modules/LockedSmartHousingToken.sol:LkSHT",
            "label": "_inner",
            "offset": 0,
            "slot": "0",
            "type": "t_struct(Set)3035_storage"
          }
        ],
        "numberOfBytes": "64"
      },
      "t_uint256": {
        "encoding": "inplace",
        "label": "uint256",
        "numberOfBytes": "32"
      }
    }
  }
}