{
  "address": "0xe7B72eA97Be46a017C49e261B5036efa5EEFFa1f",
  "abi": [
    {
      "inputs": [
        {
          "internalType": "address",
          "name": "_coinbase",
          "type": "address"
        }
      ],
      "stateMutability": "nonpayable",
      "type": "constructor"
    },
    {
      "anonymous": false,
      "inputs": [
        {
          "indexed": true,
          "internalType": "address",
          "name": "previousOwner",
          "type": "address"
        },
        {
          "indexed": true,
          "internalType": "address",
          "name": "newOwner",
          "type": "address"
        }
      ],
      "name": "OwnershipTransferred",
      "type": "event"
    },
    {
      "anonymous": false,
      "inputs": [
        {
          "indexed": true,
          "internalType": "address",
          "name": "projectAddress",
          "type": "address"
        }
      ],
      "name": "ProjectDeployed",
      "type": "event"
    },
    {
      "anonymous": false,
      "inputs": [
        {
          "indexed": true,
          "internalType": "uint256",
          "name": "projectId",
          "type": "uint256"
        },
        {
          "indexed": true,
          "internalType": "address",
          "name": "depositor",
          "type": "address"
        },
        {
          "components": [
            {
              "internalType": "address",
              "name": "token",
              "type": "address"
            },
            {
              "internalType": "uint256",
              "name": "amount",
              "type": "uint256"
            },
            {
              "internalType": "uint256",
              "name": "nonce",
              "type": "uint256"
            }
          ],
          "indexed": false,
          "internalType": "struct TokenPayment",
          "name": "payment",
          "type": "tuple"
        }
      ],
      "name": "ProjectFunded",
      "type": "event"
    },
    {
      "anonymous": false,
      "inputs": [
        {
          "indexed": true,
          "internalType": "address",
          "name": "depositor",
          "type": "address"
        },
        {
          "indexed": false,
          "internalType": "uint256",
          "name": "projectId",
          "type": "uint256"
        },
        {
          "indexed": false,
          "internalType": "uint256",
          "name": "amount",
          "type": "uint256"
        }
      ],
      "name": "ProjectTokensClaimed",
      "type": "event"
    },
    {
      "inputs": [],
      "name": "allProjects",
      "outputs": [
        {
          "components": [
            {
              "internalType": "uint256",
              "name": "id",
              "type": "uint256"
            },
            {
              "internalType": "address",
              "name": "tokenAddress",
              "type": "address"
            },
            {
              "internalType": "address",
              "name": "projectAddress",
              "type": "address"
            },
            {
              "internalType": "uint256",
              "name": "fundingGoal",
              "type": "uint256"
            },
            {
              "internalType": "uint256",
              "name": "fundingDeadline",
              "type": "uint256"
            },
            {
              "internalType": "address",
              "name": "fundingToken",
              "type": "address"
            },
            {
              "internalType": "uint256",
              "name": "collectedFunds",
              "type": "uint256"
            }
          ],
          "internalType": "struct ProjectStorage.Data[]",
          "name": "",
          "type": "tuple[]"
        }
      ],
      "stateMutability": "view",
      "type": "function"
    },
    {
      "inputs": [
        {
          "internalType": "uint256",
          "name": "projectId",
          "type": "uint256"
        }
      ],
      "name": "claimProjectTokens",
      "outputs": [],
      "stateMutability": "nonpayable",
      "type": "function"
    },
    {
      "inputs": [],
      "name": "coinbase",
      "outputs": [
        {
          "internalType": "address",
          "name": "",
          "type": "address"
        }
      ],
      "stateMutability": "view",
      "type": "function"
    },
    {
      "inputs": [
        {
          "internalType": "string",
          "name": "name",
          "type": "string"
        },
        {
          "internalType": "string",
          "name": "symbol",
          "type": "string"
        },
        {
          "internalType": "address",
          "name": "fundingToken",
          "type": "address"
        },
        {
          "internalType": "uint256",
          "name": "fundingGoal",
          "type": "uint256"
        },
        {
          "internalType": "uint256",
          "name": "fundingDeadline",
          "type": "uint256"
        }
      ],
      "name": "deployProject",
      "outputs": [],
      "stateMutability": "nonpayable",
      "type": "function"
    },
    {
      "inputs": [
        {
          "components": [
            {
              "internalType": "address",
              "name": "token",
              "type": "address"
            },
            {
              "internalType": "uint256",
              "name": "amount",
              "type": "uint256"
            },
            {
              "internalType": "uint256",
              "name": "nonce",
              "type": "uint256"
            }
          ],
          "internalType": "struct TokenPayment",
          "name": "depositPayment",
          "type": "tuple"
        },
        {
          "internalType": "uint256",
          "name": "projectId",
          "type": "uint256"
        },
        {
          "internalType": "uint256",
          "name": "referrerId",
          "type": "uint256"
        }
      ],
      "name": "fundProject",
      "outputs": [],
      "stateMutability": "payable",
      "type": "function"
    },
    {
      "inputs": [
        {
          "internalType": "uint256",
          "name": "projectId",
          "type": "uint256"
        }
      ],
      "name": "getProjectAddress",
      "outputs": [
        {
          "internalType": "address",
          "name": "projectAddress",
          "type": "address"
        }
      ],
      "stateMutability": "view",
      "type": "function"
    },
    {
      "inputs": [
        {
          "internalType": "uint256",
          "name": "projectId",
          "type": "uint256"
        }
      ],
      "name": "getProjectData",
      "outputs": [
        {
          "internalType": "uint256",
          "name": "id",
          "type": "uint256"
        },
        {
          "internalType": "uint256",
          "name": "fundingGoal",
          "type": "uint256"
        },
        {
          "internalType": "uint256",
          "name": "fundingDeadline",
          "type": "uint256"
        },
        {
          "internalType": "address",
          "name": "fundingToken",
          "type": "address"
        },
        {
          "internalType": "address",
          "name": "projectAddress",
          "type": "address"
        },
        {
          "internalType": "uint8",
          "name": "status",
          "type": "uint8"
        },
        {
          "internalType": "uint256",
          "name": "collectedFunds",
          "type": "uint256"
        }
      ],
      "stateMutability": "view",
      "type": "function"
    },
    {
      "inputs": [],
      "name": "housingToken",
      "outputs": [
        {
          "internalType": "contract IERC20",
          "name": "",
          "type": "address"
        }
      ],
      "stateMutability": "view",
      "type": "function"
    },
    {
      "inputs": [
        {
          "components": [
            {
              "internalType": "contract IERC20",
              "name": "token",
              "type": "address"
            },
            {
              "internalType": "uint256",
              "name": "amount",
              "type": "uint256"
            }
          ],
          "internalType": "struct ERC20TokenPayment",
          "name": "shtPayment",
          "type": "tuple"
        },
        {
          "internalType": "string",
          "name": "name",
          "type": "string"
        },
        {
          "internalType": "string",
          "name": "symbol",
          "type": "string"
        },
        {
          "internalType": "address",
          "name": "smartHousingAddress_",
          "type": "address"
        },
        {
          "internalType": "address",
          "name": "fundingToken",
          "type": "address"
        },
        {
          "internalType": "uint256",
          "name": "fundingGoal",
          "type": "uint256"
        },
        {
          "internalType": "uint256",
          "name": "fundingDeadline",
          "type": "uint256"
        }
      ],
      "name": "initFirstProject",
      "outputs": [],
      "stateMutability": "nonpayable",
      "type": "function"
    },
    {
      "inputs": [],
      "name": "lkSht",
      "outputs": [
        {
          "internalType": "contract LkSHT",
          "name": "",
          "type": "address"
        }
      ],
      "stateMutability": "view",
      "type": "function"
    },
    {
      "inputs": [],
      "name": "owner",
      "outputs": [
        {
          "internalType": "address",
          "name": "",
          "type": "address"
        }
      ],
      "stateMutability": "view",
      "type": "function"
    },
    {
      "inputs": [],
      "name": "projectCount",
      "outputs": [
        {
          "internalType": "uint256",
          "name": "",
          "type": "uint256"
        }
      ],
      "stateMutability": "view",
      "type": "function"
    },
    {
      "inputs": [
        {
          "internalType": "uint256",
          "name": "",
          "type": "uint256"
        }
      ],
      "name": "projects",
      "outputs": [
        {
          "internalType": "uint256",
          "name": "id",
          "type": "uint256"
        },
        {
          "internalType": "address",
          "name": "tokenAddress",
          "type": "address"
        },
        {
          "internalType": "address",
          "name": "projectAddress",
          "type": "address"
        },
        {
          "internalType": "uint256",
          "name": "fundingGoal",
          "type": "uint256"
        },
        {
          "internalType": "uint256",
          "name": "fundingDeadline",
          "type": "uint256"
        },
        {
          "internalType": "address",
          "name": "fundingToken",
          "type": "address"
        },
        {
          "internalType": "uint256",
          "name": "collectedFunds",
          "type": "uint256"
        }
      ],
      "stateMutability": "view",
      "type": "function"
    },
    {
      "inputs": [
        {
          "internalType": "address",
          "name": "",
          "type": "address"
        }
      ],
      "name": "projectsId",
      "outputs": [
        {
          "internalType": "uint256",
          "name": "",
          "type": "uint256"
        }
      ],
      "stateMutability": "view",
      "type": "function"
    },
    {
      "inputs": [],
      "name": "renounceOwnership",
      "outputs": [],
      "stateMutability": "nonpayable",
      "type": "function"
    },
    {
      "inputs": [
        {
          "internalType": "uint256",
          "name": "projectId",
          "type": "uint256"
        }
      ],
      "name": "addProjectToEcosystem",
      "outputs": [],
      "stateMutability": "nonpayable",
      "type": "function"
    },
    {
      "inputs": [],
      "name": "smartHousingAddress",
      "outputs": [
        {
          "internalType": "address",
          "name": "",
          "type": "address"
        }
      ],
      "stateMutability": "view",
      "type": "function"
    },
    {
      "inputs": [
        {
          "internalType": "address",
          "name": "newOwner",
          "type": "address"
        }
      ],
      "name": "transferOwnership",
      "outputs": [],
      "stateMutability": "nonpayable",
      "type": "function"
    },
    {
      "inputs": [
        {
          "internalType": "uint256",
          "name": "nonce",
          "type": "uint256"
        }
      ],
      "name": "unlockSHT",
      "outputs": [],
      "stateMutability": "nonpayable",
      "type": "function"
    },
    {
      "inputs": [
        {
          "internalType": "uint256",
          "name": "",
          "type": "uint256"
        },
        {
          "internalType": "address",
          "name": "",
          "type": "address"
        }
      ],
      "name": "usersProjectDeposit",
      "outputs": [
        {
          "internalType": "uint256",
          "name": "",
          "type": "uint256"
        }
      ],
      "stateMutability": "view",
      "type": "function"
    }
  ],
  "transactionHash": "0x95362e9a22f54dff8c5bfe8e87c48b702008e7f2769041dc59e23c09bf62c2b3",
  "args": [
    "0x254c81165e1BEF4d1B158Ac27A6B40F07e85187b"
  ],
  "numDeployments": 3,
  "solcInputHash": "3f7696dcd180eba0f188ae64ff117803",
  "bytecode": "0x608080604052346200013d5760208162001bcf803803809162000023828562000142565b8339810103126200013d57516001600160a01b03808216918290036200013d57600080546001600160a01b0319808216339081178455604051919591939285167f8be0079c531659141344cd1fd0a4f28419497f9722a3daafe3b4186f6b6457e08480a3846001541617600155633bf206a360e21b82526020826004817359c8DE4B52BD5217302BdD070190074B8ea165815af491821562000130578192620000e3575b505016906008541617600855604051611a5290816200017d8239f35b9091506020813d60201162000127575b81620001026020938362000142565b810103126200012357519082821682036200012057503880620000c7565b80fd5b5080fd5b3d9150620000f3565b50604051903d90823e3d90fd5b600080fd5b601f909101601f19168101906001600160401b038211908210176200016657604052565b634e487b7160e01b600052604160045260246000fdfe6080604081815260048036101561001557600080fd5b60009260e0843560e01c918263107046bd1461137c57508163208359481461133657816321eefb9a1461130c5781632adf13b2146111875750806336fbad26146111685780634ca3e9b8146111335780634fd42f3a14610d2b57806350e76c8e14610d0257806358f36c1314610c62578381635b02f18c14610b515750806360ae7c3b146108c1578063661962661461088c578063715018a61461082f5780637f3a25d8146106695780638da5cb5b146106415780639c9e07ba14610618578063a6ae0aac146105ef578063c366164214610254578063da5e19d6146101ce5763f2fde38b1461010457600080fd5b346101ca5760203660031901126101ca5761011d6113f1565b906101266116d7565b6001600160a01b03918216928315610178575050600054826001600160601b0360a01b821617600055167f8be0079c531659141344cd1fd0a4f28419497f9722a3daafe3b4186f6b6457e0600080a380f35b906020608492519162461bcd60e51b8352820152602660248201527f4f776e61626c653a206e6577206f776e657220697320746865207a65726f206160448201526564647265737360d01b6064820152fd5b8280fd5b8382346102505760a03660031901126102505767ffffffffffffffff813581811161024c5761020090369084016114a7565b9160243591821161024c57610217913691016114a7565b604435916001600160a01b038316830361024757610244926102376116d7565b608435926064359261172f565b80f35b600080fd5b8380fd5b5080fd5b50346101ca576020918260031936011261024c576008548151627eeac760e11b8152338185019081528435602082018190526001600160a01b03938416918790849081906040010381855afa9283156105e55788936105b6575b508215610569578451637c89f5df60e01b8152868101829052918883602481845afa92831561055f5789936104e0575b506080838051810103126104dc578551906102f882611431565b88840151825286840151938983019485526080606082015191898501928352015190606084019182528b60608c828c519161033283611431565b818352820152828c8201520152610348846119f9565b86518181029181830414901517156104c7576146506103769104809861036f828a5161153e565b895261153e565b95895194518c86015251898501525160608401525160808301526080825260a082019382851067ffffffffffffffff8611176104b25790849392918b958952813b156104a45785859384928296636c49c79360e11b85523360a484015260c483015260e48201526080610104820152609f19906103f7610124820182611670565b0301925af180156104a857610490575b505080610412578580f35b600754835163a9059cbb60e01b8152339581019586526020860192909252909385928592169082908890829060400103925af19081156104875750610459575b8080808580f35b8161047892903d10610480575b6104708183611469565b810190611695565b503880610452565b503d610466565b513d85823e3d90fd5b61049990611407565b6104a4578538610407565b8580fd5b85513d84823e3d90fd5b604189634e487b7160e01b6000525260246000fd5b60118b634e487b7160e01b6000525260246000fd5b8880fd5b9092503d808a833e6104f28183611469565b810190888183031261055b5780519067ffffffffffffffff8211610557570181601f8201121561055b5780516105278161148b565b9261053489519485611469565b8184528a828401011161055757610550918a808501910161164d565b91386102de565b8a80fd5b8980fd5b86513d8b823e3d90fd5b845162461bcd60e51b8152808701889052602160248201527f50726f6a65637446756e64696e673a204e6f7468696e6720746f20756e6c6f636044820152606b60f81b6064820152608490fd5b9092508681813d83116105de575b6105ce8183611469565b81010312610247575191386102ae565b503d6105c4565b85513d8a823e3d90fd5b50503461025057816003193601126102505760015490516001600160a01b039091168152602090f35b50503461025057816003193601126102505760075490516001600160a01b039091168152602090f35b505034610250578160031936011261025057905490516001600160a01b039091168152602090f35b50346101ca573660031901610100811261024c5782136101ca5767ffffffffffffffff60443581811161082b576106a390369084016114a7565b9060643590811161082b576106bb90369084016114a7565b916084356001600160a01b03818116918290036102475760a43592818416840361024757816001541633036107e8576005546107a5576020610734899284610701611637565b8b516323b872dd60e01b815233938101938452306020850152602435604085015295869492909116928492839160600190565b03925af1801561079b57610244975061077c575b50610751611637565b166001600160601b0360a01b90816007541617600755600254161760025560e4359260c4359261172f565b6107949060203d602011610480576104708183611469565b5038610748565b87513d8a823e3d90fd5b606490602088519162461bcd60e51b8352820152601b60248201527f50726f6a65637420616c726561647920696e697469616c697a656400000000006044820152fd5b606490602088519162461bcd60e51b8352820152601a60248201527f43616c6c6572206973206e6f742074686520636f696e626173650000000000006044820152fd5b8480fd5b83346108895780600319360112610889576108486116d7565b600080546001600160a01b0319811682556001600160a01b03167f8be0079c531659141344cd1fd0a4f28419497f9722a3daafe3b4186f6b6457e08280a380f35b80fd5b50346101ca5760203660031901126101ca5760209282916001600160a01b036108b36113f1565b168252845220549051908152f35b5090346101ca576020908160031936011261024c5782359283855260068352818520906108ec611506565b5084865260038452828620610903815415156115e9565b61090c816116ad565b6003811015610b3e57600103610afb57336000528285528360002054928315610ac557906109459133600052865287856000205561158b565b60018060a01b039081868201511690888760c0830193606485518a51948593849263da96192160e01b84528c8c85015233602485015260448401525af18015610abb57908891610a92575b5050516001146109ce575b5050507f30ef556644d7bab0fb4b399fb53bd396fdd3faf30c1dc80bccca41f0155a42f39282519485528401523392a280f35b6a06146c4c5b31f4edf7d0f58402906a06146c4c5b31f4edf7d0f41985830401610a7d5751918215610a6857908893929160085416803b1561082b5786516394bf804d60e01b81529290910492820192835233602084015290918391839182908490829060400103925af18015610a5e57610a4a575b8061099b565b610a5390611407565b61082b578438610a44565b84513d84823e3d90fd5b601284634e487b7160e01b6000525260246000fd5b601184634e487b7160e01b6000525260246000fd5b813d8311610ab4575b610aa58183611469565b81010312610247578638610990565b503d610a9b565b87513d8c823e3d90fd5b845162461bcd60e51b8152808401879052601060248201526f139bc819195c1bdcda5d08199bdd5b9960821b6044820152606490fd5b835162461bcd60e51b8152808301869052601a60248201527f50726f6a656374206e6f7420796574207375636365737366756c0000000000006044820152606490fd5b634e487b7160e01b885260218352602488fd5b92905034610c5e576020366003190112610c5e57610b6d6116d7565b8135835260036020528083206002805490820180546001600160a01b039593928616908616813b15610c5a5787916024839288519485938492630f8ad6f360e31b84528a8401525af18015610c505786918891610c39575b50506006915416910154936001541690803b156104a4578351637361991560e01b81529283019485526001600160a01b03909116602085015290928491849182908490829060400103925af1908115610c305750610c205750f35b610c2990611407565b6108895780f35b513d84823e3d90fd5b610c44919250611407565b6104a457848638610bc5565b85513d89823e3d90fd5b8780fd5b5050fd5b5091903461025057602036600319011261025057823582526003602052808220918254926003810154928582015460018060a01b0391826005850154169260028501541693610cb0816116ad565b956003871015610cef5760e0898960ff8a8a8a8a8a60068b01549681519889526020890152870152606086015260808501521660a083015260c0820152f35b634e487b7160e01b815260218a52602490fd5b50503461025057816003193601126102505760085490516001600160a01b039091168152602090f35b509190366003190160a081126101ca576060136102505760643580151580611127575b610d57906115e9565b6002548251631f50820b60e21b815233868201908152608435602080830191909152966001600160a01b039593909291889183918290036040019082908a908a165af1801561111d579087916110f4575b5050828552600686528185209560249687359283156110b9578588526003835284882090610dd5826116ad565b60038110156110a75761105a57803588811680910361055b5788600584015416036110225785519960608b019a808c1067ffffffffffffffff8d1117611010578798999a9b88528b868c610e276113f1565b8085528285018b81526044359d86018e9052949082169384610f1a575050505050513403610ec15750506006905b01610e6184825461162a565b905533600052808252610e7883856000205461162a565b903360005282528360002055825195610e8f6113f1565b1686528501528301527f27b16580fa2ea712cc42940322bda733d5eda86b4e41a6a5cd8362adbb9d10cc60603393a380f35b865162461bcd60e51b8152918201859052602e908201527f6578706563746564207061796d656e7420616d6f756e74206d7573742065717560448201526d185b081cd95b9d08185b5bdd5b9d60921b6064820152608490fd5b909192958d9795949715600014610fa05750505191518a516323b872dd60e01b8152339481019485523060208601526040850191909152945084928390036060019183918f91165af18015610f96579060069291610f79575b50610e55565b610f8f90853d8711610480576104708183611469565b5038610f73565b86513d8c823e3d90fd5b94935094505050833b156101ca5760c490838a519586948593637921219560e11b8552339085015230908401528c60448401528a606484015260a060848401528160a48401525af18015610f9657610ffc575b50600690610e55565b986110096006929a611407565b9890610ff3565b50634e487b7160e01b8a526041825289fd5b855162461bcd60e51b81529081018490526013818b01527215dc9bdb99c81d1bdad95b881c185e5b595b9d606a1b6044820152606490fd5b855162461bcd60e51b81529081018490526022818b01527f43616e6e6f742066756e642070726f6a65637420616674657220646561646c696044820152616e6560f01b6064820152608490fd5b634e487b7160e01b8a52602182528a8afd5b845162461bcd60e51b81529081018390526016818a015275125b9d985b1a5908199d5b991a5b99c8185b5bdd5b9d60521b6044820152606490fd5b813d8311611116575b6111078183611469565b8101031261082b578538610da8565b503d6110fd565b83513d88823e3d90fd5b50600554811115610d4e565b50346101ca5760203660031901126101ca5735825260036020908152918190206002015490516001600160a01b039091168152f35b5050346102505781600319360112610250576020906005549051908152f35b9050838334610250578160031936011261025057919290600554936111ab856114ee565b946111b885519687611469565b8086526111c4816114ee565b60209190601f1901845b8181106112e757505060019460015b8281111561126c5750505084519481860192828752875180945282828801980194915b84831061120d5787890388f35b855180518a52808501516001600160a01b039081168b8701528183015181168b840152606080830151908c0152608080830151908c015260a080830151909116908b015260c090810151908a0152978101979483019491860191611200565b80869495989699979952600385528584206000198201908282116112d457906112976112a89261158b565b6112a1828b611561565b5288611561565b5060001981146112c157880197959796939294966111dd565b634e487b7160e01b845260118252602484fd5b634e487b7160e01b865260118452602486fd5b9280949795936112f8999799611506565b82828a0101520197959796939294966111ce565b5050503461025057816003193601126102505760025490516001600160a01b039091168152602090f35b5050346101ca57816003193601126101ca576024356001600160a01b038116919082900361024c5792829160209435825260068552828220908252845220549051908152f35b939150503461024c57602036600319011261024c578060e094833581526003602052209081549260018060a01b03918260018501541690836002860154169160066003870154948701549560058801541696015496885260208801528601526060850152608084015260a083015260c0820152f35b600435906001600160a01b038216820361024757565b67ffffffffffffffff811161141b57604052565b634e487b7160e01b600052604160045260246000fd5b6080810190811067ffffffffffffffff82111761141b57604052565b60e0810190811067ffffffffffffffff82111761141b57604052565b90601f8019910116810190811067ffffffffffffffff82111761141b57604052565b67ffffffffffffffff811161141b57601f01601f191660200190565b81601f82011215610247578035906114be8261148b565b926114cc6040519485611469565b8284526020838301011161024757816000926020809301838601378301015290565b67ffffffffffffffff811161141b5760051b60200190565b604051906115138261144d565b8160c06000918281528260208201528260408201528260608201528260808201528260a08201520152565b9190820391821161154b57565b634e487b7160e01b600052601160045260246000fd5b80518210156115755760209160051b010190565b634e487b7160e01b600052603260045260246000fd5b906040516115988161144d565b8254815260018301546001600160a01b039081166020830152600284015481166040830152600384015460608301526004840154608083015260058401541660a082015260069092015460c0830152565b156115f057565b60405162461bcd60e51b8152602060048201526012602482015271125b9d985b1a59081c1c9bda9958dd08125160721b6044820152606490fd5b9190820180921161154b57565b6004356001600160a01b03811681036102475790565b60005b8381106116605750506000910152565b8181015183820152602001611650565b906020916116898151809281855285808601910161164d565b601f01601f1916010190565b90816020910312610247575180151581036102475790565b60068101546003820154116116c25750600190565b600401544210156116d257600090565b600290565b6000546001600160a01b031633036116eb57565b606460405162461bcd60e51b815260206004820152602060248201527f4f776e61626c653a2063616c6c6572206973206e6f7420746865206f776e65726044820152fd5b93929361177d60018060a01b039586600254169360409485519384926316a709c960e21b845261176b6004976060898701526064860190611670565b84810360031901602486015290611670565b906044830152816020948592038173f07cB2cc32Be71ee856cC3F15bFcD3Bc4cd6F7A35af49081156119ee576000916119b8575b506005548551634000a8a960e11b815296918916929184888781875afa9788156119ad57600098611973575b506117e6611506565b50821561193257428911156118ef57600182018092116118da578695949392916006918b9851996118168b61144d565b828b5289878c0191168152888b019b8c96875260608c0195865260808c019081528a60a08d019316835260c08c0193600085526000526003885289600020958c519b8c88558060018901945116936001600160601b0360a01b94858254161790556002880198511697888482541617905551600387015551888601558c60058601925116908254161790555191015560005252600020555160055551167fdea458b889f1ff572931e5a15c1d834f165099a5381b6b264683153e666b7ce8600080a2565b601186634e487b7160e01b6000525260246000fd5b865162461bcd60e51b8152808701869052601d60248201527f446561646c696e652063616e277420626520696e2074686520706173740000006044820152606490fd5b60648686808a519262461bcd60e51b845283015260248201527f46756e64696e6720676f616c206d757374206265206d6f7265207468616e20306044820152fd5b8581819a939a3d83116119a6575b61198b8183611469565b810103126102505751908a82168203610889575096386117dd565b503d611981565b87513d6000823e3d90fd5b8381813d83116119e7575b6119cd8183611469565b8101031261025057519088821682036108895750386117b1565b503d6119c3565b85513d6000823e3d90fd5b60608101514210611a0b575061465090565b6040611a199101514261153e565b9056fea26469706673582212202a8d5d04899a6dabf47da80e4ade015f320f10c138854b671ee856c44fcd801064736f6c63430008180033",
  "deployedBytecode": "0x6080604081815260048036101561001557600080fd5b60009260e0843560e01c918263107046bd1461137c57508163208359481461133657816321eefb9a1461130c5781632adf13b2146111875750806336fbad26146111685780634ca3e9b8146111335780634fd42f3a14610d2b57806350e76c8e14610d0257806358f36c1314610c62578381635b02f18c14610b515750806360ae7c3b146108c1578063661962661461088c578063715018a61461082f5780637f3a25d8146106695780638da5cb5b146106415780639c9e07ba14610618578063a6ae0aac146105ef578063c366164214610254578063da5e19d6146101ce5763f2fde38b1461010457600080fd5b346101ca5760203660031901126101ca5761011d6113f1565b906101266116d7565b6001600160a01b03918216928315610178575050600054826001600160601b0360a01b821617600055167f8be0079c531659141344cd1fd0a4f28419497f9722a3daafe3b4186f6b6457e0600080a380f35b906020608492519162461bcd60e51b8352820152602660248201527f4f776e61626c653a206e6577206f776e657220697320746865207a65726f206160448201526564647265737360d01b6064820152fd5b8280fd5b8382346102505760a03660031901126102505767ffffffffffffffff813581811161024c5761020090369084016114a7565b9160243591821161024c57610217913691016114a7565b604435916001600160a01b038316830361024757610244926102376116d7565b608435926064359261172f565b80f35b600080fd5b8380fd5b5080fd5b50346101ca576020918260031936011261024c576008548151627eeac760e11b8152338185019081528435602082018190526001600160a01b03938416918790849081906040010381855afa9283156105e55788936105b6575b508215610569578451637c89f5df60e01b8152868101829052918883602481845afa92831561055f5789936104e0575b506080838051810103126104dc578551906102f882611431565b88840151825286840151938983019485526080606082015191898501928352015190606084019182528b60608c828c519161033283611431565b818352820152828c8201520152610348846119f9565b86518181029181830414901517156104c7576146506103769104809861036f828a5161153e565b895261153e565b95895194518c86015251898501525160608401525160808301526080825260a082019382851067ffffffffffffffff8611176104b25790849392918b958952813b156104a45785859384928296636c49c79360e11b85523360a484015260c483015260e48201526080610104820152609f19906103f7610124820182611670565b0301925af180156104a857610490575b505080610412578580f35b600754835163a9059cbb60e01b8152339581019586526020860192909252909385928592169082908890829060400103925af19081156104875750610459575b8080808580f35b8161047892903d10610480575b6104708183611469565b810190611695565b503880610452565b503d610466565b513d85823e3d90fd5b61049990611407565b6104a4578538610407565b8580fd5b85513d84823e3d90fd5b604189634e487b7160e01b6000525260246000fd5b60118b634e487b7160e01b6000525260246000fd5b8880fd5b9092503d808a833e6104f28183611469565b810190888183031261055b5780519067ffffffffffffffff8211610557570181601f8201121561055b5780516105278161148b565b9261053489519485611469565b8184528a828401011161055757610550918a808501910161164d565b91386102de565b8a80fd5b8980fd5b86513d8b823e3d90fd5b845162461bcd60e51b8152808701889052602160248201527f50726f6a65637446756e64696e673a204e6f7468696e6720746f20756e6c6f636044820152606b60f81b6064820152608490fd5b9092508681813d83116105de575b6105ce8183611469565b81010312610247575191386102ae565b503d6105c4565b85513d8a823e3d90fd5b50503461025057816003193601126102505760015490516001600160a01b039091168152602090f35b50503461025057816003193601126102505760075490516001600160a01b039091168152602090f35b505034610250578160031936011261025057905490516001600160a01b039091168152602090f35b50346101ca573660031901610100811261024c5782136101ca5767ffffffffffffffff60443581811161082b576106a390369084016114a7565b9060643590811161082b576106bb90369084016114a7565b916084356001600160a01b03818116918290036102475760a43592818416840361024757816001541633036107e8576005546107a5576020610734899284610701611637565b8b516323b872dd60e01b815233938101938452306020850152602435604085015295869492909116928492839160600190565b03925af1801561079b57610244975061077c575b50610751611637565b166001600160601b0360a01b90816007541617600755600254161760025560e4359260c4359261172f565b6107949060203d602011610480576104708183611469565b5038610748565b87513d8a823e3d90fd5b606490602088519162461bcd60e51b8352820152601b60248201527f50726f6a65637420616c726561647920696e697469616c697a656400000000006044820152fd5b606490602088519162461bcd60e51b8352820152601a60248201527f43616c6c6572206973206e6f742074686520636f696e626173650000000000006044820152fd5b8480fd5b83346108895780600319360112610889576108486116d7565b600080546001600160a01b0319811682556001600160a01b03167f8be0079c531659141344cd1fd0a4f28419497f9722a3daafe3b4186f6b6457e08280a380f35b80fd5b50346101ca5760203660031901126101ca5760209282916001600160a01b036108b36113f1565b168252845220549051908152f35b5090346101ca576020908160031936011261024c5782359283855260068352818520906108ec611506565b5084865260038452828620610903815415156115e9565b61090c816116ad565b6003811015610b3e57600103610afb57336000528285528360002054928315610ac557906109459133600052865287856000205561158b565b60018060a01b039081868201511690888760c0830193606485518a51948593849263da96192160e01b84528c8c85015233602485015260448401525af18015610abb57908891610a92575b5050516001146109ce575b5050507f30ef556644d7bab0fb4b399fb53bd396fdd3faf30c1dc80bccca41f0155a42f39282519485528401523392a280f35b6a06146c4c5b31f4edf7d0f58402906a06146c4c5b31f4edf7d0f41985830401610a7d5751918215610a6857908893929160085416803b1561082b5786516394bf804d60e01b81529290910492820192835233602084015290918391839182908490829060400103925af18015610a5e57610a4a575b8061099b565b610a5390611407565b61082b578438610a44565b84513d84823e3d90fd5b601284634e487b7160e01b6000525260246000fd5b601184634e487b7160e01b6000525260246000fd5b813d8311610ab4575b610aa58183611469565b81010312610247578638610990565b503d610a9b565b87513d8c823e3d90fd5b845162461bcd60e51b8152808401879052601060248201526f139bc819195c1bdcda5d08199bdd5b9960821b6044820152606490fd5b835162461bcd60e51b8152808301869052601a60248201527f50726f6a656374206e6f7420796574207375636365737366756c0000000000006044820152606490fd5b634e487b7160e01b885260218352602488fd5b92905034610c5e576020366003190112610c5e57610b6d6116d7565b8135835260036020528083206002805490820180546001600160a01b039593928616908616813b15610c5a5787916024839288519485938492630f8ad6f360e31b84528a8401525af18015610c505786918891610c39575b50506006915416910154936001541690803b156104a4578351637361991560e01b81529283019485526001600160a01b03909116602085015290928491849182908490829060400103925af1908115610c305750610c205750f35b610c2990611407565b6108895780f35b513d84823e3d90fd5b610c44919250611407565b6104a457848638610bc5565b85513d89823e3d90fd5b8780fd5b5050fd5b5091903461025057602036600319011261025057823582526003602052808220918254926003810154928582015460018060a01b0391826005850154169260028501541693610cb0816116ad565b956003871015610cef5760e0898960ff8a8a8a8a8a60068b01549681519889526020890152870152606086015260808501521660a083015260c0820152f35b634e487b7160e01b815260218a52602490fd5b50503461025057816003193601126102505760085490516001600160a01b039091168152602090f35b509190366003190160a081126101ca576060136102505760643580151580611127575b610d57906115e9565b6002548251631f50820b60e21b815233868201908152608435602080830191909152966001600160a01b039593909291889183918290036040019082908a908a165af1801561111d579087916110f4575b5050828552600686528185209560249687359283156110b9578588526003835284882090610dd5826116ad565b60038110156110a75761105a57803588811680910361055b5788600584015416036110225785519960608b019a808c1067ffffffffffffffff8d1117611010578798999a9b88528b868c610e276113f1565b8085528285018b81526044359d86018e9052949082169384610f1a575050505050513403610ec15750506006905b01610e6184825461162a565b905533600052808252610e7883856000205461162a565b903360005282528360002055825195610e8f6113f1565b1686528501528301527f27b16580fa2ea712cc42940322bda733d5eda86b4e41a6a5cd8362adbb9d10cc60603393a380f35b865162461bcd60e51b8152918201859052602e908201527f6578706563746564207061796d656e7420616d6f756e74206d7573742065717560448201526d185b081cd95b9d08185b5bdd5b9d60921b6064820152608490fd5b909192958d9795949715600014610fa05750505191518a516323b872dd60e01b8152339481019485523060208601526040850191909152945084928390036060019183918f91165af18015610f96579060069291610f79575b50610e55565b610f8f90853d8711610480576104708183611469565b5038610f73565b86513d8c823e3d90fd5b94935094505050833b156101ca5760c490838a519586948593637921219560e11b8552339085015230908401528c60448401528a606484015260a060848401528160a48401525af18015610f9657610ffc575b50600690610e55565b986110096006929a611407565b9890610ff3565b50634e487b7160e01b8a526041825289fd5b855162461bcd60e51b81529081018490526013818b01527215dc9bdb99c81d1bdad95b881c185e5b595b9d606a1b6044820152606490fd5b855162461bcd60e51b81529081018490526022818b01527f43616e6e6f742066756e642070726f6a65637420616674657220646561646c696044820152616e6560f01b6064820152608490fd5b634e487b7160e01b8a52602182528a8afd5b845162461bcd60e51b81529081018390526016818a015275125b9d985b1a5908199d5b991a5b99c8185b5bdd5b9d60521b6044820152606490fd5b813d8311611116575b6111078183611469565b8101031261082b578538610da8565b503d6110fd565b83513d88823e3d90fd5b50600554811115610d4e565b50346101ca5760203660031901126101ca5735825260036020908152918190206002015490516001600160a01b039091168152f35b5050346102505781600319360112610250576020906005549051908152f35b9050838334610250578160031936011261025057919290600554936111ab856114ee565b946111b885519687611469565b8086526111c4816114ee565b60209190601f1901845b8181106112e757505060019460015b8281111561126c5750505084519481860192828752875180945282828801980194915b84831061120d5787890388f35b855180518a52808501516001600160a01b039081168b8701528183015181168b840152606080830151908c0152608080830151908c015260a080830151909116908b015260c090810151908a0152978101979483019491860191611200565b80869495989699979952600385528584206000198201908282116112d457906112976112a89261158b565b6112a1828b611561565b5288611561565b5060001981146112c157880197959796939294966111dd565b634e487b7160e01b845260118252602484fd5b634e487b7160e01b865260118452602486fd5b9280949795936112f8999799611506565b82828a0101520197959796939294966111ce565b5050503461025057816003193601126102505760025490516001600160a01b039091168152602090f35b5050346101ca57816003193601126101ca576024356001600160a01b038116919082900361024c5792829160209435825260068552828220908252845220549051908152f35b939150503461024c57602036600319011261024c578060e094833581526003602052209081549260018060a01b03918260018501541690836002860154169160066003870154948701549560058801541696015496885260208801528601526060850152608084015260a083015260c0820152f35b600435906001600160a01b038216820361024757565b67ffffffffffffffff811161141b57604052565b634e487b7160e01b600052604160045260246000fd5b6080810190811067ffffffffffffffff82111761141b57604052565b60e0810190811067ffffffffffffffff82111761141b57604052565b90601f8019910116810190811067ffffffffffffffff82111761141b57604052565b67ffffffffffffffff811161141b57601f01601f191660200190565b81601f82011215610247578035906114be8261148b565b926114cc6040519485611469565b8284526020838301011161024757816000926020809301838601378301015290565b67ffffffffffffffff811161141b5760051b60200190565b604051906115138261144d565b8160c06000918281528260208201528260408201528260608201528260808201528260a08201520152565b9190820391821161154b57565b634e487b7160e01b600052601160045260246000fd5b80518210156115755760209160051b010190565b634e487b7160e01b600052603260045260246000fd5b906040516115988161144d565b8254815260018301546001600160a01b039081166020830152600284015481166040830152600384015460608301526004840154608083015260058401541660a082015260069092015460c0830152565b156115f057565b60405162461bcd60e51b8152602060048201526012602482015271125b9d985b1a59081c1c9bda9958dd08125160721b6044820152606490fd5b9190820180921161154b57565b6004356001600160a01b03811681036102475790565b60005b8381106116605750506000910152565b8181015183820152602001611650565b906020916116898151809281855285808601910161164d565b601f01601f1916010190565b90816020910312610247575180151581036102475790565b60068101546003820154116116c25750600190565b600401544210156116d257600090565b600290565b6000546001600160a01b031633036116eb57565b606460405162461bcd60e51b815260206004820152602060248201527f4f776e61626c653a2063616c6c6572206973206e6f7420746865206f776e65726044820152fd5b93929361177d60018060a01b039586600254169360409485519384926316a709c960e21b845261176b6004976060898701526064860190611670565b84810360031901602486015290611670565b906044830152816020948592038173__$e813fe76784a54ae344e441c6251fea768$__5af49081156119ee576000916119b8575b506005548551634000a8a960e11b815296918916929184888781875afa9788156119ad57600098611973575b506117e6611506565b50821561193257428911156118ef57600182018092116118da578695949392916006918b9851996118168b61144d565b828b5289878c0191168152888b019b8c96875260608c0195865260808c019081528a60a08d019316835260c08c0193600085526000526003885289600020958c519b8c88558060018901945116936001600160601b0360a01b94858254161790556002880198511697888482541617905551600387015551888601558c60058601925116908254161790555191015560005252600020555160055551167fdea458b889f1ff572931e5a15c1d834f165099a5381b6b264683153e666b7ce8600080a2565b601186634e487b7160e01b6000525260246000fd5b865162461bcd60e51b8152808701869052601d60248201527f446561646c696e652063616e277420626520696e2074686520706173740000006044820152606490fd5b60648686808a519262461bcd60e51b845283015260248201527f46756e64696e6720676f616c206d757374206265206d6f7265207468616e20306044820152fd5b8581819a939a3d83116119a6575b61198b8183611469565b810103126102505751908a82168203610889575096386117dd565b503d611981565b87513d6000823e3d90fd5b8381813d83116119e7575b6119cd8183611469565b8101031261025057519088821682036108895750386117b1565b503d6119c3565b85513d6000823e3d90fd5b60608101514210611a0b575061465090565b6040611a199101514261153e565b9056fea26469706673582212202a8d5d04899a6dabf47da80e4ade015f320f10c138854b671ee856c44fcd801064736f6c63430008180033",
  "libraries": {
    "NewLkSHT": "0x59c8DE4B52BD5217302BdD070190074B8ea16581",
    "NewHousingProject": "0xf07cB2cc32Be71ee856cC3F15bFcD3Bc4cd6F7A3"
  },
  "devdoc": {
    "details": "This contract is used for initializing and deploying housing projects. It allows the deployment of a new housing project and manages project data.",
    "events": {
      "ProjectDeployed(address)": {
        "details": "Emitted when a new project is deployed.",
        "params": {
          "projectAddress": "Address of the newly deployed HousingProject contract."
        }
      }
    },
    "kind": "dev",
    "methods": {
      "allProjects()": {
        "details": "Returns an array of all project IDs and their associated data.",
        "returns": {
          "_0": "projectList An array of tuples containing project details."
        }
      },
      "claimProjectTokens(uint256)": {
        "details": "Claims project tokens for a given project ID.",
        "params": {
          "projectId": "The ID of the project to claim tokens from."
        }
      },
      "constructor": {
        "params": {
          "_coinbase": "Address authorized to initialize the first project."
        }
      },
      "deployProject(string,string,address,uint256,uint256)": {
        "details": "Deploys a new project. This function can be called multiple times to deploy additional projects.",
        "params": {
          "fundingDeadline": "The deadline for the project funding.",
          "fundingGoal": "The funding goal for the new project.",
          "fundingToken": "Address of the ERC20 token used for funding."
        }
      },
      "getProjectAddress(uint256)": {
        "details": "Returns the address of the HousingProject contract for a given project ID.",
        "params": {
          "projectId": "The ID of the project."
        },
        "returns": {
          "projectAddress": "The address of the HousingProject contract."
        }
      },
      "getProjectData(uint256)": {
        "details": "Returns the details of a project by its ID.",
        "params": {
          "projectId": "The ID of the project."
        },
        "returns": {
          "collectedFunds": "The amount of funds collected.",
          "fundingDeadline": "The deadline for the project funding.",
          "fundingGoal": "The funding goal of the project.",
          "fundingToken": "The address of the ERC20 token used for funding.",
          "id": "The project ID.",
          "projectAddress": "The address of the HousingProject contract.",
          "status": "The funding status of the project."
        }
      },
      "initFirstProject((address,uint256),string,string,address,address,uint256,uint256)": {
        "details": "Initializes the first project. This function must be called by the coinbase address and can only be called once. It sets up the token and deploys the first project.",
        "params": {
          "fundingDeadline": "The deadline for the project funding.",
          "fundingGoal": "The funding goal for the new project.",
          "fundingToken": "Address of the ERC20 token used for funding.",
          "shtPayment": "Payment details for the Smart Housing Token (SHT).",
          "smartHousingAddress_": "Address of the Smart Housing contract."
        }
      },
      "owner()": {
        "details": "Returns the address of the current owner."
      },
      "renounceOwnership()": {
        "details": "Leaves the contract without owner. It will not be possible to call `onlyOwner` functions anymore. Can only be called by the current owner. NOTE: Renouncing ownership will leave the contract without an owner, thereby removing any functionality that is only available to the owner."
      },
      "transferOwnership(address)": {
        "details": "Transfers ownership of the contract to a new account (`newOwner`). Can only be called by the current owner."
      }
    },
    "title": "ProjectFunding",
    "version": 1
  },
  "userdoc": {
    "kind": "user",
    "methods": {},
    "version": 1
  },
  "storageLayout": {
    "storage": [
      {
        "astId": 7,
        "contract": "contracts/project-funding/ProjectFunding.sol:ProjectFunding",
        "label": "_owner",
        "offset": 0,
        "slot": "0",
        "type": "t_address"
      },
      {
        "astId": 8042,
        "contract": "contracts/project-funding/ProjectFunding.sol:ProjectFunding",
        "label": "coinbase",
        "offset": 0,
        "slot": "1",
        "type": "t_address"
      },
      {
        "astId": 8044,
        "contract": "contracts/project-funding/ProjectFunding.sol:ProjectFunding",
        "label": "smartHousingAddress",
        "offset": 0,
        "slot": "2",
        "type": "t_address"
      },
      {
        "astId": 8049,
        "contract": "contracts/project-funding/ProjectFunding.sol:ProjectFunding",
        "label": "projects",
        "offset": 0,
        "slot": "3",
        "type": "t_mapping(t_uint256,t_struct(Data)4856_storage)"
      },
      {
        "astId": 8053,
        "contract": "contracts/project-funding/ProjectFunding.sol:ProjectFunding",
        "label": "projectsId",
        "offset": 0,
        "slot": "4",
        "type": "t_mapping(t_address,t_uint256)"
      },
      {
        "astId": 8055,
        "contract": "contracts/project-funding/ProjectFunding.sol:ProjectFunding",
        "label": "projectCount",
        "offset": 0,
        "slot": "5",
        "type": "t_uint256"
      },
      {
        "astId": 8061,
        "contract": "contracts/project-funding/ProjectFunding.sol:ProjectFunding",
        "label": "usersProjectDeposit",
        "offset": 0,
        "slot": "6",
        "type": "t_mapping(t_uint256,t_mapping(t_address,t_uint256))"
      },
      {
        "astId": 8064,
        "contract": "contracts/project-funding/ProjectFunding.sol:ProjectFunding",
        "label": "housingToken",
        "offset": 0,
        "slot": "7",
        "type": "t_contract(IERC20)2181"
      },
      {
        "astId": 8067,
        "contract": "contracts/project-funding/ProjectFunding.sol:ProjectFunding",
        "label": "lkSht",
        "offset": 0,
        "slot": "8",
        "type": "t_contract(LkSHT)7235"
      }
    ],
    "types": {
      "t_address": {
        "encoding": "inplace",
        "label": "address",
        "numberOfBytes": "20"
      },
      "t_contract(IERC20)2181": {
        "encoding": "inplace",
        "label": "contract IERC20",
        "numberOfBytes": "20"
      },
      "t_contract(LkSHT)7235": {
        "encoding": "inplace",
        "label": "contract LkSHT",
        "numberOfBytes": "20"
      },
      "t_mapping(t_address,t_uint256)": {
        "encoding": "mapping",
        "key": "t_address",
        "label": "mapping(address => uint256)",
        "numberOfBytes": "32",
        "value": "t_uint256"
      },
      "t_mapping(t_uint256,t_mapping(t_address,t_uint256))": {
        "encoding": "mapping",
        "key": "t_uint256",
        "label": "mapping(uint256 => mapping(address => uint256))",
        "numberOfBytes": "32",
        "value": "t_mapping(t_address,t_uint256)"
      },
      "t_mapping(t_uint256,t_struct(Data)4856_storage)": {
        "encoding": "mapping",
        "key": "t_uint256",
        "label": "mapping(uint256 => struct ProjectStorage.Data)",
        "numberOfBytes": "32",
        "value": "t_struct(Data)4856_storage"
      },
      "t_struct(Data)4856_storage": {
        "encoding": "inplace",
        "label": "struct ProjectStorage.Data",
        "members": [
          {
            "astId": 4843,
            "contract": "contracts/project-funding/ProjectFunding.sol:ProjectFunding",
            "label": "id",
            "offset": 0,
            "slot": "0",
            "type": "t_uint256"
          },
          {
            "astId": 4845,
            "contract": "contracts/project-funding/ProjectFunding.sol:ProjectFunding",
            "label": "tokenAddress",
            "offset": 0,
            "slot": "1",
            "type": "t_address"
          },
          {
            "astId": 4847,
            "contract": "contracts/project-funding/ProjectFunding.sol:ProjectFunding",
            "label": "projectAddress",
            "offset": 0,
            "slot": "2",
            "type": "t_address"
          },
          {
            "astId": 4849,
            "contract": "contracts/project-funding/ProjectFunding.sol:ProjectFunding",
            "label": "fundingGoal",
            "offset": 0,
            "slot": "3",
            "type": "t_uint256"
          },
          {
            "astId": 4851,
            "contract": "contracts/project-funding/ProjectFunding.sol:ProjectFunding",
            "label": "fundingDeadline",
            "offset": 0,
            "slot": "4",
            "type": "t_uint256"
          },
          {
            "astId": 4853,
            "contract": "contracts/project-funding/ProjectFunding.sol:ProjectFunding",
            "label": "fundingToken",
            "offset": 0,
            "slot": "5",
            "type": "t_address"
          },
          {
            "astId": 4855,
            "contract": "contracts/project-funding/ProjectFunding.sol:ProjectFunding",
            "label": "collectedFunds",
            "offset": 0,
            "slot": "6",
            "type": "t_uint256"
          }
        ],
        "numberOfBytes": "224"
      },
      "t_uint256": {
        "encoding": "inplace",
        "label": "uint256",
        "numberOfBytes": "32"
      }
    }
  }
}