{
  "address": "0x8283C5385203C3175D3f06E3F28dD116C63A449b",
  "abi": [
    {
      "inputs": [
        {
          "internalType": "address",
          "name": "conibase",
          "type": "address"
        },
        {
          "internalType": "address",
          "name": "projectFunding",
          "type": "address"
        }
      ],
      "stateMutability": "nonpayable",
      "type": "constructor"
    },
    {
      "inputs": [
        {
          "internalType": "uint256",
          "name": "x",
          "type": "uint256"
        }
      ],
      "name": "PRBMathUD60x18__Exp2InputTooBig",
      "type": "error"
    },
    {
      "inputs": [
        {
          "internalType": "uint256",
          "name": "x",
          "type": "uint256"
        }
      ],
      "name": "PRBMathUD60x18__LogInputTooSmall",
      "type": "error"
    },
    {
      "inputs": [
        {
          "internalType": "uint256",
          "name": "prod1",
          "type": "uint256"
        }
      ],
      "name": "PRBMath__MulDivFixedPointOverflow",
      "type": "error"
    },
    {
      "inputs": [
        {
          "internalType": "uint256",
          "name": "prod1",
          "type": "uint256"
        },
        {
          "internalType": "uint256",
          "name": "denominator",
          "type": "uint256"
        }
      ],
      "name": "PRBMath__MulDivOverflow",
      "type": "error"
    },
    {
      "anonymous": false,
      "inputs": [
        {
          "indexed": true,
          "internalType": "address",
          "name": "account",
          "type": "address"
        },
        {
          "indexed": true,
          "internalType": "address",
          "name": "operator",
          "type": "address"
        },
        {
          "indexed": false,
          "internalType": "bool",
          "name": "approved",
          "type": "bool"
        }
      ],
      "name": "ApprovalForAll",
      "type": "event"
    },
    {
      "anonymous": false,
      "inputs": [
        {
          "indexed": true,
          "internalType": "address",
          "name": "to",
          "type": "address"
        },
        {
          "indexed": false,
          "internalType": "uint256",
          "name": "nonce",
          "type": "uint256"
        },
        {
          "components": [
            {
              "components": [
                {
                  "internalType": "address",
                  "name": "token",
                  "type": "address"
                },
                {
                  "internalType": "uint256",
                  "name": "amount",
                  "type": "uint256"
                },
                {
                  "internalType": "uint256",
                  "name": "nonce",
                  "type": "uint256"
                }
              ],
              "internalType": "struct TokenPayment[]",
              "name": "projectTokens",
              "type": "tuple[]"
            },
            {
              "internalType": "uint256",
              "name": "projectsShareCheckpoint",
              "type": "uint256"
            },
            {
              "internalType": "uint256",
              "name": "shtRewardPerShare",
              "type": "uint256"
            },
            {
              "internalType": "uint256",
              "name": "shtAmount",
              "type": "uint256"
            },
            {
              "internalType": "uint256",
              "name": "stakeWeight",
              "type": "uint256"
            },
            {
              "internalType": "uint256",
              "name": "lkDuration",
              "type": "uint256"
            },
            {
              "internalType": "uint256",
              "name": "lkShtNonce",
              "type": "uint256"
            }
          ],
          "indexed": false,
          "internalType": "struct HstAttributes",
          "name": "attributes",
          "type": "tuple"
        }
      ],
      "name": "MintHstToken",
      "type": "event"
    },
    {
      "anonymous": false,
      "inputs": [
        {
          "indexed": true,
          "internalType": "address",
          "name": "previousOwner",
          "type": "address"
        },
        {
          "indexed": true,
          "internalType": "address",
          "name": "newOwner",
          "type": "address"
        }
      ],
      "name": "OwnershipTransferred",
      "type": "event"
    },
    {
      "anonymous": false,
      "inputs": [
        {
          "indexed": false,
          "internalType": "uint256",
          "name": "referrerId",
          "type": "uint256"
        },
        {
          "indexed": false,
          "internalType": "uint256",
          "name": "referralId",
          "type": "uint256"
        }
      ],
      "name": "ReferralAdded",
      "type": "event"
    },
    {
      "anonymous": false,
      "inputs": [
        {
          "indexed": true,
          "internalType": "address",
          "name": "operator",
          "type": "address"
        },
        {
          "indexed": true,
          "internalType": "address",
          "name": "from",
          "type": "address"
        },
        {
          "indexed": true,
          "internalType": "address",
          "name": "to",
          "type": "address"
        },
        {
          "indexed": false,
          "internalType": "uint256[]",
          "name": "ids",
          "type": "uint256[]"
        },
        {
          "indexed": false,
          "internalType": "uint256[]",
          "name": "values",
          "type": "uint256[]"
        }
      ],
      "name": "TransferBatch",
      "type": "event"
    },
    {
      "anonymous": false,
      "inputs": [
        {
          "indexed": true,
          "internalType": "address",
          "name": "operator",
          "type": "address"
        },
        {
          "indexed": true,
          "internalType": "address",
          "name": "from",
          "type": "address"
        },
        {
          "indexed": true,
          "internalType": "address",
          "name": "to",
          "type": "address"
        },
        {
          "indexed": false,
          "internalType": "uint256",
          "name": "id",
          "type": "uint256"
        },
        {
          "indexed": false,
          "internalType": "uint256",
          "name": "value",
          "type": "uint256"
        }
      ],
      "name": "TransferSingle",
      "type": "event"
    },
    {
      "anonymous": false,
      "inputs": [
        {
          "indexed": false,
          "internalType": "string",
          "name": "value",
          "type": "string"
        },
        {
          "indexed": true,
          "internalType": "uint256",
          "name": "id",
          "type": "uint256"
        }
      ],
      "name": "URI",
      "type": "event"
    },
    {
      "anonymous": false,
      "inputs": [
        {
          "indexed": false,
          "internalType": "uint256",
          "name": "userId",
          "type": "uint256"
        },
        {
          "indexed": false,
          "internalType": "address",
          "name": "userAddress",
          "type": "address"
        },
        {
          "indexed": false,
          "internalType": "uint256",
          "name": "referrerId",
          "type": "uint256"
        }
      ],
      "name": "UserRegistered",
      "type": "event"
    },
    {
      "inputs": [],
      "name": "MAX_EPOCHS_LOCK",
      "outputs": [
        {
          "internalType": "uint256",
          "name": "",
          "type": "uint256"
        }
      ],
      "stateMutability": "view",
      "type": "function"
    },
    {
      "inputs": [],
      "name": "MIN_EPOCHS_LOCK",
      "outputs": [
        {
          "internalType": "uint256",
          "name": "",
          "type": "uint256"
        }
      ],
      "stateMutability": "view",
      "type": "function"
    },
    {
      "inputs": [
        {
          "internalType": "address",
          "name": "projectAddress",
          "type": "address"
        }
      ],
      "name": "addProject",
      "outputs": [],
      "stateMutability": "nonpayable",
      "type": "function"
    },
    {
      "inputs": [
        {
          "internalType": "uint256",
          "name": "amount",
          "type": "uint256"
        }
      ],
      "name": "addProjectRent",
      "outputs": [],
      "stateMutability": "nonpayable",
      "type": "function"
    },
    {
      "inputs": [
        {
          "internalType": "address",
          "name": "account",
          "type": "address"
        },
        {
          "internalType": "uint256",
          "name": "id",
          "type": "uint256"
        }
      ],
      "name": "balanceOf",
      "outputs": [
        {
          "internalType": "uint256",
          "name": "",
          "type": "uint256"
        }
      ],
      "stateMutability": "view",
      "type": "function"
    },
    {
      "inputs": [
        {
          "internalType": "address[]",
          "name": "accounts",
          "type": "address[]"
        },
        {
          "internalType": "uint256[]",
          "name": "ids",
          "type": "uint256[]"
        }
      ],
      "name": "balanceOfBatch",
      "outputs": [
        {
          "internalType": "uint256[]",
          "name": "",
          "type": "uint256[]"
        }
      ],
      "stateMutability": "view",
      "type": "function"
    },
    {
      "inputs": [
        {
          "internalType": "uint256",
          "name": "hstTokenId",
          "type": "uint256"
        },
        {
          "internalType": "uint256",
          "name": "referrerId",
          "type": "uint256"
        }
      ],
      "name": "claimRewards",
      "outputs": [],
      "stateMutability": "nonpayable",
      "type": "function"
    },
    {
      "inputs": [],
      "name": "coinbaseAddress",
      "outputs": [
        {
          "internalType": "address",
          "name": "",
          "type": "address"
        }
      ],
      "stateMutability": "view",
      "type": "function"
    },
    {
      "inputs": [
        {
          "internalType": "uint256",
          "name": "referrerId",
          "type": "uint256"
        }
      ],
      "name": "createRefID",
      "outputs": [
        {
          "internalType": "uint256",
          "name": "",
          "type": "uint256"
        }
      ],
      "stateMutability": "nonpayable",
      "type": "function"
    },
    {
      "inputs": [
        {
          "internalType": "address",
          "name": "userAddr",
          "type": "address"
        },
        {
          "internalType": "uint256",
          "name": "referrerId",
          "type": "uint256"
        }
      ],
      "name": "createRefIDViaProxy",
      "outputs": [
        {
          "internalType": "uint256",
          "name": "",
          "type": "uint256"
        }
      ],
      "stateMutability": "nonpayable",
      "type": "function"
    },
    {
      "inputs": [],
      "name": "distributionStorage",
      "outputs": [
        {
          "internalType": "uint256",
          "name": "totalFunds",
          "type": "uint256"
        },
        {
          "internalType": "uint256",
          "name": "genesisEpoch",
          "type": "uint256"
        },
        {
          "internalType": "uint256",
          "name": "projectsTotalReceivedRents",
          "type": "uint256"
        },
        {
          "internalType": "uint256",
          "name": "lastFundsDispatchEpoch",
          "type": "uint256"
        },
        {
          "internalType": "uint256",
          "name": "shtTotalStakeWeight",
          "type": "uint256"
        },
        {
          "internalType": "uint256",
          "name": "shtRewardPerShare",
          "type": "uint256"
        },
        {
          "internalType": "uint256",
          "name": "shtStakingRewards",
          "type": "uint256"
        },
        {
          "components": [
            {
              "internalType": "uint256",
              "name": "toShare",
              "type": "uint256"
            },
            {
              "internalType": "uint256",
              "name": "checkpoint",
              "type": "uint256"
            }
          ],
          "internalType": "struct ProjectStakingRewards.Value",
          "name": "projectsStakingRewards",
          "type": "tuple"
        },
        {
          "components": [
            {
              "internalType": "uint256",
              "name": "team",
              "type": "uint256"
            },
            {
              "internalType": "uint256",
              "name": "protocol",
              "type": "uint256"
            },
            {
              "internalType": "uint256",
              "name": "growth",
              "type": "uint256"
            },
            {
              "internalType": "uint256",
              "name": "staking",
              "type": "uint256"
            },
            {
              "internalType": "uint256",
              "name": "projectsReserve",
              "type": "uint256"
            },
            {
              "internalType": "uint256",
              "name": "lpAndListing",
              "type": "uint256"
            }
          ],
          "internalType": "struct Entities.Value",
          "name": "entityFunds",
          "type": "tuple"
        }
      ],
      "stateMutability": "view",
      "type": "function"
    },
    {
      "inputs": [],
      "name": "epochsAndPeriodsStorage",
      "outputs": [
        {
          "internalType": "uint256",
          "name": "genesis",
          "type": "uint256"
        },
        {
          "internalType": "uint256",
          "name": "epochLength",
          "type": "uint256"
        }
      ],
      "stateMutability": "view",
      "type": "function"
    },
    {
      "inputs": [
        {
          "internalType": "address",
          "name": "owner",
          "type": "address"
        }
      ],
      "name": "getNonces",
      "outputs": [
        {
          "internalType": "uint256[]",
          "name": "",
          "type": "uint256[]"
        }
      ],
      "stateMutability": "view",
      "type": "function"
    },
    {
      "inputs": [
        {
          "internalType": "uint256",
          "name": "nonce",
          "type": "uint256"
        }
      ],
      "name": "getRawTokenAttributes",
      "outputs": [
        {
          "internalType": "bytes",
          "name": "",
          "type": "bytes"
        }
      ],
      "stateMutability": "view",
      "type": "function"
    },
    {
      "inputs": [
        {
          "internalType": "address",
          "name": "userAddress",
          "type": "address"
        }
      ],
      "name": "getReferrals",
      "outputs": [
        {
          "components": [
            {
              "internalType": "uint256",
              "name": "id",
              "type": "uint256"
            },
            {
              "internalType": "address",
              "name": "referralAddress",
              "type": "address"
            }
          ],
          "internalType": "struct UserModule.ReferralInfo[]",
          "name": "",
          "type": "tuple[]"
        }
      ],
      "stateMutability": "view",
      "type": "function"
    },
    {
      "inputs": [
        {
          "internalType": "address",
          "name": "userAddress",
          "type": "address"
        }
      ],
      "name": "getReferrer",
      "outputs": [
        {
          "internalType": "uint256",
          "name": "referrerId",
          "type": "uint256"
        },
        {
          "internalType": "address",
          "name": "referrerAddress",
          "type": "address"
        }
      ],
      "stateMutability": "view",
      "type": "function"
    },
    {
      "inputs": [
        {
          "internalType": "address",
          "name": "userAddress",
          "type": "address"
        }
      ],
      "name": "getUserId",
      "outputs": [
        {
          "internalType": "uint256",
          "name": "userId",
          "type": "uint256"
        }
      ],
      "stateMutability": "view",
      "type": "function"
    },
    {
      "inputs": [
        {
          "internalType": "address",
          "name": "owner",
          "type": "address"
        },
        {
          "internalType": "uint256",
          "name": "nonce",
          "type": "uint256"
        }
      ],
      "name": "hasSFT",
      "outputs": [
        {
          "internalType": "bool",
          "name": "",
          "type": "bool"
        }
      ],
      "stateMutability": "view",
      "type": "function"
    },
    {
      "inputs": [],
      "name": "hst",
      "outputs": [
        {
          "internalType": "contract HousingStakingToken",
          "name": "",
          "type": "address"
        }
      ],
      "stateMutability": "view",
      "type": "function"
    },
    {
      "inputs": [
        {
          "internalType": "address",
          "name": "account",
          "type": "address"
        },
        {
          "internalType": "address",
          "name": "operator",
          "type": "address"
        }
      ],
      "name": "isApprovedForAll",
      "outputs": [
        {
          "internalType": "bool",
          "name": "",
          "type": "bool"
        }
      ],
      "stateMutability": "view",
      "type": "function"
    },
    {
      "inputs": [
        {
          "components": [
            {
              "internalType": "address",
              "name": "token",
              "type": "address"
            },
            {
              "internalType": "uint256",
              "name": "amount",
              "type": "uint256"
            },
            {
              "internalType": "uint256",
              "name": "nonce",
              "type": "uint256"
            }
          ],
          "internalType": "struct TokenPayment[]",
          "name": "projectTokens",
          "type": "tuple[]"
        },
        {
          "internalType": "uint256",
          "name": "projectsShareCheckpoint",
          "type": "uint256"
        },
        {
          "internalType": "uint256",
          "name": "shtRewardPerShare",
          "type": "uint256"
        },
        {
          "internalType": "uint256",
          "name": "lkDuration",
          "type": "uint256"
        },
        {
          "internalType": "uint256",
          "name": "shtAmount",
          "type": "uint256"
        },
        {
          "internalType": "uint256",
          "name": "lkShtNonce",
          "type": "uint256"
        }
      ],
      "name": "mint",
      "outputs": [
        {
          "components": [
            {
              "components": [
                {
                  "internalType": "address",
                  "name": "token",
                  "type": "address"
                },
                {
                  "internalType": "uint256",
                  "name": "amount",
                  "type": "uint256"
                },
                {
                  "internalType": "uint256",
                  "name": "nonce",
                  "type": "uint256"
                }
              ],
              "internalType": "struct TokenPayment[]",
              "name": "projectTokens",
              "type": "tuple[]"
            },
            {
              "internalType": "uint256",
              "name": "projectsShareCheckpoint",
              "type": "uint256"
            },
            {
              "internalType": "uint256",
              "name": "shtRewardPerShare",
              "type": "uint256"
            },
            {
              "internalType": "uint256",
              "name": "shtAmount",
              "type": "uint256"
            },
            {
              "internalType": "uint256",
              "name": "stakeWeight",
              "type": "uint256"
            },
            {
              "internalType": "uint256",
              "name": "lkDuration",
              "type": "uint256"
            },
            {
              "internalType": "uint256",
              "name": "lkShtNonce",
              "type": "uint256"
            }
          ],
          "internalType": "struct HstAttributes",
          "name": "attr",
          "type": "tuple"
        }
      ],
      "stateMutability": "nonpayable",
      "type": "function"
    },
    {
      "inputs": [],
      "name": "name",
      "outputs": [
        {
          "internalType": "string",
          "name": "",
          "type": "string"
        }
      ],
      "stateMutability": "view",
      "type": "function"
    },
    {
      "inputs": [],
      "name": "owner",
      "outputs": [
        {
          "internalType": "address",
          "name": "",
          "type": "address"
        }
      ],
      "stateMutability": "view",
      "type": "function"
    },
    {
      "inputs": [
        {
          "internalType": "address",
          "name": "",
          "type": "address"
        }
      ],
      "name": "permissions",
      "outputs": [
        {
          "internalType": "enum SmartHousing.Permissions",
          "name": "",
          "type": "uint8"
        }
      ],
      "stateMutability": "view",
      "type": "function"
    },
    {
      "inputs": [
        {
          "internalType": "address",
          "name": "project",
          "type": "address"
        }
      ],
      "name": "projectDets",
      "outputs": [
        {
          "components": [
            {
              "internalType": "uint256",
              "name": "maxShares",
              "type": "uint256"
            },
            {
              "internalType": "uint256",
              "name": "receivedRents",
              "type": "uint256"
            }
          ],
          "internalType": "struct Distribution.ProjectDistributionData",
          "name": "",
          "type": "tuple"
        }
      ],
      "stateMutability": "view",
      "type": "function"
    },
    {
      "inputs": [],
      "name": "projectFundingAddress",
      "outputs": [
        {
          "internalType": "address",
          "name": "",
          "type": "address"
        }
      ],
      "stateMutability": "view",
      "type": "function"
    },
    {
      "inputs": [],
      "name": "projectsToken",
      "outputs": [
        {
          "internalType": "address[]",
          "name": "",
          "type": "address[]"
        }
      ],
      "stateMutability": "view",
      "type": "function"
    },
    {
      "inputs": [],
      "name": "renounceOwnership",
      "outputs": [],
      "stateMutability": "nonpayable",
      "type": "function"
    },
    {
      "inputs": [
        {
          "internalType": "address",
          "name": "from",
          "type": "address"
        },
        {
          "internalType": "address",
          "name": "to",
          "type": "address"
        },
        {
          "internalType": "uint256[]",
          "name": "ids",
          "type": "uint256[]"
        },
        {
          "internalType": "uint256[]",
          "name": "amounts",
          "type": "uint256[]"
        },
        {
          "internalType": "bytes",
          "name": "data",
          "type": "bytes"
        }
      ],
      "name": "safeBatchTransferFrom",
      "outputs": [],
      "stateMutability": "nonpayable",
      "type": "function"
    },
    {
      "inputs": [
        {
          "internalType": "address",
          "name": "from",
          "type": "address"
        },
        {
          "internalType": "address",
          "name": "to",
          "type": "address"
        },
        {
          "internalType": "uint256",
          "name": "id",
          "type": "uint256"
        },
        {
          "internalType": "uint256",
          "name": "amount",
          "type": "uint256"
        },
        {
          "internalType": "bytes",
          "name": "data",
          "type": "bytes"
        }
      ],
      "name": "safeTransferFrom",
      "outputs": [],
      "stateMutability": "nonpayable",
      "type": "function"
    },
    {
      "inputs": [
        {
          "internalType": "address",
          "name": "operator",
          "type": "address"
        },
        {
          "internalType": "bool",
          "name": "approved",
          "type": "bool"
        }
      ],
      "name": "setApprovalForAll",
      "outputs": [],
      "stateMutability": "nonpayable",
      "type": "function"
    },
    {
      "inputs": [
        {
          "components": [
            {
              "internalType": "contract IERC20",
              "name": "token",
              "type": "address"
            },
            {
              "internalType": "uint256",
              "name": "amount",
              "type": "uint256"
            }
          ],
          "internalType": "struct ERC20TokenPayment",
          "name": "payment",
          "type": "tuple"
        }
      ],
      "name": "setUpSHT",
      "outputs": [],
      "stateMutability": "nonpayable",
      "type": "function"
    },
    {
      "inputs": [],
      "name": "shtTokenAddress",
      "outputs": [
        {
          "internalType": "address",
          "name": "",
          "type": "address"
        }
      ],
      "stateMutability": "view",
      "type": "function"
    },
    {
      "inputs": [
        {
          "components": [
            {
              "internalType": "address",
              "name": "token",
              "type": "address"
            },
            {
              "internalType": "uint256",
              "name": "amount",
              "type": "uint256"
            },
            {
              "internalType": "uint256",
              "name": "nonce",
              "type": "uint256"
            }
          ],
          "internalType": "struct TokenPayment[]",
          "name": "stakingTokens",
          "type": "tuple[]"
        },
        {
          "internalType": "uint256",
          "name": "epochsLock",
          "type": "uint256"
        },
        {
          "internalType": "uint256",
          "name": "referrerId",
          "type": "uint256"
        }
      ],
      "name": "stake",
      "outputs": [],
      "stateMutability": "payable",
      "type": "function"
    },
    {
      "inputs": [
        {
          "internalType": "bytes4",
          "name": "interfaceId",
          "type": "bytes4"
        }
      ],
      "name": "supportsInterface",
      "outputs": [
        {
          "internalType": "bool",
          "name": "",
          "type": "bool"
        }
      ],
      "stateMutability": "view",
      "type": "function"
    },
    {
      "inputs": [],
      "name": "symbol",
      "outputs": [
        {
          "internalType": "string",
          "name": "",
          "type": "string"
        }
      ],
      "stateMutability": "view",
      "type": "function"
    },
    {
      "inputs": [],
      "name": "tokenInfo",
      "outputs": [
        {
          "internalType": "string",
          "name": "",
          "type": "string"
        },
        {
          "internalType": "string",
          "name": "",
          "type": "string"
        }
      ],
      "stateMutability": "view",
      "type": "function"
    },
    {
      "inputs": [
        {
          "internalType": "address",
          "name": "newOwner",
          "type": "address"
        }
      ],
      "name": "transferOwnership",
      "outputs": [],
      "stateMutability": "nonpayable",
      "type": "function"
    },
    {
      "inputs": [
        {
          "internalType": "address",
          "name": "user",
          "type": "address"
        },
        {
          "internalType": "uint256",
          "name": "nonce",
          "type": "uint256"
        },
        {
          "internalType": "uint256",
          "name": "amount",
          "type": "uint256"
        },
        {
          "internalType": "bytes",
          "name": "attr",
          "type": "bytes"
        }
      ],
      "name": "update",
      "outputs": [],
      "stateMutability": "nonpayable",
      "type": "function"
    },
    {
      "inputs": [
        {
          "internalType": "uint256",
          "name": "",
          "type": "uint256"
        }
      ],
      "name": "uri",
      "outputs": [
        {
          "internalType": "string",
          "name": "",
          "type": "string"
        }
      ],
      "stateMutability": "view",
      "type": "function"
    },
    {
      "inputs": [],
      "name": "userCount",
      "outputs": [
        {
          "internalType": "uint256",
          "name": "",
          "type": "uint256"
        }
      ],
      "stateMutability": "view",
      "type": "function"
    },
    {
      "inputs": [
        {
          "internalType": "uint256",
          "name": "",
          "type": "uint256"
        }
      ],
      "name": "userIdToAddress",
      "outputs": [
        {
          "internalType": "address",
          "name": "",
          "type": "address"
        }
      ],
      "stateMutability": "view",
      "type": "function"
    },
    {
      "inputs": [
        {
          "internalType": "address",
          "name": "",
          "type": "address"
        }
      ],
      "name": "users",
      "outputs": [
        {
          "internalType": "uint256",
          "name": "id",
          "type": "uint256"
        },
        {
          "internalType": "address",
          "name": "addr",
          "type": "address"
        },
        {
          "internalType": "uint256",
          "name": "referrerId",
          "type": "uint256"
        }
      ],
      "stateMutability": "view",
      "type": "function"
    }
  ],
  "transactionHash": "0xf284e9bcb631f4dc8ba534528237b6ba7d9134c6d366b776cfb991b4383e39df",
  "args": [
    "0x254c81165e1BEF4d1B158Ac27A6B40F07e85187b",
    "0xe7B72eA97Be46a017C49e261B5036efa5EEFFa1f"
  ],
  "numDeployments": 2,
  "solcInputHash": "3f7696dcd180eba0f188ae64ff117803",
  "bytecode": "0x6080604081815234620002e0578082620048bd803803809162000023828562000580565b833981010312620002e0576200004760206200003f84620005a4565b9301620005a4565b815192620000558462000564565b601584527f486f7573696e67205374616b696e6720546f6b656e000000000000000000000060208501528251936200008d8562000564565b60038552621214d560ea1b60208601528351602081019080821060018060401b03831117620003fd57600091865252600254600181811c9116801562000559575b6020821014620003dc57601f81116200050c575b5060006002556003543360018060a01b0319821617600355339060018060a01b03167f8be0079c531659141344cd1fd0a4f28419497f9722a3daafe3b4186f6b6457e0600080a38051906001600160401b038211620003fd5760085490600182811c9216801562000501575b6020831014620003dc5781601f8493116200049d575b50602090601f83116001146200041f5760009262000413575b50508160011b916000199060031b1c1916176008555b83516001600160401b038111620003fd57600954600181811c91168015620003f2575b6020821014620003dc57601f811162000372575b50602094601f82116001146200030557948192939495600092620002f9575b50508160011b916000199060031b1c1916176009555b600d80546001600160a01b039283166001600160a01b031991821617909155600c80549390921692169190911790558051633bf206a360e21b815260208160048173aCf3c12262CBD3e180C7A9F3BCBEA961D2b421985af4908115620002ee57600091620002a0575b50600f80546001600160a01b0319166001600160a01b0392909216919091179055426020556001602155516142e39081620005ba8239f35b90506020813d602011620002e5575b81620002be6020938362000580565b81010312620002e057516001600160a01b0381168103620002e0573862000268565b600080fd5b3d9150620002af565b82513d6000823e3d90fd5b015190503880620001e9565b601f19821695600960005260206000209160005b88811062000359575083600195969798106200033f575b505050811b01600955620001ff565b015160001960f88460031b161c1916905538808062000330565b9192602060018192868501518155019401920162000319565b60096000527f6e1540171b6c0c960b71a7020d9f60077f6af931a8bbf590da0223dacf75c7af601f830160051c81019160208410620003d1575b601f0160051c01905b818110620003c45750620001ca565b60008155600101620003b5565b9091508190620003ac565b634e487b7160e01b600052602260045260246000fd5b90607f1690620001b6565b634e487b7160e01b600052604160045260246000fd5b0151905038806200017d565b6008600090815293506000805160206200489d83398151915291905b601f198416851062000481576001945083601f1981161062000467575b505050811b0160085562000193565b015160001960f88460031b161c1916905538808062000458565b818101518355602094850194600190930192909101906200043b565b60086000529091506000805160206200489d833981519152601f840160051c81019160208510620004f6575b90601f859493920160051c01905b818110620004e6575062000164565b60008155849350600101620004d7565b9091508190620004c9565b91607f16916200014e565b6002600052601f0160051c7f405787fa12a823e0f2b7631cc41b3ba8828b3321ca811111fa75cd3aa3bb5ace908101905b8181106200054c5750620000e2565b600081556001016200053d565b90607f1690620000ce565b604081019081106001600160401b03821117620003fd57604052565b601f909101601f19168101906001600160401b03821190821017620003fd57604052565b51906001600160a01b0382168203620002e05756fe6080604052600436101561001257600080fd5b6000803560e01c8062fdd58e146131ca57806301e882081461316f57806301ffc9a71461310057806306fdde03146130dc57806307973ccf146130be5780630e89341c14612fdc5780631958561214612ea757806325da499a14612e7e5780632b956ff714612e455780632eb2c2d614612b1d5780632fd2b55f1461287657806341a0894d146127055780634a9fefc7146126a15780634e1273f41461250c5780634fa3d25d146124b65780635124ae951461242f578063553c991214612406578063594dd43214611df9578063610bdf5d14611dd05780636addb66314611d77578063715018a614611d195780637c373a5014611c5c5780637c56b79814611c085780637c89f5df14611bd35780637d42082c14611b965780638b2ef8b114611b795780638da5cb5b14611b5057806395d89b4114611b11578063a22cb46514611a2d578063a476941c1461192b578063a87430ba146118c4578063af5ad2181461125a578063b169520114611227578063b81d481514611202578063c398bf3a146111da578063cbd91ab4146111be578063d73ca9d314610c0c578063d8938f26146106d0578063e985e9c51461067c578063f242432a14610352578063f2fde38b1461028c578063f7157af6146102205763fdc052a3146101f557600080fd5b3461021d578060031936011261021d57600e546040516001600160a01b039091168152602090f35b80fd5b503461021d57602036600319011261021d576040809161023e6131f2565b60006020845161024d81613277565b82815201526001600160a01b03168152601360205220815161026e81613277565b60206001835493848452015491019081528251918252516020820152f35b503461021d57602036600319011261021d576102a66131f2565b6102ae613e99565b6001600160a01b039081169081156102fe57600354826001600160601b0360a01b821617600355167f8be0079c531659141344cd1fd0a4f28419497f9722a3daafe3b4186f6b6457e0600080a380f35b60405162461bcd60e51b815260206004820152602660248201527f4f776e61626c653a206e6577206f776e657220697320746865207a65726f206160448201526564647265737360d01b6064820152608490fd5b503461021d5760a036600319011261021d5761036c6131f2565b9061037561320d565b60643591604435916084356001600160401b0381116106785761039c90369060040161338e565b6001600160a01b03958616959093903387148015610651575b6103be9061377d565b82166103cb811515613a22565b6103d482614198565b946103de87614198565b50845b865181101561041457600190898752600b60205261040d60408820610406838b613816565b51906141bd565b50016103e1565b509092969195845b865181101561044f57600190858752600b60205261044860408820610441838b613816565b5190614141565b500161041c565b509194509294808652602096868852604087208660005288528260406000205461047b82821015613a7c565b838952888a5260408920886000528a52036040600020558187528688526040872084600052885260406000206104b2848254613809565b90558386604051848152858b8201527fc3d58168c5ae7397731d063d5bbf3d657854427343f4c083240f7aacaa2d0f6260403392a43b6104f0578580f35b916105369391600088946040519687958694859363f23a6e6160e01b9b8c865233600487015260248601526044850152606484015260a0608484015260a4830190613237565b03925af160009181610622575b506105ae5783610551613f11565b6308c379a014610579575b60405162461bcd60e51b81528061057560048201613fa0565b0390fd5b610581613f2f565b908161058d575061055c565b61057560405192839262461bcd60e51b845260048401526024830190613237565b9192506001600160e01b0319909116036105cc578038808080808580f35b60405162461bcd60e51b815260206004820152602860248201527f455243313135353a204552433131353552656365697665722072656a656374656044820152676420746f6b656e7360c01b6064820152608490fd5b610643919250853d871161064a575b61063b81836132f6565b810190613ef1565b9038610543565b503d610631565b50868452600160205260408420336000526020526103be60ff6040600020541690506103b5565b8280fd5b503461021d57604036600319011261021d576106966131f2565b60406106a061320d565b9260018060a01b0380931681526001602052209116600052602052602060ff604060002054166040519015158152f35b503461021d57608036600319011261021d576106ea6131f2565b604435916001600160401b0391602480359190606435858111610c085761071590369060040161338e565b9461071e613e99565b6001600160a01b038316938415610bb85761073881614198565b9761074281614198565b5086604051610750816132db565b52865b895181101561078057600190878952600b6020526107798b6104068360408d2092613816565b5001610753565b50909294919396865b89518110156107b657600190888052600b6020526107af8b6104418360408d2092613816565b5001610789565b508796959684875260209487865260408820856000528652604060002054848110610b69578490828a5289885260408a2087600052885203604060002055604051908152838682015287857fc3d58168c5ae7397731d063d5bbf3d657854427343f4c083240f7aacaa2d0f62928360403392a487604051610836816132db565b5260405192610844846132db565b8884526001908160075401988960075589600052600a89526040600020918051918211610b54578190610877845461356b565b8b601f8211610b18575b50508a90601f8311600114610ab257600092610aa7575b5050600019600383901b1c191690831b1790558591905b6108b889614198565b6108c187614198565b506000825b610a64575b5081906000925b610a28575b505050600090888252818852604082208383528852604082206108fb878254613809565b905560405190898252868983015260403392a43b61092f575b8561092b86600b8787600052526040600020614141565b5080f35b8361097391604097969597518093819263f23a6e6160e01b9687845233600485015260008d850152896044850152606484015260a0608484015260a4830190613237565b03816000875af160009181610a09575b506109e8578686610992613f11565b6308c379a0146109b55760405162461bcd60e51b81528061057560048201613fa0565b6109bd613f2f565b806109c8575061055c565b6105759060405193849362461bcd60e51b85526004850152830190613237565b90919293955063ffffffff60e01b16036105cc57839290600b61092b610914565b610a21919250873d891161064a5761063b81836132f6565b9088610983565b9091938151851015610a5e578293948391600052600b8b52610a5260406000206104418386613816565b500191908894936108d2565b936108d7565b8293945081929151811015610a9b57819060008052600b8b52610a8f60406000206104068387613816565b500188949392916108c6565b889493509190916108cb565b015190508d80610898565b60008581528c8120879550929190601f198516908e5b828210610b015750508411610ae8575b505050811b0190559085916108af565b015160001960f88460031b161c191690558d8080610ad8565b83850151865589979095019493840193018e610ac8565b610b4391866000528160002090601f860160051c8201928610610b4a575b601f0160051c0190613aea565b8e8b610881565b9091508190610b36565b8c634e487b7160e01b60005260416004526000fd5b6084878b6040519162461bcd60e51b83526004830152808201527f455243313135353a206275726e20616d6f756e7420657863656564732062616c604482015263616e636560e01b6064820152fd5b60405162461bcd60e51b8152602060048201526023818501527f455243313135353a206275726e2066726f6d20746865207a65726f206164647260448201526265737360e81b6064820152608490fd5b8480fd5b50606036600319011261021d576001600160401b0360043581811161067857610c39903690600401613418565b909160b46024351015806111b0575b1561116b57610c5960443533613b19565b50610c62613dbb565b601954926016549260018060a01b03600e5416906004602060018060a01b03600c541660405192838092632873b64760e11b82525afa90811561116057889161111a575b50610caf6139b0565b5060405194610160860190811186821017611104579188979491889693604052600a8452865b61014081106110ca57508687958894895b858110610e015750505050505060018060a01b03600f5416926040519687956315eb5a4360e31b875260c4870160c060048901528551809152602060e48901960190895b818110610db057505050928694919285938995602486015260448501526024356064850152608484015260a483015203925af1908115610da557610d7d916080918491610d83575b500151601554613809565b60155580f35b610d9f91503d8086833e610d9781836132f6565b81019061383e565b84610d72565b6040513d84823e3d90fd5b9294966020919496989a50829950610ded906001935190604060609260018060a01b03815116835260208101516020840152015160408201520190565b98019101908a989694928a98969492610d2a565b610e1c9b9a9192939495969897999b366060830285016139e9565b80519098906001600160a01b0316858103610fdf5750506020880151975b80516001600160a01b031680610eca5750602091925001513403610e6e576001905b01908b999a9896979594939291610ce6565b60405162461bcd60e51b815260206004820152602e60248201527f6578706563746564207061796d656e7420616d6f756e74206d7573742065717560448201526d185b081cd95b9d08185b5bdd5b9d60921b6064820152608490fd5b604082015180610f6157505080516020918201516040516323b872dd60e01b8152336004820152306024820152604481019190915293849160649183916001600160a01b03165af1918215610f5657600192610f27575b50610e5c565b610f489060203d602011610f4f575b610f4081836132f6565b81019061394d565b508d610f21565b503d610f36565b6040513d8f823e3d90fd5b90916020909493940151823b15610fdb5760c48492836040519586948593637921219560e11b85523360048601523060248601526044850152606484015260a060848401528160a48401525af18015610da557610fc3575b5050600190610e5c565b610fcc906132ad565b610fd7578b8d610fb9565b8b80fd5b8380fd5b989990986001600160a01b0388168103611000575050604089015198610e3a565b60009081526024602052604090205490999592501561109057600a8a51101561104b5761104582868f94611034908e613816565b5261103f818d613816565b50613adb565b94610e3a565b60405162461bcd60e51b815260206004820152601b60248201527f4d61782070726f6a65637420746f6b656e7320657863656564656400000000006044820152606490fd5b60405162461bcd60e51b815260206004820152601260248201527124b73b30b634b21029b2b73a102a37b5b2b760711b6044820152606490fd5b60209192939594969897506040516110e181613292565b8a81528a838201528a604082015282828901015201908896979593949291610cd5565b634e487b7160e01b600052604160045260246000fd5b90506020813d602011611158575b81611135602093836132f6565b8101031261115457516001600160a01b03811681036111545738610ca6565b8780fd5b3d9150611128565b6040513d8a823e3d90fd5b60405162461bcd60e51b815260206004820152601a60248201527f496e76616c69642065706f636873206c6f636b20706572696f640000000000006044820152606490fd5b506104386024351115610c48565b503461021d578060031936011261021d57602060405160b48152f35b503461021d57602036600319011261021d5760206111fa60043533613b19565b604051908152f35b503461021d578060031936011261021d57604060205460215482519182526020820152f35b503461021d57602036600319011261021d57602090600435815260068252604060018060a01b0391205416604051908152f35b503461021d5760c036600319011261021d576004356001600160401b0381116118c05761128b903690600401613418565b906112946139b0565b5061129d613e99565b60b46064351015806118b2575b15611875576084351580159061186a575b15611835578115158061182a575b156117d1576112dc6064356084356137f6565b90604051926112ea846132c0565b6112f381613317565b9161130160405193846132f6565b818352602083019036606084028201116117cd5780915b60608402820183106117b057505050508252602435602083015260443560408301526084356060830152608082015260643560a082015260a43560c08201526040516020808201528061136e6040820184613448565b0392611382601f19948581018452836132f6565b6040519061138f826132db565b81526001918260075401948560075585600052600a6020526040600020918051916001600160401b0383116111045782916113ca855461356b565b601f811161177e575b50602091601f841160011461171d5750600092611712575b5050600019600383901b1c191690841b1790555b33156116c35761140e84614198565b60405161141a81613277565b8381526020810190602036833751156116ad57839052826000815b61165e575b50906000825b61162b575b50505083600052600060205260406000203360005260205260406000208054908382018092116116155755604051848152826020820152600033917fc3d58168c5ae7397731d063d5bbf3d657854427343f4c083240f7aacaa2d0f6260403392a4333b611523575b61151f838533600052600b6020526114c9816040600020614141565b50604051908152604060208201527f4c04859a2c5c5d82310b4e9457a381ad4d4b599fdd102495d18131c90b2e4ea53391806115086040820186613448565b0390a2604051918291602083526020830190613448565b0390f35b6020611565916040518093819263f23a6e6160e01b9687845233600485015260006024850152896044850152606484015260a0608484015260a4830190613237565b03816000335af1600091816115f4575b506115dc57611582613f11565b6308c379a0146115a55760405162461bcd60e51b81528061057560048201613fa0565b6115ad613f2f565b806115b8575061055c565b60405162461bcd60e51b815260206004820152908190610575906024830190613237565b6001600160e01b031916036105cc5761151f386114ad565b61160e91925060203d60201161064a5761063b81836132f6565b9038611575565b634e487b7160e01b600052601160045260246000fd5b815181101561165957829033600052600b60205261165160406000206104418386613816565b500182611440565b611445565b82518110156116a85760008052600b60205281906116a07fdf7de25b7f1fd6d0b5205f0e18f1f35bd7b8d84cce336588d184533ce43a6f766104068387613816565b500181611435565b61143a565b634e487b7160e01b600052603260045260246000fd5b60405162461bcd60e51b815260206004820152602160248201527f455243313135353a206d696e7420746f20746865207a65726f206164647265736044820152607360f81b6064820152608490fd5b0151905038806113eb565b879492919216918560005260206000209260005b8181106117665750841161174d575b505050811b0190556113ff565b015160001960f88460031b161c19169055388080611740565b82840151855589969094019360209384019301611731565b6117aa90866000526020600020601f860160051c81019160208710610b4a57601f0160051c0190613aea565b386113d3565b6060602081926117c036876139e9565b8152019301929050611318565b8680fd5b60405162461bcd60e51b815260206004820152602b60248201527f4d7573742073656e642070726f6a65637420746f6b656e73206f66206170707260448201526a37bb32b210373ab6b132b960a91b6064820152608490fd5b50600a8211156112c9565b60405162461bcd60e51b815260206004820152600d60248201526c135d5cdd081cd95b990814d215609a1b6044820152606490fd5b5060a43515156112bb565b60405162461bcd60e51b815260206004820152601560248201527424b73b30b634b2103637b1b590323ab930ba34b7b760591b6044820152606490fd5b5061043860643511156112aa565b5080fd5b503461021d57602036600319011261021d576001600160a01b0390604090826118eb6131f2565b1681526005602052209061151f6002835492600185015416930154604051938493846040919493926060820195825260018060a01b031660208201520152565b503461021d578060031936011261021d576010546011546012549060145491601554926016549360175460405161196181613277565b601854815260195491602082019283526040519760c089018981106001600160401b0382111761110457604052601a548952601b549460208a01958652601c549660408b01978852601d549860608c01998a52601e549a60808d019b8c528c601f549060a00152604051809e81526020015260408d015260608c015260808b015260a08a015260c08901525160e0880152516101008701528451610120870152516101408601525161016085015251610180840152516101a083015260a001516101c08201526101e090f35b503461021d57604036600319011261021d57611a476131f2565b60243590811515809203610678576001600160a01b031690338214611aba5733835260016020526040832082600052602052604060002060ff1981541660ff83161790556040519081527f17307eab39ab6107e8899845ad3d59bd9653f200f220920489ca2b5937696c3160203392a380f35b60405162461bcd60e51b815260206004820152602960248201527f455243313135353a2073657474696e6720617070726f76616c20737461747573604482015268103337b91039b2b63360b91b6064820152608490fd5b503461021d578060031936011261021d5761151f604051611b3c81611b3581613659565b03826132f6565b604051918291602083526020830190613237565b503461021d578060031936011261021d576003546040516001600160a01b039091168152602090f35b503461021d578060031936011261021d5760206040516104388152f35b503461021d57604036600319011261021d5760206111fa611bb56131f2565b611bca60018060a01b03600c54163314613965565b60243590613b19565b503461021d57602036600319011261021d57611b35611b3c604061151f936004358152600a60205220604051928380926136e7565b503461021d57602036600319011261021d5761092b611c256131f2565b600c546001600160a01b039190611c3f9083163314613965565b16808352602260205260408320805460ff191660011790556140a9565b503461021d578060031936011261021d5760405180916023549081835260208093018092602383527fd57b2b5166478fd4318d2acc6cc2c704584312bdd8781b32d5d06abda57f423090835b818110611d055750505084611cbe9103856132f6565b60405193838594850191818652518092526040850193925b828110611ce557505050500390f35b83516001600160a01b031685528695509381019392810192600101611cd6565b825484529286019260019283019201611ca8565b503461021d578060031936011261021d57611d32613e99565b600380546001600160a01b031981169091556000906001600160a01b03167f8be0079c531659141344cd1fd0a4f28419497f9722a3daafe3b4186f6b6457e08280a380f35b503461021d578060031936011261021d57611dc2604051611d9b81611b35816135a5565b61151f604051611dae81611b3581613659565b604051938493604085526040850190613237565b908382036020850152613237565b503461021d578060031936011261021d57600f546040516001600160a01b039091168152602090f35b503461021d57604036600319011261021d57602490600435611e1c833533613b19565b50600f54604051627eeac760e11b81523360048201526024810183905292906020906001600160a01b039082908690604490829085165afa9485156121315783956123d7575b50841561238957611e71613dbb565b838352600a8252611e9f611b35611e9160408620604051928380926136e7565b83808251830101910161383e565b93611ea86139b0565b508360195480612314575b60165480151580612307575b6122ae575b60408801528487015280859786985b885180518b1015612027578a611ee891613816565b518681511615611fe35788816040898f94511691015160405193849163f59002e360e01b835260048301528160a09485945af1918215611fd8578a92611f41575b5050600191611f39915190613809565b990198611ed3565b81819293503d8411611fd1575b611f5881836132f6565b810103918212611fc957606091828112611fcd576040908151611f7a81613292565b83518152611f898c850161382a565b818d01528383015190830152605f190112611fc95791611f3991608060019460405192611fb584613277565b810151835201518a82015291819350611f29565b8980fd5b8a80fd5b503d611f4e565b6040513d8c823e3d90fd5b60405162461bcd60e51b8152600481018990526017818e01527f496e76616c69642070726f6a65637420616464726573730000000000000000006044820152606490fd5b5093908a959293986120519261205f85600f5416926040519586918c808401526040830190613448565b03601f1981018652856132f6565b813b15611fc9579089929183896120a260405197889687958694636c49c79360e11b86523360048701528501526044840152608060648401526084830190613237565b03925af180156122a357612290575b5080600e5416938715801561213c575b505050849550916120d86121029285969594613809565b60405163a9059cbb60e01b8152336004820152602481019190915293849283919082906044820190565b03925af1801561213157612114578280f35b8161212a92903d10610f4f57610f4081836132f6565b5081808280f35b6040513d85823e3d90fd5b9093919492506019880290888204601914171561227d579486976121676103e8839998048092613e8c565b336000908152600560209081526040808320600201548084526006909252909120549197916001600160a01b031691821615905061221b5760405163a9059cbb60e01b81526001600160a01b03919091166004820152602481019190915293508360448188865af1908115612210578694612102946120d8936121f3575b505b929495968194506120c1565b61220990873d8911610f4f57610f4081836132f6565b50896121e5565b6040513d87823e3d90fd5b509050823b15612279578590604051948591630852cd8d60e31b835260048301528183865af180156122105786938691612260575b50506120d89061210293946121e7565b61226c919294506132ad565b610fdb5784918488612250565b8580fd5b634e487b7160e01b875260116004528387fd5b61229c909691966132ad565b94876120b1565b6040513d89823e3d90fd5b916122f990670de0b6b3a76400006122d86122cd60408c015187613e8c565b60808c0151906137f6565b049060175490828083106122ff575b6122f19192613e8c565b601755613809565b91611ec4565b8291506122e7565b5080604089015110611ebf565b959094809893979294808301965b835180518c10156123585760019161234a8b6123418f61235095613816565b518c5190613ff5565b90613809565b9a0199612322565b509297919650949297939850601854828110612381575b8261237991613e8c565b601855611eb3565b91508161236f565b60405162461bcd60e51b8152600481018390526021818801527f43616c6c657220646f6573206e6f74206f776e207468652068737420746f6b656044820152603760f91b6064820152608490fd5b9094508181813d83116123ff575b6123ef81836132f6565b8101031261067857519338611e62565b503d6123e5565b503461021d578060031936011261021d57600d546040516001600160a01b039091168152602090f35b503461021d576020806003193601126118c0576001600160a01b036124526131f2565b168252600b81526040822091604051809384918482549182815201918452848420935b858282106124a05750505061248c925003836132f6565b61151f6040519282849384528301906133e4565b8554845260019586019588955093019201612475565b503461021d57604036600319011261021d57602090612502906001600160a01b036124df6131f2565b168152600b83526040602435912060019160005201602052604060002054151590565b6040519015158152f35b503461021d57604036600319011261021d576001600160401b0360043581811161067857366023820112156106785780600401359161254a83613317565b9161255860405193846132f6565b83835260209360248585019160051b830101913683116117cd576024869101915b8383106126895750505050602435908111610fdb5761259c90369060040161332e565b908051825103612632578051936125b285613317565b946125c060405196876132f6565b8086526125cf601f1991613317565b0136858701375b815181101561261b5760019061260a6001600160a01b036125f78386613816565b51166126038387613816565b51906134e6565b6126148288613816565b52016125d6565b50505061151f6040519282849384528301906133e4565b60405162461bcd60e51b815260048101849052602960248201527f455243313135353a206163636f756e747320616e6420696473206c656e677468604482015268040dad2e6dac2e8c6d60bb1b6064820152608490fd5b819061269484613223565b8152019101908590612579565b503461021d57602036600319011261021d5760406126f06126c06131f2565b9060018060a01b038092166000526005602052600260406000200154918260005260066020526040600020541690565b82519182526001600160a01b03166020820152f35b503461021d576020908160031936011261021d576001600160a01b03918261272b6131f2565b168252600581526003604083200191604051808484829654938481520190845284842092845b8682821061286057505050612768925003846132f6565b82519161278d61277784613317565b9361278560405195866132f6565b808552613317565b601f190181835b82811061283e57505050815b84518110156127f457806127b660019287613816565b518085526006845287604086205416604051916127d283613277565b8252848201526127e28287613816565b526127ed8186613816565b50016127a0565b5092506040519280840190808552835180925280604086019401925b82811061281d5785850386f35b83518051865282015187168583015260409094019392810192600101612810565b60405161284a81613277565b8581528583820152828288010152018290612794565b8554845260019586019589955093019201612751565b503461021d57604036600319011261021d57600d546001600160a01b03919082163303612acd57600e54828116612a9057826128b06137e0565b16906001600160601b0360a01b1617600e556024918235906a0b4a7ffb9b9d8947082f0b8203612a4c576128e26137e0565b6040516323b872dd60e01b8152336004820152306024820152604481018490526020939290918491839160649183918991165af18015612a4157612a24575b506010546129e05760105580549081156129a157506129409042613e8c565b60215490603c820291808304603c148115171561298d57610e100291808304603c149015171561297a579061297491613e6c565b60115580f35b5050634e487b7160e01b81526011600452fd5b5050634e487b7160e01b8252506011600452fd5b6064906019856040519262461bcd60e51b84526004840152820152780496e76616c69642067656e657369732074696d657374616d7603c1b6044820152fd5b60405162461bcd60e51b8152600481018390526017818601527f546f74616c2066756e647320616c7265616479207365740000000000000000006044820152606490fd5b612a3a90833d8511610f4f57610f4081836132f6565b5038612921565b6040513d86823e3d90fd5b60405162461bcd60e51b815260206004820152601d818601527f4d7573742073656e6420616c6c2065636f73797374656d2066756e64730000006044820152606490fd5b60405162461bcd60e51b815260206004820152601560248201527414d215081d1bdad95b88185b1c9958591e481cd95d605a1b6044820152606490fd5b60405162461bcd60e51b815260206004820152602260248201527f43616c6c6572206973206e6f742074686520636f696e62617365206164647265604482015261737360f01b6064820152608490fd5b503461021d5760031960a0368201126118c057612b386131f2565b90612b4161320d565b916001600160401b039160443583811161227957612b6390369060040161332e565b926064358181116117cd57612b7c90369060040161332e565b906084359081116117cd57612b9590369060040161338e565b946001600160a01b03938416933385148015612e20575b612bb59061377d565b8551835103612dca57811691612bcc831515613a22565b875b8651811015612bfa57600190868a52600b602052612bf360408b20610406838b613816565b5001612bce565b509193909295875b8651811015612c2e57600190868a52600b602052612c2760408b20610441838b613816565b5001612c02565b50909295949194875b888451821015612cba575080612c4f60019286613816565b51612c5a828a613816565b5190808c526020908c82528c8960408220915282528c60408481832054612c8382821015613a7c565b8484528386528284208d85528652039120558c528b815260408c2090898d5252612cb260408c20918254613809565b905501612c37565b959050869186898388604051604081527f4a39dc06d4c0dbc64b70af90fd698a233a518aa5d07e595d983b8c0526c8f7fb612cf8604083018c6133e4565b91808303602082015280612d0d33948c6133e4565b0390a43b612d185780f35b612d6895612d77612d5893602097604051998a988997889663bc197c8160e01b9e8f89523360048a0152602489015260a0604489015260a48801906133e4565b90848783030160648801526133e4565b91848303016084850152613237565b03925af1839181612da9575b50612d9057611582613f11565b6001600160e01b031916036105cc578180808080808680f35b612dc391925060203d60201161064a5761063b81836132f6565b9084612d83565b60405162461bcd60e51b815260206004820152602860248201527f455243313135353a2069647320616e6420616d6f756e7473206c656e677468206044820152670dad2e6dac2e8c6d60c31b6064820152608490fd5b50848852600160205260408820338952602052612bb560ff60408a2054169050612bac565b503461021d57602036600319011261021d576020906040906001600160a01b03612e6d6131f2565b168152600583522054604051908152f35b503461021d578060031936011261021d57600c546040516001600160a01b039091168152602090f35b503461021d576020806003193601126118c057600435903383526022815260ff6040842054166002811015612fc857600103612f7257612ee982601254613809565b601255338352601381526040832090815415612f15575b506001612f109101918254613809565b905580f35b6040516326079c6160e11b81528181600481335afa918215612210578592612f43575b505081556001612f00565b90809250813d8311612f6b575b612f5a81836132f6565b81010312610fdb5751816001612f38565b503d612f50565b6084906040519062461bcd60e51b82526004820152602960248201527f43616c6c6572206973206e6f7420616e20616363657074656420686f7573696e60448201526819c81c1c9bda9958dd60ba1b6064820152fd5b634e487b7160e01b84526021600452602484fd5b503461021d576020806003193601126118c0576040519182816002546130018161356b565b938484526001918660018216918260001461309c575050600114613042575b505061302e925003836132f6565b61151f604051928284938452830190613237565b90859250600282527f405787fa12a823e0f2b7631cc41b3ba8828b3321ca811111fa75cd3aa3bb5ace5b85831061308457505061302e93508201013880613020565b8054838901850152879450869390920191810161306c565b925093505061302e94915060ff191682840152151560051b8201013880613020565b503461021d578060031936011261021d576020600454604051908152f35b503461021d578060031936011261021d5761151f604051611b3c81611b35816135a5565b503461021d57602036600319011261021d5760043563ffffffff60e01b81168091036118c057602090636cdb3d1360e11b811490811561315e575b811561314d575b506040519015158152f35b6301ffc9a760e01b14905082613142565b6303a24d0760e21b8114915061313b565b503461021d57602036600319011261021d576001600160a01b036131916131f2565b168152602260205260ff6040822054166040519060028110156131b657602092508152f35b634e487b7160e01b83526021600452602483fd5b503461021d57604036600319011261021d5760206111fa6131e96131f2565b602435906134e6565b600435906001600160a01b038216820361320857565b600080fd5b602435906001600160a01b038216820361320857565b35906001600160a01b038216820361320857565b919082519283825260005b848110613263575050826000602080949584010152601f8019910116010190565b602081830181015184830182015201613242565b604081019081106001600160401b0382111761110457604052565b606081019081106001600160401b0382111761110457604052565b6001600160401b03811161110457604052565b60e081019081106001600160401b0382111761110457604052565b602081019081106001600160401b0382111761110457604052565b90601f801991011681019081106001600160401b0382111761110457604052565b6001600160401b0381116111045760051b60200190565b9080601f8301121561320857602090823561334881613317565b9361335660405195866132f6565b81855260208086019260051b82010192831161320857602001905b82821061337f575050505090565b81358152908301908301613371565b81601f82011215613208578035906001600160401b03821161110457604051926133c2601f8401601f1916602001856132f6565b8284526020838301011161320857816000926020809301838601378301015290565b90815180825260208080930193019160005b828110613404575050505090565b8351855293810193928101926001016133f6565b9181601f84011215613208578235916001600160401b038311613208576020808501946060850201011161320857565b9060e0810191805160e08352805180945261010083019360208092019160005b8281106134b1575050505060c081602082930151602085015260408101516040850152606081015160608501526080810151608085015260a081015160a0850152015191015290565b835180516001600160a01b03168852602080820151908901526040908101519088015260609096019592810192600101613468565b6001600160a01b031690811561351357600052600060205260406000209060005260205260406000205490565b60405162461bcd60e51b815260206004820152602a60248201527f455243313135353a2061646472657373207a65726f206973206e6f742061207660448201526930b634b21037bbb732b960b11b6064820152608490fd5b90600182811c9216801561359b575b602083101461358557565b634e487b7160e01b600052602260045260246000fd5b91607f169161357a565b600854600092916135b58261356b565b8082529160209060019081811690811561363457506001146135d8575b50505050565b9293945060086000527ff3f7a9fe364faab93b216da50a3214154f22a0a2b415b23a84c8169e8b636ee3926000935b8585106136215750505060209250010190388080806135d2565b8054858501840152938201938101613607565b92505050602093945060ff929192191683830152151560051b010190388080806135d2565b600954600092916136698261356b565b80825291602090600190818116908115613634575060011461368b5750505050565b9293945060096000527f6e1540171b6c0c960b71a7020d9f60077f6af931a8bbf590da0223dacf75c7af926000935b8585106136d45750505060209250010190388080806135d2565b80548585018401529382019381016136ba565b8054600093926136f68261356b565b9182825260209360019160018116908160001461375e575060011461371d575b5050505050565b90939495506000929192528360002092846000945b83861061374a57505050500101903880808080613716565b805485870183015294019385908201613732565b60ff19168685015250505090151560051b010191503880808080613716565b1561378457565b60405162461bcd60e51b815260206004820152602e60248201527f455243313135353a2063616c6c6572206973206e6f7420746f6b656e206f776e60448201526d195c881bdc88185c1c1c9bdd995960921b6064820152608490fd5b6004356001600160a01b03811681036132085790565b8181029291811591840414171561161557565b9190820180921161161557565b80518210156116ad5760209160051b010190565b51906001600160a01b038216820361320857565b919091602080828503126132085781516001600160401b039283821161320857019060e08286031261320857604090815193613879856132c0565b83519081116132085783019580601f880112156132085786519661389c88613317565b916138a9855193846132f6565b88835283830190846060809b0284010192818411613208578501915b83831061391057505050508460c0959697505280830151908501528082015190840152606081015160608401526080810151608084015260a081015160a0840152015160c082015290565b8a8383031261320857858b91885161392781613292565b6139308661382a565b81528286015183820152898601518a8201528152019201916138c5565b90816020910312613208575180151581036132085790565b1561396c57565b606460405162461bcd60e51b815260206004820152602060248201527f43616c6c6572206973206e6f74207468652070726f6a6563742066756e6465726044820152fd5b604051906139bd826132c0565b816060815260c06000918260208201528260408201528260608201528260808201528260a08201520152565b919082606091031261320857604051613a0181613292565b6040808294613a0f81613223565b8452602081013560208501520135910152565b15613a2957565b60405162461bcd60e51b815260206004820152602560248201527f455243313135353a207472616e7366657220746f20746865207a65726f206164604482015264647265737360d81b6064820152608490fd5b15613a8357565b60405162461bcd60e51b815260206004820152602a60248201527f455243313135353a20696e73756666696369656e742062616c616e636520666f60448201526939103a3930b739b332b960b11b6064820152608490fd5b60001981146116155760010190565b818110613af5575050565b60008155600101613aea565b80548210156116ad5760005260206000200190600090565b91909160018060a01b0392838216916000838152602090600582526040948582205480613db15750600497613b4e8954613adb565b808a55875192613b5d846132db565b84845288516001600160401b03926080820184811183821017613d9d578b5281528681019282845260038b8301928b84526060810197885284895260058a528c8920905181556001938760018301975116966001600160601b0360a01b9788825416179055516002820155019551958651918211613d9d57600160401b96878311613d8a5789908254848455808510613d70575b5001908852888820885b838110613d5f5750505050508a548552600686528885209182541617905585151580613d54575b80613d43575b613c81575b5050955493518481526001600160a01b039092166020830152506040810191909152919250907fb58d46e66658e855773af8232237e606476d7f0ad98813c081b540e6f435ea3e9080606081015b0390a190565b8583528683205416825260058352600386832001885492815492831015613d30575095613c7b9381989993613d18613d01857fb58d46e66658e855773af8232237e606476d7f0ad98813c081b540e6f435ea3e9b60017fa8b1f3acfefae9dbf6c7ffd8c16eda5db6950c383b34ca999d98f9998721c50c98018155613b01565b819391549060031b91821b91600019901b19161790565b90558354825191888352820152a19594933880613c2d565b634e487b7160e01b815260418a52602490fd5b508583528087842054161515613c28565b508854861415613c22565b825182820155918a01918401613bfb565b838b52828b20613d84918101908601613aea565b38613bf1565b634e487b7160e01b895260418f52602489fd5b50634e487b7160e01b875260418d52602487fd5b9750505050505050565b6020548015613e2b57613dce9042613e8c565b602154603c810290808204603c148115171561161557610e100290808204603c149015171561161557613e0091613e6c565b6014541015613e2957604051633621413760e21b8152670de000cd866f80006004820152602490fd5b565b60405162461bcd60e51b81526020600482015260196024820152780496e76616c69642067656e657369732074696d657374616d7603c1b6044820152606490fd5b8115613e76570490565b634e487b7160e01b600052601260045260246000fd5b9190820391821161161557565b6003546001600160a01b03163303613ead57565b606460405162461bcd60e51b815260206004820152602060248201527f4f776e61626c653a2063616c6c6572206973206e6f7420746865206f776e65726044820152fd5b9081602091031261320857516001600160e01b0319811681036132085790565b60009060033d11613f1e57565b905060046000803e60005160e01c90565b600060443d10613f8c57604051600319913d83016004833e81516001600160401b03918282113d602484011117613f8f57818401948551938411613f97573d85010160208487010111613f8f5750613f8c929101602001906132f6565b90565b949350505050565b50949350505050565b60809060208152603460208201527f455243313135353a207472616e7366657220746f206e6f6e2d455243313135356040820152732932b1b2b4bb32b91034b6b83632b6b2b73a32b960611b60608201520190565b828210156140a15760018060a01b038151166000526013602052602060406000209101805192825480941161405c5761404661405793600161403d61404f94613f8c99613e8c565b910154906137f6565b60125490613e6c565b9051906137f6565b613e6c565b60405162461bcd60e51b815260206004820152601e60248201527f50726f6a65637420746f6b656e20616d6f756e7420746f6f206c6172676500006044820152606490fd5b505050600090565b60008181526024602052604081205461413c57602354600160401b8110156141285760018101806023558110156141145790826040927fd57b2b5166478fd4318d2acc6cc2c704584312bdd8781b32d5d06abda57f4230015560235492815260246020522055600190565b634e487b7160e01b82526032600452602482fd5b634e487b7160e01b82526041600452602482fd5b905090565b600082815260018201602052604090205461419157805490600160401b821015611104578261417a613d01846001809601855584613b01565b905580549260005201602052604060002055600190565b5050600090565b604051906141a582613277565b600182526020820160203682378251156116ad575290565b906001820190600092818452826020526040842054908115156000146142a657600019918083018181116142925782549084820191821161427e57808203614249575b50505080548015614235578201916142188383613b01565b909182549160031b1b191690555582526020526040812055600190565b634e487b7160e01b86526031600452602486fd5b614269614259613d019386613b01565b90549060031b1c92839286613b01565b90558652846020526040862055388080614200565b634e487b7160e01b88526011600452602488fd5b634e487b7160e01b87526011600452602487fd5b505050509056fea26469706673582212202db0ebe05d10699f2baac20251bd3cd600b477a8b6be65acb79b176d49b1e54164736f6c63430008180033f3f7a9fe364faab93b216da50a3214154f22a0a2b415b23a84c8169e8b636ee3",
  "libraries": {
    "NewHousingStakingToken": "0xaCf3c12262CBD3e180C7A9F3BCBEA961D2b42198"
  },
  "devdoc": {
    "details": "This contract allows for fractional ownership and ease of investment. This innovative approach addresses the high costs and limited access to real estate investments in Abuja, Nigeria, making the market more inclusive and accessible. By selling tokens, SmartHousing provides developers with immediate access to liquid funds, ensuring the timely and quality completion of affordable development projects. The SmartHousing Contract is the main contract for the SmartHousing ecosystem. This contract owns and deploys HousingProject contracts, which will represent the properties owned and managed by the SmartHousing project. The management of ecosystem users will also be done in this contract.",
    "events": {
      "ApprovalForAll(address,address,bool)": {
        "details": "Emitted when `account` grants or revokes permission to `operator` to transfer their tokens, according to `approved`."
      },
      "TransferBatch(address,address,address,uint256[],uint256[])": {
        "details": "Equivalent to multiple {TransferSingle} events, where `operator`, `from` and `to` are the same for all transfers."
      },
      "TransferSingle(address,address,address,uint256,uint256)": {
        "details": "Emitted when `value` tokens of token type `id` are transferred from `from` to `to` by `operator`."
      },
      "URI(string,uint256)": {
        "details": "Emitted when the URI for token type `id` changes to `value`, if it is a non-programmatic URI. If an {URI} event was emitted for `id`, the standard https://eips.ethereum.org/EIPS/eip-1155#metadata-extensions[guarantees] that `value` will equal the value returned by {IERC1155MetadataURI-uri}."
      }
    },
    "kind": "dev",
    "methods": {
      "addProject(address)": {
        "params": {
          "projectAddress": "The address of the new project."
        }
      },
      "addProjectRent(uint256)": {
        "details": "projectAddress is the msg.msg.sender which must be a recognised HousingProject contract",
        "params": {
          "amount": "The amount of rent received."
        }
      },
      "balanceOf(address,uint256)": {
        "details": "See {IERC1155-balanceOf}. Requirements: - `account` cannot be the zero address."
      },
      "balanceOfBatch(address[],uint256[])": {
        "details": "See {IERC1155-balanceOfBatch}. Requirements: - `accounts` and `ids` must have the same length."
      },
      "createRefID(uint256)": {
        "params": {
          "referrerId": "The ID of the referrer."
        },
        "returns": {
          "_0": "The ID of the registered user."
        }
      },
      "createRefIDViaProxy(address,uint256)": {
        "params": {
          "referrerId": "The ID of the referrer.",
          "userAddr": "The address of the user."
        },
        "returns": {
          "_0": "The ID of the registered user."
        }
      },
      "getReferrer(address)": {
        "params": {
          "userAddress": "The address of the user."
        },
        "returns": {
          "referrerAddress": "The address of the referrer, address(0) if none.",
          "referrerId": "The ID of the referrer, 0 if none."
        }
      },
      "isApprovedForAll(address,address)": {
        "details": "See {IERC1155-isApprovedForAll}."
      },
      "owner()": {
        "details": "Returns the address of the current owner."
      },
      "renounceOwnership()": {
        "details": "Leaves the contract without owner. It will not be possible to call `onlyOwner` functions anymore. Can only be called by the current owner. NOTE: Renouncing ownership will leave the contract without an owner, thereby removing any functionality that is only available to the owner."
      },
      "safeBatchTransferFrom(address,address,uint256[],uint256[],bytes)": {
        "details": "See {IERC1155-safeBatchTransferFrom}."
      },
      "safeTransferFrom(address,address,uint256,uint256,bytes)": {
        "details": "See {IERC1155-safeTransferFrom}."
      },
      "setApprovalForAll(address,bool)": {
        "details": "See {IERC1155-setApprovalForAll}."
      },
      "supportsInterface(bytes4)": {
        "details": "See {IERC165-supportsInterface}."
      },
      "transferOwnership(address)": {
        "details": "Transfers ownership of the contract to a new account (`newOwner`). Can only be called by the current owner."
      },
      "uri(uint256)": {
        "details": "See {IERC1155MetadataURI-uri}. This implementation returns the same URI for *all* token types. It relies on the token type ID substitution mechanism https://eips.ethereum.org/EIPS/eip-1155#metadata[defined in the EIP]. Clients calling this function must replace the `\\{id\\}` substring with the actual token type ID."
      }
    },
    "title": "SmartHousing",
    "version": 1
  },
  "userdoc": {
    "errors": {
      "PRBMathUD60x18__Exp2InputTooBig(uint256)": [
        {
          "notice": "Emitted when the input is greater than 192."
        }
      ],
      "PRBMathUD60x18__LogInputTooSmall(uint256)": [
        {
          "notice": "Emitted when the input is less than 1."
        }
      ],
      "PRBMath__MulDivFixedPointOverflow(uint256)": [
        {
          "notice": "Emitted when the result overflows uint256."
        }
      ],
      "PRBMath__MulDivOverflow(uint256,uint256)": [
        {
          "notice": "Emitted when the result overflows uint256."
        }
      ]
    },
    "kind": "user",
    "methods": {
      "addProject(address)": {
        "notice": "Adds a new project and sets its permissions."
      },
      "addProjectRent(uint256)": {
        "notice": "Adds rent to a project and updates the distribution storage."
      },
      "createRefID(uint256)": {
        "notice": "Register a new user or get the referral ID if already registered."
      },
      "createRefIDViaProxy(address,uint256)": {
        "notice": "Register a new user via proxy or get the referral ID if already registered."
      },
      "getReferrer(address)": {
        "notice": "Gets the referrer and referrer ID of a user."
      },
      "update(address,uint256,uint256,bytes)": {
        "notice": "Burns all the NFT balance of user at nonce, creates new with balance and attributes"
      }
    },
    "notice": "SmartHousing leverages blockchain technology to revolutionize real estate investment and development by enabling the tokenization of properties.",
    "version": 1
  },
  "storageLayout": {
    "storage": [
      {
        "astId": 141,
        "contract": "contracts/main/SmartHousing.sol:SmartHousing",
        "label": "_balances",
        "offset": 0,
        "slot": "0",
        "type": "t_mapping(t_uint256,t_mapping(t_address,t_uint256))"
      },
      {
        "astId": 147,
        "contract": "contracts/main/SmartHousing.sol:SmartHousing",
        "label": "_operatorApprovals",
        "offset": 0,
        "slot": "1",
        "type": "t_mapping(t_address,t_mapping(t_address,t_bool))"
      },
      {
        "astId": 149,
        "contract": "contracts/main/SmartHousing.sol:SmartHousing",
        "label": "_uri",
        "offset": 0,
        "slot": "2",
        "type": "t_string_storage"
      },
      {
        "astId": 7,
        "contract": "contracts/main/SmartHousing.sol:SmartHousing",
        "label": "_owner",
        "offset": 0,
        "slot": "3",
        "type": "t_address"
      },
      {
        "astId": 6214,
        "contract": "contracts/main/SmartHousing.sol:SmartHousing",
        "label": "userCount",
        "offset": 0,
        "slot": "4",
        "type": "t_uint256"
      },
      {
        "astId": 6219,
        "contract": "contracts/main/SmartHousing.sol:SmartHousing",
        "label": "users",
        "offset": 0,
        "slot": "5",
        "type": "t_mapping(t_address,t_struct(User)6212_storage)"
      },
      {
        "astId": 6223,
        "contract": "contracts/main/SmartHousing.sol:SmartHousing",
        "label": "userIdToAddress",
        "offset": 0,
        "slot": "6",
        "type": "t_mapping(t_uint256,t_address)"
      },
      {
        "astId": 7263,
        "contract": "contracts/main/SmartHousing.sol:SmartHousing",
        "label": "_nonceCounter",
        "offset": 0,
        "slot": "7",
        "type": "t_struct(Counter)2608_storage"
      },
      {
        "astId": 7265,
        "contract": "contracts/main/SmartHousing.sol:SmartHousing",
        "label": "_name",
        "offset": 0,
        "slot": "8",
        "type": "t_string_storage"
      },
      {
        "astId": 7267,
        "contract": "contracts/main/SmartHousing.sol:SmartHousing",
        "label": "_symbol",
        "offset": 0,
        "slot": "9",
        "type": "t_string_storage"
      },
      {
        "astId": 7271,
        "contract": "contracts/main/SmartHousing.sol:SmartHousing",
        "label": "_tokenAttributes",
        "offset": 0,
        "slot": "10",
        "type": "t_mapping(t_uint256,t_bytes_storage)"
      },
      {
        "astId": 7276,
        "contract": "contracts/main/SmartHousing.sol:SmartHousing",
        "label": "_addressToNonces",
        "offset": 0,
        "slot": "11",
        "type": "t_mapping(t_address,t_struct(UintSet)3507_storage)"
      },
      {
        "astId": 5555,
        "contract": "contracts/main/SmartHousing.sol:SmartHousing",
        "label": "projectFundingAddress",
        "offset": 0,
        "slot": "12",
        "type": "t_address"
      },
      {
        "astId": 5557,
        "contract": "contracts/main/SmartHousing.sol:SmartHousing",
        "label": "coinbaseAddress",
        "offset": 0,
        "slot": "13",
        "type": "t_address"
      },
      {
        "astId": 5559,
        "contract": "contracts/main/SmartHousing.sol:SmartHousing",
        "label": "shtTokenAddress",
        "offset": 0,
        "slot": "14",
        "type": "t_address"
      },
      {
        "astId": 5562,
        "contract": "contracts/main/SmartHousing.sol:SmartHousing",
        "label": "hst",
        "offset": 0,
        "slot": "15",
        "type": "t_contract(HousingStakingToken)5459"
      },
      {
        "astId": 5565,
        "contract": "contracts/main/SmartHousing.sol:SmartHousing",
        "label": "distributionStorage",
        "offset": 0,
        "slot": "16",
        "type": "t_struct(Storage)6564_storage"
      },
      {
        "astId": 5568,
        "contract": "contracts/main/SmartHousing.sol:SmartHousing",
        "label": "epochsAndPeriodsStorage",
        "offset": 0,
        "slot": "32",
        "type": "t_struct(Storage)4631_storage"
      },
      {
        "astId": 5576,
        "contract": "contracts/main/SmartHousing.sol:SmartHousing",
        "label": "permissions",
        "offset": 0,
        "slot": "34",
        "type": "t_mapping(t_address,t_enum(Permissions)5571)"
      },
      {
        "astId": 5579,
        "contract": "contracts/main/SmartHousing.sol:SmartHousing",
        "label": "_projectsToken",
        "offset": 0,
        "slot": "35",
        "type": "t_struct(AddressSet)3350_storage"
      }
    ],
    "types": {
      "t_address": {
        "encoding": "inplace",
        "label": "address",
        "numberOfBytes": "20"
      },
      "t_array(t_bytes32)dyn_storage": {
        "base": "t_bytes32",
        "encoding": "dynamic_array",
        "label": "bytes32[]",
        "numberOfBytes": "32"
      },
      "t_array(t_uint256)dyn_storage": {
        "base": "t_uint256",
        "encoding": "dynamic_array",
        "label": "uint256[]",
        "numberOfBytes": "32"
      },
      "t_bool": {
        "encoding": "inplace",
        "label": "bool",
        "numberOfBytes": "1"
      },
      "t_bytes32": {
        "encoding": "inplace",
        "label": "bytes32",
        "numberOfBytes": "32"
      },
      "t_bytes_storage": {
        "encoding": "bytes",
        "label": "bytes",
        "numberOfBytes": "32"
      },
      "t_contract(HousingStakingToken)5459": {
        "encoding": "inplace",
        "label": "contract HousingStakingToken",
        "numberOfBytes": "20"
      },
      "t_enum(Permissions)5571": {
        "encoding": "inplace",
        "label": "enum SmartHousing.Permissions",
        "numberOfBytes": "1"
      },
      "t_mapping(t_address,t_bool)": {
        "encoding": "mapping",
        "key": "t_address",
        "label": "mapping(address => bool)",
        "numberOfBytes": "32",
        "value": "t_bool"
      },
      "t_mapping(t_address,t_enum(Permissions)5571)": {
        "encoding": "mapping",
        "key": "t_address",
        "label": "mapping(address => enum SmartHousing.Permissions)",
        "numberOfBytes": "32",
        "value": "t_enum(Permissions)5571"
      },
      "t_mapping(t_address,t_mapping(t_address,t_bool))": {
        "encoding": "mapping",
        "key": "t_address",
        "label": "mapping(address => mapping(address => bool))",
        "numberOfBytes": "32",
        "value": "t_mapping(t_address,t_bool)"
      },
      "t_mapping(t_address,t_struct(ProjectDistributionData)6569_storage)": {
        "encoding": "mapping",
        "key": "t_address",
        "label": "mapping(address => struct Distribution.ProjectDistributionData)",
        "numberOfBytes": "32",
        "value": "t_struct(ProjectDistributionData)6569_storage"
      },
      "t_mapping(t_address,t_struct(UintSet)3507_storage)": {
        "encoding": "mapping",
        "key": "t_address",
        "label": "mapping(address => struct EnumerableSet.UintSet)",
        "numberOfBytes": "32",
        "value": "t_struct(UintSet)3507_storage"
      },
      "t_mapping(t_address,t_struct(User)6212_storage)": {
        "encoding": "mapping",
        "key": "t_address",
        "label": "mapping(address => struct UserModule.User)",
        "numberOfBytes": "32",
        "value": "t_struct(User)6212_storage"
      },
      "t_mapping(t_address,t_uint256)": {
        "encoding": "mapping",
        "key": "t_address",
        "label": "mapping(address => uint256)",
        "numberOfBytes": "32",
        "value": "t_uint256"
      },
      "t_mapping(t_bytes32,t_uint256)": {
        "encoding": "mapping",
        "key": "t_bytes32",
        "label": "mapping(bytes32 => uint256)",
        "numberOfBytes": "32",
        "value": "t_uint256"
      },
      "t_mapping(t_uint256,t_address)": {
        "encoding": "mapping",
        "key": "t_uint256",
        "label": "mapping(uint256 => address)",
        "numberOfBytes": "32",
        "value": "t_address"
      },
      "t_mapping(t_uint256,t_bytes_storage)": {
        "encoding": "mapping",
        "key": "t_uint256",
        "label": "mapping(uint256 => bytes)",
        "numberOfBytes": "32",
        "value": "t_bytes_storage"
      },
      "t_mapping(t_uint256,t_mapping(t_address,t_uint256))": {
        "encoding": "mapping",
        "key": "t_uint256",
        "label": "mapping(uint256 => mapping(address => uint256))",
        "numberOfBytes": "32",
        "value": "t_mapping(t_address,t_uint256)"
      },
      "t_string_storage": {
        "encoding": "bytes",
        "label": "string",
        "numberOfBytes": "32"
      },
      "t_struct(AddressSet)3350_storage": {
        "encoding": "inplace",
        "label": "struct EnumerableSet.AddressSet",
        "members": [
          {
            "astId": 3349,
            "contract": "contracts/main/SmartHousing.sol:SmartHousing",
            "label": "_inner",
            "offset": 0,
            "slot": "0",
            "type": "t_struct(Set)3035_storage"
          }
        ],
        "numberOfBytes": "64"
      },
      "t_struct(Counter)2608_storage": {
        "encoding": "inplace",
        "label": "struct Counters.Counter",
        "members": [
          {
            "astId": 2607,
            "contract": "contracts/main/SmartHousing.sol:SmartHousing",
            "label": "_value",
            "offset": 0,
            "slot": "0",
            "type": "t_uint256"
          }
        ],
        "numberOfBytes": "32"
      },
      "t_struct(ProjectDistributionData)6569_storage": {
        "encoding": "inplace",
        "label": "struct Distribution.ProjectDistributionData",
        "members": [
          {
            "astId": 6566,
            "contract": "contracts/main/SmartHousing.sol:SmartHousing",
            "label": "maxShares",
            "offset": 0,
            "slot": "0",
            "type": "t_uint256"
          },
          {
            "astId": 6568,
            "contract": "contracts/main/SmartHousing.sol:SmartHousing",
            "label": "receivedRents",
            "offset": 0,
            "slot": "1",
            "type": "t_uint256"
          }
        ],
        "numberOfBytes": "64"
      },
      "t_struct(Set)3035_storage": {
        "encoding": "inplace",
        "label": "struct EnumerableSet.Set",
        "members": [
          {
            "astId": 3030,
            "contract": "contracts/main/SmartHousing.sol:SmartHousing",
            "label": "_values",
            "offset": 0,
            "slot": "0",
            "type": "t_array(t_bytes32)dyn_storage"
          },
          {
            "astId": 3034,
            "contract": "contracts/main/SmartHousing.sol:SmartHousing",
            "label": "_indexes",
            "offset": 0,
            "slot": "1",
            "type": "t_mapping(t_bytes32,t_uint256)"
          }
        ],
        "numberOfBytes": "64"
      },
      "t_struct(Storage)4631_storage": {
        "encoding": "inplace",
        "label": "struct EpochsAndPeriods.Storage",
        "members": [
          {
            "astId": 4628,
            "contract": "contracts/main/SmartHousing.sol:SmartHousing",
            "label": "genesis",
            "offset": 0,
            "slot": "0",
            "type": "t_uint256"
          },
          {
            "astId": 4630,
            "contract": "contracts/main/SmartHousing.sol:SmartHousing",
            "label": "epochLength",
            "offset": 0,
            "slot": "1",
            "type": "t_uint256"
          }
        ],
        "numberOfBytes": "64"
      },
      "t_struct(Storage)6564_storage": {
        "encoding": "inplace",
        "label": "struct Distribution.Storage",
        "members": [
          {
            "astId": 6540,
            "contract": "contracts/main/SmartHousing.sol:SmartHousing",
            "label": "totalFunds",
            "offset": 0,
            "slot": "0",
            "type": "t_uint256"
          },
          {
            "astId": 6542,
            "contract": "contracts/main/SmartHousing.sol:SmartHousing",
            "label": "genesisEpoch",
            "offset": 0,
            "slot": "1",
            "type": "t_uint256"
          },
          {
            "astId": 6544,
            "contract": "contracts/main/SmartHousing.sol:SmartHousing",
            "label": "projectsTotalReceivedRents",
            "offset": 0,
            "slot": "2",
            "type": "t_uint256"
          },
          {
            "astId": 6549,
            "contract": "contracts/main/SmartHousing.sol:SmartHousing",
            "label": "projectDets",
            "offset": 0,
            "slot": "3",
            "type": "t_mapping(t_address,t_struct(ProjectDistributionData)6569_storage)"
          },
          {
            "astId": 6551,
            "contract": "contracts/main/SmartHousing.sol:SmartHousing",
            "label": "lastFundsDispatchEpoch",
            "offset": 0,
            "slot": "4",
            "type": "t_uint256"
          },
          {
            "astId": 6553,
            "contract": "contracts/main/SmartHousing.sol:SmartHousing",
            "label": "shtTotalStakeWeight",
            "offset": 0,
            "slot": "5",
            "type": "t_uint256"
          },
          {
            "astId": 6555,
            "contract": "contracts/main/SmartHousing.sol:SmartHousing",
            "label": "shtRewardPerShare",
            "offset": 0,
            "slot": "6",
            "type": "t_uint256"
          },
          {
            "astId": 6557,
            "contract": "contracts/main/SmartHousing.sol:SmartHousing",
            "label": "shtStakingRewards",
            "offset": 0,
            "slot": "7",
            "type": "t_uint256"
          },
          {
            "astId": 6560,
            "contract": "contracts/main/SmartHousing.sol:SmartHousing",
            "label": "projectsStakingRewards",
            "offset": 0,
            "slot": "8",
            "type": "t_struct(Value)6474_storage"
          },
          {
            "astId": 6563,
            "contract": "contracts/main/SmartHousing.sol:SmartHousing",
            "label": "entityFunds",
            "offset": 0,
            "slot": "10",
            "type": "t_struct(Value)7720_storage"
          }
        ],
        "numberOfBytes": "512"
      },
      "t_struct(UintSet)3507_storage": {
        "encoding": "inplace",
        "label": "struct EnumerableSet.UintSet",
        "members": [
          {
            "astId": 3506,
            "contract": "contracts/main/SmartHousing.sol:SmartHousing",
            "label": "_inner",
            "offset": 0,
            "slot": "0",
            "type": "t_struct(Set)3035_storage"
          }
        ],
        "numberOfBytes": "64"
      },
      "t_struct(User)6212_storage": {
        "encoding": "inplace",
        "label": "struct UserModule.User",
        "members": [
          {
            "astId": 6204,
            "contract": "contracts/main/SmartHousing.sol:SmartHousing",
            "label": "id",
            "offset": 0,
            "slot": "0",
            "type": "t_uint256"
          },
          {
            "astId": 6206,
            "contract": "contracts/main/SmartHousing.sol:SmartHousing",
            "label": "addr",
            "offset": 0,
            "slot": "1",
            "type": "t_address"
          },
          {
            "astId": 6208,
            "contract": "contracts/main/SmartHousing.sol:SmartHousing",
            "label": "referrerId",
            "offset": 0,
            "slot": "2",
            "type": "t_uint256"
          },
          {
            "astId": 6211,
            "contract": "contracts/main/SmartHousing.sol:SmartHousing",
            "label": "referrals",
            "offset": 0,
            "slot": "3",
            "type": "t_array(t_uint256)dyn_storage"
          }
        ],
        "numberOfBytes": "128"
      },
      "t_struct(Value)6474_storage": {
        "encoding": "inplace",
        "label": "struct ProjectStakingRewards.Value",
        "members": [
          {
            "astId": 6471,
            "contract": "contracts/main/SmartHousing.sol:SmartHousing",
            "label": "toShare",
            "offset": 0,
            "slot": "0",
            "type": "t_uint256"
          },
          {
            "astId": 6473,
            "contract": "contracts/main/SmartHousing.sol:SmartHousing",
            "label": "checkpoint",
            "offset": 0,
            "slot": "1",
            "type": "t_uint256"
          }
        ],
        "numberOfBytes": "64"
      },
      "t_struct(Value)7720_storage": {
        "encoding": "inplace",
        "label": "struct Entities.Value",
        "members": [
          {
            "astId": 7709,
            "contract": "contracts/main/SmartHousing.sol:SmartHousing",
            "label": "team",
            "offset": 0,
            "slot": "0",
            "type": "t_uint256"
          },
          {
            "astId": 7711,
            "contract": "contracts/main/SmartHousing.sol:SmartHousing",
            "label": "protocol",
            "offset": 0,
            "slot": "1",
            "type": "t_uint256"
          },
          {
            "astId": 7713,
            "contract": "contracts/main/SmartHousing.sol:SmartHousing",
            "label": "growth",
            "offset": 0,
            "slot": "2",
            "type": "t_uint256"
          },
          {
            "astId": 7715,
            "contract": "contracts/main/SmartHousing.sol:SmartHousing",
            "label": "staking",
            "offset": 0,
            "slot": "3",
            "type": "t_uint256"
          },
          {
            "astId": 7717,
            "contract": "contracts/main/SmartHousing.sol:SmartHousing",
            "label": "projectsReserve",
            "offset": 0,
            "slot": "4",
            "type": "t_uint256"
          },
          {
            "astId": 7719,
            "contract": "contracts/main/SmartHousing.sol:SmartHousing",
            "label": "lpAndListing",
            "offset": 0,
            "slot": "5",
            "type": "t_uint256"
          }
        ],
        "numberOfBytes": "192"
      },
      "t_uint256": {
        "encoding": "inplace",
        "label": "uint256",
        "numberOfBytes": "32"
      }
    }
  }
}