{
  "address": "0x0aB61E39BB457657D93dF858dFC1cBDEf328bC00",
  "abi": [
    {
      "inputs": [
        {
          "internalType": "string",
          "name": "name",
          "type": "string"
        },
        {
          "internalType": "string",
          "name": "symbol",
          "type": "string"
        },
        {
          "internalType": "address",
          "name": "smartHousingAddr",
          "type": "address"
        },
        {
          "internalType": "address",
          "name": "housingTokenAddr",
          "type": "address"
        }
      ],
      "stateMutability": "nonpayable",
      "type": "constructor"
    },
    {
      "anonymous": false,
      "inputs": [
        {
          "indexed": true,
          "internalType": "address",
          "name": "previousOwner",
          "type": "address"
        },
        {
          "indexed": true,
          "internalType": "address",
          "name": "newOwner",
          "type": "address"
        }
      ],
      "name": "OwnershipTransferred",
      "type": "event"
    },
    {
      "inputs": [],
      "name": "ECOSYSTEM_PERCENT",
      "outputs": [
        {
          "internalType": "uint256",
          "name": "",
          "type": "uint256"
        }
      ],
      "stateMutability": "view",
      "type": "function"
    },
    {
      "inputs": [],
      "name": "FACILITY_PERCENT",
      "outputs": [
        {
          "internalType": "uint256",
          "name": "",
          "type": "uint256"
        }
      ],
      "stateMutability": "view",
      "type": "function"
    },
    {
      "inputs": [],
      "name": "REWARD_PERCENT",
      "outputs": [
        {
          "internalType": "uint256",
          "name": "",
          "type": "uint256"
        }
      ],
      "stateMutability": "view",
      "type": "function"
    },
    {
      "inputs": [
        {
          "internalType": "uint256",
          "name": "nonce",
          "type": "uint256"
        }
      ],
      "name": "claimRentReward",
      "outputs": [
        {
          "components": [
            {
              "internalType": "uint256",
              "name": "rewardsPerShare",
              "type": "uint256"
            },
            {
              "internalType": "address",
              "name": "originalOwner",
              "type": "address"
            },
            {
              "internalType": "uint256",
              "name": "tokenWeight",
              "type": "uint256"
            }
          ],
          "internalType": "struct HousingAttributes",
          "name": "attr",
          "type": "tuple"
        },
        {
          "components": [
            {
              "internalType": "uint256",
              "name": "userValue",
              "type": "uint256"
            },
            {
              "internalType": "uint256",
              "name": "referrerValue",
              "type": "uint256"
            }
          ],
          "internalType": "struct rewardshares",
          "name": "rewardShares",
          "type": "tuple"
        },
        {
          "internalType": "uint256",
          "name": "newNonce",
          "type": "uint256"
        }
      ],
      "stateMutability": "nonpayable",
      "type": "function"
    },
    {
      "inputs": [],
      "name": "endRewardGenerateTimestamp",
      "outputs": [
        {
          "internalType": "uint256",
          "name": "",
          "type": "uint256"
        }
      ],
      "stateMutability": "view",
      "type": "function"
    },
    {
      "inputs": [],
      "name": "facilityManagementFunds",
      "outputs": [
        {
          "internalType": "uint256",
          "name": "",
          "type": "uint256"
        }
      ],
      "stateMutability": "view",
      "type": "function"
    },
    {
      "inputs": [],
      "name": "getMaxSupply",
      "outputs": [
        {
          "internalType": "uint256",
          "name": "",
          "type": "uint256"
        }
      ],
      "stateMutability": "view",
      "type": "function"
    },
    {
      "inputs": [],
      "name": "housingToken",
      "outputs": [
        {
          "internalType": "contract ERC20Burnable",
          "name": "",
          "type": "address"
        }
      ],
      "stateMutability": "view",
      "type": "function"
    },
    {
      "inputs": [],
      "name": "lastRewardGenerateTimestamp",
      "outputs": [
        {
          "internalType": "uint256",
          "name": "",
          "type": "uint256"
        }
      ],
      "stateMutability": "view",
      "type": "function"
    },
    {
      "inputs": [],
      "name": "maxSupply",
      "outputs": [
        {
          "internalType": "uint256",
          "name": "",
          "type": "uint256"
        }
      ],
      "stateMutability": "view",
      "type": "function"
    },
    {
      "inputs": [],
      "name": "owner",
      "outputs": [
        {
          "internalType": "address",
          "name": "",
          "type": "address"
        }
      ],
      "stateMutability": "view",
      "type": "function"
    },
    {
      "inputs": [],
      "name": "projectSFT",
      "outputs": [
        {
          "internalType": "contract HousingSFT",
          "name": "",
          "type": "address"
        }
      ],
      "stateMutability": "view",
      "type": "function"
    },
    {
      "inputs": [
        {
          "components": [
            {
              "internalType": "contract IERC20",
              "name": "token",
              "type": "address"
            },
            {
              "internalType": "uint256",
              "name": "amount",
              "type": "uint256"
            }
          ],
          "internalType": "struct ERC20TokenPayment",
          "name": "rentPayment",
          "type": "tuple"
        }
      ],
      "name": "receiveRent",
      "outputs": [],
      "stateMutability": "nonpayable",
      "type": "function"
    },
    {
      "inputs": [],
      "name": "renounceOwnership",
      "outputs": [],
      "stateMutability": "nonpayable",
      "type": "function"
    },
    {
      "inputs": [
        {
          "components": [
            {
              "internalType": "uint256",
              "name": "rewardsPerShare",
              "type": "uint256"
            },
            {
              "internalType": "address",
              "name": "originalOwner",
              "type": "address"
            },
            {
              "internalType": "uint256",
              "name": "tokenWeight",
              "type": "uint256"
            }
          ],
          "internalType": "struct HousingAttributes",
          "name": "attr",
          "type": "tuple"
        }
      ],
      "name": "rentClaimable",
      "outputs": [
        {
          "internalType": "uint256",
          "name": "",
          "type": "uint256"
        }
      ],
      "stateMutability": "view",
      "type": "function"
    },
    {
      "inputs": [],
      "name": "rewardPerShare",
      "outputs": [
        {
          "internalType": "uint256",
          "name": "",
          "type": "uint256"
        }
      ],
      "stateMutability": "view",
      "type": "function"
    },
    {
      "inputs": [],
      "name": "rewardsAPR",
      "outputs": [
        {
          "internalType": "uint256",
          "name": "",
          "type": "uint256"
        }
      ],
      "stateMutability": "view",
      "type": "function"
    },
    {
      "inputs": [],
      "name": "rewardsReserve",
      "outputs": [
        {
          "internalType": "uint256",
          "name": "",
          "type": "uint256"
        }
      ],
      "stateMutability": "view",
      "type": "function"
    },
    {
      "inputs": [],
      "name": "smartHousingAddr",
      "outputs": [
        {
          "internalType": "address",
          "name": "",
          "type": "address"
        }
      ],
      "stateMutability": "view",
      "type": "function"
    },
    {
      "inputs": [],
      "name": "totalRewardsCollected",
      "outputs": [
        {
          "internalType": "uint256",
          "name": "",
          "type": "uint256"
        }
      ],
      "stateMutability": "view",
      "type": "function"
    },
    {
      "inputs": [],
      "name": "totalRewardsGenerated",
      "outputs": [
        {
          "internalType": "uint256",
          "name": "",
          "type": "uint256"
        }
      ],
      "stateMutability": "view",
      "type": "function"
    },
    {
      "inputs": [
        {
          "internalType": "address",
          "name": "newOwner",
          "type": "address"
        }
      ],
      "name": "transferOwnership",
      "outputs": [],
      "stateMutability": "nonpayable",
      "type": "function"
    }
  ],
  "transactionHash": "0xf5041150c59743bd5b4b669d3f70c9a1b6e191bf55ffa86af106f7c4d1c9f84c",
  "args": [
    "",
    "",
    "0x0000000000000000000000000000000000000000",
    "0x0000000000000000000000000000000000000000"
  ],
  "numDeployments": 1,
  "solcInputHash": "2ab48957edcdbd6aae4057970ab478a1",
  "bytecode": "0x60e06040523480156200001157600080fd5b50604051620043643803806200436483398101604081905262000034916200025a565b81620000403362000112565b6001600160a01b0316608052604051849084906200005e9062000162565b6200006b92919062000317565b604051809103906000f08015801562000088573d6000803e3d6000fd5b506001600160a01b031660a0819052604080516326079c6160e11b81529051634c0f38c2916004808201926020929091908290030181865afa158015620000d3573d6000803e3d6000fd5b505050506040513d601f19601f82011682018060405250810190620000f9919062000349565b6001556001600160a01b031660c0525062000363915050565b600080546001600160a01b038381166001600160a01b0319831681178455604051919092169283917f8be0079c531659141344cd1fd0a4f28419497f9722a3daafe3b4186f6b6457e09190a35050565b612cbe80620016a683390190565b634e487b7160e01b600052604160045260246000fd5b60005b83811015620001a357818101518382015260200162000189565b50506000910152565b600082601f830112620001be57600080fd5b81516001600160401b0380821115620001db57620001db62000170565b604051601f8301601f19908116603f0116810190828211818310171562000206576200020662000170565b816040528381528660208588010111156200022057600080fd5b6200023384602083016020890162000186565b9695505050505050565b80516001600160a01b03811681146200025557600080fd5b919050565b600080600080608085870312156200027157600080fd5b84516001600160401b03808211156200028957600080fd5b6200029788838901620001ac565b95506020870151915080821115620002ae57600080fd5b50620002bd87828801620001ac565b935050620002ce604086016200023d565b9150620002de606086016200023d565b905092959194509250565b600081518084526200030381602086016020860162000186565b601f01601f19169290920160200192915050565b6040815260006200032c6040830185620002e9565b8281036020840152620003408185620002e9565b95945050505050565b6000602082840312156200035c57600080fd5b5051919050565b60805160a05160c0516112cd620003d96000396000818161022c0152818161041a015281816105ae01528181610964015281816109ed0152610ba20152600081816101d301528181610334015281816107f40152610a7e015260008181610253015281816106260152610e7101526112cd6000f3fe608060405234801561001057600080fd5b50600436106101425760003560e01c806380015152116100b8578063c4152bab1161007c578063c4152bab14610275578063d5abeb011461027e578063f2fde38b14610287578063f59002e31461029a578063f8f59644146102f1578063faf36a4b146102fa57600080fd5b806380015152146101ce5780638da5cb5b1461020d5780639b3bcd4c1461021e5780639c9e07ba14610227578063ad7849e51461024e57600080fd5b80634c0f38c21161010a5780634c0f38c21461018f5780635ad08fea14610197578063624d8e1d146101ac5780636e460d40146101b4578063715018a6146101bd5780637ab90df9146101c557600080fd5b806306fbedbe1461014757806321aca2ed1461016257806324d0398c1461017557806332653a3c1461017e578063446a2ec814610186575b600080fd5b61014f604b81565b6040519081526020015b60405180910390f35b61014f61017036600461104a565b610303565b61014f60055481565b61014f600781565b61014f60035481565b61014f610330565b6101aa6101a536600461108e565b6103b9565b005b61014f601281565b61014f60045481565b6101aa610693565b61014f60085481565b6101f57f000000000000000000000000000000000000000000000000000000000000000081565b6040516001600160a01b039091168152602001610159565b6000546001600160a01b03166101f5565b61014f60065481565b6101f57f000000000000000000000000000000000000000000000000000000000000000081565b6101f57f000000000000000000000000000000000000000000000000000000000000000081565b61014f60025481565b61014f60015481565b6101aa6102953660046110a6565b6106a7565b6102ad6102a83660046110c3565b610720565b60408051845181526020808601516001600160a01b0316818301529482015191810191909152825160608201529290910151608083015260a082015260c001610159565b61014f60075481565b61014f60095481565b60008061030e610c1b565b915050610328838260035461032391906110f2565b610d0c565b519392505050565b60007f00000000000000000000000000000000000000000000000000000000000000006001600160a01b0316634c0f38c26040518163ffffffff1660e01b8152600401602060405180830381865afa158015610390573d6000803e3d6000fd5b505050506040513d601f19601f820116820180604052508101906103b49190611105565b905090565b6020810135806104105760405162461bcd60e51b815260206004820181905260248201527f52656e74734d6f64756c653a20496e73756666696369656e7420616d6f756e7460448201526064015b60405180910390fd5b6001600160a01b037f00000000000000000000000000000000000000000000000000000000000000001661044760208401846110a6565b6001600160a01b03161461049d5760405162461bcd60e51b815260206004820152601a60248201527f52656e74734d6f64756c653a20496e76616c696420746f6b656e0000000000006044820152606401610407565b6104a682610d6e565b600060646104b5604b8461111e565b6104bf9190611135565b9050600060646104d060128561111e565b6104da9190611135565b9050600060646104eb60078661111e565b6104f59190611135565b905060045460000361050657426007555b6105146301e13380426110f2565b600881905550826004600082825461052c91906110f2565b90915550506007546008546105419190611157565b600154670de0b6b3a764000060055460045461055d9190611157565b610567919061111e565b6105719190611135565b61057b9190611135565b600681905550806009600082825461059391906110f2565b9091555050604051630852cd8d60e31b8152600481018390527f00000000000000000000000000000000000000000000000000000000000000006001600160a01b0316906342966c6890602401600060405180830381600087803b1580156105fa57600080fd5b505af115801561060e573d6000803e3d6000fd5b5050604051630cac2b0960e11b8152600481018790527f00000000000000000000000000000000000000000000000000000000000000006001600160a01b0316925063195856129150602401600060405180830381600087803b15801561067457600080fd5b505af1158015610688573d6000803e3d6000fd5b505050505050505050565b61069b610d78565b6106a56000610dd2565b565b6106af610d78565b6001600160a01b0381166107145760405162461bcd60e51b815260206004820152602660248201527f4f776e61626c653a206e6577206f776e657220697320746865207a65726f206160448201526564647265737360d01b6064820152608401610407565b61071d81610dd2565b50565b61074d60405180606001604052806000815260200160006001600160a01b03168152602001600081525090565b6040805180820190915260008082526020820152600080600061076e610c1b565b909250905081156107d357806003600082825461078b91906110f2565b9250508190555081600260008282546107a491906110f2565b9250508190555081600560008282546107bd91906110f2565b90915550506008546107cf9042610e22565b6007555b50506040516316e8334960e21b8152336004820181905260248201869052907f00000000000000000000000000000000000000000000000000000000000000006001600160a01b031690635ba0cd2490604401606060405180830381865afa158015610843573d6000803e3d6000fd5b505050506040513d601f19601f82011682018060405250810190610867919061116a565b935061087584600354610d0c565b9250600061088284610e3a565b9050806000036108975750849150610c149050565b8060025410156108fb5760405162461bcd60e51b815260206004820152602960248201527f52656e74734d6f64756c653a20496e73756666696369656e742072657761726460448201526873207265736572766560b81b6064820152608401610407565b806002600082825461090d9190611157565b909155505060208401518015610a5457600061092c8760200151610e4d565b9150506001600160a01b038116156109d75760405163a9059cbb60e01b81526001600160a01b038281166004830152602482018490527f0000000000000000000000000000000000000000000000000000000000000000169063a9059cbb906044016020604051808303816000875af11580156109ad573d6000803e3d6000fd5b505050506040513d601f19601f820116820180604052508101906109d191906111ae565b50610a52565b604051630852cd8d60e31b8152600481018390527f00000000000000000000000000000000000000000000000000000000000000006001600160a01b0316906342966c6890602401600060405180830381600087803b158015610a3957600080fd5b505af1158015610a4d573d6000803e3d6000fd5b505050505b505b6003548652604051627eeac760e11b81526001600160a01b038481166004830152602482018990527f0000000000000000000000000000000000000000000000000000000000000000169063d8938f269085908a90849062fdd58e90604401602060405180830381865afa158015610ad0573d6000803e3d6000fd5b505050506040513d601f19601f82011682018060405250810190610af49190611105565b8a604051602001610b0591906111d0565b6040516020818303038152906040526040518563ffffffff1660e01b8152600401610b3394939291906111fa565b6020604051808303816000875af1158015610b52573d6000803e3d6000fd5b505050506040513d601f19601f82011682018060405250810190610b769190611105565b855160405163a9059cbb60e01b81526001600160a01b03868116600483015260248201929092529195507f0000000000000000000000000000000000000000000000000000000000000000169063a9059cbb906044016020604051808303816000875af1158015610beb573d6000803e3d6000fd5b505050506040513d601f19601f82011682018060405250810190610c0f91906111ae565b505050505b9193909250565b6000806000600754610c2f60085442610e22565b610c399190611157565b90508015610d0757670de0b6b3a764000081600154600654610c5b919061111e565b610c65919061111e565b610c6f9190611135565b925060045483600554610c8291906110f2565b1115610ce55760405162461bcd60e51b815260206004820152602c60248201527f486f7573696e6750726f6a6563743a20526577617264732067656e657261746560448201526b19081bdd995c999b1bddd95960a21b6064820152608401610407565b600154610cfa670de0b6b3a76400008561111e565b610d049190611135565b91505b509091565b6040805180820190915260008082526020820152811580610d2e575082518211155b15610d4d57506040805180820190915260008082526020820152610d68565b6000610d598484610ee4565b9050610d6481610f16565b9150505b92915050565b61071d8133610f6e565b6000546001600160a01b031633146106a55760405162461bcd60e51b815260206004820181905260248201527f4f776e61626c653a2063616c6c6572206973206e6f7420746865206f776e65726044820152606401610407565b600080546001600160a01b038381166001600160a01b0319831681178455604051919092169283917f8be0079c531659141344cd1fd0a4f28419497f9722a3daafe3b4186f6b6457e09190a35050565b6000818310610e315781610e33565b825b9392505050565b60208101518151600091610d68916110f2565b604051634a9fefc760e01b81526001600160a01b03828116600483015260009182917f00000000000000000000000000000000000000000000000000000000000000001690634a9fefc7906024016040805180830381865afa158015610eb7573d6000803e3d6000fd5b505050506040513d601f19601f82011682018060405250810190610edb9190611267565b91509150915091565b60408201518251600091670de0b6b3a764000091610f029085611157565b610f0c919061111e565b610e339190611135565b60408051808201909152600080825260208201526000612710610f3a84601e61111e565b610f449190611135565b90506000610f528285611157565b6040805180820190915290815260208101929092525092915050565b610f7b60208301836110a6565b6040516323b872dd60e01b81526001600160a01b0383811660048301523060248301526020850135604483015291909116906323b872dd906064016020604051808303816000875af1158015610fd5573d6000803e3d6000fd5b505050506040513d601f19601f82011682018060405250810190610ff991906111ae565b505050565b6040516060810167ffffffffffffffff8111828210171561102f57634e487b7160e01b600052604160045260246000fd5b60405290565b6001600160a01b038116811461071d57600080fd5b60006060828403121561105c57600080fd5b611064610ffe565b82358152602083013561107681611035565b60208201526040928301359281019290925250919050565b6000604082840312156110a057600080fd5b50919050565b6000602082840312156110b857600080fd5b8135610e3381611035565b6000602082840312156110d557600080fd5b5035919050565b634e487b7160e01b600052601160045260246000fd5b80820180821115610d6857610d686110dc565b60006020828403121561111757600080fd5b5051919050565b8082028115828204841417610d6857610d686110dc565b60008261115257634e487b7160e01b600052601260045260246000fd5b500490565b81810381811115610d6857610d686110dc565b60006060828403121561117c57600080fd5b611184610ffe565b82518152602083015161119681611035565b60208201526040928301519281019290925250919050565b6000602082840312156111c057600080fd5b81518015158114610e3357600080fd5b815181526020808301516001600160a01b0316908201526040808301519082015260608101610d68565b60018060a01b03851681526000602085602084015284604084015260806060840152835180608085015260005b818110156112435785810183015185820160a001528201611227565b50600060a0828601015260a0601f19601f8301168501019250505095945050505050565b6000806040838503121561127a57600080fd5b82519150602083015161128c81611035565b80915050925092905056fea2646970667358221220dade1d778e89379f917471875883da0d75eb750e39c52700fec64aa431036fa964736f6c6343000818003360806040523480156200001157600080fd5b5060405162002cbe38038062002cbe8339810160408190526200003491620001b7565b81816040518060200160405280600081525062000057816200008b60201b60201c565b5062000063336200009d565b6005620000718382620002b2565b506006620000808282620002b2565b50505050506200037e565b6002620000998282620002b2565b5050565b600380546001600160a01b038381166001600160a01b0319831681179093556040519116919082907f8be0079c531659141344cd1fd0a4f28419497f9722a3daafe3b4186f6b6457e090600090a35050565b634e487b7160e01b600052604160045260246000fd5b600082601f8301126200011757600080fd5b81516001600160401b0380821115620001345762000134620000ef565b604051601f8301601f19908116603f011681019082821181831017156200015f576200015f620000ef565b81604052838152602092508660208588010111156200017d57600080fd5b600091505b83821015620001a1578582018301518183018401529082019062000182565b6000602085830101528094505050505092915050565b60008060408385031215620001cb57600080fd5b82516001600160401b0380821115620001e357600080fd5b620001f18683870162000105565b935060208501519150808211156200020857600080fd5b50620002178582860162000105565b9150509250929050565b600181811c908216806200023657607f821691505b6020821081036200025757634e487b7160e01b600052602260045260246000fd5b50919050565b601f821115620002ad576000816000526020600020601f850160051c81016020861015620002885750805b601f850160051c820191505b81811015620002a95782815560010162000294565b5050505b505050565b81516001600160401b03811115620002ce57620002ce620000ef565b620002e681620002df845462000221565b846200025d565b602080601f8311600181146200031e5760008415620003055750858301515b600019600386901b1c1916600185901b178555620002a9565b600085815260208120601f198616915b828110156200034f578886015182559484019460019091019084016200032e565b50858210156200036e5787850151600019600388901b60f8161c191681555b5050505050600190811b01905550565b612930806200038e6000396000f3fe608060405234801561001057600080fd5b506004361061018d5760003560e01c80636addb663116100de578063a42accea11610097578063e985e9c511610071578063e985e9c514610354578063ee83ef1b14610390578063f242432a146103a3578063f2fde38b146103b657600080fd5b8063a42accea1461030a578063d6abe1101461032a578063d8938f261461034157600080fd5b80636addb663146102ad578063715018a6146102c35780637b3e5e7b146102cb5780638da5cb5b146102d457806395d89b41146102ef578063a22cb465146102f757600080fd5b8063301d6d641161014b5780634e1273f4116101255780634e1273f4146102475780634fa3d25d146102675780635124ae951461027a5780635ba0cd241461028d57600080fd5b8063301d6d641461022157806332cb6b0c146102345780634c0f38c21461023e57600080fd5b8062fdd58e1461019257806301ffc9a7146101b857806306fdde03146101db5780630e89341c146101f057806318160ddd146102035780632eb2c2d61461020c575b600080fd5b6101a56101a0366004611d8d565b6103c9565b6040519081526020015b60405180910390f35b6101cb6101c6366004611dcf565b610462565b60405190151581526020016101af565b6101e36104b2565b6040516101af9190611e32565b6101e36101fe366004611e45565b610544565b6101a5600a5481565b61021f61021a366004611fac565b6105d8565b005b6101a561022f366004612059565b610624565b6101a5620f424081565b620f42406101a5565b61025a610255366004612089565b61088f565b6040516101af9190612191565b6101cb610275366004611d8d565b6109b0565b61025a6102883660046121a4565b6109d9565b6102a061029b366004611d8d565b6109fd565b6040516101af91906121c1565b6102b5610ab2565b6040516101af9291906121eb565b61021f610bd9565b6101a560095481565b6003546040516001600160a01b0390911681526020016101af565b6101e3610bed565b61021f610305366004612210565b610bfc565b61031d6103183660046121a4565b610c0b565b6040516101af9190612243565b610332610cfb565b6040516101af939291906122c3565b6101a561034f3660046122f9565b610d1f565b6101cb61036236600461235b565b6001600160a01b03918216600090815260016020908152604080832093909416825291909152205460ff1690565b61021f61039e366004611e45565b610d57565b61021f6103b1366004612389565b610e2b565b61021f6103c43660046121a4565b610e70565b60006001600160a01b0383166104395760405162461bcd60e51b815260206004820152602a60248201527f455243313135353a2061646472657373207a65726f206973206e6f742061207660448201526930b634b21037bbb732b960b11b60648201526084015b60405180910390fd5b506000818152602081815260408083206001600160a01b03861684529091529020545b92915050565b60006001600160e01b03198216636cdb3d1360e11b148061049357506001600160e01b031982166303a24d0760e21b145b8061045c57506301ffc9a760e01b6001600160e01b031983161461045c565b6060600580546104c1906123f1565b80601f01602080910402602001604051908101604052809291908181526020018280546104ed906123f1565b801561053a5780601f1061050f5761010080835404028352916020019161053a565b820191906000526020600020905b81548152906001019060200180831161051d57829003601f168201915b5050505050905090565b606060028054610553906123f1565b80601f016020809104026020016040519081016040528092919081815260200182805461057f906123f1565b80156105cc5780601f106105a1576101008083540402835291602001916105cc565b820191906000526020600020905b8154815290600101906020018083116105af57829003601f168201915b50505050509050919050565b6001600160a01b0385163314806105f457506105f48533610362565b6106105760405162461bcd60e51b81526004016104309061242b565b61061d8585858585610ee9565b5050505050565b6000806106396003546001600160a01b031690565b9050336001600160a01b0316816001600160a01b0316638da5cb5b6040518163ffffffff1660e01b8152600401602060405180830381865afa158015610683573d6000803e3d6000fd5b505050506040513d601f19601f820116820180604052508101906106a79190612479565b6001600160a01b0316146106f35760405162461bcd60e51b81526020600482015260136024820152721b9bdd08185b1b1bddd959081d1bc81b5a5b9d606a1b6044820152606401610430565b600954620f4240906107475760405162461bcd60e51b815260206004820181905260248201527f486f7573696e675346543a204e6f206465706f73697473207265636f726465646044820152606401610430565b60095460009061075783886124ac565b61076191906124c3565b9050600081116107c55760405162461bcd60e51b815260206004820152602960248201527f486f7573696e675346543a20436f6d707574656420746f6b656e2073686172656044820152681cc81a5b9d985b1a5960ba1b6064820152608401610430565b80600a60008282546107d791906124e5565b9091555050600a54620f424010156108315760405162461bcd60e51b815260206004820152601f60248201527f486f7573696e675346543a204d617820737570706c79206578636565646564006044820152606401610430565b6000604051806060016040528060008152602001876001600160a01b031681526020018381525060405160200161086891906121c1565b60405160208183030381529060405290506108848683836110cd565b979650505050505050565b606081518351146108f45760405162461bcd60e51b815260206004820152602960248201527f455243313135353a206163636f756e747320616e6420696473206c656e677468604482015268040dad2e6dac2e8c6d60bb1b6064820152608401610430565b600083516001600160401b0381111561090f5761090f611e5e565b604051908082528060200260200182016040528015610938578160200160208202803683370190505b50905060005b84518110156109a85761098385828151811061095c5761095c6124f8565b6020026020010151858381518110610976576109766124f8565b60200260200101516103c9565b828281518110610995576109956124f8565b602090810291909101015260010161093e565b509392505050565b6001600160a01b03821660009081526008602052604081206109d29083611137565b9392505050565b6001600160a01b038116600090815260086020526040902060609061045c9061114f565b610a2a60405180606001604052806000815260200160006001600160a01b03168152602001600081525090565b610a3483836109b0565b610a965760405162461bcd60e51b815260206004820152602d60248201527f486f7573696e675346543a204e6f20746f6b656e7320666f756e6420666f722060448201526c75736572206174206e6f6e636560981b6064820152608401610430565b610a9f8261115c565b8060200190518101906109d2919061250e565b60608060056006818054610ac5906123f1565b80601f0160208091040260200160405190810160405280929190818152602001828054610af1906123f1565b8015610b3e5780601f10610b1357610100808354040283529160200191610b3e565b820191906000526020600020905b815481529060010190602001808311610b2157829003601f168201915b50505050509150808054610b51906123f1565b80601f0160208091040260200160405190810160405280929190818152602001828054610b7d906123f1565b8015610bca5780601f10610b9f57610100808354040283529160200191610bca565b820191906000526020600020905b815481529060010190602001808311610bad57829003601f168201915b50505050509050915091509091565b610be1611179565b610beb60006111d3565b565b6060600680546104c1906123f1565b610c07338383611225565b5050565b60606000610c1883611305565b9050600081516001600160401b03811115610c3557610c35611e5e565b604051908082528060200260200182016040528015610c6e57816020015b610c5b611d2d565b815260200190600190039081610c535790505b50905060005b82518110156109a8576000838281518110610c9157610c916124f8565b60200260200101519050604051806060016040528082600001518152602001826020015181526020018260400151806020019051810190610cd2919061250e565b815250838381518110610ce757610ce76124f8565b602090810291909101015250600101610c74565b6060806000610d086104b2565b610d10610bed565b620f4240925092509250909192565b6000610d29611179565b610d348585856114a2565b60008311610d43576000610d4e565b610d4e8584846110cd565b95945050505050565b6000610d6b6003546001600160a01b031690565b9050336001600160a01b0316816001600160a01b0316638da5cb5b6040518163ffffffff1660e01b8152600401602060405180830381865afa158015610db5573d6000803e3d6000fd5b505050506040513d601f19601f82011682018060405250810190610dd99190612479565b6001600160a01b031614610e255760405162461bcd60e51b81526020600482015260136024820152721b9bdd08185b1b1bddd959081d1bc81b5a5b9d606a1b6044820152606401610430565b50600955565b6001600160a01b038516331480610e475750610e478533610362565b610e635760405162461bcd60e51b81526004016104309061242b565b61061d8585858585611637565b610e78611179565b6001600160a01b038116610edd5760405162461bcd60e51b815260206004820152602660248201527f4f776e61626c653a206e6577206f776e657220697320746865207a65726f206160448201526564647265737360d01b6064820152608401610430565b610ee6816111d3565b50565b8151835114610f4b5760405162461bcd60e51b815260206004820152602860248201527f455243313135353a2069647320616e6420616d6f756e7473206c656e677468206044820152670dad2e6dac2e8c6d60c31b6064820152608401610430565b6001600160a01b038416610f715760405162461bcd60e51b81526004016104309061256f565b33610f8081878787878761176f565b60005b845181101561105f576000858281518110610fa057610fa06124f8565b602002602001015190506000858381518110610fbe57610fbe6124f8565b602090810291909101810151600084815280835260408082206001600160a01b038e16835290935291909120549091508181101561100e5760405162461bcd60e51b8152600401610430906125b4565b6000838152602081815260408083206001600160a01b038e8116855292528083208585039055908b1682528120805484929061104b9084906124e5565b909155505060019093019250610f83915050565b50846001600160a01b0316866001600160a01b0316826001600160a01b03167f4a39dc06d4c0dbc64b70af90fd698a233a518aa5d07e595d983b8c0526c8f7fb87876040516110af9291906125fe565b60405180910390a46110c58187878787876117fd565b505050505050565b60006110dd600480546001019055565b5060045460008181526007602052604090206110f98382612670565b5061111584828560405180602001604052806000815250611958565b6001600160a01b03841660009081526008602052604090206109a89082611a72565b600081815260018301602052604081205415156109d2565b606060006109d283611a7e565b6000818152600760205260409020805460609190610553906123f1565b6003546001600160a01b03163314610beb5760405162461bcd60e51b815260206004820181905260248201527f4f776e61626c653a2063616c6c6572206973206e6f7420746865206f776e65726044820152606401610430565b600380546001600160a01b038381166001600160a01b0319831681179093556040519116919082907f8be0079c531659141344cd1fd0a4f28419497f9722a3daafe3b4186f6b6457e090600090a35050565b816001600160a01b0316836001600160a01b0316036112985760405162461bcd60e51b815260206004820152602960248201527f455243313135353a2073657474696e6720617070726f76616c20737461747573604482015268103337b91039b2b63360b91b6064820152608401610430565b6001600160a01b03838116600081815260016020908152604080832094871680845294825291829020805460ff191686151590811790915591519182527f17307eab39ab6107e8899845ad3d59bd9653f200f220920489ca2b5937696c31910160405180910390a3505050565b60606000611312836109d9565b9050600081516001600160401b0381111561132f5761132f611e5e565b60405190808252806020026020018201604052801561138457816020015b61137160405180606001604052806000815260200160008152602001606081525090565b81526020019060019003908161134d5790505b50905060005b82518110156109a85760008382815181106113a7576113a76124f8565b6020026020010151905060006007600083815260200190815260200160002080546113d1906123f1565b80601f01602080910402602001604051908101604052809291908181526020018280546113fd906123f1565b801561144a5780601f1061141f5761010080835404028352916020019161144a565b820191906000526020600020905b81548152906001019060200180831161142d57829003601f168201915b50505050509050600061145d88846103c9565b905060405180606001604052808481526020018281526020018381525085858151811061148c5761148c6124f8565b602090810291909101015250505060010161138a565b6001600160a01b0383166115045760405162461bcd60e51b815260206004820152602360248201527f455243313135353a206275726e2066726f6d20746865207a65726f206164647260448201526265737360e81b6064820152608401610430565b33600061151084611ad9565b9050600061151d84611ad9565b905061153d8387600085856040518060200160405280600081525061176f565b6000858152602081815260408083206001600160a01b038a168452909152902054848110156115ba5760405162461bcd60e51b8152602060048201526024808201527f455243313135353a206275726e20616d6f756e7420657863656564732062616c604482015263616e636560e01b6064820152608401610430565b6000868152602081815260408083206001600160a01b038b81168086529184528285208a8703905582518b81529384018a90529092908816917fc3d58168c5ae7397731d063d5bbf3d657854427343f4c083240f7aacaa2d0f62910160405180910390a46040805160208101909152600090525b50505050505050565b6001600160a01b03841661165d5760405162461bcd60e51b81526004016104309061256f565b33600061166985611ad9565b9050600061167685611ad9565b905061168683898985858961176f565b6000868152602081815260408083206001600160a01b038c168452909152902054858110156116c75760405162461bcd60e51b8152600401610430906125b4565b6000878152602081815260408083206001600160a01b038d8116855292528083208985039055908a168252812080548892906117049084906124e5565b909155505060408051888152602081018890526001600160a01b03808b16928c821692918816917fc3d58168c5ae7397731d063d5bbf3d657854427343f4c083240f7aacaa2d0f62910160405180910390a4611764848a8a8a8a8a611b24565b505050505050505050565b60005b835181101561162e57600084828151811061178f5761178f6124f8565b602002602001015190506117d081600860008a6001600160a01b03166001600160a01b03168152602001908152602001600020611bdf90919063ffffffff16565b506001600160a01b03861660009081526008602052604090206117f39082611a72565b5050600101611772565b6001600160a01b0384163b156110c55760405163bc197c8160e01b81526001600160a01b0385169063bc197c8190611841908990899088908890889060040161272f565b6020604051808303816000875af192505050801561187c575060408051601f3d908101601f191682019092526118799181019061278d565b60015b611928576118886127aa565b806308c379a0036118c1575061189c6127c6565b806118a757506118c3565b8060405162461bcd60e51b81526004016104309190611e32565b505b60405162461bcd60e51b815260206004820152603460248201527f455243313135353a207472616e7366657220746f206e6f6e2d455243313135356044820152732932b1b2b4bb32b91034b6b83632b6b2b73a32b960611b6064820152608401610430565b6001600160e01b0319811663bc197c8160e01b1461162e5760405162461bcd60e51b81526004016104309061284f565b6001600160a01b0384166119b85760405162461bcd60e51b815260206004820152602160248201527f455243313135353a206d696e7420746f20746865207a65726f206164647265736044820152607360f81b6064820152608401610430565b3360006119c485611ad9565b905060006119d185611ad9565b90506119e28360008985858961176f565b6000868152602081815260408083206001600160a01b038b16845290915281208054879290611a129084906124e5565b909155505060408051878152602081018790526001600160a01b03808a1692600092918716917fc3d58168c5ae7397731d063d5bbf3d657854427343f4c083240f7aacaa2d0f62910160405180910390a461162e83600089898989611b24565b60006109d28383611beb565b6060816000018054806020026020016040519081016040528092919081815260200182805480156105cc57602002820191906000526020600020905b815481526020019060010190808311611aba5750505050509050919050565b60408051600180825281830190925260609160009190602080830190803683370190505090508281600081518110611b1357611b136124f8565b602090810291909101015292915050565b6001600160a01b0384163b156110c55760405163f23a6e6160e01b81526001600160a01b0385169063f23a6e6190611b689089908990889088908890600401612897565b6020604051808303816000875af1925050508015611ba3575060408051601f3d908101601f19168201909252611ba09181019061278d565b60015b611baf576118886127aa565b6001600160e01b0319811663f23a6e6160e01b1461162e5760405162461bcd60e51b81526004016104309061284f565b60006109d28383611c3a565b6000818152600183016020526040812054611c325750815460018181018455600084815260208082209093018490558454848252828601909352604090209190915561045c565b50600061045c565b60008181526001830160205260408120548015611d23576000611c5e6001836128d1565b8554909150600090611c72906001906128d1565b9050818114611cd7576000866000018281548110611c9257611c926124f8565b9060005260206000200154905080876000018481548110611cb557611cb56124f8565b6000918252602080832090910192909255918252600188019052604090208390555b8554869080611ce857611ce86128e4565b60019003818190600052602060002001600090559055856001016000868152602001908152602001600020600090556001935050505061045c565b600091505061045c565b60405180606001604052806000815260200160008152602001611d7360405180606001604052806000815260200160006001600160a01b03168152602001600081525090565b905290565b6001600160a01b0381168114610ee657600080fd5b60008060408385031215611da057600080fd5b8235611dab81611d78565b946020939093013593505050565b6001600160e01b031981168114610ee657600080fd5b600060208284031215611de157600080fd5b81356109d281611db9565b6000815180845260005b81811015611e1257602081850181015186830182015201611df6565b506000602082860101526020601f19601f83011685010191505092915050565b6020815260006109d26020830184611dec565b600060208284031215611e5757600080fd5b5035919050565b634e487b7160e01b600052604160045260246000fd5b601f8201601f191681016001600160401b0381118282101715611e9957611e99611e5e565b6040525050565b60006001600160401b03821115611eb957611eb9611e5e565b5060051b60200190565b600082601f830112611ed457600080fd5b81356020611ee182611ea0565b604051611eee8282611e74565b80915083815260208101915060208460051b870101935086841115611f1257600080fd5b602086015b84811015611f2e5780358352918301918301611f17565b509695505050505050565b600082601f830112611f4a57600080fd5b81356001600160401b03811115611f6357611f63611e5e565b604051611f7a601f8301601f191660200182611e74565b818152846020838601011115611f8f57600080fd5b816020850160208301376000918101602001919091529392505050565b600080600080600060a08688031215611fc457600080fd5b8535611fcf81611d78565b94506020860135611fdf81611d78565b935060408601356001600160401b0380821115611ffb57600080fd5b61200789838a01611ec3565b9450606088013591508082111561201d57600080fd5b61202989838a01611ec3565b9350608088013591508082111561203f57600080fd5b5061204c88828901611f39565b9150509295509295909350565b6000806040838503121561206c57600080fd5b82359150602083013561207e81611d78565b809150509250929050565b6000806040838503121561209c57600080fd5b82356001600160401b03808211156120b357600080fd5b818501915085601f8301126120c757600080fd5b813560206120d482611ea0565b6040516120e18282611e74565b83815260059390931b850182019282810191508984111561210157600080fd5b948201945b8386101561212857853561211981611d78565b82529482019490820190612106565b9650508601359250508082111561213e57600080fd5b5061214b85828601611ec3565b9150509250929050565b60008151808452602080850194506020840160005b838110156121865781518752958201959082019060010161216a565b509495945050505050565b6020815260006109d26020830184612155565b6000602082840312156121b657600080fd5b81356109d281611d78565b815181526020808301516001600160a01b031690820152604080830151908201526060810161045c565b6040815260006121fe6040830185611dec565b8281036020840152610d4e8185611dec565b6000806040838503121561222357600080fd5b823561222e81611d78565b91506020830135801515811461207e57600080fd5b602080825282518282018190526000919060409081850190868401855b828110156122b65781518051855286810151878601528501516122a286860182805182526020808201516001600160a01b031690830152604090810151910152565b5060a0939093019290850190600101612260565b5091979650505050505050565b6060815260006122d66060830186611dec565b82810360208401526122e88186611dec565b915050826040830152949350505050565b6000806000806080858703121561230f57600080fd5b843561231a81611d78565b9350602085013592506040850135915060608501356001600160401b0381111561234357600080fd5b61234f87828801611f39565b91505092959194509250565b6000806040838503121561236e57600080fd5b823561237981611d78565b9150602083013561207e81611d78565b600080600080600060a086880312156123a157600080fd5b85356123ac81611d78565b945060208601356123bc81611d78565b9350604086013592506060860135915060808601356001600160401b038111156123e557600080fd5b61204c88828901611f39565b600181811c9082168061240557607f821691505b60208210810361242557634e487b7160e01b600052602260045260246000fd5b50919050565b6020808252602e908201527f455243313135353a2063616c6c6572206973206e6f7420746f6b656e206f776e60408201526d195c881bdc88185c1c1c9bdd995960921b606082015260800190565b60006020828403121561248b57600080fd5b81516109d281611d78565b634e487b7160e01b600052601160045260246000fd5b808202811582820484141761045c5761045c612496565b6000826124e057634e487b7160e01b600052601260045260246000fd5b500490565b8082018082111561045c5761045c612496565b634e487b7160e01b600052603260045260246000fd5b60006060828403121561252057600080fd5b604051606081018181106001600160401b038211171561254257612542611e5e565b60405282518152602083015161255781611d78565b60208201526040928301519281019290925250919050565b60208082526025908201527f455243313135353a207472616e7366657220746f20746865207a65726f206164604082015264647265737360d81b606082015260800190565b6020808252602a908201527f455243313135353a20696e73756666696369656e742062616c616e636520666f60408201526939103a3930b739b332b960b11b606082015260800190565b6040815260006126116040830185612155565b8281036020840152610d4e8185612155565b601f82111561266b576000816000526020600020601f850160051c8101602086101561264c5750805b601f850160051c820191505b818110156110c557828155600101612658565b505050565b81516001600160401b0381111561268957612689611e5e565b61269d8161269784546123f1565b84612623565b602080601f8311600181146126d257600084156126ba5750858301515b600019600386901b1c1916600185901b1785556110c5565b600085815260208120601f198616915b82811015612701578886015182559484019460019091019084016126e2565b508582101561271f5787850151600019600388901b60f8161c191681555b5050505050600190811b01905550565b6001600160a01b0386811682528516602082015260a06040820181905260009061275b90830186612155565b828103606084015261276d8186612155565b905082810360808401526127818185611dec565b98975050505050505050565b60006020828403121561279f57600080fd5b81516109d281611db9565b600060033d11156127c35760046000803e5060005160e01c5b90565b600060443d10156127d45790565b6040516003193d81016004833e81513d6001600160401b03816024840111818411171561280357505050505090565b828501915081518181111561281b5750505050505090565b843d87010160208285010111156128355750505050505090565b61284460208286010187611e74565b509095945050505050565b60208082526028908201527f455243313135353a204552433131353552656365697665722072656a656374656040820152676420746f6b656e7360c01b606082015260800190565b6001600160a01b03868116825285166020820152604081018490526060810183905260a06080820181905260009061088490830184611dec565b8181038181111561045c5761045c612496565b634e487b7160e01b600052603160045260246000fdfea26469706673582212209a43a899ee42ecd5bd223c00c7f5324db7f849ba3f6cdb5f968538592e9b4d7464736f6c63430008180033",
  "devdoc": {
    "details": "This contract inherits from RentsModule and Ownable for management functions.",
    "kind": "dev",
    "methods": {
      "claimRentReward(uint256)": {
        "params": {
          "nonce": "The nonce of the token to claim rewards for."
        },
        "returns": {
          "attr": "The updated HousingAttributes.",
          "newNonce": "The new nonce after updating the token.",
          "rewardShares": "The computed reward shares."
        }
      },
      "constructor": {
        "params": {
          "housingTokenAddr": "Coinbase contraact address",
          "name": "The name of the HousingSFT token.",
          "smartHousingAddr": "The address of the main SmartHousing contract.",
          "symbol": "The symbol of the HousingSFT token."
        }
      },
      "getMaxSupply()": {
        "returns": {
          "_0": "The maximum supply of the HousingSFT token."
        }
      },
      "owner()": {
        "details": "Returns the address of the current owner."
      },
      "receiveRent((address,uint256))": {
        "params": {
          "rentPayment": "The details of the rent payment."
        }
      },
      "renounceOwnership()": {
        "details": "Leaves the contract without owner. It will not be possible to call `onlyOwner` functions anymore. Can only be called by the current owner. NOTE: Renouncing ownership will leave the contract without an owner, thereby removing any functionality that is only available to the owner."
      },
      "rentClaimable((uint256,address,uint256))": {
        "params": {
          "attr": "The attributes of the token."
        },
        "returns": {
          "_0": "The amount of rent claimable."
        }
      },
      "transferOwnership(address)": {
        "details": "Transfers ownership of the contract to a new account (`newOwner`). Can only be called by the current owner."
      }
    },
    "title": "HousingProject Contract",
    "version": 1
  },
  "userdoc": {
    "kind": "user",
    "methods": {
      "claimRentReward(uint256)": {
        "notice": "Claims rent rewards for a given token and updates attributes."
      },
      "constructor": {
        "notice": "Initializes the HousingProject contract."
      },
      "getMaxSupply()": {
        "notice": "Returns the maximum supply of the HousingSFT token."
      },
      "receiveRent((address,uint256))": {
        "notice": "Receives rent payments, calculates, and distributes rewards."
      },
      "rentClaimable((uint256,address,uint256))": {
        "notice": "Calculates the amount of rent claimable for a given token."
      },
      "smartHousingAddr()": {
        "notice": "The address of the main SmartHousing contract."
      }
    },
    "notice": "Represents a unique real estate project within the SmartHousing ecosystem.",
    "version": 1
  },
  "storageLayout": {
    "storage": [
      {
        "astId": 7,
        "contract": "contracts/housing-project/HousingProject.sol:HousingProject",
        "label": "_owner",
        "offset": 0,
        "slot": "0",
        "type": "t_address"
      },
      {
        "astId": 3914,
        "contract": "contracts/housing-project/HousingProject.sol:HousingProject",
        "label": "maxSupply",
        "offset": 0,
        "slot": "1",
        "type": "t_uint256"
      },
      {
        "astId": 3916,
        "contract": "contracts/housing-project/HousingProject.sol:HousingProject",
        "label": "rewardsReserve",
        "offset": 0,
        "slot": "2",
        "type": "t_uint256"
      },
      {
        "astId": 3918,
        "contract": "contracts/housing-project/HousingProject.sol:HousingProject",
        "label": "rewardPerShare",
        "offset": 0,
        "slot": "3",
        "type": "t_uint256"
      },
      {
        "astId": 3920,
        "contract": "contracts/housing-project/HousingProject.sol:HousingProject",
        "label": "totalRewardsCollected",
        "offset": 0,
        "slot": "4",
        "type": "t_uint256"
      },
      {
        "astId": 3922,
        "contract": "contracts/housing-project/HousingProject.sol:HousingProject",
        "label": "totalRewardsGenerated",
        "offset": 0,
        "slot": "5",
        "type": "t_uint256"
      },
      {
        "astId": 3924,
        "contract": "contracts/housing-project/HousingProject.sol:HousingProject",
        "label": "rewardsAPR",
        "offset": 0,
        "slot": "6",
        "type": "t_uint256"
      },
      {
        "astId": 3926,
        "contract": "contracts/housing-project/HousingProject.sol:HousingProject",
        "label": "lastRewardGenerateTimestamp",
        "offset": 0,
        "slot": "7",
        "type": "t_uint256"
      },
      {
        "astId": 3928,
        "contract": "contracts/housing-project/HousingProject.sol:HousingProject",
        "label": "endRewardGenerateTimestamp",
        "offset": 0,
        "slot": "8",
        "type": "t_uint256"
      },
      {
        "astId": 3930,
        "contract": "contracts/housing-project/HousingProject.sol:HousingProject",
        "label": "facilityManagementFunds",
        "offset": 0,
        "slot": "9",
        "type": "t_uint256"
      }
    ],
    "types": {
      "t_address": {
        "encoding": "inplace",
        "label": "address",
        "numberOfBytes": "20"
      },
      "t_uint256": {
        "encoding": "inplace",
        "label": "uint256",
        "numberOfBytes": "32"
      }
    }
  }
}