{
  "address": "0x5372A122f975F158414aE3737735d918F1CC477a",
  "abi": [
    {
      "inputs": [
        {
          "internalType": "address",
          "name": "coinbase",
          "type": "address"
        },
        {
          "internalType": "address",
          "name": "projectFunding",
          "type": "address"
        }
      ],
      "stateMutability": "nonpayable",
      "type": "constructor"
    },
    {
      "inputs": [
        {
          "internalType": "int256",
          "name": "x",
          "type": "int256"
        }
      ],
      "name": "PRBMathSD59x18__Exp2InputTooBig",
      "type": "error"
    },
    {
      "inputs": [
        {
          "internalType": "int256",
          "name": "x",
          "type": "int256"
        }
      ],
      "name": "PRBMathSD59x18__LogInputTooSmall",
      "type": "error"
    },
    {
      "inputs": [],
      "name": "PRBMathSD59x18__MulInputTooSmall",
      "type": "error"
    },
    {
      "inputs": [
        {
          "internalType": "uint256",
          "name": "rAbs",
          "type": "uint256"
        }
      ],
      "name": "PRBMathSD59x18__MulOverflow",
      "type": "error"
    },
    {
      "inputs": [
        {
          "internalType": "uint256",
          "name": "prod1",
          "type": "uint256"
        }
      ],
      "name": "PRBMath__MulDivFixedPointOverflow",
      "type": "error"
    },
    {
      "inputs": [
        {
          "internalType": "uint256",
          "name": "number",
          "type": "uint256"
        }
      ],
      "name": "ToInt256CastOverflow",
      "type": "error"
    },
    {
      "inputs": [
        {
          "internalType": "int256",
          "name": "number",
          "type": "int256"
        }
      ],
      "name": "ToUint256CastOverflow",
      "type": "error"
    },
    {
      "anonymous": false,
      "inputs": [
        {
          "indexed": true,
          "internalType": "address",
          "name": "previousOwner",
          "type": "address"
        },
        {
          "indexed": true,
          "internalType": "address",
          "name": "newOwner",
          "type": "address"
        }
      ],
      "name": "OwnershipTransferred",
      "type": "event"
    },
    {
      "anonymous": false,
      "inputs": [
        {
          "indexed": false,
          "internalType": "uint256",
          "name": "referrerId",
          "type": "uint256"
        },
        {
          "indexed": false,
          "internalType": "uint256",
          "name": "referralId",
          "type": "uint256"
        }
      ],
      "name": "ReferralAdded",
      "type": "event"
    },
    {
      "anonymous": false,
      "inputs": [
        {
          "indexed": false,
          "internalType": "uint256",
          "name": "userId",
          "type": "uint256"
        },
        {
          "indexed": false,
          "internalType": "address",
          "name": "userAddress",
          "type": "address"
        },
        {
          "indexed": false,
          "internalType": "uint256",
          "name": "referrerId",
          "type": "uint256"
        }
      ],
      "name": "UserRegistered",
      "type": "event"
    },
    {
      "inputs": [
        {
          "internalType": "address",
          "name": "projectAddress",
          "type": "address"
        }
      ],
      "name": "addProject",
      "outputs": [],
      "stateMutability": "nonpayable",
      "type": "function"
    },
    {
      "inputs": [
        {
          "internalType": "uint256",
          "name": "amount",
          "type": "uint256"
        }
      ],
      "name": "addProjectRent",
      "outputs": [],
      "stateMutability": "nonpayable",
      "type": "function"
    },
    {
      "inputs": [
        {
          "internalType": "uint256",
          "name": "hstNonce",
          "type": "uint256"
        },
        {
          "internalType": "uint256",
          "name": "referrerId",
          "type": "uint256"
        }
      ],
      "name": "claimRewards",
      "outputs": [
        {
          "internalType": "uint256",
          "name": "newHstNonce",
          "type": "uint256"
        }
      ],
      "stateMutability": "nonpayable",
      "type": "function"
    },
    {
      "inputs": [],
      "name": "coinbaseAddress",
      "outputs": [
        {
          "internalType": "address",
          "name": "",
          "type": "address"
        }
      ],
      "stateMutability": "view",
      "type": "function"
    },
    {
      "inputs": [
        {
          "internalType": "uint256",
          "name": "referrerId",
          "type": "uint256"
        }
      ],
      "name": "createRefID",
      "outputs": [
        {
          "internalType": "uint256",
          "name": "",
          "type": "uint256"
        }
      ],
      "stateMutability": "nonpayable",
      "type": "function"
    },
    {
      "inputs": [
        {
          "internalType": "address",
          "name": "userAddr",
          "type": "address"
        },
        {
          "internalType": "uint256",
          "name": "referrerId",
          "type": "uint256"
        }
      ],
      "name": "createRefIDViaProxy",
      "outputs": [
        {
          "internalType": "uint256",
          "name": "",
          "type": "uint256"
        }
      ],
      "stateMutability": "nonpayable",
      "type": "function"
    },
    {
      "inputs": [],
      "name": "distributionStorage",
      "outputs": [
        {
          "internalType": "uint256",
          "name": "totalFunds",
          "type": "uint256"
        },
        {
          "internalType": "uint256",
          "name": "projectsTotalReceivedRents",
          "type": "uint256"
        },
        {
          "internalType": "uint256",
          "name": "lastFundsDispatchTimestamp",
          "type": "uint256"
        },
        {
          "internalType": "uint256",
          "name": "shtTotalStakeWeight",
          "type": "uint256"
        },
        {
          "internalType": "uint256",
          "name": "shtRewardPerShare",
          "type": "uint256"
        },
        {
          "internalType": "uint256",
          "name": "shtStakingRewards",
          "type": "uint256"
        },
        {
          "components": [
            {
              "internalType": "uint256",
              "name": "toShare",
              "type": "uint256"
            },
            {
              "internalType": "uint256",
              "name": "checkpoint",
              "type": "uint256"
            }
          ],
          "internalType": "struct ProjectStakingRewards.Value",
          "name": "projectsStakingRewards",
          "type": "tuple"
        },
        {
          "components": [
            {
              "internalType": "uint256",
              "name": "team",
              "type": "uint256"
            },
            {
              "internalType": "uint256",
              "name": "protocol",
              "type": "uint256"
            },
            {
              "internalType": "uint256",
              "name": "growth",
              "type": "uint256"
            },
            {
              "internalType": "uint256",
              "name": "staking",
              "type": "uint256"
            },
            {
              "internalType": "uint256",
              "name": "projectsReserve",
              "type": "uint256"
            },
            {
              "internalType": "uint256",
              "name": "lpAndListing",
              "type": "uint256"
            }
          ],
          "internalType": "struct Entities.Value",
          "name": "entityFunds",
          "type": "tuple"
        }
      ],
      "stateMutability": "view",
      "type": "function"
    },
    {
      "inputs": [],
      "name": "epochs",
      "outputs": [
        {
          "internalType": "uint256",
          "name": "genesis",
          "type": "uint256"
        },
        {
          "internalType": "uint256",
          "name": "epochLength",
          "type": "uint256"
        }
      ],
      "stateMutability": "view",
      "type": "function"
    },
    {
      "inputs": [
        {
          "internalType": "address",
          "name": "userAddress",
          "type": "address"
        }
      ],
      "name": "getReferrals",
      "outputs": [
        {
          "components": [
            {
              "internalType": "uint256",
              "name": "id",
              "type": "uint256"
            },
            {
              "internalType": "address",
              "name": "referralAddress",
              "type": "address"
            }
          ],
          "internalType": "struct UserModule.ReferralInfo[]",
          "name": "",
          "type": "tuple[]"
        }
      ],
      "stateMutability": "view",
      "type": "function"
    },
    {
      "inputs": [
        {
          "internalType": "address",
          "name": "userAddress",
          "type": "address"
        }
      ],
      "name": "getReferrer",
      "outputs": [
        {
          "internalType": "uint256",
          "name": "referrerId",
          "type": "uint256"
        },
        {
          "internalType": "address",
          "name": "referrerAddress",
          "type": "address"
        }
      ],
      "stateMutability": "view",
      "type": "function"
    },
    {
      "inputs": [
        {
          "internalType": "address",
          "name": "userAddress",
          "type": "address"
        }
      ],
      "name": "getUserId",
      "outputs": [
        {
          "internalType": "uint256",
          "name": "userId",
          "type": "uint256"
        }
      ],
      "stateMutability": "view",
      "type": "function"
    },
    {
      "inputs": [],
      "name": "hst",
      "outputs": [
        {
          "internalType": "contract HousingStakingToken",
          "name": "",
          "type": "address"
        }
      ],
      "stateMutability": "view",
      "type": "function"
    },
    {
      "inputs": [],
      "name": "lkSht",
      "outputs": [
        {
          "internalType": "contract LkSHT",
          "name": "",
          "type": "address"
        }
      ],
      "stateMutability": "view",
      "type": "function"
    },
    {
      "inputs": [
        {
          "internalType": "address",
          "name": "",
          "type": "address"
        },
        {
          "internalType": "address",
          "name": "",
          "type": "address"
        },
        {
          "internalType": "uint256[]",
          "name": "",
          "type": "uint256[]"
        },
        {
          "internalType": "uint256[]",
          "name": "",
          "type": "uint256[]"
        },
        {
          "internalType": "bytes",
          "name": "",
          "type": "bytes"
        }
      ],
      "name": "onERC1155BatchReceived",
      "outputs": [
        {
          "internalType": "bytes4",
          "name": "",
          "type": "bytes4"
        }
      ],
      "stateMutability": "nonpayable",
      "type": "function"
    },
    {
      "inputs": [
        {
          "internalType": "address",
          "name": "",
          "type": "address"
        },
        {
          "internalType": "address",
          "name": "",
          "type": "address"
        },
        {
          "internalType": "uint256",
          "name": "",
          "type": "uint256"
        },
        {
          "internalType": "uint256",
          "name": "",
          "type": "uint256"
        },
        {
          "internalType": "bytes",
          "name": "",
          "type": "bytes"
        }
      ],
      "name": "onERC1155Received",
      "outputs": [
        {
          "internalType": "bytes4",
          "name": "",
          "type": "bytes4"
        }
      ],
      "stateMutability": "nonpayable",
      "type": "function"
    },
    {
      "inputs": [],
      "name": "owner",
      "outputs": [
        {
          "internalType": "address",
          "name": "",
          "type": "address"
        }
      ],
      "stateMutability": "view",
      "type": "function"
    },
    {
      "inputs": [
        {
          "internalType": "address",
          "name": "",
          "type": "address"
        }
      ],
      "name": "permissions",
      "outputs": [
        {
          "internalType": "enum SmartHousing.Permissions",
          "name": "",
          "type": "uint8"
        }
      ],
      "stateMutability": "view",
      "type": "function"
    },
    {
      "inputs": [
        {
          "internalType": "address",
          "name": "project",
          "type": "address"
        }
      ],
      "name": "projectDets",
      "outputs": [
        {
          "components": [
            {
              "internalType": "uint256",
              "name": "maxShares",
              "type": "uint256"
            },
            {
              "internalType": "uint256",
              "name": "receivedRents",
              "type": "uint256"
            }
          ],
          "internalType": "struct Distribution.ProjectDistributionData",
          "name": "",
          "type": "tuple"
        }
      ],
      "stateMutability": "view",
      "type": "function"
    },
    {
      "inputs": [],
      "name": "projectFundingAddress",
      "outputs": [
        {
          "internalType": "address",
          "name": "",
          "type": "address"
        }
      ],
      "stateMutability": "view",
      "type": "function"
    },
    {
      "inputs": [],
      "name": "projectsToken",
      "outputs": [
        {
          "internalType": "address[]",
          "name": "",
          "type": "address[]"
        }
      ],
      "stateMutability": "view",
      "type": "function"
    },
    {
      "inputs": [],
      "name": "renounceOwnership",
      "outputs": [],
      "stateMutability": "nonpayable",
      "type": "function"
    },
    {
      "inputs": [
        {
          "components": [
            {
              "internalType": "contract IERC20",
              "name": "token",
              "type": "address"
            },
            {
              "internalType": "uint256",
              "name": "amount",
              "type": "uint256"
            }
          ],
          "internalType": "struct ERC20TokenPayment",
          "name": "payment",
          "type": "tuple"
        }
      ],
      "name": "setUpSHT",
      "outputs": [],
      "stateMutability": "nonpayable",
      "type": "function"
    },
    {
      "inputs": [],
      "name": "shtTokenAddress",
      "outputs": [
        {
          "internalType": "address",
          "name": "",
          "type": "address"
        }
      ],
      "stateMutability": "view",
      "type": "function"
    },
    {
      "inputs": [
        {
          "components": [
            {
              "internalType": "address",
              "name": "token",
              "type": "address"
            },
            {
              "internalType": "uint256",
              "name": "amount",
              "type": "uint256"
            },
            {
              "internalType": "uint256",
              "name": "nonce",
              "type": "uint256"
            }
          ],
          "internalType": "struct TokenPayment[]",
          "name": "stakingTokens",
          "type": "tuple[]"
        },
        {
          "internalType": "uint256",
          "name": "epochsLock",
          "type": "uint256"
        },
        {
          "internalType": "uint256",
          "name": "referrerId",
          "type": "uint256"
        }
      ],
      "name": "stake",
      "outputs": [],
      "stateMutability": "nonpayable",
      "type": "function"
    },
    {
      "inputs": [
        {
          "internalType": "bytes4",
          "name": "interfaceId",
          "type": "bytes4"
        }
      ],
      "name": "supportsInterface",
      "outputs": [
        {
          "internalType": "bool",
          "name": "",
          "type": "bool"
        }
      ],
      "stateMutability": "view",
      "type": "function"
    },
    {
      "inputs": [
        {
          "internalType": "address",
          "name": "newOwner",
          "type": "address"
        }
      ],
      "name": "transferOwnership",
      "outputs": [],
      "stateMutability": "nonpayable",
      "type": "function"
    },
    {
      "inputs": [
        {
          "internalType": "address",
          "name": "user",
          "type": "address"
        },
        {
          "internalType": "uint256",
          "name": "tokenNonce",
          "type": "uint256"
        }
      ],
      "name": "userCanClaim",
      "outputs": [
        {
          "internalType": "bool",
          "name": "",
          "type": "bool"
        }
      ],
      "stateMutability": "view",
      "type": "function"
    },
    {
      "inputs": [],
      "name": "userCount",
      "outputs": [
        {
          "internalType": "uint256",
          "name": "",
          "type": "uint256"
        }
      ],
      "stateMutability": "view",
      "type": "function"
    },
    {
      "inputs": [
        {
          "internalType": "uint256",
          "name": "",
          "type": "uint256"
        }
      ],
      "name": "userIdToAddress",
      "outputs": [
        {
          "internalType": "address",
          "name": "",
          "type": "address"
        }
      ],
      "stateMutability": "view",
      "type": "function"
    },
    {
      "inputs": [
        {
          "internalType": "address",
          "name": "",
          "type": "address"
        }
      ],
      "name": "users",
      "outputs": [
        {
          "internalType": "uint256",
          "name": "id",
          "type": "uint256"
        },
        {
          "internalType": "address",
          "name": "addr",
          "type": "address"
        },
        {
          "internalType": "uint256",
          "name": "referrerId",
          "type": "uint256"
        }
      ],
      "stateMutability": "view",
      "type": "function"
    }
  ],
  "transactionHash": "0xd48d0ebe04e140a4a35088e1a2781d22e57aed88a8b16bcc6e7d3040eb0e08ef",
  "args": [
    "0xCB538225d84769a0A1da8CB88396360966f33d19",
    "0x98656048016a6b9f3566dac77371e56Ad4E0ca7c"
  ],
  "numDeployments": 1,
  "solcInputHash": "2ab48957edcdbd6aae4057970ab478a1",
  "bytecode": "0x60806040523480156200001157600080fd5b506040516200458238038062004582833981016040819052620000349162000269565b6200003f33620001a0565b600580546001600160a01b038085166001600160a01b031992831617909255600480549284169290911691909117815560408051633bf206a360e21b81529051730467F7E18a8Cb24ed55446925D9706f5557662D09263efc81a8c928082019260209290918290030181865af4158015620000be573d6000803e3d6000fd5b505050506040513d601f19601f82011682018060405250810190620000e49190620002a8565b600780546001600160a01b0319166001600160a01b039283161790556004805460408051632873b64760e11b8152905191909316926350e76c8e92818101926020929091908290030181865afa15801562000143573d6000803e3d6000fd5b505050506040513d601f19601f82011682018060405250810190620001699190620002a8565b600880546001600160a01b0319166001600160a01b0392909216919091179055620001986019610708620001f0565b5050620002cf565b600080546001600160a01b038381166001600160a01b0319831681178455604051919092169283917f8be0079c531659141344cd1fd0a4f28419497f9722a3daafe3b4186f6b6457e09190a35050565b42825560018201819055806200024c5760405162461bcd60e51b815260206004820152601460248201527f496e76616c69642045706f6368206c656e677468000000000000000000000000604482015260640160405180910390fd5b5050565b6001600160a01b03811681146200026657600080fd5b50565b600080604083850312156200027d57600080fd5b82516200028a8162000250565b60208401519092506200029d8162000250565b809150509250929050565b600060208284031215620002bb57600080fd5b8151620002c88162000250565b9392505050565b6142a380620002df6000396000f3fe608060405234801561001057600080fd5b50600436106101da5760003560e01c8063715018a611610104578063b1695201116100a2578063f23a6e6111610071578063f23a6e611461058b578063f2fde38b146105aa578063f7157af6146105bd578063fdc052a31461061f57600080fd5b8063b169520114610504578063bc197c811461052d578063c398bf3a14610565578063d73ca9d31461057857600080fd5b80637d42082c116100de5780637d42082c146103fd5780638da5cb5b14610410578063a476941c14610421578063a87430ba146104a757600080fd5b8063715018a6146103cd5780637c373a50146103d55780637c56b798146103ea57600080fd5b806341a0894d1161017c578063553c99121161014b578063553c99121461037157806358152d0714610384578063594dd432146103a7578063610bdf5d146103ba57600080fd5b806341a0894d146102ce5780634a9fefc7146102ee57806350e76c8e1461034b5780635218f4c41461035e57600080fd5b806319585612116101b8578063195856121461025257806325da499a146102675780632b956ff7146102925780632fd2b55f146102bb57600080fd5b806301e88208146101df57806301ffc9a71461021857806307973ccf1461023b575b600080fd5b6102026101ed3660046135c6565b601b6020526000908152604090205460ff1681565b60405161020f91906135f9565b60405180910390f35b61022b610226366004613621565b610632565b604051901515815260200161020f565b61024460015481565b60405190815260200161020f565b61026561026036600461364b565b610669565b005b60045461027a906001600160a01b031681565b6040516001600160a01b03909116815260200161020f565b6102446102a03660046135c6565b6001600160a01b031660009081526002602052604090205490565b6102656102c9366004613664565b6106c6565b6102e16102dc3660046135c6565b610815565b60405161020f919061367c565b61032e6102fc3660046135c6565b6001600160a01b0390811660009081526002602081815260408084209092015480845260039091529120549092911690565b604080519283526001600160a01b0390911660208301520161020f565b60085461027a906001600160a01b031681565b61022b61036c3660046136d4565b61096c565b60055461027a906001600160a01b031681565b601954601a54610392919082565b6040805192835260208301919091520161020f565b6102446103b5366004613700565b610a93565b60075461027a906001600160a01b031681565b610265610fea565b6103dd610ffe565b60405161020f9190613722565b6102656103f83660046135c6565b61100f565b61024461040b3660046136d4565b611167565b6000546001600160a01b031661027a565b600954600a54600d54600e54600f546010546040805180820182526011548152601254602080830191909152825160c081018452601354815260145491810191909152601554928101929092526016546060830152601754608083015260185460a08301526104939796959493929188565b60405161020f98979695949392919061376f565b6104e16104b53660046135c6565b60026020819052600091825260409091208054600182015491909201546001600160a01b039091169083565b604080519384526001600160a01b0390921660208401529082015260600161020f565b61027a61051236600461364b565b6003602052600090815260409020546001600160a01b031681565b61054c61053b36600461398d565b63bc197c8160e01b95945050505050565b6040516001600160e01b0319909116815260200161020f565b61024461057336600461364b565b6111a5565b610265610586366004613a3a565b6111b2565b61054c610599366004613abb565b63f23a6e6160e01b95945050505050565b6102656105b83660046135c6565b611271565b6106126105cb3660046135c6565b6040805180820190915260008082526020820152506001600160a01b03166000908152600b6020908152604091829020825180840190935280548352600101549082015290565b60405161020f9190613b23565b60065461027a906001600160a01b031681565b60006001600160e01b03198216630271189760e51b148061066357506301ffc9a760e01b6001600160e01b03198316145b92915050565b6001336000908152601b602052604090205460ff16600181111561068f5761068f6135e3565b146106b55760405162461bcd60e51b81526004016106ac90613b3a565b60405180910390fd5b336106c2600982846112e7565b5050565b6005546001600160a01b0316331461070f5760405162461bcd60e51b815260206004820152600c60248201526b155b985d5d1a1bdc9a5e995960a21b60448201526064016106ac565b6006546001600160a01b03161561075a5760405162461bcd60e51b815260206004820152600f60248201526e14d21508185b1c9958591e481cd95d608a1b60448201526064016106ac565b61076760208201826135c6565b600680546001600160a01b0319166001600160a01b03929092169190911790556107936012600a613c5c565b6107a09062d04850613c68565b6107b1906607fd10d7c82f0b613c7f565b8160200135146107fa5760405162461bcd60e51b8152602060048201526014602482015273125b98dbdc9c9958dd0814d21508185b5bdd5b9d60621b60448201526064016106ac565b610803816113a7565b610812600960208301356113b1565b50565b6001600160a01b038116600090815260026020908152604080832060030180548251818502810185019093528083526060949383018282801561087757602002820191906000526020600020905b815481526020019060010190808311610863575b50505050509050600081516001600160401b03811115610899576108996137fc565b6040519080825280602002602001820160405280156108de57816020015b60408051808201909152600080825260208201528152602001906001900390816108b75790505b50905060005b825181101561096457600083828151811061090157610901613c92565b6020908102919091018101516000818152600383526040908190205481518083019092528282526001600160a01b031692810183905285519193509085908590811061094f5761094f613c92565b602090810291909101015250506001016108e4565b509392505050565b600754604051634fa3d25d60e01b81526001600160a01b038481166004830152602482018490526000928392911690634fa3d25d90604401602060405180830381865afa1580156109c1573d6000803e3d6000fd5b505050506040513d601f19601f820116820180604052508101906109e59190613ca8565b9050806109f6576000915050610663565b600d5442118015610a0c57600192505050610663565b60075460405163493fe80f60e01b8152600481018690526000916001600160a01b03169063493fe80f90602401600060405180830381865afa158015610a56573d6000803e3d6000fd5b505050506040513d6000823e601f3d908101601f19168201604052610a7e9190810190613dc6565b600f5460409091015110935050505092915050565b600033610aa0818461140b565b50600754604051627eeac760e11b81526001600160a01b03838116600483015260248201879052600092169062fdd58e90604401602060405180830381865afa158015610af1573d6000803e3d6000fd5b505050506040513d601f19601f82011682018060405250810190610b159190613e88565b905060008111610b675760405162461bcd60e51b815260206004820152601d60248201527f4e6f2048535420746f6b656e2062616c616e6365206174206e6f6e636500000060448201526064016106ac565b610b736009601961162c565b60075460405163493fe80f60e01b8152600481018790526000918291610bf3916001600160a01b03169063493fe80f90602401600060405180830381865afa158015610bc3573d6000803e3d6000fd5b505050506040513d6000823e601f3d908101601f19168201604052610beb9190810190613dc6565b6009906117d0565b915091506000805b825151811015610d5957600083600001518281518110610c1d57610c1d613c92565b602090810291909101015180519091506001600160a01b0316610c825760405162461bcd60e51b815260206004820152601760248201527f496e76616c69642070726f6a656374206164647265737300000000000000000060448201526064016106ac565b80516001600160a01b039081166000908152600c60205260408082205481850151915163f59002e360e01b81529316928291849163f59002e391610ccc9160040190815260200190565b60c0604051808303816000875af1158015610ceb573d6000803e3d6000fd5b505050506040513d601f19601f82011682018060405250810190610d0f9190613ea1565b92509250508087600001518681518110610d2b57610d2b613c92565b6020908102919091010151604001528151610d47908790611940565b95505060019093019250610bfb915050565b506007546040516001600160a01b039091169063d8938f269087908b908890610d86908890602001613fd8565b6040516020818303038152906040526040518563ffffffff1660e01b8152600401610db4949392919061404d565b6020604051808303816000875af1158015610dd3573d6000803e3d6000fd5b505050506040513d601f19601f82011682018060405250810190610df79190613e88565b6006549096506001600160a01b03168315610f54576000610e256103e8610e1f87601961194c565b90611958565b9050610e318582611964565b94506000610e6b886001600160a01b0390811660009081526002602081815260408084209092015480845260039091529120549092911690565b9150506001600160a01b03811615610ef65760405163a9059cbb60e01b81526001600160a01b0382811660048301526024820184905284169063a9059cbb906044016020604051808303816000875af1158015610ecc573d6000803e3d6000fd5b505050506040513d601f19601f82011682018060405250810190610ef09190613ca8565b50610f51565b604051630852cd8d60e31b8152600481018390526001600160a01b038416906342966c6890602401600060405180830381600087803b158015610f3857600080fd5b505af1158015610f4c573d6000803e3d6000fd5b505050505b50505b6001600160a01b03811663a9059cbb87610f6e8786611940565b6040516001600160e01b031960e085901b1681526001600160a01b03909216600483015260248201526044016020604051808303816000875af1158015610fb9573d6000803e3d6000fd5b505050506040513d601f19601f82011682018060405250810190610fdd9190613ca8565b5050505050505092915050565b610ff2611970565b610ffc60006119ca565b565b606061100a601c611a1a565b905090565b6004546001600160a01b031633146110395760405162461bcd60e51b81526004016106ac90613b3a565b611044816001611a27565b60008190506000816001600160a01b031663800151526040518163ffffffff1660e01b8152600401602060405180830381865afa158015611089573d6000803e3d6000fd5b505050506040513d601f19601f820116820180604052508101906110ad91906140ba565b90506110ba601c82611a64565b506111628382846001600160a01b0316634c0f38c26040518163ffffffff1660e01b8152600401602060405180830381865afa1580156110fe573d6000803e3d6000fd5b505050506040513d601f19601f820116820180604052508101906111229190613e88565b6001600160a01b039283166000818152600b6020908152604080832094909455949093168352600c909352902080546001600160a01b0319169091179055565b505050565b6004546000906001600160a01b031633146111945760405162461bcd60e51b81526004016106ac90613b3a565b61119e838361140b565b9392505050565b60003361119e818461140b565b60b482101580156111c557506104388211155b6112115760405162461bcd60e51b815260206004820152601a60248201527f496e76616c69642065706f636873206c6f636b20706572696f6400000000000060448201526064016106ac565b3361121c818361140b565b506112296009601961162c565b601254600f5460085460009261124f9289928992919089906001600160a01b0316611a79565b905061126981608001516009611dee90919063ffffffff16565b505050505050565b611279611970565b6001600160a01b0381166112de5760405162461bcd60e51b815260206004820152602660248201527f4f776e61626c653a206e6577206f776e657220697320746865207a65726f206160448201526564647265737360d01b60648201526084016106ac565b610812816119ca565b808360010160008282546112fb9190613c7f565b90915550506001600160a01b03821660009081526002840160205260408120805490910361138857826001600160a01b0316634c0f38c26040518163ffffffff1660e01b8152600401602060405180830381865afa158015611361573d6000803e3d6000fd5b505050506040513d601f19601f820116820180604052508101906113859190613e88565b81555b8181600101600082825461139c9190613c7f565b909155505050505050565b6108128133611e0b565b8154156114005760405162461bcd60e51b815260206004820152601760248201527f546f74616c2066756e647320616c72656164792073657400000000000000000060448201526064016106ac565b815542600490910155565b6001600160a01b038216600090815260026020526040812080541561143257549050610663565b60018054906000611442836140d7565b90915550506040805160808101825260015481526001600160a01b038616602082015290810184905260608101600060405190808252806020026020018201604052801561149a578160200160208202803683370190505b5090526001600160a01b0385811660009081526002602081815260409283902085518155858201516001820180546001600160a01b03191691909616179094559184015190830155606083015180516114f9926003850192019061355a565b5050600154600090815260036020526040902080546001600160a01b0319166001600160a01b03871617905550821580159061153757506001548314155b801561155957506000838152600360205260409020546001600160a01b031615155b156115d6576000838152600360208181526040808420546001600160a01b0316845260028252808420600180549190940180548086018255908652948390209094019390935590548251868152918201527fa8b1f3acfefae9dbf6c7ffd8c16eda5db6950c383b34ca999d98f9998721c50c910160405180910390a15b600154604080519182526001600160a01b038616602083015281018490527fb58d46e66658e855773af8232237e606476d7f0ad98813c081b540e6f435ea3e9060600160405180910390a1505060015492915050565b600482015442908082116116405750505050565b600061164c8483611e97565b60408051808201909152855481526001860154602082015290915060009061167690838587611f92565b905060006116838661207d565b905082811115611702576000600161169b85846140f0565b6116a591906140f0565b905060018111156116d0576116c3846116be8382613c7f565b612089565b6116cd9084613c7f565b92505b6040805180820190915287548152600188015460208201526116f490838789611f92565b6116fe9084613c7f565b9250505b600061170d83612144565b6060810180516000909152909150611728600a8a01836122a7565b6000600a611737836007613c68565b6117419190614119565b60058b0154909150801561178b57600081611764670de0b6b3a764000085613c68565b61176e9190614119565b9050808c60060160008282546117849190613c7f565b9091555050505b818b600701600082825461179f9190613c7f565b909155506117bc90506117b283856140f0565b60088d0190612351565b505050506004909601939093555050505050565b60006118126040518060e00160405280606081526020016000815260200160008152602001600081526020016000815260200160008152602001606081525090565b600984015460009080156118a05760005b85515181101561186e5761185a878760000151838151811061184757611847613c92565b6020026020010151886020015185612380565b6118649084613c7f565b9250600101611823565b50600886015482111561188357600886015491505b8186600801600001600082825461189a91906140f0565b90915550505b600686015480158015906118b75750808660400151105b1561192e576000670de0b6b3a764000087608001518860400151846118dc91906140f0565b6118e69190613c68565b6118f09190614119565b9050808860070154101561190657876007015493505b8088600701600082825461191a91906140f0565b9091555061192a90508185613c7f565b9350505b60408601526020850152949293505050565b600061119e8284613c7f565b600061119e8284613c68565b600061119e8284614119565b600061119e82846140f0565b6000546001600160a01b03163314610ffc5760405162461bcd60e51b815260206004820181905260248201527f4f776e61626c653a2063616c6c6572206973206e6f7420746865206f776e657260448201526064016106ac565b600080546001600160a01b038381166001600160a01b0319831681178455604051919092169283917f8be0079c531659141344cd1fd0a4f28419497f9722a3daafe3b4186f6b6457e09190a35050565b6060600061119e836124d7565b6001600160a01b0382166000908152601b60205260409020805482919060ff191660018381811115611a5b57611a5b6135e3565b02179055505050565b600061119e836001600160a01b038416612533565b611ab96040518060e00160405280606081526020016000815260200160008152602001600081526020016000815260200160008152602001606081525090565b33600080808080611acb8d8d8a612582565b91509150600a81518351611adf9190613c7f565b10611b2c5760405162461bcd60e51b815260206004820152601760248201527f4d61782053465420746f6b656e7320657863656564656400000000000000000060448201526064016106ac565b60005b8c811015611d595760008e8e83818110611b4b57611b4b613c92565b905060600201803603810190611b61919061412d565b60065481519192506001600160a01b03908116911603611b92576020810151611b8b908690611940565b9450611d46565b80516001600160a01b03808c16911603611cc5576008546040808301519051627eeac760e11b81526000926001600160a01b03169162fdd58e91611bee918d916004016001600160a01b03929092168252602082015260400190565b602060405180830381865afa158015611c0b573d6000803e3d6000fd5b505050506040513d601f19601f82011682018060405250810190611c2f9190613e88565b905081602001518114611c845760405162461bcd60e51b815260206004820152601b60248201527f4d7573742073656e6420616c6c204c6b5348542062616c616e6365000000000060448201526064016106ac565b611c8e8682611940565b95508160400151848881518110611ca757611ca7613c92565b602090810291909101015286611cbc816140d7565b97505050611d46565b8051611cd390601c906126ef565b15611d095780848881518110611ceb57611ceb613c92565b60200260200101819052508680611d01906140d7565b975050611d46565b60405162461bcd60e51b815260206004820152601260248201527124b73b30b634b21029b2b73a102a37b5b2b760711b60448201526064016106ac565b611d508189612711565b50600101611b2f565b50600754604051637eed5c1160e11b81526001600160a01b039091169063fddab82290611d969085908f908f908f908a9089908f90600401614171565b6000604051808303816000875af1158015611db5573d6000803e3d6000fd5b505050506040513d6000823e601f3d908101601f19168201604052611ddd9190810190613dc6565b9d9c50505050505050505050505050565b80826005016000828254611e029190613c7f565b90915550505050565b611e1860208301836135c6565b6040516323b872dd60e01b81526001600160a01b0383811660048301523060248301526020850135604483015291909116906323b872dd906064015b6020604051808303816000875af1158015611e73573d6000803e3d6000fd5b505050506040513d601f19601f820116820180604052508101906111629190613ca8565b8154600090611ee85760405162461bcd60e51b815260206004820152601960248201527f496e76616c69642067656e657369732074696d657374616d700000000000000060448201526064016106ac565b60008211611f2c5760405162461bcd60e51b81526020600482015260116024820152700496e76616c69642074696d657374616d7607c1b60448201526064016106ac565b6000836001015411611f775760405162461bcd60e51b8152602060048201526014602482015273092dcecc2d8d2c8408ae0dec6d040d8cadccee8d60631b60448201526064016106ac565b60018301548354611f8890846140f0565b61119e9190614119565b60008080611fa087876128d1565b91509150600080858411158015611fb75750828611155b15611fc6575084905082612056565b868411158015611fd65750828711155b15611ff55782861115611fe95782611feb565b855b9150869050612056565b60405162461bcd60e51b815260206004820152603060248201527f526f757465722e5f636f6d7075746545646765456d697373696f6e733a20496e60448201526f76616c69642074696d657374616d707360801b60648201526084016106ac565b61206e8861206483856140f0565b8b60200151612917565b9450505050505b949350505050565b60006106638242611e97565b60008282116120d05760405162461bcd60e51b8152602060048201526013602482015272496e76616c69642065706f63682072616e676560681b60448201526064016106ac565b60006120db84612938565b905060006120e884612938565b905060006120fd670de000cd866f8000612966565b61210783856141cb565b61211a906893fa92954c28c89b946141f2565b6121249190614222565b905061213a612135826000196141f2565b612998565b9695505050505050565b61217d6040518060c001604052806000815260200160008152602001600081526020016000815260200160008152602001600081525090565b600061271061218e610bbd82614250565b61219e9063ffffffff1685613c68565b6121a89190614119565b905060006127106121bb61090184613c68565b6121c59190614119565b905060006127106121d86105ff85613c68565b6121e29190614119565b905060006127106121f561067786613c68565b6121ff9190614119565b9050600061271061221261032087613c68565b61221c9190614119565b9050600061271061222f6102bc88613c68565b6122399190614119565b9050600081838561224a888a613c7f565b6122549190613c7f565b61225e9190613c7f565b6122689190613c7f565b612272908a6140f0565b6040805160c08101825297885260208801919091528601949094526060850192909252608084015260a0830152509392505050565b8051825483906000906122bb908490613c7f565b909155505060208101516001830180546000906122d9908490613c7f565b909155505060408101516002830180546000906122f7908490613c7f565b90915550506060810151600383018054600090612315908490613c7f565b90915550506080810151600483018054600090612333908490613c7f565b909155505060a0810151600583018054600090611e02908490613c7f565b808260000160008282546123659190613c7f565b9250508190555080826001016000828254611e029190613c7f565b6000818310158061239357506001850154155b156123a057506000612075565b83516001600160a01b03908116600090815260038701602052604090205416806124165760405162461bcd60e51b815260206004820152602160248201527f50726f6a656374204164647265737320666f7220746f6b656e206e6f742073656044820152601d60fa1b60648201526084016106ac565b6001600160a01b03811660009081526002870160209081526040909120805491870151909110156124895760405162461bcd60e51b815260206004820152601e60248201527f50726f6a65637420746f6b656e20616d6f756e7420746f6f206c61726765000060448201526064016106ac565b600061249586866140f0565b9050600088600101548360010154836124ae9190613c68565b6124b89190614119565b835460208a0151919250906124cd9083613c68565b61206e9190614119565b60608160000180548060200260200160405190810160405280929190818152602001828054801561252757602002820191906000526020600020905b815481526020019060010190808311612513575b50505050509050919050565b600081815260018301602052604081205461257a57508154600181810184556000848152602080822090930184905584548482528286019093526040902091909155610663565b506000610663565b60608060008060005b868110156126275760008888838181106125a7576125a7613c92565b9050606002018036038101906125bd919061412d565b60065481519192506001600160a01b0391821691161461261e5780516001600160a01b038089169116036125fd57826125f5816140d7565b93505061261e565b805161260b90601c906126ef565b15611d09578361261a816140d7565b9450505b5060010161258b565b50816001600160401b03811115612640576126406137fc565b60405190808252806020026020018201604052801561269e57816020015b61268b604051806060016040528060006001600160a01b0316815260200160008152602001600081525090565b81526020019060019003908161265e5790505b509350806001600160401b038111156126b9576126b96137fc565b6040519080825280602002602001820160405280156126e2578160200160208202803683370190505b5092505050935093915050565b6001600160a01b0381166000908152600183016020526040812054151561119e565b81516001600160a01b03166127fa573482602001511461278e5760405162461bcd60e51b815260206004820152603260248201527f4578706563746564207061796d656e7420616d6f756e74206d75737420657175604482015271185b081d1a19481cd95b9d08185b5bdd5b9d60721b60648201526084016106ac565b6001600160a01b03811633146106c25760405162461bcd60e51b815260206004820152602b60248201527f43616e2072656365697665206e6174697665207061796d656e74206f6e6c792060448201526a333937b69031b0b63632b960a91b60648201526084016106ac565b816040015160000361284957815160208301516040516323b872dd60e01b81526001600160a01b03848116600483015230602483015260448201929092529116906323b872dd90606401611e54565b815160408084015160208501519151637921219560e11b81526001600160a01b0385811660048301523060248301526044820192909252606481019290925260a06084830152600060a48301529091169063f242432a9060c401600060405180830381600087803b1580156128bd57600080fd5b505af1158015611269573d6000803e3d6000fd5b6000808360200151836128e49190613c68565b84516128f09190613c7f565b915060018460200151836129049190613c7f565b61290e91906140f0565b90509250929050565b60008183612924866129c2565b61292e9190613c68565b6120759190614119565b6000610663670de000cd866f800061294f84612a05565b61296190670de0b6b3a76400006141f2565b612a32565b60006714057b7ef767814f670de0b6b3a764000061298384612a74565b028161299157612991614103565b0592915050565b6000808212156129be57604051635afb78ad60e11b8152600481018390526024016106ac565b5090565b6000806129da670de000cd866f800061296185612a05565b905061119e670de0b6b3a76400006129fb836893fa92954c28c89b946141f2565b6121359190614222565b60006001600160ff1b038211156129be5760405163322efb3360e21b8152600481018390526024016106ac565b600082600003612a5a578115612a49576000612a53565b670de0b6b3a76400005b9050610663565b61119e612a6f612a6985612a74565b84612b59565b612c1e565b6000808213612a995760405163309fa7dd60e11b8152600481018390526024016106ac565b6000670de0b6b3a76400008312612ab257506001612acc565b6000199050826ec097ce7bc90715b34b9f10000000000492505b6000612ae1670de0b6b3a76400008505612cb4565b670de0b6b3a764000081029350905083811d670de0b6b3a763ffff198101612b0b57505002919050565b6706f05b59d3b200005b6000811315612b5057670de0b6b3a7640000828002059150671bc16d674ec800008212612b48579384019360019190911d905b60011d612b15565b50505002919050565b6000600160ff1b831480612b705750600160ff1b82145b15612b8e57604051630d01a11b60e21b815260040160405180910390fd5b60008060008512612b9f5784612ba4565b846000035b915060008412612bb45783612bb9565b836000035b90506000612bc78383612d98565b90506001600160ff1b03811115612bf45760405163bf79e8d960e01b8152600481018290526024016106ac565b600019808713908613808218600114612c0d5782612c12565b826000035b98975050505050505050565b600080821215612c6b5768033dd1780914b9711419821215612c4257506000919050565b612c4e82600003612c1e565b6ec097ce7bc90715b34b9f10000000008161299157612991614103565b680a688906bd8b0000008212612c975760405163e69458f960e01b8152600481018390526024016106ac565b670de0b6b3a7640000604083901b0461119e81612e5e565b919050565b6000600160801b8210612cd457608091821c91612cd19082613c7f565b90505b680100000000000000008210612cf757604091821c91612cf49082613c7f565b90505b6401000000008210612d1657602091821c91612d139082613c7f565b90505b620100008210612d3357601091821c91612d309082613c7f565b90505b6101008210612d4f57600891821c91612d4c9082613c7f565b90505b60108210612d6a57600491821c91612d679082613c7f565b90505b60048210612d8557600291821c91612d829082613c7f565b90505b60028210612caf57610663600182613c7f565b60008080600019848609848602925082811083820303915050670de0b6b3a76400008110612ddc5760405163698d9a0160e11b8152600481018290526024016106ac565b600080670de0b6b3a764000086880991506706f05b59d3b1ffff8211905082600003612e1a5780670de0b6b3a7640000850401945050505050610663565b620400008285030493909111909103600160ee1b02919091177faccb18165bd6fe31ae1cf318dc5b51eee0e1ba569b88cd74c1773b91fac106690201905092915050565b600160bf1b678000000000000000821615612e825768016a09e667f3bcc9090260401c5b674000000000000000821615612ea1576801306fe0a31b7152df0260401c5b672000000000000000821615612ec0576801172b83c7d517adce0260401c5b671000000000000000821615612edf5768010b5586cf9890f62a0260401c5b670800000000000000821615612efe576801059b0d31585743ae0260401c5b670400000000000000821615612f1d57680102c9a3e778060ee70260401c5b670200000000000000821615612f3c5768010163da9fb33356d80260401c5b670100000000000000821615612f5b57680100b1afa5abcbed610260401c5b6680000000000000821615612f795768010058c86da1c09ea20260401c5b6640000000000000821615612f97576801002c605e2e8cec500260401c5b6620000000000000821615612fb557680100162f3904051fa10260401c5b6610000000000000821615612fd3576801000b175effdc76ba0260401c5b6608000000000000821615612ff157680100058ba01fb9f96d0260401c5b660400000000000082161561300f5768010002c5cc37da94920260401c5b660200000000000082161561302d576801000162e525ee05470260401c5b660100000000000082161561304b5768010000b17255775c040260401c5b65800000000000821615613068576801000058b91b5bc9ae0260401c5b6540000000000082161561308557680100002c5c89d5ec6d0260401c5b652000000000008216156130a25768010000162e43f4f8310260401c5b651000000000008216156130bf57680100000b1721bcfc9a0260401c5b650800000000008216156130dc5768010000058b90cf1e6e0260401c5b650400000000008216156130f9576801000002c5c863b73f0260401c5b6502000000000082161561311657680100000162e430e5a20260401c5b65010000000000821615613133576801000000b1721835510260401c5b64800000000082161561314f57680100000058b90c0b490260401c5b64400000000082161561316b5768010000002c5c8601cc0260401c5b642000000000821615613187576801000000162e42fff00260401c5b6410000000008216156131a35768010000000b17217fbb0260401c5b6408000000008216156131bf576801000000058b90bfce0260401c5b6404000000008216156131db57680100000002c5c85fe30260401c5b6402000000008216156131f75768010000000162e42ff10260401c5b64010000000082161561321357680100000000b17217f80260401c5b638000000082161561322e5768010000000058b90bfc0260401c5b6340000000821615613249576801000000002c5c85fe0260401c5b632000000082161561326457680100000000162e42ff0260401c5b631000000082161561327f576801000000000b17217f0260401c5b630800000082161561329a57680100000000058b90c00260401c5b63040000008216156132b55768010000000002c5c8600260401c5b63020000008216156132d0576801000000000162e4300260401c5b63010000008216156132eb5768010000000000b172180260401c5b62800000821615613305576801000000000058b90c0260401c5b6240000082161561331f57680100000000002c5c860260401c5b622000008216156133395768010000000000162e430260401c5b6210000082161561335357680100000000000b17210260401c5b6208000082161561336d5768010000000000058b910260401c5b62040000821615613387576801000000000002c5c80260401c5b620200008216156133a157680100000000000162e40260401c5b620100008216156133bb576801000000000000b1720260401c5b6180008216156133d457680100000000000058b90260401c5b6140008216156133ed5768010000000000002c5d0260401c5b612000821615613406576801000000000000162e0260401c5b61100082161561341f5768010000000000000b170260401c5b610800821615613438576801000000000000058c0260401c5b61040082161561345157680100000000000002c60260401c5b61020082161561346a57680100000000000001630260401c5b61010082161561348357680100000000000000b10260401c5b608082161561349b57680100000000000000590260401c5b60408216156134b3576801000000000000002c0260401c5b60208216156134cb57680100000000000000160260401c5b60108216156134e3576801000000000000000b0260401c5b60088216156134fb57680100000000000000060260401c5b600482161561351357680100000000000000030260401c5b600282161561352b57680100000000000000010260401c5b600182161561354357680100000000000000010260401c5b670de0b6b3a76400000260409190911c60bf031c90565b828054828255906000526020600020908101928215613595579160200282015b8281111561359557825182559160200191906001019061357a565b506129be9291505b808211156129be576000815560010161359d565b6001600160a01b038116811461081257600080fd5b6000602082840312156135d857600080fd5b813561119e816135b1565b634e487b7160e01b600052602160045260246000fd5b602081016002831061361b57634e487b7160e01b600052602160045260246000fd5b91905290565b60006020828403121561363357600080fd5b81356001600160e01b03198116811461119e57600080fd5b60006020828403121561365d57600080fd5b5035919050565b60006040828403121561367657600080fd5b50919050565b602080825282518282018190526000919060409081850190868401855b828110156136c7578151805185528601516001600160a01b0316868501529284019290850190600101613699565b5091979650505050505050565b600080604083850312156136e757600080fd5b82356136f2816135b1565b946020939093013593505050565b6000806040838503121561371357600080fd5b50508035926020909101359150565b6020808252825182820181905260009190848201906040850190845b818110156137635783516001600160a01b03168352928401929184019160010161373e565b50909695505050505050565b60006101c0820190508982528860208301528760408301528660608301528560808301528460a08301526137b060c083018580518252602090810151910152565b8251610100830152602083015161012083015260408301516101408301526060830151610160830152608083015161018083015260a08301516101a08301529998505050505050505050565b634e487b7160e01b600052604160045260246000fd5b604051606081016001600160401b0381118282101715613834576138346137fc565b60405290565b60405160e081016001600160401b0381118282101715613834576138346137fc565b604051601f8201601f191681016001600160401b0381118282101715613884576138846137fc565b604052919050565b60006001600160401b038211156138a5576138a56137fc565b5060051b60200190565b600082601f8301126138c057600080fd5b813560206138d56138d08361388c565b61385c565b8083825260208201915060208460051b8701019350868411156138f757600080fd5b602086015b8481101561391357803583529183019183016138fc565b509695505050505050565b600082601f83011261392f57600080fd5b81356001600160401b03811115613948576139486137fc565b61395b601f8201601f191660200161385c565b81815284602083860101111561397057600080fd5b816020850160208301376000918101602001919091529392505050565b600080600080600060a086880312156139a557600080fd5b85356139b0816135b1565b945060208601356139c0816135b1565b935060408601356001600160401b03808211156139dc57600080fd5b6139e889838a016138af565b945060608801359150808211156139fe57600080fd5b613a0a89838a016138af565b93506080880135915080821115613a2057600080fd5b50613a2d8882890161391e565b9150509295509295909350565b60008060008060608587031215613a5057600080fd5b84356001600160401b0380821115613a6757600080fd5b818701915087601f830112613a7b57600080fd5b813581811115613a8a57600080fd5b886020606083028501011115613a9f57600080fd5b6020928301999098509187013596604001359550909350505050565b600080600080600060a08688031215613ad357600080fd5b8535613ade816135b1565b94506020860135613aee816135b1565b9350604086013592506060860135915060808601356001600160401b03811115613b1757600080fd5b613a2d8882890161391e565b815181526020808301519082015260408101610663565b6020808252600e908201526d139bdd08185d5d1a1bdc9a5e995960921b604082015260600190565b634e487b7160e01b600052601160045260246000fd5b600181815b80851115613bb3578160001904821115613b9957613b99613b62565b80851615613ba657918102915b93841c9390800290613b7d565b509250929050565b600082613bca57506001610663565b81613bd757506000610663565b8160018114613bed5760028114613bf757613c13565b6001915050610663565b60ff841115613c0857613c08613b62565b50506001821b610663565b5060208310610133831016604e8410600b8410161715613c36575081810a610663565b613c408383613b78565b8060001904821115613c5457613c54613b62565b029392505050565b600061119e8383613bbb565b808202811582820484141761066357610663613b62565b8082018082111561066357610663613b62565b634e487b7160e01b600052603260045260246000fd5b600060208284031215613cba57600080fd5b8151801515811461119e57600080fd5b600082601f830112613cdb57600080fd5b81516020613ceb6138d08361388c565b82815260609283028501820192828201919087851115613d0a57600080fd5b8387015b85811015613d5a5781818a031215613d265760008081fd5b613d2e613812565b8151613d39816135b1565b81528186015186820152604080830151908201528452928401928101613d0e565b5090979650505050505050565b600082601f830112613d7857600080fd5b81516020613d886138d08361388c565b8083825260208201915060208460051b870101935086841115613daa57600080fd5b602086015b848110156139135780518352918301918301613daf565b600060208284031215613dd857600080fd5b81516001600160401b0380821115613def57600080fd5b9083019060e08286031215613e0357600080fd5b613e0b61383a565b825182811115613e1a57600080fd5b613e2687828601613cca565b8252506020830151602082015260408301516040820152606083015160608201526080830151608082015260a083015160a082015260c083015182811115613e6d57600080fd5b613e7987828601613d67565b60c08301525095945050505050565b600060208284031215613e9a57600080fd5b5051919050565b600080600083850360c0811215613eb757600080fd5b6060811215613ec557600080fd5b613ecd613812565b855181526020860151613edf816135b1565b806020830152506040808701518183015281955080605f1984011215613f0457600080fd5b8051925080830191508282106001600160401b0383111715613f2857613f286137fc565b52606085015181526080850151602082015260a09094015192959394509192915050565b60008151808452602080850194506020840160005b83811015613f9c57815180516001600160a01b0316885283810151848901526040908101519088015260609096019590820190600101613f61565b509495945050505050565b60008151808452602080850194506020840160005b83811015613f9c57815187529582019590820190600101613fbc565b602081526000825160e06020840152613ff5610100840182613f4c565b9050602084015160408401526040840151606084015260608401516080840152608084015160a084015260a084015160c084015260c0840151601f198483030160e08501526140448282613fa7565b95945050505050565b60018060a01b03851681526000602085602084015284604084015260806060840152835180608085015260005b818110156140965785810183015185820160a00152820161407a565b50600060a0828601015260a0601f19601f8301168501019250505095945050505050565b6000602082840312156140cc57600080fd5b815161119e816135b1565b6000600182016140e9576140e9613b62565b5060010190565b8181038181111561066357610663613b62565b634e487b7160e01b600052601260045260246000fd5b60008261412857614128614103565b500490565b60006060828403121561413f57600080fd5b614147613812565b8235614152816135b1565b8152602083810135908201526040928301359281019290925250919050565b60e08152600061418460e083018a613f4c565b88602084015287604084015286606084015285608084015282810360a08401526141ae8186613fa7565b91505060018060a01b03831660c083015298975050505050505050565b81810360008312801583831316838312821617156141eb576141eb613b62565b5092915050565b80820260008212600160ff1b8414161561420e5761420e613b62565b818105831482151761066357610663613b62565b60008261423157614231614103565b600160ff1b82146000198414161561424b5761424b613b62565b500590565b63ffffffff8281168282160390808211156141eb576141eb613b6256fea2646970667358221220e815d4473ae5d62355e5447155476d6110e7b4c701771da5623718a77d29226864736f6c63430008180033",
  "libraries": {
    "NewHousingStakingToken": "0x0467F7E18a8Cb24ed55446925D9706f5557662D0"
  },
  "devdoc": {
    "details": "Main contract for the SmartHousing ecosystem. Manages HousingProjects, users, and staking.",
    "kind": "dev",
    "methods": {
      "addProject(address)": {
        "params": {
          "projectAddress": "Address of the new project."
        }
      },
      "addProjectRent(uint256)": {
        "params": {
          "amount": "Amount of rent received."
        }
      },
      "claimRewards(uint256,uint256)": {
        "params": {
          "hstNonce": "Nonce of the HST token.",
          "referrerId": "Referral ID of the referrer."
        },
        "returns": {
          "newHstNonce": "New HST nonce."
        }
      },
      "constructor": {
        "params": {
          "coinbase": "Address of the coinbase.",
          "projectFunding": "Address of the ProjectFunding contract."
        }
      },
      "createRefID(uint256)": {
        "params": {
          "referrerId": "The ID of the referrer."
        },
        "returns": {
          "_0": "The ID of the registered user."
        }
      },
      "createRefIDViaProxy(address,uint256)": {
        "params": {
          "referrerId": "Referral ID of the referrer.",
          "userAddr": "Address of the user."
        },
        "returns": {
          "_0": "User ID."
        }
      },
      "getReferrals(address)": {
        "params": {
          "userAddress": "The address of the user."
        },
        "returns": {
          "_0": "referrals An array of `ReferralInfo` structs representing the user's referrals."
        }
      },
      "getReferrer(address)": {
        "params": {
          "userAddress": "The address of the user."
        },
        "returns": {
          "referrerAddress": "The address of the referrer, address(0) if none.",
          "referrerId": "The ID of the referrer, 0 if none."
        }
      },
      "getUserId(address)": {
        "params": {
          "userAddress": "The address of the user."
        },
        "returns": {
          "userId": "The ID of the user."
        }
      },
      "owner()": {
        "details": "Returns the address of the current owner."
      },
      "projectDets(address)": {
        "params": {
          "project": "Address of the project."
        },
        "returns": {
          "_0": "Project distribution data."
        }
      },
      "projectsToken()": {
        "returns": {
          "_0": "Array of project token addresses."
        }
      },
      "renounceOwnership()": {
        "details": "Leaves the contract without owner. It will not be possible to call `onlyOwner` functions anymore. Can only be called by the current owner. NOTE: Renouncing ownership will leave the contract without an owner, thereby removing any functionality that is only available to the owner."
      },
      "setUpSHT((address,uint256))": {
        "params": {
          "payment": "Token payment details for SHT setup."
        }
      },
      "stake((address,uint256,uint256)[],uint256,uint256)": {
        "params": {
          "epochsLock": "Lock period in epochs.",
          "referrerId": "Referral ID of the referrer.",
          "stakingTokens": "Array of token payments for staking."
        }
      },
      "supportsInterface(bytes4)": {
        "details": "See {IERC165-supportsInterface}."
      },
      "transferOwnership(address)": {
        "details": "Transfers ownership of the contract to a new account (`newOwner`). Can only be called by the current owner."
      },
      "userCanClaim(address,uint256)": {
        "params": {
          "tokenNonce": "Nonce of the token.",
          "user": "Address of the user."
        },
        "returns": {
          "_0": "True if the user can claim rewards, otherwise false."
        }
      }
    },
    "title": "SmartHousing",
    "version": 1
  },
  "userdoc": {
    "errors": {
      "PRBMathSD59x18__Exp2InputTooBig(int256)": [
        {
          "notice": "Emitted when the input is greater than 192."
        }
      ],
      "PRBMathSD59x18__LogInputTooSmall(int256)": [
        {
          "notice": "Emitted when the input is less than or equal to zero."
        }
      ],
      "PRBMathSD59x18__MulInputTooSmall()": [
        {
          "notice": "Emitted when one of the inputs is MIN_SD59x18."
        }
      ],
      "PRBMathSD59x18__MulOverflow(uint256)": [
        {
          "notice": "Emitted when the intermediary absolute result overflows SD59x18."
        }
      ],
      "PRBMath__MulDivFixedPointOverflow(uint256)": [
        {
          "notice": "Emitted when the result overflows uint256."
        }
      ],
      "ToInt256CastOverflow(uint256)": [
        {
          "notice": "Emitted when trying to convert a uint256 number that doesn't fit within int256."
        }
      ],
      "ToUint256CastOverflow(int256)": [
        {
          "notice": "Emitted when trying to convert a int256 number that doesn't fit within uint256."
        }
      ]
    },
    "kind": "user",
    "methods": {
      "addProject(address)": {
        "notice": "Add a new project and set its permissions."
      },
      "addProjectRent(uint256)": {
        "notice": "Add rent to a project and update distribution storage."
      },
      "claimRewards(uint256,uint256)": {
        "notice": "Claim rewards and update token attributes."
      },
      "constructor": {
        "notice": "Constructor to initialize SmartHousing."
      },
      "createRefID(uint256)": {
        "notice": "Register a new user or get the referral ID if already registered."
      },
      "createRefIDViaProxy(address,uint256)": {
        "notice": "Register a new user or get the referral ID if already registered."
      },
      "getReferrals(address)": {
        "notice": "Retrieves the referrals of a user."
      },
      "getReferrer(address)": {
        "notice": "Gets the referrer and referrer ID of a user."
      },
      "getUserId(address)": {
        "notice": "Gets the user ID for a given address."
      },
      "projectDets(address)": {
        "notice": "Get project distribution details."
      },
      "projectsToken()": {
        "notice": "Get the list of project tokens."
      },
      "setUpSHT((address,uint256))": {
        "notice": "Setup SHT token and distribute funds."
      },
      "stake((address,uint256,uint256)[],uint256,uint256)": {
        "notice": "Stake tokens for rewards."
      },
      "userCanClaim(address,uint256)": {
        "notice": "Check if a user can claim rewards."
      }
    },
    "notice": "SmartHousing enables real estate tokenization for fractional ownership and investment.",
    "version": 1
  },
  "storageLayout": {
    "storage": [
      {
        "astId": 7,
        "contract": "contracts/main/SmartHousing.sol:SmartHousing",
        "label": "_owner",
        "offset": 0,
        "slot": "0",
        "type": "t_address"
      },
      {
        "astId": 6894,
        "contract": "contracts/main/SmartHousing.sol:SmartHousing",
        "label": "userCount",
        "offset": 0,
        "slot": "1",
        "type": "t_uint256"
      },
      {
        "astId": 6899,
        "contract": "contracts/main/SmartHousing.sol:SmartHousing",
        "label": "users",
        "offset": 0,
        "slot": "2",
        "type": "t_mapping(t_address,t_struct(User)6892_storage)"
      },
      {
        "astId": 6903,
        "contract": "contracts/main/SmartHousing.sol:SmartHousing",
        "label": "userIdToAddress",
        "offset": 0,
        "slot": "3",
        "type": "t_mapping(t_uint256,t_address)"
      },
      {
        "astId": 6004,
        "contract": "contracts/main/SmartHousing.sol:SmartHousing",
        "label": "projectFundingAddress",
        "offset": 0,
        "slot": "4",
        "type": "t_address"
      },
      {
        "astId": 6006,
        "contract": "contracts/main/SmartHousing.sol:SmartHousing",
        "label": "coinbaseAddress",
        "offset": 0,
        "slot": "5",
        "type": "t_address"
      },
      {
        "astId": 6008,
        "contract": "contracts/main/SmartHousing.sol:SmartHousing",
        "label": "shtTokenAddress",
        "offset": 0,
        "slot": "6",
        "type": "t_address"
      },
      {
        "astId": 6011,
        "contract": "contracts/main/SmartHousing.sol:SmartHousing",
        "label": "hst",
        "offset": 0,
        "slot": "7",
        "type": "t_contract(HousingStakingToken)5897"
      },
      {
        "astId": 6014,
        "contract": "contracts/main/SmartHousing.sol:SmartHousing",
        "label": "lkSht",
        "offset": 0,
        "slot": "8",
        "type": "t_contract(LkSHT)8081"
      },
      {
        "astId": 6017,
        "contract": "contracts/main/SmartHousing.sol:SmartHousing",
        "label": "distributionStorage",
        "offset": 0,
        "slot": "9",
        "type": "t_struct(Storage)7236_storage"
      },
      {
        "astId": 6020,
        "contract": "contracts/main/SmartHousing.sol:SmartHousing",
        "label": "epochs",
        "offset": 0,
        "slot": "25",
        "type": "t_struct(Storage)4892_storage"
      },
      {
        "astId": 6028,
        "contract": "contracts/main/SmartHousing.sol:SmartHousing",
        "label": "permissions",
        "offset": 0,
        "slot": "27",
        "type": "t_mapping(t_address,t_enum(Permissions)6023)"
      },
      {
        "astId": 6031,
        "contract": "contracts/main/SmartHousing.sol:SmartHousing",
        "label": "_projectsToken",
        "offset": 0,
        "slot": "28",
        "type": "t_struct(AddressSet)3435_storage"
      }
    ],
    "types": {
      "t_address": {
        "encoding": "inplace",
        "label": "address",
        "numberOfBytes": "20"
      },
      "t_array(t_bytes32)dyn_storage": {
        "base": "t_bytes32",
        "encoding": "dynamic_array",
        "label": "bytes32[]",
        "numberOfBytes": "32"
      },
      "t_array(t_uint256)dyn_storage": {
        "base": "t_uint256",
        "encoding": "dynamic_array",
        "label": "uint256[]",
        "numberOfBytes": "32"
      },
      "t_bytes32": {
        "encoding": "inplace",
        "label": "bytes32",
        "numberOfBytes": "32"
      },
      "t_contract(HousingStakingToken)5897": {
        "encoding": "inplace",
        "label": "contract HousingStakingToken",
        "numberOfBytes": "20"
      },
      "t_contract(LkSHT)8081": {
        "encoding": "inplace",
        "label": "contract LkSHT",
        "numberOfBytes": "20"
      },
      "t_enum(Permissions)6023": {
        "encoding": "inplace",
        "label": "enum SmartHousing.Permissions",
        "numberOfBytes": "1"
      },
      "t_mapping(t_address,t_address)": {
        "encoding": "mapping",
        "key": "t_address",
        "label": "mapping(address => address)",
        "numberOfBytes": "32",
        "value": "t_address"
      },
      "t_mapping(t_address,t_enum(Permissions)6023)": {
        "encoding": "mapping",
        "key": "t_address",
        "label": "mapping(address => enum SmartHousing.Permissions)",
        "numberOfBytes": "32",
        "value": "t_enum(Permissions)6023"
      },
      "t_mapping(t_address,t_struct(ProjectDistributionData)7241_storage)": {
        "encoding": "mapping",
        "key": "t_address",
        "label": "mapping(address => struct Distribution.ProjectDistributionData)",
        "numberOfBytes": "32",
        "value": "t_struct(ProjectDistributionData)7241_storage"
      },
      "t_mapping(t_address,t_struct(User)6892_storage)": {
        "encoding": "mapping",
        "key": "t_address",
        "label": "mapping(address => struct UserModule.User)",
        "numberOfBytes": "32",
        "value": "t_struct(User)6892_storage"
      },
      "t_mapping(t_bytes32,t_uint256)": {
        "encoding": "mapping",
        "key": "t_bytes32",
        "label": "mapping(bytes32 => uint256)",
        "numberOfBytes": "32",
        "value": "t_uint256"
      },
      "t_mapping(t_uint256,t_address)": {
        "encoding": "mapping",
        "key": "t_uint256",
        "label": "mapping(uint256 => address)",
        "numberOfBytes": "32",
        "value": "t_address"
      },
      "t_struct(AddressSet)3435_storage": {
        "encoding": "inplace",
        "label": "struct EnumerableSet.AddressSet",
        "members": [
          {
            "astId": 3434,
            "contract": "contracts/main/SmartHousing.sol:SmartHousing",
            "label": "_inner",
            "offset": 0,
            "slot": "0",
            "type": "t_struct(Set)3120_storage"
          }
        ],
        "numberOfBytes": "64"
      },
      "t_struct(ProjectDistributionData)7241_storage": {
        "encoding": "inplace",
        "label": "struct Distribution.ProjectDistributionData",
        "members": [
          {
            "astId": 7238,
            "contract": "contracts/main/SmartHousing.sol:SmartHousing",
            "label": "maxShares",
            "offset": 0,
            "slot": "0",
            "type": "t_uint256"
          },
          {
            "astId": 7240,
            "contract": "contracts/main/SmartHousing.sol:SmartHousing",
            "label": "receivedRents",
            "offset": 0,
            "slot": "1",
            "type": "t_uint256"
          }
        ],
        "numberOfBytes": "64"
      },
      "t_struct(Set)3120_storage": {
        "encoding": "inplace",
        "label": "struct EnumerableSet.Set",
        "members": [
          {
            "astId": 3115,
            "contract": "contracts/main/SmartHousing.sol:SmartHousing",
            "label": "_values",
            "offset": 0,
            "slot": "0",
            "type": "t_array(t_bytes32)dyn_storage"
          },
          {
            "astId": 3119,
            "contract": "contracts/main/SmartHousing.sol:SmartHousing",
            "label": "_indexes",
            "offset": 0,
            "slot": "1",
            "type": "t_mapping(t_bytes32,t_uint256)"
          }
        ],
        "numberOfBytes": "64"
      },
      "t_struct(Storage)4892_storage": {
        "encoding": "inplace",
        "label": "struct Epochs.Storage",
        "members": [
          {
            "astId": 4889,
            "contract": "contracts/main/SmartHousing.sol:SmartHousing",
            "label": "genesis",
            "offset": 0,
            "slot": "0",
            "type": "t_uint256"
          },
          {
            "astId": 4891,
            "contract": "contracts/main/SmartHousing.sol:SmartHousing",
            "label": "epochLength",
            "offset": 0,
            "slot": "1",
            "type": "t_uint256"
          }
        ],
        "numberOfBytes": "64"
      },
      "t_struct(Storage)7236_storage": {
        "encoding": "inplace",
        "label": "struct Distribution.Storage",
        "members": [
          {
            "astId": 7210,
            "contract": "contracts/main/SmartHousing.sol:SmartHousing",
            "label": "totalFunds",
            "offset": 0,
            "slot": "0",
            "type": "t_uint256"
          },
          {
            "astId": 7212,
            "contract": "contracts/main/SmartHousing.sol:SmartHousing",
            "label": "projectsTotalReceivedRents",
            "offset": 0,
            "slot": "1",
            "type": "t_uint256"
          },
          {
            "astId": 7217,
            "contract": "contracts/main/SmartHousing.sol:SmartHousing",
            "label": "projectDets",
            "offset": 0,
            "slot": "2",
            "type": "t_mapping(t_address,t_struct(ProjectDistributionData)7241_storage)"
          },
          {
            "astId": 7221,
            "contract": "contracts/main/SmartHousing.sol:SmartHousing",
            "label": "projectSftToProjectAddress",
            "offset": 0,
            "slot": "3",
            "type": "t_mapping(t_address,t_address)"
          },
          {
            "astId": 7223,
            "contract": "contracts/main/SmartHousing.sol:SmartHousing",
            "label": "lastFundsDispatchTimestamp",
            "offset": 0,
            "slot": "4",
            "type": "t_uint256"
          },
          {
            "astId": 7225,
            "contract": "contracts/main/SmartHousing.sol:SmartHousing",
            "label": "shtTotalStakeWeight",
            "offset": 0,
            "slot": "5",
            "type": "t_uint256"
          },
          {
            "astId": 7227,
            "contract": "contracts/main/SmartHousing.sol:SmartHousing",
            "label": "shtRewardPerShare",
            "offset": 0,
            "slot": "6",
            "type": "t_uint256"
          },
          {
            "astId": 7229,
            "contract": "contracts/main/SmartHousing.sol:SmartHousing",
            "label": "shtStakingRewards",
            "offset": 0,
            "slot": "7",
            "type": "t_uint256"
          },
          {
            "astId": 7232,
            "contract": "contracts/main/SmartHousing.sol:SmartHousing",
            "label": "projectsStakingRewards",
            "offset": 0,
            "slot": "8",
            "type": "t_struct(Value)7156_storage"
          },
          {
            "astId": 7235,
            "contract": "contracts/main/SmartHousing.sol:SmartHousing",
            "label": "entityFunds",
            "offset": 0,
            "slot": "10",
            "type": "t_struct(Value)8676_storage"
          }
        ],
        "numberOfBytes": "512"
      },
      "t_struct(User)6892_storage": {
        "encoding": "inplace",
        "label": "struct UserModule.User",
        "members": [
          {
            "astId": 6884,
            "contract": "contracts/main/SmartHousing.sol:SmartHousing",
            "label": "id",
            "offset": 0,
            "slot": "0",
            "type": "t_uint256"
          },
          {
            "astId": 6886,
            "contract": "contracts/main/SmartHousing.sol:SmartHousing",
            "label": "addr",
            "offset": 0,
            "slot": "1",
            "type": "t_address"
          },
          {
            "astId": 6888,
            "contract": "contracts/main/SmartHousing.sol:SmartHousing",
            "label": "referrerId",
            "offset": 0,
            "slot": "2",
            "type": "t_uint256"
          },
          {
            "astId": 6891,
            "contract": "contracts/main/SmartHousing.sol:SmartHousing",
            "label": "referrals",
            "offset": 0,
            "slot": "3",
            "type": "t_array(t_uint256)dyn_storage"
          }
        ],
        "numberOfBytes": "128"
      },
      "t_struct(Value)7156_storage": {
        "encoding": "inplace",
        "label": "struct ProjectStakingRewards.Value",
        "members": [
          {
            "astId": 7153,
            "contract": "contracts/main/SmartHousing.sol:SmartHousing",
            "label": "toShare",
            "offset": 0,
            "slot": "0",
            "type": "t_uint256"
          },
          {
            "astId": 7155,
            "contract": "contracts/main/SmartHousing.sol:SmartHousing",
            "label": "checkpoint",
            "offset": 0,
            "slot": "1",
            "type": "t_uint256"
          }
        ],
        "numberOfBytes": "64"
      },
      "t_struct(Value)8676_storage": {
        "encoding": "inplace",
        "label": "struct Entities.Value",
        "members": [
          {
            "astId": 8665,
            "contract": "contracts/main/SmartHousing.sol:SmartHousing",
            "label": "team",
            "offset": 0,
            "slot": "0",
            "type": "t_uint256"
          },
          {
            "astId": 8667,
            "contract": "contracts/main/SmartHousing.sol:SmartHousing",
            "label": "protocol",
            "offset": 0,
            "slot": "1",
            "type": "t_uint256"
          },
          {
            "astId": 8669,
            "contract": "contracts/main/SmartHousing.sol:SmartHousing",
            "label": "growth",
            "offset": 0,
            "slot": "2",
            "type": "t_uint256"
          },
          {
            "astId": 8671,
            "contract": "contracts/main/SmartHousing.sol:SmartHousing",
            "label": "staking",
            "offset": 0,
            "slot": "3",
            "type": "t_uint256"
          },
          {
            "astId": 8673,
            "contract": "contracts/main/SmartHousing.sol:SmartHousing",
            "label": "projectsReserve",
            "offset": 0,
            "slot": "4",
            "type": "t_uint256"
          },
          {
            "astId": 8675,
            "contract": "contracts/main/SmartHousing.sol:SmartHousing",
            "label": "lpAndListing",
            "offset": 0,
            "slot": "5",
            "type": "t_uint256"
          }
        ],
        "numberOfBytes": "192"
      },
      "t_uint256": {
        "encoding": "inplace",
        "label": "uint256",
        "numberOfBytes": "32"
      }
    }
  }
}