{
  "address": "0x8b696E7a394f22Bf306c2d162BE8685e611Ca5A0",
  "abi": [
    {
      "inputs": [
        {
          "internalType": "string",
          "name": "name_",
          "type": "string"
        },
        {
          "internalType": "string",
          "name": "symbol_",
          "type": "string"
        }
      ],
      "stateMutability": "nonpayable",
      "type": "constructor"
    },
    {
      "anonymous": false,
      "inputs": [
        {
          "indexed": true,
          "internalType": "address",
          "name": "account",
          "type": "address"
        },
        {
          "indexed": true,
          "internalType": "address",
          "name": "operator",
          "type": "address"
        },
        {
          "indexed": false,
          "internalType": "bool",
          "name": "approved",
          "type": "bool"
        }
      ],
      "name": "ApprovalForAll",
      "type": "event"
    },
    {
      "anonymous": false,
      "inputs": [
        {
          "indexed": true,
          "internalType": "address",
          "name": "previousOwner",
          "type": "address"
        },
        {
          "indexed": true,
          "internalType": "address",
          "name": "newOwner",
          "type": "address"
        }
      ],
      "name": "OwnershipTransferred",
      "type": "event"
    },
    {
      "anonymous": false,
      "inputs": [
        {
          "indexed": true,
          "internalType": "address",
          "name": "to",
          "type": "address"
        },
        {
          "indexed": false,
          "internalType": "uint256",
          "name": "amount",
          "type": "uint256"
        }
      ],
      "name": "TokensMinted",
      "type": "event"
    },
    {
      "anonymous": false,
      "inputs": [
        {
          "indexed": true,
          "internalType": "address",
          "name": "operator",
          "type": "address"
        },
        {
          "indexed": true,
          "internalType": "address",
          "name": "from",
          "type": "address"
        },
        {
          "indexed": true,
          "internalType": "address",
          "name": "to",
          "type": "address"
        },
        {
          "indexed": false,
          "internalType": "uint256[]",
          "name": "ids",
          "type": "uint256[]"
        },
        {
          "indexed": false,
          "internalType": "uint256[]",
          "name": "values",
          "type": "uint256[]"
        }
      ],
      "name": "TransferBatch",
      "type": "event"
    },
    {
      "anonymous": false,
      "inputs": [
        {
          "indexed": true,
          "internalType": "address",
          "name": "operator",
          "type": "address"
        },
        {
          "indexed": true,
          "internalType": "address",
          "name": "from",
          "type": "address"
        },
        {
          "indexed": true,
          "internalType": "address",
          "name": "to",
          "type": "address"
        },
        {
          "indexed": false,
          "internalType": "uint256",
          "name": "id",
          "type": "uint256"
        },
        {
          "indexed": false,
          "internalType": "uint256",
          "name": "value",
          "type": "uint256"
        }
      ],
      "name": "TransferSingle",
      "type": "event"
    },
    {
      "anonymous": false,
      "inputs": [
        {
          "indexed": false,
          "internalType": "string",
          "name": "value",
          "type": "string"
        },
        {
          "indexed": true,
          "internalType": "uint256",
          "name": "id",
          "type": "uint256"
        }
      ],
      "name": "URI",
      "type": "event"
    },
    {
      "inputs": [
        {
          "internalType": "address",
          "name": "account",
          "type": "address"
        },
        {
          "internalType": "uint256",
          "name": "id",
          "type": "uint256"
        }
      ],
      "name": "balanceOf",
      "outputs": [
        {
          "internalType": "uint256",
          "name": "",
          "type": "uint256"
        }
      ],
      "stateMutability": "view",
      "type": "function"
    },
    {
      "inputs": [
        {
          "internalType": "address[]",
          "name": "accounts",
          "type": "address[]"
        },
        {
          "internalType": "uint256[]",
          "name": "ids",
          "type": "uint256[]"
        }
      ],
      "name": "balanceOfBatch",
      "outputs": [
        {
          "internalType": "uint256[]",
          "name": "",
          "type": "uint256[]"
        }
      ],
      "stateMutability": "view",
      "type": "function"
    },
    {
      "inputs": [
        {
          "internalType": "uint256",
          "name": "nonce",
          "type": "uint256"
        }
      ],
      "name": "getAttribute",
      "outputs": [
        {
          "components": [
            {
              "internalType": "uint256",
              "name": "initialAmount",
              "type": "uint256"
            },
            {
              "internalType": "uint256",
              "name": "amount",
              "type": "uint256"
            },
            {
              "internalType": "uint256",
              "name": "startTimestamp",
              "type": "uint256"
            },
            {
              "internalType": "uint256",
              "name": "endTimestamp",
              "type": "uint256"
            }
          ],
          "internalType": "struct LkSHTAttributes.Attributes",
          "name": "",
          "type": "tuple"
        }
      ],
      "stateMutability": "view",
      "type": "function"
    },
    {
      "inputs": [
        {
          "internalType": "address",
          "name": "owner",
          "type": "address"
        }
      ],
      "name": "getNonces",
      "outputs": [
        {
          "internalType": "uint256[]",
          "name": "",
          "type": "uint256[]"
        }
      ],
      "stateMutability": "view",
      "type": "function"
    },
    {
      "inputs": [
        {
          "internalType": "address",
          "name": "owner",
          "type": "address"
        },
        {
          "internalType": "uint256",
          "name": "nonce",
          "type": "uint256"
        }
      ],
      "name": "hasSFT",
      "outputs": [
        {
          "internalType": "bool",
          "name": "",
          "type": "bool"
        }
      ],
      "stateMutability": "view",
      "type": "function"
    },
    {
      "inputs": [
        {
          "internalType": "address",
          "name": "account",
          "type": "address"
        },
        {
          "internalType": "address",
          "name": "operator",
          "type": "address"
        }
      ],
      "name": "isApprovedForAll",
      "outputs": [
        {
          "internalType": "bool",
          "name": "",
          "type": "bool"
        }
      ],
      "stateMutability": "view",
      "type": "function"
    },
    {
      "inputs": [
        {
          "internalType": "uint256",
          "name": "amount",
          "type": "uint256"
        },
        {
          "internalType": "address",
          "name": "to",
          "type": "address"
        }
      ],
      "name": "mint",
      "outputs": [],
      "stateMutability": "nonpayable",
      "type": "function"
    },
    {
      "inputs": [],
      "name": "name",
      "outputs": [
        {
          "internalType": "string",
          "name": "",
          "type": "string"
        }
      ],
      "stateMutability": "view",
      "type": "function"
    },
    {
      "inputs": [],
      "name": "owner",
      "outputs": [
        {
          "internalType": "address",
          "name": "",
          "type": "address"
        }
      ],
      "stateMutability": "view",
      "type": "function"
    },
    {
      "inputs": [],
      "name": "renounceOwnership",
      "outputs": [],
      "stateMutability": "nonpayable",
      "type": "function"
    },
    {
      "inputs": [
        {
          "internalType": "address",
          "name": "from",
          "type": "address"
        },
        {
          "internalType": "address",
          "name": "to",
          "type": "address"
        },
        {
          "internalType": "uint256[]",
          "name": "ids",
          "type": "uint256[]"
        },
        {
          "internalType": "uint256[]",
          "name": "amounts",
          "type": "uint256[]"
        },
        {
          "internalType": "bytes",
          "name": "data",
          "type": "bytes"
        }
      ],
      "name": "safeBatchTransferFrom",
      "outputs": [],
      "stateMutability": "nonpayable",
      "type": "function"
    },
    {
      "inputs": [
        {
          "internalType": "address",
          "name": "from",
          "type": "address"
        },
        {
          "internalType": "address",
          "name": "to",
          "type": "address"
        },
        {
          "internalType": "uint256",
          "name": "id",
          "type": "uint256"
        },
        {
          "internalType": "uint256",
          "name": "amount",
          "type": "uint256"
        },
        {
          "internalType": "bytes",
          "name": "data",
          "type": "bytes"
        }
      ],
      "name": "safeTransferFrom",
      "outputs": [],
      "stateMutability": "nonpayable",
      "type": "function"
    },
    {
      "inputs": [
        {
          "internalType": "address",
          "name": "operator",
          "type": "address"
        },
        {
          "internalType": "bool",
          "name": "approved",
          "type": "bool"
        }
      ],
      "name": "setApprovalForAll",
      "outputs": [],
      "stateMutability": "nonpayable",
      "type": "function"
    },
    {
      "inputs": [
        {
          "internalType": "address",
          "name": "user",
          "type": "address"
        }
      ],
      "name": "sftBalance",
      "outputs": [
        {
          "components": [
            {
              "internalType": "uint256",
              "name": "nonce",
              "type": "uint256"
            },
            {
              "internalType": "uint256",
              "name": "amount",
              "type": "uint256"
            },
            {
              "components": [
                {
                  "internalType": "uint256",
                  "name": "initialAmount",
                  "type": "uint256"
                },
                {
                  "internalType": "uint256",
                  "name": "amount",
                  "type": "uint256"
                },
                {
                  "internalType": "uint256",
                  "name": "startTimestamp",
                  "type": "uint256"
                },
                {
                  "internalType": "uint256",
                  "name": "endTimestamp",
                  "type": "uint256"
                }
              ],
              "internalType": "struct LkSHTAttributes.Attributes",
              "name": "attributes",
              "type": "tuple"
            }
          ],
          "internalType": "struct LkSHT.LkSHTBalance[]",
          "name": "",
          "type": "tuple[]"
        }
      ],
      "stateMutability": "view",
      "type": "function"
    },
    {
      "inputs": [
        {
          "internalType": "bytes4",
          "name": "interfaceId",
          "type": "bytes4"
        }
      ],
      "name": "supportsInterface",
      "outputs": [
        {
          "internalType": "bool",
          "name": "",
          "type": "bool"
        }
      ],
      "stateMutability": "view",
      "type": "function"
    },
    {
      "inputs": [],
      "name": "symbol",
      "outputs": [
        {
          "internalType": "string",
          "name": "",
          "type": "string"
        }
      ],
      "stateMutability": "view",
      "type": "function"
    },
    {
      "inputs": [],
      "name": "tokenInfo",
      "outputs": [
        {
          "internalType": "string",
          "name": "",
          "type": "string"
        },
        {
          "internalType": "string",
          "name": "",
          "type": "string"
        }
      ],
      "stateMutability": "view",
      "type": "function"
    },
    {
      "inputs": [
        {
          "internalType": "address",
          "name": "newOwner",
          "type": "address"
        }
      ],
      "name": "transferOwnership",
      "outputs": [],
      "stateMutability": "nonpayable",
      "type": "function"
    },
    {
      "inputs": [
        {
          "internalType": "address",
          "name": "user",
          "type": "address"
        },
        {
          "internalType": "uint256",
          "name": "nonce",
          "type": "uint256"
        },
        {
          "internalType": "uint256",
          "name": "amount",
          "type": "uint256"
        },
        {
          "internalType": "bytes",
          "name": "attr",
          "type": "bytes"
        }
      ],
      "name": "update",
      "outputs": [
        {
          "internalType": "uint256",
          "name": "",
          "type": "uint256"
        }
      ],
      "stateMutability": "nonpayable",
      "type": "function"
    },
    {
      "inputs": [
        {
          "internalType": "uint256",
          "name": "",
          "type": "uint256"
        }
      ],
      "name": "uri",
      "outputs": [
        {
          "internalType": "string",
          "name": "",
          "type": "string"
        }
      ],
      "stateMutability": "view",
      "type": "function"
    }
  ],
  "transactionHash": "0xfe89fed56f6b5b694ee277782c85823dbfec2aaab564fa9581511accbd92cd5f",
  "args": [
    "",
    ""
  ],
  "numDeployments": 1,
  "solcInputHash": "2ab48957edcdbd6aae4057970ab478a1",
  "bytecode": "0x60a0604052426080523480156200001557600080fd5b5060405162002936380380620029368339810160408190526200003891620001bb565b8181604051806020016040528060008152506200005b816200008f60201b60201c565b506200006733620000a1565b6005620000758382620002b6565b506006620000848282620002b6565b505050505062000382565b60026200009d8282620002b6565b5050565b600380546001600160a01b038381166001600160a01b0319831681179093556040519116919082907f8be0079c531659141344cd1fd0a4f28419497f9722a3daafe3b4186f6b6457e090600090a35050565b634e487b7160e01b600052604160045260246000fd5b600082601f8301126200011b57600080fd5b81516001600160401b0380821115620001385762000138620000f3565b604051601f8301601f19908116603f01168101908282118183101715620001635762000163620000f3565b81604052838152602092508660208588010111156200018157600080fd5b600091505b83821015620001a5578582018301518183018401529082019062000186565b6000602085830101528094505050505092915050565b60008060408385031215620001cf57600080fd5b82516001600160401b0380821115620001e757600080fd5b620001f58683870162000109565b935060208501519150808211156200020c57600080fd5b506200021b8582860162000109565b9150509250929050565b600181811c908216806200023a57607f821691505b6020821081036200025b57634e487b7160e01b600052602260045260246000fd5b50919050565b601f821115620002b1576000816000526020600020601f850160051c810160208610156200028c5750805b601f850160051c820191505b81811015620002ad5782815560010162000298565b5050505b505050565b81516001600160401b03811115620002d257620002d2620000f3565b620002ea81620002e3845462000225565b8462000261565b602080601f831160018114620003225760008415620003095750858301515b600019600386901b1c1916600185901b178555620002ad565b600085815260208120601f198616915b82811015620003535788860151825594840194600190910190840162000332565b5085821015620003725787850151600019600388901b60f8161c191681555b5050505050600190811b01905550565b6080516125986200039e60003960006108c201526125986000f3fe608060405234801561001057600080fd5b506004361061012b5760003560e01c8063715018a6116100ad578063a42accea11610071578063a42accea14610283578063d8938f26146102a3578063e985e9c5146102b6578063f242432a146102f2578063f2fde38b1461030557600080fd5b8063715018a6146102325780638da5cb5b1461023a57806394bf804d1461025557806395d89b4114610268578063a22cb4651461027057600080fd5b8063493fe80f116100f4578063493fe80f146101b65780634e1273f4146101d65780634fa3d25d146101f65780635124ae95146102095780636addb6631461021c57600080fd5b8062fdd58e1461013057806301ffc9a71461015657806306fdde03146101795780630e89341c1461018e5780632eb2c2d6146101a1575b600080fd5b61014361013e366004611a7c565b610318565b6040519081526020015b60405180910390f35b610169610164366004611abc565b6103b1565b604051901515815260200161014d565b610181610401565b60405161014d9190611b1f565b61018161019c366004611b32565b610493565b6101b46101af366004611c99565b610527565b005b6101c96101c4366004611b32565b610573565b60405161014d9190611d42565b6101e96101e4366004611d6d565b6105ba565b60405161014d9190611e73565b610169610204366004611a7c565b6106db565b6101e9610217366004611e86565b610704565b610224610728565b60405161014d929190611ea1565b6101b461084f565b6003546040516001600160a01b03909116815260200161014d565b6101b4610263366004611ec6565b610863565b61018161095c565b6101b461027e366004611ef2565b61096b565b610296610291366004611e86565b61097a565b60405161014d9190611f2e565b6101436102b1366004611fb2565b610a6a565b6101696102c4366004612012565b6001600160a01b03918216600090815260016020908152604080832093909416825291909152205460ff1690565b6101b461030036600461203c565b610aa2565b6101b4610313366004611e86565b610ae7565b60006001600160a01b0383166103885760405162461bcd60e51b815260206004820152602a60248201527f455243313135353a2061646472657373207a65726f206973206e6f742061207660448201526930b634b21037bbb732b960b11b60648201526084015b60405180910390fd5b506000818152602081815260408083206001600160a01b03861684529091529020545b92915050565b60006001600160e01b03198216636cdb3d1360e11b14806103e257506001600160e01b031982166303a24d0760e21b145b806103ab57506301ffc9a760e01b6001600160e01b03198316146103ab565b606060058054610410906120a0565b80601f016020809104026020016040519081016040528092919081815260200182805461043c906120a0565b80156104895780601f1061045e57610100808354040283529160200191610489565b820191906000526020600020905b81548152906001019060200180831161046c57829003601f168201915b5050505050905090565b6060600280546104a2906120a0565b80601f01602080910402602001604051908101604052809291908181526020018280546104ce906120a0565b801561051b5780601f106104f05761010080835404028352916020019161051b565b820191906000526020600020905b8154815290600101906020018083116104fe57829003601f168201915b50505050509050919050565b6001600160a01b038516331480610543575061054385336102c4565b61055f5760405162461bcd60e51b815260040161037f906120da565b61056c8585858585610b60565b5050505050565b61059e6040518060800160405280600081526020016000815260200160008152602001600081525090565b6105a782610d44565b8060200190518101906103ab9190612128565b6060815183511461061f5760405162461bcd60e51b815260206004820152602960248201527f455243313135353a206163636f756e747320616e6420696473206c656e677468604482015268040dad2e6dac2e8c6d60bb1b606482015260840161037f565b600083516001600160401b0381111561063a5761063a611b4b565b604051908082528060200260200182016040528015610663578160200160208202803683370190505b50905060005b84518110156106d3576106ae8582815181106106875761068761218d565b60200260200101518583815181106106a1576106a161218d565b6020026020010151610318565b8282815181106106c0576106c061218d565b6020908102919091010152600101610669565b509392505050565b6001600160a01b03821660009081526008602052604081206106fd9083610d61565b9392505050565b6001600160a01b03811660009081526008602052604090206060906103ab90610d79565b6060806005600681805461073b906120a0565b80601f0160208091040260200160405190810160405280929190818152602001828054610767906120a0565b80156107b45780601f10610789576101008083540402835291602001916107b4565b820191906000526020600020905b81548152906001019060200180831161079757829003601f168201915b505050505091508080546107c7906120a0565b80601f01602080910402602001604051908101604052809291908181526020018280546107f3906120a0565b80156108405780601f1061081557610100808354040283529160200191610840565b820191906000526020600020905b81548152906001019060200180831161082357829003601f168201915b50505050509050915091509091565b610857610d86565b6108616000610de0565b565b61086b610d86565b600082116108bb5760405162461bcd60e51b815260206004820152601d60248201527f416d6f756e74206d7573742062652067726561746572207468616e2030000000604482015260640161037f565b60006108e77f000000000000000000000000000000000000000000000000000000000000000084610e32565b6040516020016108f79190611d42565b6040516020818303038152906040529050610913828483610e99565b50816001600160a01b03167f3f2c9d57c068687834f0de942a9babb9e5acab57d516d3480a3c16ee165a42738460405161094f91815260200190565b60405180910390a2505050565b606060068054610410906120a0565b610976338383610f03565b5050565b6060600061098783610fe3565b9050600081516001600160401b038111156109a4576109a4611b4b565b6040519080825280602002602001820160405280156109dd57816020015b6109ca611a17565b8152602001906001900390816109c25790505b50905060005b82518110156106d3576000838281518110610a0057610a0061218d565b60200260200101519050604051806060016040528082600001518152602001826020015181526020018260400151806020019051810190610a419190612128565b815250838381518110610a5657610a5661218d565b6020908102919091010152506001016109e3565b6000610a74610d86565b610a7f858585611180565b60008311610a8e576000610a99565b610a99858484610e99565b95945050505050565b6001600160a01b038516331480610abe5750610abe85336102c4565b610ada5760405162461bcd60e51b815260040161037f906120da565b61056c8585858585611315565b610aef610d86565b6001600160a01b038116610b545760405162461bcd60e51b815260206004820152602660248201527f4f776e61626c653a206e6577206f776e657220697320746865207a65726f206160448201526564647265737360d01b606482015260840161037f565b610b5d81610de0565b50565b8151835114610bc25760405162461bcd60e51b815260206004820152602860248201527f455243313135353a2069647320616e6420616d6f756e7473206c656e677468206044820152670dad2e6dac2e8c6d60c31b606482015260840161037f565b6001600160a01b038416610be85760405162461bcd60e51b815260040161037f906121a3565b33610bf781878787878761144d565b60005b8451811015610cd6576000858281518110610c1757610c1761218d565b602002602001015190506000858381518110610c3557610c3561218d565b602090810291909101810151600084815280835260408082206001600160a01b038e168352909352919091205490915081811015610c855760405162461bcd60e51b815260040161037f906121e8565b6000838152602081815260408083206001600160a01b038e8116855292528083208585039055908b16825281208054849290610cc2908490612248565b909155505060019093019250610bfa915050565b50846001600160a01b0316866001600160a01b0316826001600160a01b03167f4a39dc06d4c0dbc64b70af90fd698a233a518aa5d07e595d983b8c0526c8f7fb8787604051610d2692919061225b565b60405180910390a4610d3c8187878787876114db565b505050505050565b60008181526007602052604090208054606091906104a2906120a0565b600081815260018301602052604081205415156106fd565b606060006106fd83611636565b6003546001600160a01b031633146108615760405162461bcd60e51b815260206004820181905260248201527f4f776e61626c653a2063616c6c6572206973206e6f7420746865206f776e6572604482015260640161037f565b600380546001600160a01b038381166001600160a01b0319831681179093556040519116919082907f8be0079c531659141344cd1fd0a4f28419497f9722a3daafe3b4186f6b6457e090600090a35050565b610e5d6040518060800160405280600081526020016000815260200160008152602001600081525090565b6040518060800160405280838152602001838152602001848152602001610e90621baf808661169190919063ffffffff16565b90529392505050565b6000610ea9600480546001019055565b506004546000818152600760205260409020610ec583826122cd565b50610ee18482856040518060200160405280600081525061169d565b6001600160a01b03841660009081526008602052604090206106d390826117b7565b816001600160a01b0316836001600160a01b031603610f765760405162461bcd60e51b815260206004820152602960248201527f455243313135353a2073657474696e6720617070726f76616c20737461747573604482015268103337b91039b2b63360b91b606482015260840161037f565b6001600160a01b03838116600081815260016020908152604080832094871680845294825291829020805460ff191686151590811790915591519182527f17307eab39ab6107e8899845ad3d59bd9653f200f220920489ca2b5937696c31910160405180910390a3505050565b60606000610ff083610704565b9050600081516001600160401b0381111561100d5761100d611b4b565b60405190808252806020026020018201604052801561106257816020015b61104f60405180606001604052806000815260200160008152602001606081525090565b81526020019060019003908161102b5790505b50905060005b82518110156106d35760008382815181106110855761108561218d565b6020026020010151905060006007600083815260200190815260200160002080546110af906120a0565b80601f01602080910402602001604051908101604052809291908181526020018280546110db906120a0565b80156111285780601f106110fd57610100808354040283529160200191611128565b820191906000526020600020905b81548152906001019060200180831161110b57829003601f168201915b50505050509050600061113b8884610318565b905060405180606001604052808481526020018281526020018381525085858151811061116a5761116a61218d565b6020908102919091010152505050600101611068565b6001600160a01b0383166111e25760405162461bcd60e51b815260206004820152602360248201527f455243313135353a206275726e2066726f6d20746865207a65726f206164647260448201526265737360e81b606482015260840161037f565b3360006111ee846117c3565b905060006111fb846117c3565b905061121b8387600085856040518060200160405280600081525061144d565b6000858152602081815260408083206001600160a01b038a168452909152902054848110156112985760405162461bcd60e51b8152602060048201526024808201527f455243313135353a206275726e20616d6f756e7420657863656564732062616c604482015263616e636560e01b606482015260840161037f565b6000868152602081815260408083206001600160a01b038b81168086529184528285208a8703905582518b81529384018a90529092908816917fc3d58168c5ae7397731d063d5bbf3d657854427343f4c083240f7aacaa2d0f62910160405180910390a46040805160208101909152600090525b50505050505050565b6001600160a01b03841661133b5760405162461bcd60e51b815260040161037f906121a3565b336000611347856117c3565b90506000611354856117c3565b905061136483898985858961144d565b6000868152602081815260408083206001600160a01b038c168452909152902054858110156113a55760405162461bcd60e51b815260040161037f906121e8565b6000878152602081815260408083206001600160a01b038d8116855292528083208985039055908a168252812080548892906113e2908490612248565b909155505060408051888152602081018890526001600160a01b03808b16928c821692918816917fc3d58168c5ae7397731d063d5bbf3d657854427343f4c083240f7aacaa2d0f62910160405180910390a4611442848a8a8a8a8a61180e565b505050505050505050565b60005b835181101561130c57600084828151811061146d5761146d61218d565b602002602001015190506114ae81600860008a6001600160a01b03166001600160a01b031681526020019081526020016000206118c990919063ffffffff16565b506001600160a01b03861660009081526008602052604090206114d190826117b7565b5050600101611450565b6001600160a01b0384163b15610d3c5760405163bc197c8160e01b81526001600160a01b0385169063bc197c819061151f908990899088908890889060040161238c565b6020604051808303816000875af192505050801561155a575060408051601f3d908101601f19168201909252611557918101906123ea565b60015b61160657611566612407565b806308c379a00361159f575061157a612423565b8061158557506115a1565b8060405162461bcd60e51b815260040161037f9190611b1f565b505b60405162461bcd60e51b815260206004820152603460248201527f455243313135353a207472616e7366657220746f206e6f6e2d455243313135356044820152732932b1b2b4bb32b91034b6b83632b6b2b73a32b960611b606482015260840161037f565b6001600160e01b0319811663bc197c8160e01b1461130c5760405162461bcd60e51b815260040161037f906124ac565b60608160000180548060200260200160405190810160405280929190818152602001828054801561051b57602002820191906000526020600020905b8154815260200190600101908083116116725750505050509050919050565b60006106fd8284612248565b6001600160a01b0384166116fd5760405162461bcd60e51b815260206004820152602160248201527f455243313135353a206d696e7420746f20746865207a65726f206164647265736044820152607360f81b606482015260840161037f565b336000611709856117c3565b90506000611716856117c3565b90506117278360008985858961144d565b6000868152602081815260408083206001600160a01b038b16845290915281208054879290611757908490612248565b909155505060408051878152602081018790526001600160a01b03808a1692600092918716917fc3d58168c5ae7397731d063d5bbf3d657854427343f4c083240f7aacaa2d0f62910160405180910390a461130c8360008989898961180e565b60006106fd83836118d5565b604080516001808252818301909252606091600091906020808301908036833701905050905082816000815181106117fd576117fd61218d565b602090810291909101015292915050565b6001600160a01b0384163b15610d3c5760405163f23a6e6160e01b81526001600160a01b0385169063f23a6e619061185290899089908890889088906004016124f4565b6020604051808303816000875af192505050801561188d575060408051601f3d908101601f1916820190925261188a918101906123ea565b60015b61189957611566612407565b6001600160e01b0319811663f23a6e6160e01b1461130c5760405162461bcd60e51b815260040161037f906124ac565b60006106fd8383611924565b600081815260018301602052604081205461191c575081546001818101845560008481526020808220909301849055845484825282860190935260409020919091556103ab565b5060006103ab565b60008181526001830160205260408120548015611a0d576000611948600183612539565b855490915060009061195c90600190612539565b90508181146119c157600086600001828154811061197c5761197c61218d565b906000526020600020015490508087600001848154811061199f5761199f61218d565b6000918252602080832090910192909255918252600188019052604090208390555b85548690806119d2576119d261254c565b6001900381819060005260206000200160009055905585600101600086815260200190815260200160002060009055600193505050506103ab565b60009150506103ab565b60405180606001604052806000815260200160008152602001611a5b6040518060800160405280600081526020016000815260200160008152602001600081525090565b905290565b80356001600160a01b0381168114611a7757600080fd5b919050565b60008060408385031215611a8f57600080fd5b611a9883611a60565b946020939093013593505050565b6001600160e01b031981168114610b5d57600080fd5b600060208284031215611ace57600080fd5b81356106fd81611aa6565b6000815180845260005b81811015611aff57602081850181015186830182015201611ae3565b506000602082860101526020601f19601f83011685010191505092915050565b6020815260006106fd6020830184611ad9565b600060208284031215611b4457600080fd5b5035919050565b634e487b7160e01b600052604160045260246000fd5b601f8201601f191681016001600160401b0381118282101715611b8657611b86611b4b565b6040525050565b60006001600160401b03821115611ba657611ba6611b4b565b5060051b60200190565b600082601f830112611bc157600080fd5b81356020611bce82611b8d565b604051611bdb8282611b61565b80915083815260208101915060208460051b870101935086841115611bff57600080fd5b602086015b84811015611c1b5780358352918301918301611c04565b509695505050505050565b600082601f830112611c3757600080fd5b81356001600160401b03811115611c5057611c50611b4b565b604051611c67601f8301601f191660200182611b61565b818152846020838601011115611c7c57600080fd5b816020850160208301376000918101602001919091529392505050565b600080600080600060a08688031215611cb157600080fd5b611cba86611a60565b9450611cc860208701611a60565b935060408601356001600160401b0380821115611ce457600080fd5b611cf089838a01611bb0565b94506060880135915080821115611d0657600080fd5b611d1289838a01611bb0565b93506080880135915080821115611d2857600080fd5b50611d3588828901611c26565b9150509295509295909350565b81518152602080830151908201526040808301519082015260608083015190820152608081016103ab565b60008060408385031215611d8057600080fd5b82356001600160401b0380821115611d9757600080fd5b818501915085601f830112611dab57600080fd5b81356020611db882611b8d565b604051611dc58282611b61565b83815260059390931b8501820192828101915089841115611de557600080fd5b948201945b83861015611e0a57611dfb86611a60565b82529482019490820190611dea565b96505086013592505080821115611e2057600080fd5b50611e2d85828601611bb0565b9150509250929050565b60008151808452602080850194506020840160005b83811015611e6857815187529582019590820190600101611e4c565b509495945050505050565b6020815260006106fd6020830184611e37565b600060208284031215611e9857600080fd5b6106fd82611a60565b604081526000611eb46040830185611ad9565b8281036020840152610a998185611ad9565b60008060408385031215611ed957600080fd5b82359150611ee960208401611a60565b90509250929050565b60008060408385031215611f0557600080fd5b611f0e83611a60565b915060208301358015158114611f2357600080fd5b809150509250929050565b602080825282518282018190526000919060409081850190868401855b82811015611fa5578151805185528681015187860152850151611f9186860182805182526020810151602083015260408101516040830152606081015160608301525050565b5060c0939093019290850190600101611f4b565b5091979650505050505050565b60008060008060808587031215611fc857600080fd5b611fd185611a60565b9350602085013592506040850135915060608501356001600160401b03811115611ffa57600080fd5b61200687828801611c26565b91505092959194509250565b6000806040838503121561202557600080fd5b61202e83611a60565b9150611ee960208401611a60565b600080600080600060a0868803121561205457600080fd5b61205d86611a60565b945061206b60208701611a60565b9350604086013592506060860135915060808601356001600160401b0381111561209457600080fd5b611d3588828901611c26565b600181811c908216806120b457607f821691505b6020821081036120d457634e487b7160e01b600052602260045260246000fd5b50919050565b6020808252602e908201527f455243313135353a2063616c6c6572206973206e6f7420746f6b656e206f776e60408201526d195c881bdc88185c1c1c9bdd995960921b606082015260800190565b60006080828403121561213a57600080fd5b604051608081018181106001600160401b038211171561215c5761215c611b4b565b8060405250825181526020830151602082015260408301516040820152606083015160608201528091505092915050565b634e487b7160e01b600052603260045260246000fd5b60208082526025908201527f455243313135353a207472616e7366657220746f20746865207a65726f206164604082015264647265737360d81b606082015260800190565b6020808252602a908201527f455243313135353a20696e73756666696369656e742062616c616e636520666f60408201526939103a3930b739b332b960b11b606082015260800190565b634e487b7160e01b600052601160045260246000fd5b808201808211156103ab576103ab612232565b60408152600061226e6040830185611e37565b8281036020840152610a998185611e37565b601f8211156122c8576000816000526020600020601f850160051c810160208610156122a95750805b601f850160051c820191505b81811015610d3c578281556001016122b5565b505050565b81516001600160401b038111156122e6576122e6611b4b565b6122fa816122f484546120a0565b84612280565b602080601f83116001811461232f57600084156123175750858301515b600019600386901b1c1916600185901b178555610d3c565b600085815260208120601f198616915b8281101561235e5788860151825594840194600190910190840161233f565b508582101561237c5787850151600019600388901b60f8161c191681555b5050505050600190811b01905550565b6001600160a01b0386811682528516602082015260a0604082018190526000906123b890830186611e37565b82810360608401526123ca8186611e37565b905082810360808401526123de8185611ad9565b98975050505050505050565b6000602082840312156123fc57600080fd5b81516106fd81611aa6565b600060033d11156124205760046000803e5060005160e01c5b90565b600060443d10156124315790565b6040516003193d81016004833e81513d6001600160401b03816024840111818411171561246057505050505090565b82850191508151818111156124785750505050505090565b843d87010160208285010111156124925750505050505090565b6124a160208286010187611b61565b509095945050505050565b60208082526028908201527f455243313135353a204552433131353552656365697665722072656a656374656040820152676420746f6b656e7360c01b606082015260800190565b6001600160a01b03868116825285166020820152604081018490526060810183905260a06080820181905260009061252e90830184611ad9565b979650505050505050565b818103818111156103ab576103ab612232565b634e487b7160e01b600052603160045260246000fdfea26469706673582212201ba250315e071c786a4f0fed7a582b5c209a2306775c8eb3886ae756a2c3d90764736f6c63430008180033",
  "devdoc": {
    "details": "SFT token that locks SmartHousing Tokens (SHT) during ICO. Allows transfers only to whitelisted addresses.",
    "events": {
      "ApprovalForAll(address,address,bool)": {
        "details": "Emitted when `account` grants or revokes permission to `operator` to transfer their tokens, according to `approved`."
      },
      "TokensMinted(address,uint256)": {
        "details": "Event emitted when tokens are minted"
      },
      "TransferBatch(address,address,address,uint256[],uint256[])": {
        "details": "Equivalent to multiple {TransferSingle} events, where `operator`, `from` and `to` are the same for all transfers."
      },
      "TransferSingle(address,address,address,uint256,uint256)": {
        "details": "Emitted when `value` tokens of token type `id` are transferred from `from` to `to` by `operator`."
      },
      "URI(string,uint256)": {
        "details": "Emitted when the URI for token type `id` changes to `value`, if it is a non-programmatic URI. If an {URI} event was emitted for `id`, the standard https://eips.ethereum.org/EIPS/eip-1155#metadata-extensions[guarantees] that `value` will equal the value returned by {IERC1155MetadataURI-uri}."
      }
    },
    "kind": "dev",
    "methods": {
      "balanceOf(address,uint256)": {
        "details": "See {IERC1155-balanceOf}. Requirements: - `account` cannot be the zero address."
      },
      "balanceOfBatch(address[],uint256[])": {
        "details": "See {IERC1155-balanceOfBatch}. Requirements: - `accounts` and `ids` must have the same length."
      },
      "constructor": {
        "details": "Constructor to initialize the token with name and symbol"
      },
      "getNonces(address)": {
        "params": {
          "owner": "The address of the token owner."
        },
        "returns": {
          "_0": "Array of nonces."
        }
      },
      "hasSFT(address,uint256)": {
        "params": {
          "nonce": "The nonce to check.",
          "owner": "The address of the token owner."
        },
        "returns": {
          "_0": "True if the address owns the nonce, otherwise false."
        }
      },
      "isApprovedForAll(address,address)": {
        "details": "See {IERC1155-isApprovedForAll}."
      },
      "mint(uint256,address)": {
        "details": "Mints new Locked SmartHousing Tokens (LkSHT) by locking SHT.",
        "params": {
          "amount": "The amount of SHT to lock.",
          "to": "The address to mint the tokens to."
        }
      },
      "name()": {
        "returns": {
          "_0": "The name of the token."
        }
      },
      "owner()": {
        "details": "Returns the address of the current owner."
      },
      "renounceOwnership()": {
        "details": "Leaves the contract without owner. It will not be possible to call `onlyOwner` functions anymore. Can only be called by the current owner. NOTE: Renouncing ownership will leave the contract without an owner, thereby removing any functionality that is only available to the owner."
      },
      "safeBatchTransferFrom(address,address,uint256[],uint256[],bytes)": {
        "details": "See {IERC1155-safeBatchTransferFrom}."
      },
      "safeTransferFrom(address,address,uint256,uint256,bytes)": {
        "details": "See {IERC1155-safeTransferFrom}."
      },
      "setApprovalForAll(address,bool)": {
        "details": "See {IERC1155-setApprovalForAll}."
      },
      "sftBalance(address)": {
        "details": "Returns the balance of the user along with attributes",
        "params": {
          "user": "The address of the user."
        },
        "returns": {
          "_0": "Array of LkSHTBalance containing nonce, amount, and attributes"
        }
      },
      "supportsInterface(bytes4)": {
        "details": "See {IERC165-supportsInterface}."
      },
      "symbol()": {
        "returns": {
          "_0": "The symbol of the token."
        }
      },
      "tokenInfo()": {
        "returns": {
          "_0": "name The name of the token.",
          "_1": "symbol The symbol of the token."
        }
      },
      "transferOwnership(address)": {
        "details": "Transfers ownership of the contract to a new account (`newOwner`). Can only be called by the current owner."
      },
      "update(address,uint256,uint256,bytes)": {
        "params": {
          "amount": "The amount of tokens to mint.",
          "attr": "The new attributes to assign.",
          "nonce": "The nonce of the token to update.",
          "user": "The address of the token holder."
        },
        "returns": {
          "_0": "The new nonce for the minted tokens."
        }
      },
      "uri(uint256)": {
        "details": "See {IERC1155MetadataURI-uri}. This implementation returns the same URI for *all* token types. It relies on the token type ID substitution mechanism https://eips.ethereum.org/EIPS/eip-1155#metadata[defined in the EIP]. Clients calling this function must replace the `\\{id\\}` substring with the actual token type ID."
      }
    },
    "stateVariables": {
      "startTimestamp": {
        "details": "Record the block timestamp when the contract is deployed"
      }
    },
    "title": "LockedSmartHousingToken",
    "version": 1
  },
  "userdoc": {
    "kind": "user",
    "methods": {
      "getNonces(address)": {
        "notice": "Returns the list of nonces owned by an address."
      },
      "hasSFT(address,uint256)": {
        "notice": "Checks if the address owns a specific nonce."
      },
      "name()": {
        "notice": "Returns the name of the token."
      },
      "symbol()": {
        "notice": "Returns the symbol of the token."
      },
      "tokenInfo()": {
        "notice": "Returns the token name and symbol."
      },
      "update(address,uint256,uint256,bytes)": {
        "notice": "Burns the tokens of a specific nonce and mints new tokens with updated attributes."
      }
    },
    "version": 1
  },
  "storageLayout": {
    "storage": [
      {
        "astId": 141,
        "contract": "contracts/modules/LockedSmartHousingToken.sol:LkSHT",
        "label": "_balances",
        "offset": 0,
        "slot": "0",
        "type": "t_mapping(t_uint256,t_mapping(t_address,t_uint256))"
      },
      {
        "astId": 147,
        "contract": "contracts/modules/LockedSmartHousingToken.sol:LkSHT",
        "label": "_operatorApprovals",
        "offset": 0,
        "slot": "1",
        "type": "t_mapping(t_address,t_mapping(t_address,t_bool))"
      },
      {
        "astId": 149,
        "contract": "contracts/modules/LockedSmartHousingToken.sol:LkSHT",
        "label": "_uri",
        "offset": 0,
        "slot": "2",
        "type": "t_string_storage"
      },
      {
        "astId": 7,
        "contract": "contracts/modules/LockedSmartHousingToken.sol:LkSHT",
        "label": "_owner",
        "offset": 0,
        "slot": "3",
        "type": "t_address"
      },
      {
        "astId": 8111,
        "contract": "contracts/modules/LockedSmartHousingToken.sol:LkSHT",
        "label": "_nonceCounter",
        "offset": 0,
        "slot": "4",
        "type": "t_struct(Counter)2693_storage"
      },
      {
        "astId": 8113,
        "contract": "contracts/modules/LockedSmartHousingToken.sol:LkSHT",
        "label": "_name",
        "offset": 0,
        "slot": "5",
        "type": "t_string_storage"
      },
      {
        "astId": 8115,
        "contract": "contracts/modules/LockedSmartHousingToken.sol:LkSHT",
        "label": "_symbol",
        "offset": 0,
        "slot": "6",
        "type": "t_string_storage"
      },
      {
        "astId": 8119,
        "contract": "contracts/modules/LockedSmartHousingToken.sol:LkSHT",
        "label": "_tokenAttributes",
        "offset": 0,
        "slot": "7",
        "type": "t_mapping(t_uint256,t_bytes_storage)"
      },
      {
        "astId": 8124,
        "contract": "contracts/modules/LockedSmartHousingToken.sol:LkSHT",
        "label": "_addressToNonces",
        "offset": 0,
        "slot": "8",
        "type": "t_mapping(t_address,t_struct(UintSet)3592_storage)"
      }
    ],
    "types": {
      "t_address": {
        "encoding": "inplace",
        "label": "address",
        "numberOfBytes": "20"
      },
      "t_array(t_bytes32)dyn_storage": {
        "base": "t_bytes32",
        "encoding": "dynamic_array",
        "label": "bytes32[]",
        "numberOfBytes": "32"
      },
      "t_bool": {
        "encoding": "inplace",
        "label": "bool",
        "numberOfBytes": "1"
      },
      "t_bytes32": {
        "encoding": "inplace",
        "label": "bytes32",
        "numberOfBytes": "32"
      },
      "t_bytes_storage": {
        "encoding": "bytes",
        "label": "bytes",
        "numberOfBytes": "32"
      },
      "t_mapping(t_address,t_bool)": {
        "encoding": "mapping",
        "key": "t_address",
        "label": "mapping(address => bool)",
        "numberOfBytes": "32",
        "value": "t_bool"
      },
      "t_mapping(t_address,t_mapping(t_address,t_bool))": {
        "encoding": "mapping",
        "key": "t_address",
        "label": "mapping(address => mapping(address => bool))",
        "numberOfBytes": "32",
        "value": "t_mapping(t_address,t_bool)"
      },
      "t_mapping(t_address,t_struct(UintSet)3592_storage)": {
        "encoding": "mapping",
        "key": "t_address",
        "label": "mapping(address => struct EnumerableSet.UintSet)",
        "numberOfBytes": "32",
        "value": "t_struct(UintSet)3592_storage"
      },
      "t_mapping(t_address,t_uint256)": {
        "encoding": "mapping",
        "key": "t_address",
        "label": "mapping(address => uint256)",
        "numberOfBytes": "32",
        "value": "t_uint256"
      },
      "t_mapping(t_bytes32,t_uint256)": {
        "encoding": "mapping",
        "key": "t_bytes32",
        "label": "mapping(bytes32 => uint256)",
        "numberOfBytes": "32",
        "value": "t_uint256"
      },
      "t_mapping(t_uint256,t_bytes_storage)": {
        "encoding": "mapping",
        "key": "t_uint256",
        "label": "mapping(uint256 => bytes)",
        "numberOfBytes": "32",
        "value": "t_bytes_storage"
      },
      "t_mapping(t_uint256,t_mapping(t_address,t_uint256))": {
        "encoding": "mapping",
        "key": "t_uint256",
        "label": "mapping(uint256 => mapping(address => uint256))",
        "numberOfBytes": "32",
        "value": "t_mapping(t_address,t_uint256)"
      },
      "t_string_storage": {
        "encoding": "bytes",
        "label": "string",
        "numberOfBytes": "32"
      },
      "t_struct(Counter)2693_storage": {
        "encoding": "inplace",
        "label": "struct Counters.Counter",
        "members": [
          {
            "astId": 2692,
            "contract": "contracts/modules/LockedSmartHousingToken.sol:LkSHT",
            "label": "_value",
            "offset": 0,
            "slot": "0",
            "type": "t_uint256"
          }
        ],
        "numberOfBytes": "32"
      },
      "t_struct(Set)3120_storage": {
        "encoding": "inplace",
        "label": "struct EnumerableSet.Set",
        "members": [
          {
            "astId": 3115,
            "contract": "contracts/modules/LockedSmartHousingToken.sol:LkSHT",
            "label": "_values",
            "offset": 0,
            "slot": "0",
            "type": "t_array(t_bytes32)dyn_storage"
          },
          {
            "astId": 3119,
            "contract": "contracts/modules/LockedSmartHousingToken.sol:LkSHT",
            "label": "_indexes",
            "offset": 0,
            "slot": "1",
            "type": "t_mapping(t_bytes32,t_uint256)"
          }
        ],
        "numberOfBytes": "64"
      },
      "t_struct(UintSet)3592_storage": {
        "encoding": "inplace",
        "label": "struct EnumerableSet.UintSet",
        "members": [
          {
            "astId": 3591,
            "contract": "contracts/modules/LockedSmartHousingToken.sol:LkSHT",
            "label": "_inner",
            "offset": 0,
            "slot": "0",
            "type": "t_struct(Set)3120_storage"
          }
        ],
        "numberOfBytes": "64"
      },
      "t_uint256": {
        "encoding": "inplace",
        "label": "uint256",
        "numberOfBytes": "32"
      }
    }
  }
}